{"src/LpToken.sol":{"LpToken":{"abi":[{"inputs":[{"internalType":"string","name":"pairSymbol","type":"string"}],"stateMutability":"nonpayable","type":"constructor"},{"anonymous":false,"inputs":[{"indexed":true,"internalType":"address","name":"owner","type":"address"},{"indexed":true,"internalType":"address","name":"spender","type":"address"},{"indexed":false,"internalType":"uint256","name":"amount","type":"uint256"}],"name":"Approval","type":"event"},{"anonymous":false,"inputs":[{"indexed":true,"internalType":"address","name":"user","type":"address"},{"indexed":true,"internalType":"address","name":"newOwner","type":"address"}],"name":"OwnershipTransferred","type":"event"},{"anonymous":false,"inputs":[{"indexed":true,"internalType":"address","name":"from","type":"address"},{"indexed":true,"internalType":"address","name":"to","type":"address"},{"indexed":false,"internalType":"uint256","name":"amount","type":"uint256"}],"name":"Transfer","type":"event"},{"inputs":[],"name":"DOMAIN_SEPARATOR","outputs":[{"internalType":"bytes32","name":"","type":"bytes32"}],"stateMutability":"view","type":"function"},{"inputs":[{"internalType":"address","name":"","type":"address"},{"internalType":"address","name":"","type":"address"}],"name":"allowance","outputs":[{"internalType":"uint256","name":"","type":"uint256"}],"stateMutability":"view","type":"function"},{"inputs":[{"internalType":"address","name":"spender","type":"address"},{"internalType":"uint256","name":"amount","type":"uint256"}],"name":"approve","outputs":[{"internalType":"bool","name":"","type":"bool"}],"stateMutability":"nonpayable","type":"function"},{"inputs":[{"internalType":"address","name":"","type":"address"}],"name":"balanceOf","outputs":[{"internalType":"uint256","name":"","type":"uint256"}],"stateMutability":"view","type":"function"},{"inputs":[{"internalType":"address","name":"from","type":"address"},{"internalType":"uint256","name":"amount","type":"uint256"}],"name":"burn","outputs":[],"stateMutability":"nonpayable","type":"function"},{"inputs":[],"name":"decimals","outputs":[{"internalType":"uint8","name":"","type":"uint8"}],"stateMutability":"view","type":"function"},{"inputs":[{"internalType":"address","name":"to","type":"address"},{"internalType":"uint256","name":"amount","type":"uint256"}],"name":"mint","outputs":[],"stateMutability":"nonpayable","type":"function"},{"inputs":[],"name":"name","outputs":[{"internalType":"string","name":"","type":"string"}],"stateMutability":"view","type":"function"},{"inputs":[{"internalType":"address","name":"","type":"address"}],"name":"nonces","outputs":[{"internalType":"uint256","name":"","type":"uint256"}],"stateMutability":"view","type":"function"},{"inputs":[],"name":"owner","outputs":[{"internalType":"address","name":"","type":"address"}],"stateMutability":"view","type":"function"},{"inputs":[{"internalType":"address","name":"owner","type":"address"},{"internalType":"address","name":"spender","type":"address"},{"internalType":"uint256","name":"value","type":"uint256"},{"internalType":"uint256","name":"deadline","type":"uint256"},{"internalType":"uint8","name":"v","type":"uint8"},{"internalType":"bytes32","name":"r","type":"bytes32"},{"internalType":"bytes32","name":"s","type":"bytes32"}],"name":"permit","outputs":[],"stateMutability":"nonpayable","type":"function"},{"inputs":[],"name":"symbol","outputs":[{"internalType":"string","name":"","type":"string"}],"stateMutability":"view","type":"function"},{"inputs":[],"name":"totalSupply","outputs":[{"internalType":"uint256","name":"","type":"uint256"}],"stateMutability":"view","type":"function"},{"inputs":[{"internalType":"address","name":"to","type":"address"},{"internalType":"uint256","name":"amount","type":"uint256"}],"name":"transfer","outputs":[{"internalType":"bool","name":"","type":"bool"}],"stateMutability":"nonpayable","type":"function"},{"inputs":[{"internalType":"address","name":"from","type":"address"},{"internalType":"address","name":"to","type":"address"},{"internalType":"uint256","name":"amount","type":"uint256"}],"name":"transferFrom","outputs":[{"internalType":"bool","name":"","type":"bool"}],"stateMutability":"nonpayable","type":"function"},{"inputs":[{"internalType":"address","name":"newOwner","type":"address"}],"name":"transferOwnership","outputs":[],"stateMutability":"nonpayable","type":"function"}],"evm":{"bytecode":{"linkReferences":{},"object":"60e06040523480156200001157600080fd5b506040516200134f3803806200134f8339810160408190526200003491620001d5565b806040516020016200004791906200028d565b60405160208183030381529060405281604051602001620000699190620002bc565b60408051601f1981840301815290829052600080546001600160a01b03191633908117825591926012929182917f8be0079c531659141344cd1fd0a4f28419497f9722a3daafe3b4186f6b6457e0908290a3506001620000ca848262000378565b506002620000d9838262000378565b5060ff81166080524660a052620000ef620000fd565b60c05250620004c292505050565b60007f8b73c3c69bb8fe3d512ecc4cf759cc79239f7b179b0ffacaa9a75d522b39400f600160405162000131919062000444565b6040805191829003822060208301939093528101919091527fc89efdaa54c0f20c7adf612882df0950f5a951637e0307cdcb4c672f298b8bc660608201524660808201523060a082015260c00160405160208183030381529060405280519060200120905090565b634e487b7160e01b600052604160045260246000fd5b60005b83811015620001cc578181015183820152602001620001b2565b50506000910152565b600060208284031215620001e857600080fd5b81516001600160401b03808211156200020057600080fd5b818401915084601f8301126200021557600080fd5b8151818111156200022a576200022a62000199565b604051601f8201601f19908116603f0116810190838211818310171562000255576200025562000199565b816040528281528760208487010111156200026f57600080fd5b62000282836020830160208801620001af565b979650505050505050565b60008251620002a1818460208701620001af565b68102628103a37b5b2b760b91b920191825250600901919050565b624c502d60e81b815260008251620002dc816003850160208701620001af565b9190910160030192915050565b600181811c90821680620002fe57607f821691505b6020821081036200031f57634e487b7160e01b600052602260045260246000fd5b50919050565b601f8211156200037357600081815260208120601f850160051c810160208610156200034e5750805b601f850160051c820191505b818110156200036f578281556001016200035a565b5050505b505050565b81516001600160401b0381111562000394576200039462000199565b620003ac81620003a58454620002e9565b8462000325565b602080601f831160018114620003e45760008415620003cb5750858301515b600019600386901b1c1916600185901b1785556200036f565b600085815260208120601f198616915b828110156200041557888601518255948401946001909101908401620003f4565b5085821015620004345787850151600019600388901b60f8161c191681555b5050505050600190811b01905550565b60008083546200045481620002e9565b600182811680156200046f57600181146200048557620004b6565b60ff1984168752821515830287019450620004b6565b8760005260208060002060005b85811015620004ad5781548a82015290840190820162000492565b50505082870194505b50929695505050505050565b60805160a05160c051610e5d620004f260003960006104f4015260006104bf015260006101750152610e5d6000f3fe608060405234801561001057600080fd5b50600436106101005760003560e01c80637ecebe0011610097578063a9059cbb11610066578063a9059cbb1461024c578063d505accf1461025f578063dd62ed3e14610272578063f2fde38b1461029d57600080fd5b80637ecebe00146101e65780638da5cb5b1461020657806395d89b41146102315780639dc29fac1461023957600080fd5b8063313ce567116100d3578063313ce567146101705780633644e515146101a957806340c10f19146101b157806370a08231146101c657600080fd5b806306fdde0314610105578063095ea7b31461012357806318160ddd1461014657806323b872dd1461015d575b600080fd5b61010d6102b0565b60405161011a9190610b11565b60405180910390f35b610136610131366004610b7b565b61033e565b604051901515815260200161011a565b61014f60035481565b60405190815260200161011a565b61013661016b366004610ba5565b6103ab565b6101977f000000000000000000000000000000000000000000000000000000000000000081565b60405160ff909116815260200161011a565b61014f6104bb565b6101c46101bf366004610b7b565b610516565b005b61014f6101d4366004610be1565b60046020526000908152604090205481565b61014f6101f4366004610be1565b60066020526000908152604090205481565b600054610219906001600160a01b031681565b6040516001600160a01b03909116815260200161011a565b61010d610583565b6101c4610247366004610b7b565b610590565b61013661025a366004610b7b565b6105f4565b6101c461026d366004610c03565b61066c565b61014f610280366004610c76565b600560209081526000928352604080842090915290825290205481565b6101c46102ab366004610be1565b6108da565b600180546102bd90610ca9565b80601f01602080910402602001604051908101604052809291908181526020018280546102e990610ca9565b80156103365780601f1061030b57610100808354040283529160200191610336565b820191906000526020600020905b81548152906001019060200180831161031957829003601f168201915b505050505081565b3360008181526005602090815260408083206001600160a01b038716808552925280832085905551919290917f8c5be1e5ebec7d5bd14f71427d1e84f3dd0314c0f7b2291e5b200ac8c7c3b925906103999086815260200190565b60405180910390a35060015b92915050565b6001600160a01b03831660009081526005602090815260408083203384529091528120547fffffffffffffffffffffffffffffffffffffffffffffffffffffffffffffffff8114610425576104008382610d2b565b6001600160a01b03861660009081526005602090815260408083203384529091529020555b6001600160a01b0385166000908152600460205260408120805485929061044d908490610d2b565b90915550506001600160a01b03808516600081815260046020526040908190208054870190555190918716907fddf252ad1be2c89b69c2b068fc378daa952ba7f163c4a11628f55a4df523b3ef906104a89087815260200190565b60405180910390a3506001949350505050565b60007f000000000000000000000000000000000000000000000000000000000000000046146104f1576104ec610997565b905090565b507f000000000000000000000000000000000000000000000000000000000000000090565b6000546001600160a01b031633146105755760405162461bcd60e51b815260206004820152600c60248201527f554e415554484f52495a4544000000000000000000000000000000000000000060448201526064015b60405180910390fd5b61057f8282610a31565b5050565b600280546102bd90610ca9565b6000546001600160a01b031633146105ea5760405162461bcd60e51b815260206004820152600c60248201527f554e415554484f52495a45440000000000000000000000000000000000000000604482015260640161056c565b61057f8282610a9d565b33600090815260046020526040812080548391908390610615908490610d2b565b90915550506001600160a01b038316600081815260046020526040908190208054850190555133907fddf252ad1be2c89b69c2b068fc378daa952ba7f163c4a11628f55a4df523b3ef906103999086815260200190565b428410156106bc5760405162461bcd60e51b815260206004820152601760248201527f5045524d49545f444541444c494e455f45585049524544000000000000000000604482015260640161056c565b600060016106c86104bb565b6001600160a01b038a811660008181526006602090815260409182902080546001810190915582517f6e71edae12b1b97f4d1f60370fef10105fa2faae0126114a169c64845d6126c98184015280840194909452938d166060840152608083018c905260a083019390935260c08083018b90528151808403909101815260e0830190915280519201919091207f19010000000000000000000000000000000000000000000000000000000000006101008301526101028201929092526101228101919091526101420160408051601f198184030181528282528051602091820120600084529083018083525260ff871690820152606081018590526080810184905260a0016020604051602081039080840390855afa1580156107ef573d6000803e3d6000fd5b5050604051601f1901519150506001600160a01b038116158015906108255750876001600160a01b0316816001600160a01b0316145b6108715760405162461bcd60e51b815260206004820152600e60248201527f494e56414c49445f5349474e4552000000000000000000000000000000000000604482015260640161056c565b6001600160a01b0390811660009081526005602090815260408083208a8516808552908352928190208990555188815291928a16917f8c5be1e5ebec7d5bd14f71427d1e84f3dd0314c0f7b2291e5b200ac8c7c3b925910160405180910390a350505050505050565b6000546001600160a01b031633146109345760405162461bcd60e51b815260206004820152600c60248201527f554e415554484f52495a45440000000000000000000000000000000000000000604482015260640161056c565b600080547fffffffffffffffffffffffff0000000000000000000000000000000000000000166001600160a01b0383169081178255604051909133917f8be0079c531659141344cd1fd0a4f28419497f9722a3daafe3b4186f6b6457e09190a350565b60007f8b73c3c69bb8fe3d512ecc4cf759cc79239f7b179b0ffacaa9a75d522b39400f60016040516109c99190610d3e565b6040805191829003822060208301939093528101919091527fc89efdaa54c0f20c7adf612882df0950f5a951637e0307cdcb4c672f298b8bc660608201524660808201523060a082015260c00160405160208183030381529060405280519060200120905090565b8060036000828254610a439190610e14565b90915550506001600160a01b0382166000818152600460209081526040808320805486019055518481527fddf252ad1be2c89b69c2b068fc378daa952ba7f163c4a11628f55a4df523b3ef91015b60405180910390a35050565b6001600160a01b03821660009081526004602052604081208054839290610ac5908490610d2b565b90915550506003805482900390556040518181526000906001600160a01b038416907fddf252ad1be2c89b69c2b068fc378daa952ba7f163c4a11628f55a4df523b3ef90602001610a91565b600060208083528351808285015260005b81811015610b3e57858101830151858201604001528201610b22565b506000604082860101526040601f19601f8301168501019250505092915050565b80356001600160a01b0381168114610b7657600080fd5b919050565b60008060408385031215610b8e57600080fd5b610b9783610b5f565b946020939093013593505050565b600080600060608486031215610bba57600080fd5b610bc384610b5f565b9250610bd160208501610b5f565b9150604084013590509250925092565b600060208284031215610bf357600080fd5b610bfc82610b5f565b9392505050565b600080600080600080600060e0888a031215610c1e57600080fd5b610c2788610b5f565b9650610c3560208901610b5f565b95506040880135945060608801359350608088013560ff81168114610c5957600080fd5b9699959850939692959460a0840135945060c09093013592915050565b60008060408385031215610c8957600080fd5b610c9283610b5f565b9150610ca060208401610b5f565b90509250929050565b600181811c90821680610cbd57607f821691505b602082108103610cf6577f4e487b7100000000000000000000000000000000000000000000000000000000600052602260045260246000fd5b50919050565b7f4e487b7100000000000000000000000000000000000000000000000000000000600052601160045260246000fd5b818103818111156103a5576103a5610cfc565b600080835481600182811c915080831680610d5a57607f831692505b60208084108203610d92577f4e487b710000000000000000000000000000000000000000000000000000000086526022600452602486fd5b818015610da65760018114610dd957610e06565b7fffffffffffffffffffffffffffffffffffffffffffffffffffffffffffffff0086168952841515850289019650610e06565b60008a81526020902060005b86811015610dfe5781548b820152908501908301610de5565b505084890196505b509498975050505050505050565b808201808211156103a5576103a5610cfc56fea2646970667358221220271ac5991af75f2356d2f071bd3392a2e11d82cec691ff56b50dab898e3b3afa64736f6c63430008110033","opcodes":"PUSH1 0xE0 PUSH1 0x40 MSTORE CALLVALUE DUP1 ISZERO PUSH3 0x11 JUMPI PUSH1 0x0 DUP1 REVERT JUMPDEST POP PUSH1 0x40 MLOAD PUSH3 0x134F CODESIZE SUB DUP1 PUSH3 0x134F DUP4 CODECOPY DUP2 ADD PUSH1 0x40 DUP2 SWAP1 MSTORE PUSH3 0x34 SWAP2 PUSH3 0x1D5 JUMP JUMPDEST DUP1 PUSH1 0x40 MLOAD PUSH1 0x20 ADD PUSH3 0x47 SWAP2 SWAP1 PUSH3 0x28D JUMP JUMPDEST PUSH1 0x40 MLOAD PUSH1 0x20 DUP2 DUP4 SUB SUB DUP2 MSTORE SWAP1 PUSH1 0x40 MSTORE DUP2 PUSH1 0x40 MLOAD PUSH1 0x20 ADD PUSH3 0x69 SWAP2 SWAP1 PUSH3 0x2BC JUMP JUMPDEST PUSH1 0x40 DUP1 MLOAD PUSH1 0x1F NOT DUP2 DUP5 SUB ADD DUP2 MSTORE SWAP1 DUP3 SWAP1 MSTORE PUSH1 0x0 DUP1 SLOAD PUSH1 0x1 PUSH1 0x1 PUSH1 0xA0 SHL SUB NOT AND CALLER SWAP1 DUP2 OR DUP3 SSTORE SWAP2 SWAP3 PUSH1 0x12 SWAP3 SWAP2 DUP3 SWAP2 PUSH32 0x8BE0079C531659141344CD1FD0A4F28419497F9722A3DAAFE3B4186F6B6457E0 SWAP1 DUP3 SWAP1 LOG3 POP PUSH1 0x1 PUSH3 0xCA DUP5 DUP3 PUSH3 0x378 JUMP JUMPDEST POP PUSH1 0x2 PUSH3 0xD9 DUP4 DUP3 PUSH3 0x378 JUMP JUMPDEST POP PUSH1 0xFF DUP2 AND PUSH1 0x80 MSTORE CHAINID PUSH1 0xA0 MSTORE PUSH3 0xEF PUSH3 0xFD JUMP JUMPDEST PUSH1 0xC0 MSTORE POP PUSH3 0x4C2 SWAP3 POP POP POP JUMP JUMPDEST PUSH1 0x0 PUSH32 0x8B73C3C69BB8FE3D512ECC4CF759CC79239F7B179B0FFACAA9A75D522B39400F PUSH1 0x1 PUSH1 0x40 MLOAD PUSH3 0x131 SWAP2 SWAP1 PUSH3 0x444 JUMP JUMPDEST PUSH1 0x40 DUP1 MLOAD SWAP2 DUP3 SWAP1 SUB DUP3 KECCAK256 PUSH1 0x20 DUP4 ADD SWAP4 SWAP1 SWAP4 MSTORE DUP2 ADD SWAP2 SWAP1 SWAP2 MSTORE PUSH32 0xC89EFDAA54C0F20C7ADF612882DF0950F5A951637E0307CDCB4C672F298B8BC6 PUSH1 0x60 DUP3 ADD MSTORE CHAINID PUSH1 0x80 DUP3 ADD MSTORE ADDRESS PUSH1 0xA0 DUP3 ADD MSTORE PUSH1 0xC0 ADD PUSH1 0x40 MLOAD PUSH1 0x20 DUP2 DUP4 SUB SUB DUP2 MSTORE SWAP1 PUSH1 0x40 MSTORE DUP1 MLOAD SWAP1 PUSH1 0x20 ADD KECCAK256 SWAP1 POP SWAP1 JUMP JUMPDEST PUSH4 0x4E487B71 PUSH1 0xE0 SHL PUSH1 0x0 MSTORE PUSH1 0x41 PUSH1 0x4 MSTORE PUSH1 0x24 PUSH1 0x0 REVERT JUMPDEST PUSH1 0x0 JUMPDEST DUP4 DUP2 LT ISZERO PUSH3 0x1CC JUMPI DUP2 DUP2 ADD MLOAD DUP4 DUP3 ADD MSTORE PUSH1 0x20 ADD PUSH3 0x1B2 JUMP JUMPDEST POP POP PUSH1 0x0 SWAP2 ADD MSTORE JUMP JUMPDEST PUSH1 0x0 PUSH1 0x20 DUP3 DUP5 SUB SLT ISZERO PUSH3 0x1E8 JUMPI PUSH1 0x0 DUP1 REVERT JUMPDEST DUP2 MLOAD PUSH1 0x1 PUSH1 0x1 PUSH1 0x40 SHL SUB DUP1 DUP3 GT ISZERO PUSH3 0x200 JUMPI PUSH1 0x0 DUP1 REVERT JUMPDEST DUP2 DUP5 ADD SWAP2 POP DUP5 PUSH1 0x1F DUP4 ADD SLT PUSH3 0x215 JUMPI PUSH1 0x0 DUP1 REVERT JUMPDEST DUP2 MLOAD DUP2 DUP2 GT ISZERO PUSH3 0x22A JUMPI PUSH3 0x22A PUSH3 0x199 JUMP JUMPDEST PUSH1 0x40 MLOAD PUSH1 0x1F DUP3 ADD PUSH1 0x1F NOT SWAP1 DUP2 AND PUSH1 0x3F ADD AND DUP2 ADD SWAP1 DUP4 DUP3 GT DUP2 DUP4 LT OR ISZERO PUSH3 0x255 JUMPI PUSH3 0x255 PUSH3 0x199 JUMP JUMPDEST DUP2 PUSH1 0x40 MSTORE DUP3 DUP2 MSTORE DUP8 PUSH1 0x20 DUP5 DUP8 ADD ADD GT ISZERO PUSH3 0x26F JUMPI PUSH1 0x0 DUP1 REVERT JUMPDEST PUSH3 0x282 DUP4 PUSH1 0x20 DUP4 ADD PUSH1 0x20 DUP9 ADD PUSH3 0x1AF JUMP JUMPDEST SWAP8 SWAP7 POP POP POP POP POP POP POP JUMP JUMPDEST PUSH1 0x0 DUP3 MLOAD PUSH3 0x2A1 DUP2 DUP5 PUSH1 0x20 DUP8 ADD PUSH3 0x1AF JUMP JUMPDEST PUSH9 0x102628103A37B5B2B7 PUSH1 0xB9 SHL SWAP3 ADD SWAP2 DUP3 MSTORE POP PUSH1 0x9 ADD SWAP2 SWAP1 POP JUMP JUMPDEST PUSH3 0x4C502D PUSH1 0xE8 SHL DUP2 MSTORE PUSH1 0x0 DUP3 MLOAD PUSH3 0x2DC DUP2 PUSH1 0x3 DUP6 ADD PUSH1 0x20 DUP8 ADD PUSH3 0x1AF JUMP JUMPDEST SWAP2 SWAP1 SWAP2 ADD PUSH1 0x3 ADD SWAP3 SWAP2 POP POP JUMP JUMPDEST PUSH1 0x1 DUP2 DUP2 SHR SWAP1 DUP3 AND DUP1 PUSH3 0x2FE JUMPI PUSH1 0x7F DUP3 AND SWAP2 POP JUMPDEST PUSH1 0x20 DUP3 LT DUP2 SUB PUSH3 0x31F JUMPI PUSH4 0x4E487B71 PUSH1 0xE0 SHL PUSH1 0x0 MSTORE PUSH1 0x22 PUSH1 0x4 MSTORE PUSH1 0x24 PUSH1 0x0 REVERT JUMPDEST POP SWAP2 SWAP1 POP JUMP JUMPDEST PUSH1 0x1F DUP3 GT ISZERO PUSH3 0x373 JUMPI PUSH1 0x0 DUP2 DUP2 MSTORE PUSH1 0x20 DUP2 KECCAK256 PUSH1 0x1F DUP6 ADD PUSH1 0x5 SHR DUP2 ADD PUSH1 0x20 DUP7 LT ISZERO PUSH3 0x34E JUMPI POP DUP1 JUMPDEST PUSH1 0x1F DUP6 ADD PUSH1 0x5 SHR DUP3 ADD SWAP2 POP JUMPDEST DUP2 DUP2 LT ISZERO PUSH3 0x36F JUMPI DUP3 DUP2 SSTORE PUSH1 0x1 ADD PUSH3 0x35A JUMP JUMPDEST POP POP POP JUMPDEST POP POP POP JUMP JUMPDEST DUP2 MLOAD PUSH1 0x1 PUSH1 0x1 PUSH1 0x40 SHL SUB DUP2 GT ISZERO PUSH3 0x394 JUMPI PUSH3 0x394 PUSH3 0x199 JUMP JUMPDEST PUSH3 0x3AC DUP2 PUSH3 0x3A5 DUP5 SLOAD PUSH3 0x2E9 JUMP JUMPDEST DUP5 PUSH3 0x325 JUMP JUMPDEST PUSH1 0x20 DUP1 PUSH1 0x1F DUP4 GT PUSH1 0x1 DUP2 EQ PUSH3 0x3E4 JUMPI PUSH1 0x0 DUP5 ISZERO PUSH3 0x3CB JUMPI POP DUP6 DUP4 ADD MLOAD JUMPDEST PUSH1 0x0 NOT PUSH1 0x3 DUP7 SWAP1 SHL SHR NOT AND PUSH1 0x1 DUP6 SWAP1 SHL OR DUP6 SSTORE PUSH3 0x36F JUMP JUMPDEST PUSH1 0x0 DUP6 DUP2 MSTORE PUSH1 0x20 DUP2 KECCAK256 PUSH1 0x1F NOT DUP7 AND SWAP2 JUMPDEST DUP3 DUP2 LT ISZERO PUSH3 0x415 JUMPI DUP9 DUP7 ADD MLOAD DUP3 SSTORE SWAP5 DUP5 ADD SWAP5 PUSH1 0x1 SWAP1 SWAP2 ADD SWAP1 DUP5 ADD PUSH3 0x3F4 JUMP JUMPDEST POP DUP6 DUP3 LT ISZERO PUSH3 0x434 JUMPI DUP8 DUP6 ADD MLOAD PUSH1 0x0 NOT PUSH1 0x3 DUP9 SWAP1 SHL PUSH1 0xF8 AND SHR NOT AND DUP2 SSTORE JUMPDEST POP POP POP POP POP PUSH1 0x1 SWAP1 DUP2 SHL ADD SWAP1 SSTORE POP JUMP JUMPDEST PUSH1 0x0 DUP1 DUP4 SLOAD PUSH3 0x454 DUP2 PUSH3 0x2E9 JUMP JUMPDEST PUSH1 0x1 DUP3 DUP2 AND DUP1 ISZERO PUSH3 0x46F JUMPI PUSH1 0x1 DUP2 EQ PUSH3 0x485 JUMPI PUSH3 0x4B6 JUMP JUMPDEST PUSH1 0xFF NOT DUP5 AND DUP8 MSTORE DUP3 ISZERO ISZERO DUP4 MUL DUP8 ADD SWAP5 POP PUSH3 0x4B6 JUMP JUMPDEST DUP8 PUSH1 0x0 MSTORE PUSH1 0x20 DUP1 PUSH1 0x0 KECCAK256 PUSH1 0x0 JUMPDEST DUP6 DUP2 LT ISZERO PUSH3 0x4AD JUMPI DUP2 SLOAD DUP11 DUP3 ADD MSTORE SWAP1 DUP5 ADD SWAP1 DUP3 ADD PUSH3 0x492 JUMP JUMPDEST POP POP POP DUP3 DUP8 ADD SWAP5 POP JUMPDEST POP SWAP3 SWAP7 SWAP6 POP POP POP POP POP POP JUMP JUMPDEST PUSH1 0x80 MLOAD PUSH1 0xA0 MLOAD PUSH1 0xC0 MLOAD PUSH2 0xE5D PUSH3 0x4F2 PUSH1 0x0 CODECOPY PUSH1 0x0 PUSH2 0x4F4 ADD MSTORE PUSH1 0x0 PUSH2 0x4BF ADD MSTORE PUSH1 0x0 PUSH2 0x175 ADD MSTORE PUSH2 0xE5D PUSH1 0x0 RETURN INVALID PUSH1 0x80 PUSH1 0x40 MSTORE CALLVALUE DUP1 ISZERO PUSH2 0x10 JUMPI PUSH1 0x0 DUP1 REVERT JUMPDEST POP PUSH1 0x4 CALLDATASIZE LT PUSH2 0x100 JUMPI PUSH1 0x0 CALLDATALOAD PUSH1 0xE0 SHR DUP1 PUSH4 0x7ECEBE00 GT PUSH2 0x97 JUMPI DUP1 PUSH4 0xA9059CBB GT PUSH2 0x66 JUMPI DUP1 PUSH4 0xA9059CBB EQ PUSH2 0x24C JUMPI DUP1 PUSH4 0xD505ACCF EQ PUSH2 0x25F JUMPI DUP1 PUSH4 0xDD62ED3E EQ PUSH2 0x272 JUMPI DUP1 PUSH4 0xF2FDE38B EQ PUSH2 0x29D JUMPI PUSH1 0x0 DUP1 REVERT JUMPDEST DUP1 PUSH4 0x7ECEBE00 EQ PUSH2 0x1E6 JUMPI DUP1 PUSH4 0x8DA5CB5B EQ PUSH2 0x206 JUMPI DUP1 PUSH4 0x95D89B41 EQ PUSH2 0x231 JUMPI DUP1 PUSH4 0x9DC29FAC EQ PUSH2 0x239 JUMPI PUSH1 0x0 DUP1 REVERT JUMPDEST DUP1 PUSH4 0x313CE567 GT PUSH2 0xD3 JUMPI DUP1 PUSH4 0x313CE567 EQ PUSH2 0x170 JUMPI DUP1 PUSH4 0x3644E515 EQ PUSH2 0x1A9 JUMPI DUP1 PUSH4 0x40C10F19 EQ PUSH2 0x1B1 JUMPI DUP1 PUSH4 0x70A08231 EQ PUSH2 0x1C6 JUMPI PUSH1 0x0 DUP1 REVERT JUMPDEST DUP1 PUSH4 0x6FDDE03 EQ PUSH2 0x105 JUMPI DUP1 PUSH4 0x95EA7B3 EQ PUSH2 0x123 JUMPI DUP1 PUSH4 0x18160DDD EQ PUSH2 0x146 JUMPI DUP1 PUSH4 0x23B872DD EQ PUSH2 0x15D JUMPI JUMPDEST PUSH1 0x0 DUP1 REVERT JUMPDEST PUSH2 0x10D PUSH2 0x2B0 JUMP JUMPDEST PUSH1 0x40 MLOAD PUSH2 0x11A SWAP2 SWAP1 PUSH2 0xB11 JUMP JUMPDEST PUSH1 0x40 MLOAD DUP1 SWAP2 SUB SWAP1 RETURN JUMPDEST PUSH2 0x136 PUSH2 0x131 CALLDATASIZE PUSH1 0x4 PUSH2 0xB7B JUMP JUMPDEST PUSH2 0x33E JUMP JUMPDEST PUSH1 0x40 MLOAD SWAP1 ISZERO ISZERO DUP2 MSTORE PUSH1 0x20 ADD PUSH2 0x11A JUMP JUMPDEST PUSH2 0x14F PUSH1 0x3 SLOAD DUP2 JUMP JUMPDEST PUSH1 0x40 MLOAD SWAP1 DUP2 MSTORE PUSH1 0x20 ADD PUSH2 0x11A JUMP JUMPDEST PUSH2 0x136 PUSH2 0x16B CALLDATASIZE PUSH1 0x4 PUSH2 0xBA5 JUMP JUMPDEST PUSH2 0x3AB JUMP JUMPDEST PUSH2 0x197 PUSH32 0x0 DUP2 JUMP JUMPDEST PUSH1 0x40 MLOAD PUSH1 0xFF SWAP1 SWAP2 AND DUP2 MSTORE PUSH1 0x20 ADD PUSH2 0x11A JUMP JUMPDEST PUSH2 0x14F PUSH2 0x4BB JUMP JUMPDEST PUSH2 0x1C4 PUSH2 0x1BF CALLDATASIZE PUSH1 0x4 PUSH2 0xB7B JUMP JUMPDEST PUSH2 0x516 JUMP JUMPDEST STOP JUMPDEST PUSH2 0x14F PUSH2 0x1D4 CALLDATASIZE PUSH1 0x4 PUSH2 0xBE1 JUMP JUMPDEST PUSH1 0x4 PUSH1 0x20 MSTORE PUSH1 0x0 SWAP1 DUP2 MSTORE PUSH1 0x40 SWAP1 KECCAK256 SLOAD DUP2 JUMP JUMPDEST PUSH2 0x14F PUSH2 0x1F4 CALLDATASIZE PUSH1 0x4 PUSH2 0xBE1 JUMP JUMPDEST PUSH1 0x6 PUSH1 0x20 MSTORE PUSH1 0x0 SWAP1 DUP2 MSTORE PUSH1 0x40 SWAP1 KECCAK256 SLOAD DUP2 JUMP JUMPDEST PUSH1 0x0 SLOAD PUSH2 0x219 SWAP1 PUSH1 0x1 PUSH1 0x1 PUSH1 0xA0 SHL SUB AND DUP2 JUMP JUMPDEST PUSH1 0x40 MLOAD PUSH1 0x1 PUSH1 0x1 PUSH1 0xA0 SHL SUB SWAP1 SWAP2 AND DUP2 MSTORE PUSH1 0x20 ADD PUSH2 0x11A JUMP JUMPDEST PUSH2 0x10D PUSH2 0x583 JUMP JUMPDEST PUSH2 0x1C4 PUSH2 0x247 CALLDATASIZE PUSH1 0x4 PUSH2 0xB7B JUMP JUMPDEST PUSH2 0x590 JUMP JUMPDEST PUSH2 0x136 PUSH2 0x25A CALLDATASIZE PUSH1 0x4 PUSH2 0xB7B JUMP JUMPDEST PUSH2 0x5F4 JUMP JUMPDEST PUSH2 0x1C4 PUSH2 0x26D CALLDATASIZE PUSH1 0x4 PUSH2 0xC03 JUMP JUMPDEST PUSH2 0x66C JUMP JUMPDEST PUSH2 0x14F PUSH2 0x280 CALLDATASIZE PUSH1 0x4 PUSH2 0xC76 JUMP JUMPDEST PUSH1 0x5 PUSH1 0x20 SWAP1 DUP2 MSTORE PUSH1 0x0 SWAP3 DUP4 MSTORE PUSH1 0x40 DUP1 DUP5 KECCAK256 SWAP1 SWAP2 MSTORE SWAP1 DUP3 MSTORE SWAP1 KECCAK256 SLOAD DUP2 JUMP JUMPDEST PUSH2 0x1C4 PUSH2 0x2AB CALLDATASIZE PUSH1 0x4 PUSH2 0xBE1 JUMP JUMPDEST PUSH2 0x8DA JUMP JUMPDEST PUSH1 0x1 DUP1 SLOAD PUSH2 0x2BD SWAP1 PUSH2 0xCA9 JUMP JUMPDEST DUP1 PUSH1 0x1F ADD PUSH1 0x20 DUP1 SWAP2 DIV MUL PUSH1 0x20 ADD PUSH1 0x40 MLOAD SWAP1 DUP2 ADD PUSH1 0x40 MSTORE DUP1 SWAP3 SWAP2 SWAP1 DUP2 DUP2 MSTORE PUSH1 0x20 ADD DUP3 DUP1 SLOAD PUSH2 0x2E9 SWAP1 PUSH2 0xCA9 JUMP JUMPDEST DUP1 ISZERO PUSH2 0x336 JUMPI DUP1 PUSH1 0x1F LT PUSH2 0x30B JUMPI PUSH2 0x100 DUP1 DUP4 SLOAD DIV MUL DUP4 MSTORE SWAP2 PUSH1 0x20 ADD SWAP2 PUSH2 0x336 JUMP JUMPDEST DUP3 ADD SWAP2 SWAP1 PUSH1 0x0 MSTORE PUSH1 0x20 PUSH1 0x0 KECCAK256 SWAP1 JUMPDEST DUP2 SLOAD DUP2 MSTORE SWAP1 PUSH1 0x1 ADD SWAP1 PUSH1 0x20 ADD DUP1 DUP4 GT PUSH2 0x319 JUMPI DUP3 SWAP1 SUB PUSH1 0x1F AND DUP3 ADD SWAP2 JUMPDEST POP POP POP POP POP DUP2 JUMP JUMPDEST CALLER PUSH1 0x0 DUP2 DUP2 MSTORE PUSH1 0x5 PUSH1 0x20 SWAP1 DUP2 MSTORE PUSH1 0x40 DUP1 DUP4 KECCAK256 PUSH1 0x1 PUSH1 0x1 PUSH1 0xA0 SHL SUB DUP8 AND DUP1 DUP6 MSTORE SWAP3 MSTORE DUP1 DUP4 KECCAK256 DUP6 SWAP1 SSTORE MLOAD SWAP2 SWAP3 SWAP1 SWAP2 PUSH32 0x8C5BE1E5EBEC7D5BD14F71427D1E84F3DD0314C0F7B2291E5B200AC8C7C3B925 SWAP1 PUSH2 0x399 SWAP1 DUP7 DUP2 MSTORE PUSH1 0x20 ADD SWAP1 JUMP JUMPDEST PUSH1 0x40 MLOAD DUP1 SWAP2 SUB SWAP1 LOG3 POP PUSH1 0x1 JUMPDEST SWAP3 SWAP2 POP POP JUMP JUMPDEST PUSH1 0x1 PUSH1 0x1 PUSH1 0xA0 SHL SUB DUP4 AND PUSH1 0x0 SWAP1 DUP2 MSTORE PUSH1 0x5 PUSH1 0x20 SWAP1 DUP2 MSTORE PUSH1 0x40 DUP1 DUP4 KECCAK256 CALLER DUP5 MSTORE SWAP1 SWAP2 MSTORE DUP2 KECCAK256 SLOAD PUSH32 0xFFFFFFFFFFFFFFFFFFFFFFFFFFFFFFFFFFFFFFFFFFFFFFFFFFFFFFFFFFFFFFFF DUP2 EQ PUSH2 0x425 JUMPI PUSH2 0x400 DUP4 DUP3 PUSH2 0xD2B JUMP JUMPDEST PUSH1 0x1 PUSH1 0x1 PUSH1 0xA0 SHL SUB DUP7 AND PUSH1 0x0 SWAP1 DUP2 MSTORE PUSH1 0x5 PUSH1 0x20 SWAP1 DUP2 MSTORE PUSH1 0x40 DUP1 DUP4 KECCAK256 CALLER DUP5 MSTORE SWAP1 SWAP2 MSTORE SWAP1 KECCAK256 SSTORE JUMPDEST PUSH1 0x1 PUSH1 0x1 PUSH1 0xA0 SHL SUB DUP6 AND PUSH1 0x0 SWAP1 DUP2 MSTORE PUSH1 0x4 PUSH1 0x20 MSTORE PUSH1 0x40 DUP2 KECCAK256 DUP1 SLOAD DUP6 SWAP3 SWAP1 PUSH2 0x44D SWAP1 DUP5 SWAP1 PUSH2 0xD2B JUMP JUMPDEST SWAP1 SWAP2 SSTORE POP POP PUSH1 0x1 PUSH1 0x1 PUSH1 0xA0 SHL SUB DUP1 DUP6 AND PUSH1 0x0 DUP2 DUP2 MSTORE PUSH1 0x4 PUSH1 0x20 MSTORE PUSH1 0x40 SWAP1 DUP2 SWAP1 KECCAK256 DUP1 SLOAD DUP8 ADD SWAP1 SSTORE MLOAD SWAP1 SWAP2 DUP8 AND SWAP1 PUSH32 0xDDF252AD1BE2C89B69C2B068FC378DAA952BA7F163C4A11628F55A4DF523B3EF SWAP1 PUSH2 0x4A8 SWAP1 DUP8 DUP2 MSTORE PUSH1 0x20 ADD SWAP1 JUMP JUMPDEST PUSH1 0x40 MLOAD DUP1 SWAP2 SUB SWAP1 LOG3 POP PUSH1 0x1 SWAP5 SWAP4 POP POP POP POP JUMP JUMPDEST PUSH1 0x0 PUSH32 0x0 CHAINID EQ PUSH2 0x4F1 JUMPI PUSH2 0x4EC PUSH2 0x997 JUMP JUMPDEST SWAP1 POP SWAP1 JUMP JUMPDEST POP PUSH32 0x0 SWAP1 JUMP JUMPDEST PUSH1 0x0 SLOAD PUSH1 0x1 PUSH1 0x1 PUSH1 0xA0 SHL SUB AND CALLER EQ PUSH2 0x575 JUMPI PUSH1 0x40 MLOAD PUSH3 0x461BCD PUSH1 0xE5 SHL DUP2 MSTORE PUSH1 0x20 PUSH1 0x4 DUP3 ADD MSTORE PUSH1 0xC PUSH1 0x24 DUP3 ADD MSTORE PUSH32 0x554E415554484F52495A45440000000000000000000000000000000000000000 PUSH1 0x44 DUP3 ADD MSTORE PUSH1 0x64 ADD JUMPDEST PUSH1 0x40 MLOAD DUP1 SWAP2 SUB SWAP1 REVERT JUMPDEST PUSH2 0x57F DUP3 DUP3 PUSH2 0xA31 JUMP JUMPDEST POP POP JUMP JUMPDEST PUSH1 0x2 DUP1 SLOAD PUSH2 0x2BD SWAP1 PUSH2 0xCA9 JUMP JUMPDEST PUSH1 0x0 SLOAD PUSH1 0x1 PUSH1 0x1 PUSH1 0xA0 SHL SUB AND CALLER EQ PUSH2 0x5EA JUMPI PUSH1 0x40 MLOAD PUSH3 0x461BCD PUSH1 0xE5 SHL DUP2 MSTORE PUSH1 0x20 PUSH1 0x4 DUP3 ADD MSTORE PUSH1 0xC PUSH1 0x24 DUP3 ADD MSTORE PUSH32 0x554E415554484F52495A45440000000000000000000000000000000000000000 PUSH1 0x44 DUP3 ADD MSTORE PUSH1 0x64 ADD PUSH2 0x56C JUMP JUMPDEST PUSH2 0x57F DUP3 DUP3 PUSH2 0xA9D JUMP JUMPDEST CALLER PUSH1 0x0 SWAP1 DUP2 MSTORE PUSH1 0x4 PUSH1 0x20 MSTORE PUSH1 0x40 DUP2 KECCAK256 DUP1 SLOAD DUP4 SWAP2 SWAP1 DUP4 SWAP1 PUSH2 0x615 SWAP1 DUP5 SWAP1 PUSH2 0xD2B JUMP JUMPDEST SWAP1 SWAP2 SSTORE POP POP PUSH1 0x1 PUSH1 0x1 PUSH1 0xA0 SHL SUB DUP4 AND PUSH1 0x0 DUP2 DUP2 MSTORE PUSH1 0x4 PUSH1 0x20 MSTORE PUSH1 0x40 SWAP1 DUP2 SWAP1 KECCAK256 DUP1 SLOAD DUP6 ADD SWAP1 SSTORE MLOAD CALLER SWAP1 PUSH32 0xDDF252AD1BE2C89B69C2B068FC378DAA952BA7F163C4A11628F55A4DF523B3EF SWAP1 PUSH2 0x399 SWAP1 DUP7 DUP2 MSTORE PUSH1 0x20 ADD SWAP1 JUMP JUMPDEST TIMESTAMP DUP5 LT ISZERO PUSH2 0x6BC JUMPI PUSH1 0x40 MLOAD PUSH3 0x461BCD PUSH1 0xE5 SHL DUP2 MSTORE PUSH1 0x20 PUSH1 0x4 DUP3 ADD MSTORE PUSH1 0x17 PUSH1 0x24 DUP3 ADD MSTORE PUSH32 0x5045524D49545F444541444C494E455F45585049524544000000000000000000 PUSH1 0x44 DUP3 ADD MSTORE PUSH1 0x64 ADD PUSH2 0x56C JUMP JUMPDEST PUSH1 0x0 PUSH1 0x1 PUSH2 0x6C8 PUSH2 0x4BB JUMP JUMPDEST PUSH1 0x1 PUSH1 0x1 PUSH1 0xA0 SHL SUB DUP11 DUP2 AND PUSH1 0x0 DUP2 DUP2 MSTORE PUSH1 0x6 PUSH1 0x20 SWAP1 DUP2 MSTORE PUSH1 0x40 SWAP2 DUP3 SWAP1 KECCAK256 DUP1 SLOAD PUSH1 0x1 DUP2 ADD SWAP1 SWAP2 SSTORE DUP3 MLOAD PUSH32 0x6E71EDAE12B1B97F4D1F60370FEF10105FA2FAAE0126114A169C64845D6126C9 DUP2 DUP5 ADD MSTORE DUP1 DUP5 ADD SWAP5 SWAP1 SWAP5 MSTORE SWAP4 DUP14 AND PUSH1 0x60 DUP5 ADD MSTORE PUSH1 0x80 DUP4 ADD DUP13 SWAP1 MSTORE PUSH1 0xA0 DUP4 ADD SWAP4 SWAP1 SWAP4 MSTORE PUSH1 0xC0 DUP1 DUP4 ADD DUP12 SWAP1 MSTORE DUP2 MLOAD DUP1 DUP5 SUB SWAP1 SWAP2 ADD DUP2 MSTORE PUSH1 0xE0 DUP4 ADD SWAP1 SWAP2 MSTORE DUP1 MLOAD SWAP3 ADD SWAP2 SWAP1 SWAP2 KECCAK256 PUSH32 0x1901000000000000000000000000000000000000000000000000000000000000 PUSH2 0x100 DUP4 ADD MSTORE PUSH2 0x102 DUP3 ADD SWAP3 SWAP1 SWAP3 MSTORE PUSH2 0x122 DUP2 ADD SWAP2 SWAP1 SWAP2 MSTORE PUSH2 0x142 ADD PUSH1 0x40 DUP1 MLOAD PUSH1 0x1F NOT DUP2 DUP5 SUB ADD DUP2 MSTORE DUP3 DUP3 MSTORE DUP1 MLOAD PUSH1 0x20 SWAP2 DUP3 ADD KECCAK256 PUSH1 0x0 DUP5 MSTORE SWAP1 DUP4 ADD DUP1 DUP4 MSTORE MSTORE PUSH1 0xFF DUP8 AND SWAP1 DUP3 ADD MSTORE PUSH1 0x60 DUP2 ADD DUP6 SWAP1 MSTORE PUSH1 0x80 DUP2 ADD DUP5 SWAP1 MSTORE PUSH1 0xA0 ADD PUSH1 0x20 PUSH1 0x40 MLOAD PUSH1 0x20 DUP2 SUB SWAP1 DUP1 DUP5 SUB SWAP1 DUP6 GAS STATICCALL ISZERO DUP1 ISZERO PUSH2 0x7EF JUMPI RETURNDATASIZE PUSH1 0x0 DUP1 RETURNDATACOPY RETURNDATASIZE PUSH1 0x0 REVERT JUMPDEST POP POP PUSH1 0x40 MLOAD PUSH1 0x1F NOT ADD MLOAD SWAP2 POP POP PUSH1 0x1 PUSH1 0x1 PUSH1 0xA0 SHL SUB DUP2 AND ISZERO DUP1 ISZERO SWAP1 PUSH2 0x825 JUMPI POP DUP8 PUSH1 0x1 PUSH1 0x1 PUSH1 0xA0 SHL SUB AND DUP2 PUSH1 0x1 PUSH1 0x1 PUSH1 0xA0 SHL SUB AND EQ JUMPDEST PUSH2 0x871 JUMPI PUSH1 0x40 MLOAD PUSH3 0x461BCD PUSH1 0xE5 SHL DUP2 MSTORE PUSH1 0x20 PUSH1 0x4 DUP3 ADD MSTORE PUSH1 0xE PUSH1 0x24 DUP3 ADD MSTORE PUSH32 0x494E56414C49445F5349474E4552000000000000000000000000000000000000 PUSH1 0x44 DUP3 ADD MSTORE PUSH1 0x64 ADD PUSH2 0x56C JUMP JUMPDEST PUSH1 0x1 PUSH1 0x1 PUSH1 0xA0 SHL SUB SWAP1 DUP2 AND PUSH1 0x0 SWAP1 DUP2 MSTORE PUSH1 0x5 PUSH1 0x20 SWAP1 DUP2 MSTORE PUSH1 0x40 DUP1 DUP4 KECCAK256 DUP11 DUP6 AND DUP1 DUP6 MSTORE SWAP1 DUP4 MSTORE SWAP3 DUP2 SWAP1 KECCAK256 DUP10 SWAP1 SSTORE MLOAD DUP9 DUP2 MSTORE SWAP2 SWAP3 DUP11 AND SWAP2 PUSH32 0x8C5BE1E5EBEC7D5BD14F71427D1E84F3DD0314C0F7B2291E5B200AC8C7C3B925 SWAP2 ADD PUSH1 0x40 MLOAD DUP1 SWAP2 SUB SWAP1 LOG3 POP POP POP POP POP POP POP JUMP JUMPDEST PUSH1 0x0 SLOAD PUSH1 0x1 PUSH1 0x1 PUSH1 0xA0 SHL SUB AND CALLER EQ PUSH2 0x934 JUMPI PUSH1 0x40 MLOAD PUSH3 0x461BCD PUSH1 0xE5 SHL DUP2 MSTORE PUSH1 0x20 PUSH1 0x4 DUP3 ADD MSTORE PUSH1 0xC PUSH1 0x24 DUP3 ADD MSTORE PUSH32 0x554E415554484F52495A45440000000000000000000000000000000000000000 PUSH1 0x44 DUP3 ADD MSTORE PUSH1 0x64 ADD PUSH2 0x56C JUMP JUMPDEST PUSH1 0x0 DUP1 SLOAD PUSH32 0xFFFFFFFFFFFFFFFFFFFFFFFF0000000000000000000000000000000000000000 AND PUSH1 0x1 PUSH1 0x1 PUSH1 0xA0 SHL SUB DUP4 AND SWAP1 DUP2 OR DUP3 SSTORE PUSH1 0x40 MLOAD SWAP1 SWAP2 CALLER SWAP2 PUSH32 0x8BE0079C531659141344CD1FD0A4F28419497F9722A3DAAFE3B4186F6B6457E0 SWAP2 SWAP1 LOG3 POP JUMP JUMPDEST PUSH1 0x0 PUSH32 0x8B73C3C69BB8FE3D512ECC4CF759CC79239F7B179B0FFACAA9A75D522B39400F PUSH1 0x1 PUSH1 0x40 MLOAD PUSH2 0x9C9 SWAP2 SWAP1 PUSH2 0xD3E JUMP JUMPDEST PUSH1 0x40 DUP1 MLOAD SWAP2 DUP3 SWAP1 SUB DUP3 KECCAK256 PUSH1 0x20 DUP4 ADD SWAP4 SWAP1 SWAP4 MSTORE DUP2 ADD SWAP2 SWAP1 SWAP2 MSTORE PUSH32 0xC89EFDAA54C0F20C7ADF612882DF0950F5A951637E0307CDCB4C672F298B8BC6 PUSH1 0x60 DUP3 ADD MSTORE CHAINID PUSH1 0x80 DUP3 ADD MSTORE ADDRESS PUSH1 0xA0 DUP3 ADD MSTORE PUSH1 0xC0 ADD PUSH1 0x40 MLOAD PUSH1 0x20 DUP2 DUP4 SUB SUB DUP2 MSTORE SWAP1 PUSH1 0x40 MSTORE DUP1 MLOAD SWAP1 PUSH1 0x20 ADD KECCAK256 SWAP1 POP SWAP1 JUMP JUMPDEST DUP1 PUSH1 0x3 PUSH1 0x0 DUP3 DUP3 SLOAD PUSH2 0xA43 SWAP2 SWAP1 PUSH2 0xE14 JUMP JUMPDEST SWAP1 SWAP2 SSTORE POP POP PUSH1 0x1 PUSH1 0x1 PUSH1 0xA0 SHL SUB DUP3 AND PUSH1 0x0 DUP2 DUP2 MSTORE PUSH1 0x4 PUSH1 0x20 SWAP1 DUP2 MSTORE PUSH1 0x40 DUP1 DUP4 KECCAK256 DUP1 SLOAD DUP7 ADD SWAP1 SSTORE MLOAD DUP5 DUP2 MSTORE PUSH32 0xDDF252AD1BE2C89B69C2B068FC378DAA952BA7F163C4A11628F55A4DF523B3EF SWAP2 ADD JUMPDEST PUSH1 0x40 MLOAD DUP1 SWAP2 SUB SWAP1 LOG3 POP POP JUMP JUMPDEST PUSH1 0x1 PUSH1 0x1 PUSH1 0xA0 SHL SUB DUP3 AND PUSH1 0x0 SWAP1 DUP2 MSTORE PUSH1 0x4 PUSH1 0x20 MSTORE PUSH1 0x40 DUP2 KECCAK256 DUP1 SLOAD DUP4 SWAP3 SWAP1 PUSH2 0xAC5 SWAP1 DUP5 SWAP1 PUSH2 0xD2B JUMP JUMPDEST SWAP1 SWAP2 SSTORE POP POP PUSH1 0x3 DUP1 SLOAD DUP3 SWAP1 SUB SWAP1 SSTORE PUSH1 0x40 MLOAD DUP2 DUP2 MSTORE PUSH1 0x0 SWAP1 PUSH1 0x1 PUSH1 0x1 PUSH1 0xA0 SHL SUB DUP5 AND SWAP1 PUSH32 0xDDF252AD1BE2C89B69C2B068FC378DAA952BA7F163C4A11628F55A4DF523B3EF SWAP1 PUSH1 0x20 ADD PUSH2 0xA91 JUMP JUMPDEST PUSH1 0x0 PUSH1 0x20 DUP1 DUP4 MSTORE DUP4 MLOAD DUP1 DUP3 DUP6 ADD MSTORE PUSH1 0x0 JUMPDEST DUP2 DUP2 LT ISZERO PUSH2 0xB3E JUMPI DUP6 DUP2 ADD DUP4 ADD MLOAD DUP6 DUP3 ADD PUSH1 0x40 ADD MSTORE DUP3 ADD PUSH2 0xB22 JUMP JUMPDEST POP PUSH1 0x0 PUSH1 0x40 DUP3 DUP7 ADD ADD MSTORE PUSH1 0x40 PUSH1 0x1F NOT PUSH1 0x1F DUP4 ADD AND DUP6 ADD ADD SWAP3 POP POP POP SWAP3 SWAP2 POP POP JUMP JUMPDEST DUP1 CALLDATALOAD PUSH1 0x1 PUSH1 0x1 PUSH1 0xA0 SHL SUB DUP2 AND DUP2 EQ PUSH2 0xB76 JUMPI PUSH1 0x0 DUP1 REVERT JUMPDEST SWAP2 SWAP1 POP JUMP JUMPDEST PUSH1 0x0 DUP1 PUSH1 0x40 DUP4 DUP6 SUB SLT ISZERO PUSH2 0xB8E JUMPI PUSH1 0x0 DUP1 REVERT JUMPDEST PUSH2 0xB97 DUP4 PUSH2 0xB5F JUMP JUMPDEST SWAP5 PUSH1 0x20 SWAP4 SWAP1 SWAP4 ADD CALLDATALOAD SWAP4 POP POP POP JUMP JUMPDEST PUSH1 0x0 DUP1 PUSH1 0x0 PUSH1 0x60 DUP5 DUP7 SUB SLT ISZERO PUSH2 0xBBA JUMPI PUSH1 0x0 DUP1 REVERT JUMPDEST PUSH2 0xBC3 DUP5 PUSH2 0xB5F JUMP JUMPDEST SWAP3 POP PUSH2 0xBD1 PUSH1 0x20 DUP6 ADD PUSH2 0xB5F JUMP JUMPDEST SWAP2 POP PUSH1 0x40 DUP5 ADD CALLDATALOAD SWAP1 POP SWAP3 POP SWAP3 POP SWAP3 JUMP JUMPDEST PUSH1 0x0 PUSH1 0x20 DUP3 DUP5 SUB SLT ISZERO PUSH2 0xBF3 JUMPI PUSH1 0x0 DUP1 REVERT JUMPDEST PUSH2 0xBFC DUP3 PUSH2 0xB5F JUMP JUMPDEST SWAP4 SWAP3 POP POP POP JUMP JUMPDEST PUSH1 0x0 DUP1 PUSH1 0x0 DUP1 PUSH1 0x0 DUP1 PUSH1 0x0 PUSH1 0xE0 DUP9 DUP11 SUB SLT ISZERO PUSH2 0xC1E JUMPI PUSH1 0x0 DUP1 REVERT JUMPDEST PUSH2 0xC27 DUP9 PUSH2 0xB5F JUMP JUMPDEST SWAP7 POP PUSH2 0xC35 PUSH1 0x20 DUP10 ADD PUSH2 0xB5F JUMP JUMPDEST SWAP6 POP PUSH1 0x40 DUP9 ADD CALLDATALOAD SWAP5 POP PUSH1 0x60 DUP9 ADD CALLDATALOAD SWAP4 POP PUSH1 0x80 DUP9 ADD CALLDATALOAD PUSH1 0xFF DUP2 AND DUP2 EQ PUSH2 0xC59 JUMPI PUSH1 0x0 DUP1 REVERT JUMPDEST SWAP7 SWAP10 SWAP6 SWAP9 POP SWAP4 SWAP7 SWAP3 SWAP6 SWAP5 PUSH1 0xA0 DUP5 ADD CALLDATALOAD SWAP5 POP PUSH1 0xC0 SWAP1 SWAP4 ADD CALLDATALOAD SWAP3 SWAP2 POP POP JUMP JUMPDEST PUSH1 0x0 DUP1 PUSH1 0x40 DUP4 DUP6 SUB SLT ISZERO PUSH2 0xC89 JUMPI PUSH1 0x0 DUP1 REVERT JUMPDEST PUSH2 0xC92 DUP4 PUSH2 0xB5F JUMP JUMPDEST SWAP2 POP PUSH2 0xCA0 PUSH1 0x20 DUP5 ADD PUSH2 0xB5F JUMP JUMPDEST SWAP1 POP SWAP3 POP SWAP3 SWAP1 POP JUMP JUMPDEST PUSH1 0x1 DUP2 DUP2 SHR SWAP1 DUP3 AND DUP1 PUSH2 0xCBD JUMPI PUSH1 0x7F DUP3 AND SWAP2 POP JUMPDEST PUSH1 0x20 DUP3 LT DUP2 SUB PUSH2 0xCF6 JUMPI PUSH32 0x4E487B7100000000000000000000000000000000000000000000000000000000 PUSH1 0x0 MSTORE PUSH1 0x22 PUSH1 0x4 MSTORE PUSH1 0x24 PUSH1 0x0 REVERT JUMPDEST POP SWAP2 SWAP1 POP JUMP JUMPDEST PUSH32 0x4E487B7100000000000000000000000000000000000000000000000000000000 PUSH1 0x0 MSTORE PUSH1 0x11 PUSH1 0x4 MSTORE PUSH1 0x24 PUSH1 0x0 REVERT JUMPDEST DUP2 DUP2 SUB DUP2 DUP2 GT ISZERO PUSH2 0x3A5 JUMPI PUSH2 0x3A5 PUSH2 0xCFC JUMP JUMPDEST PUSH1 0x0 DUP1 DUP4 SLOAD DUP2 PUSH1 0x1 DUP3 DUP2 SHR SWAP2 POP DUP1 DUP4 AND DUP1 PUSH2 0xD5A JUMPI PUSH1 0x7F DUP4 AND SWAP3 POP JUMPDEST PUSH1 0x20 DUP1 DUP5 LT DUP3 SUB PUSH2 0xD92 JUMPI PUSH32 0x4E487B7100000000000000000000000000000000000000000000000000000000 DUP7 MSTORE PUSH1 0x22 PUSH1 0x4 MSTORE PUSH1 0x24 DUP7 REVERT JUMPDEST DUP2 DUP1 ISZERO PUSH2 0xDA6 JUMPI PUSH1 0x1 DUP2 EQ PUSH2 0xDD9 JUMPI PUSH2 0xE06 JUMP JUMPDEST PUSH32 0xFFFFFFFFFFFFFFFFFFFFFFFFFFFFFFFFFFFFFFFFFFFFFFFFFFFFFFFFFFFFFF00 DUP7 AND DUP10 MSTORE DUP5 ISZERO ISZERO DUP6 MUL DUP10 ADD SWAP7 POP PUSH2 0xE06 JUMP JUMPDEST PUSH1 0x0 DUP11 DUP2 MSTORE PUSH1 0x20 SWAP1 KECCAK256 PUSH1 0x0 JUMPDEST DUP7 DUP2 LT ISZERO PUSH2 0xDFE JUMPI DUP2 SLOAD DUP12 DUP3 ADD MSTORE SWAP1 DUP6 ADD SWAP1 DUP4 ADD PUSH2 0xDE5 JUMP JUMPDEST POP POP DUP5 DUP10 ADD SWAP7 POP JUMPDEST POP SWAP5 SWAP9 SWAP8 POP POP POP POP POP POP POP POP JUMP JUMPDEST DUP1 DUP3 ADD DUP1 DUP3 GT ISZERO PUSH2 0x3A5 JUMPI PUSH2 0x3A5 PUSH2 0xCFC JUMP INVALID LOG2 PUSH5 0x6970667358 0x22 SLT KECCAK256 0x27 BYTE 0xC5 SWAP10 BYTE 0xF7 0x5F 0x23 JUMP 0xD2 CREATE PUSH18 0xBD3392A2E11D82CEC691FF56B50DAB898E3B GASPRICE STATICCALL PUSH5 0x736F6C6343 STOP ADDMOD GT STOP CALLER "},"methodIdentifiers":{"DOMAIN_SEPARATOR()":"3644e515","allowance(address,address)":"dd62ed3e","approve(address,uint256)":"095ea7b3","balanceOf(address)":"70a08231","burn(address,uint256)":"9dc29fac","decimals()":"313ce567","mint(address,uint256)":"40c10f19","name()":"06fdde03","nonces(address)":"7ecebe00","owner()":"8da5cb5b","permit(address,address,uint256,uint256,uint8,bytes32,bytes32)":"d505accf","symbol()":"95d89b41","totalSupply()":"18160ddd","transfer(address,uint256)":"a9059cbb","transferFrom(address,address,uint256)":"23b872dd","transferOwnership(address)":"f2fde38b"}}}}}