{
	"data": {
		"bytecode": {
			"linkReferences": {},
			"object": "610120604052600060015560006008553480156200001c57600080fd5b5060405162003aba38038062003aba8339810160408190526200003f916200030f565b60405180604001604052806005815260200164417a756b6960d81b81525060405180604001604052806005815260200164415a554b4960d81b815250858562000097620000916200021560201b60201c565b62000219565b60008111620001045760405162461bcd60e51b815260206004820152602e60248201527f455243373231413a20636f6c6c656374696f6e206d757374206861766520612060448201526d6e6f6e7a65726f20737570706c7960901b60648201526084015b60405180910390fd5b60008211620001665760405162461bcd60e51b815260206004820152602760248201527f455243373231413a206d61782062617463682073697a65206d757374206265206044820152666e6f6e7a65726f60c81b6064820152608401620000fb565b83516200017b90600290602087019062000269565b5082516200019190600390602086019062000269565b5060a0919091526080525050600160095560c084905261010082905260e081905282821115620002045760405162461bcd60e51b815260206004820152601d60248201527f6c617267657220636f6c6c656374696f6e2073697a65206e65656465640000006044820152606401620000fb565b5050612710600a5550620003839050565b3390565b600080546001600160a01b038381166001600160a01b0319831681178455604051919092169283917f8be0079c531659141344cd1fd0a4f28419497f9722a3daafe3b4186f6b6457e09190a35050565b828054620002779062000346565b90600052602060002090601f0160209004810192826200029b5760008555620002e6565b82601f10620002b657805160ff1916838001178555620002e6565b82800160010185558215620002e6579182015b82811115620002e6578251825591602001919060010190620002c9565b50620002f4929150620002f8565b5090565b5b80821115620002f45760008155600101620002f9565b600080600080608085870312156200032657600080fd5b505082516020840151604085015160609095015191969095509092509050565b600181811c908216806200035b57607f821691505b602082108114156200037d57634e487b7160e01b600052602260045260246000fd5b50919050565b60805160a05160c05160e0516101005161369e6200041c600039600081816104d0015261133001526000818161095d0152610f500152600081816105e0015281816113ea0152611e82015260008181610fe601528181611074015281816110ac015281816126ad015281816126d70152612b890152600081816111bf01528181611e0a015281816124120152612444015261369e6000f3fe6080604052600436106102ae5760003560e01c80637a1c4a5611610175578063aca8ffe7116100dc578063cb91d8b311610095578063e985e9c51161006f578063e985e9c5146108cc578063f2fde38b14610915578063f8a987d814610935578063fbe1aa511461094b57600080fd5b8063cb91d8b314610883578063d7224ba014610896578063dc33e681146108ac57600080fd5b8063aca8ffe7146107d1578063b05863d5146107f1578063b88d4fde14610811578063c701a3e014610831578063c87b56dd14610847578063caf8a6d11461086757600080fd5b80639231ab2a1161012e5780639231ab2a146106ed57806394bf804d1461073a57806395d89b411461075a578063a22cb4651461076f578063a7cd52cb1461078f578063ac446002146107bc57600080fd5b80637a1c4a56146105b25780638bc35c2f146105ce5780638da5cb5b14610602578063900280831461062057806390aa0b0f14610640578063917d009e146106cd57600080fd5b806342842e0e116102195780635cae01d3116101d25780635cae01d3146105075780636352211e1461051d5780636a6278421461053d5780636ebc56011461055d57806370a082311461057d578063715018a61461059d57600080fd5b806342842e0e1461044b5780634d3554c31461046b5780634f6ccce71461047e57806355f804b31461049e5780635666c880146104be57806359f369fe146104f257600080fd5b806323b872dd1161026b57806323b872dd146103a35780632d20fb60146103c35780632f745c59146103e3578063375a069a1461040357806341fbddbd14610423578063422030ba1461042b57600080fd5b806301ffc9a7146102b357806306fdde03146102e8578063081812fc1461030a578063095ea7b31461034257806316e6e15a1461036457806318160ddd14610384575b600080fd5b3480156102bf57600080fd5b506102d36102ce366004612e4c565b61097f565b60405190151581526020015b60405180910390f35b3480156102f457600080fd5b506102fd6109ec565b6040516102df9190612ec1565b34801561031657600080fd5b5061032a610325366004612ed4565b610a7e565b6040516001600160a01b0390911681526020016102df565b34801561034e57600080fd5b5061036261035d366004612f04565b610b0e565b005b34801561037057600080fd5b5061036261037f366004612f59565b610c26565b34801561039057600080fd5b506001545b6040519081526020016102df565b3480156103af57600080fd5b506103626103be366004612f9c565b610d0e565b3480156103cf57600080fd5b506103626103de366004612ed4565b610d19565b3480156103ef57600080fd5b506103956103fe366004612f04565b610dac565b34801561040f57600080fd5b5061036261041e366004612ed4565b610f24565b6103626110e2565b34801561043757600080fd5b506102d3610446366004612fd8565b61126c565b34801561045757600080fd5b50610362610466366004612f9c565b611290565b610362610479366004612ed4565b6112ab565b34801561048a57600080fd5b50610395610499366004612ed4565b61148f565b3480156104aa57600080fd5b506103626104b9366004613004565b6114f8565b3480156104ca57600080fd5b506103957f000000000000000000000000000000000000000000000000000000000000000081565b3480156104fe57600080fd5b5061039561152e565b34801561051357600080fd5b506103956104b081565b34801561052957600080fd5b5061032a610538366004612ed4565b611563565b34801561054957600080fd5b50610362610558366004613075565b611575565b34801561056957600080fd5b50610362610578366004613090565b6115d7565b34801561058957600080fd5b50610395610598366004613075565b61161d565b3480156105a957600080fd5b506103626116ae565b3480156105be57600080fd5b50610395670de0b6b3a764000081565b3480156105da57600080fd5b506103957f000000000000000000000000000000000000000000000000000000000000000081565b34801561060e57600080fd5b506000546001600160a01b031661032a565b34801561062c57600080fd5b5061036261063b366004613090565b6116e4565b34801561064c57600080fd5b50600b546106919063ffffffff8082169164010000000081048216916001600160401b03600160401b8304811692600160801b810490911691600160c01b9091041685565b6040805163ffffffff968716815294861660208601526001600160401b039384169085015291166060830152909116608082015260a0016102df565b3480156106d957600080fd5b506103956106e8366004612ed4565b611734565b3480156106f957600080fd5b5061070d610708366004612ed4565b6117e3565b6040805182516001600160a01b031681526020928301516001600160401b031692810192909252016102df565b34801561074657600080fd5b506103626107553660046130ab565b611800565b34801561076657600080fd5b506102fd611864565b34801561077b57600080fd5b5061036261078a3660046130d7565b611873565b34801561079b57600080fd5b506103956107aa366004613075565b600c6020526000908152604090205481565b3480156107c857600080fd5b50610362611938565b3480156107dd57600080fd5b506103626107ec366004612ed4565b611a45565b3480156107fd57600080fd5b5061036261080c3660046131e7565b611ac6565b34801561081d57600080fd5b5061036261082c3660046132a6565b611bcd565b34801561083d57600080fd5b50610395600a5481565b34801561085357600080fd5b506102fd610862366004612ed4565b611c06565b34801561087357600080fd5b50610395670214e8348c4f000081565b610362610891366004613365565b611cd2565b3480156108a257600080fd5b5061039560085481565b3480156108b857600080fd5b506103956108c7366004613075565b611f20565b3480156108d857600080fd5b506102d36108e7366004613387565b6001600160a01b03918216600090815260076020908152604080832093909416825291909152205460ff1690565b34801561092157600080fd5b50610362610930366004613075565b611f2b565b34801561094157600080fd5b50610395614fb081565b34801561095757600080fd5b506103957f000000000000000000000000000000000000000000000000000000000000000081565b60006001600160e01b031982166380ac58cd60e01b14806109b057506001600160e01b03198216635b5e139f60e01b145b806109cb57506001600160e01b0319821663780e9d6360e01b145b806109e657506301ffc9a760e01b6001600160e01b03198316145b92915050565b6060600280546109fb906133b1565b80601f0160208091040260200160405190810160405280929190818152602001828054610a27906133b1565b8015610a745780601f10610a4957610100808354040283529160200191610a74565b820191906000526020600020905b815481529060010190602001808311610a5757829003601f168201915b5050505050905090565b6000610a8b826001541190565b610af25760405162461bcd60e51b815260206004820152602d60248201527f455243373231413a20617070726f76656420717565727920666f72206e6f6e6560448201526c3c34b9ba32b73a103a37b5b2b760991b60648201526084015b60405180910390fd5b506000908152600660205260409020546001600160a01b031690565b6000610b1982611563565b9050806001600160a01b0316836001600160a01b03161415610b885760405162461bcd60e51b815260206004820152602260248201527f455243373231413a20617070726f76616c20746f2063757272656e74206f776e60448201526132b960f11b6064820152608401610ae9565b336001600160a01b0382161480610ba45750610ba481336108e7565b610c165760405162461bcd60e51b815260206004820152603960248201527f455243373231413a20617070726f76652063616c6c6572206973206e6f74206f60448201527f776e6572206e6f7220617070726f76656420666f7220616c6c000000000000006064820152608401610ae9565b610c21838383611fc3565b505050565b6000546001600160a01b03163314610c505760405162461bcd60e51b8152600401610ae9906133ec565b6040805160a0810182526000815263ffffffff928316602082018190526001600160401b039586169282018390529390941660608501819052600b8054600160c01b80820490951660809097018790526fffffffffffffffffffffffffffffffff19166401000000009095026fffffffffffffffff0000000000000000191694909417600160401b909202919091176bffffffffffffffffffffffff60801b1916600160801b90910263ffffffff60c01b1916179202919091179055565b610c2183838361201f565b6000546001600160a01b03163314610d435760405162461bcd60e51b8152600401610ae9906133ec565b60026009541415610d965760405162461bcd60e51b815260206004820152601f60248201527f5265656e7472616e637947756172643a207265656e7472616e742063616c6c006044820152606401610ae9565b6002600955610da4816123a1565b506001600955565b6000610db78361161d565b8210610e105760405162461bcd60e51b815260206004820152602260248201527f455243373231413a206f776e657220696e646578206f7574206f6620626f756e604482015261647360f01b6064820152608401610ae9565b6000610e1b60015490565b905060008060005b83811015610ec4576000818152600460209081526040918290208251808401909352546001600160a01b038116808452600160a01b9091046001600160401b03169183019190915215610e7557805192505b876001600160a01b0316836001600160a01b03161415610eb15786841415610ea3575093506109e692505050565b83610ead81613437565b9450505b5080610ebc81613437565b915050610e23565b5060405162461bcd60e51b815260206004820152602e60248201527f455243373231413a20756e61626c6520746f2067657420746f6b656e206f662060448201526d0deeedccae440c4f240d2dcc8caf60931b6064820152608401610ae9565b6000546001600160a01b03163314610f4e5760405162461bcd60e51b8152600401610ae9906133ec565b7f000000000000000000000000000000000000000000000000000000000000000081610f7960015490565b610f839190613452565b1115610fe15760405162461bcd60e51b815260206004820152602760248201527f746f6f206d616e7920616c7265616479206d696e746564206265666f72652064604482015266195d881b5a5b9d60ca1b6064820152608401610ae9565b61100b7f000000000000000000000000000000000000000000000000000000000000000082613480565b1561106d5760405162461bcd60e51b815260206004820152602c60248201527f63616e206f6e6c79206d696e742061206d756c7469706c65206f66207468652060448201526b6d6178426174636853697a6560a01b6064820152608401610ae9565b60006110997f000000000000000000000000000000000000000000000000000000000000000083613494565b905060005b81811015610c21576110d0337f000000000000000000000000000000000000000000000000000000000000000061258a565b806110da81613437565b91505061109e565b3233146111015760405162461bcd60e51b8152600401610ae9906134a8565b600b54600160401b90046001600160401b0316806111615760405162461bcd60e51b815260206004820181905260248201527f616c6c6f776c6973742073616c6520686173206e6f7420626567756e207965746044820152606401610ae9565b336000908152600c60205260409020546111bd5760405162461bcd60e51b815260206004820152601f60248201527f6e6f7420656c696769626c6520666f7220616c6c6f776c697374206d696e74006044820152606401610ae9565b7f00000000000000000000000000000000000000000000000000000000000000006111e760015490565b6111f2906001613452565b11156112355760405162461bcd60e51b815260206004820152601260248201527172656163686564206d617820737570706c7960701b6044820152606401610ae9565b336000908152600c60205260408120805491611250836134df565b919050555061126033600161258a565b611269816125a4565b50565b6000831580159061127c57508215155b80156112885750814210155b949350505050565b610c2183838360405180602001604052806000815250611bcd565b3233146112ca5760405162461bcd60e51b8152600401610ae9906134a8565b600b5463ffffffff1680158015906112e25750804210155b61132e5760405162461bcd60e51b815260206004820152601860248201527f73616c6520686173206e6f7420737461727465642079657400000000000000006044820152606401610ae9565b7f00000000000000000000000000000000000000000000000000000000000000008261135960015490565b6113639190613452565b11156113e85760405162461bcd60e51b815260206004820152604860248201527f6e6f7420656e6f7567682072656d61696e696e6720726573657276656420666f60448201527f722061756374696f6e20746f20737570706f72742064657369726564206d696e6064820152671d08185b5bdd5b9d60c21b608482015260a401610ae9565b7f00000000000000000000000000000000000000000000000000000000000000008261141333611f20565b61141d9190613452565b11156114645760405162461bcd60e51b815260206004820152601660248201527563616e206e6f74206d696e742074686973206d616e7960501b6044820152606401610ae9565b60008261147083611734565b61147a91906134f6565b9050611486338461258a565b610c21816125a4565b600061149a60015490565b82106114f45760405162461bcd60e51b815260206004820152602360248201527f455243373231413a20676c6f62616c20696e646578206f7574206f6620626f756044820152626e647360e81b6064820152608401610ae9565b5090565b6000546001600160a01b031633146115225760405162461bcd60e51b8152600401610ae9906133ec565b610c21600d8383612da6565b61153c6104b0614fb0613494565b611556670214e8348c4f0000670de0b6b3a7640000613515565b6115609190613494565b81565b600061156e8261262b565b5192915050565b600a54600154611586906001613452565b11156115cc5760405162461bcd60e51b815260206004820152601560248201527465786365656420636f6c6c656374696f6e53697a6560581b6044820152606401610ae9565b61126981600161258a565b6000546001600160a01b031633146116015760405162461bcd60e51b8152600401610ae9906133ec565b600b805463ffffffff191663ffffffff92909216919091179055565b60006001600160a01b0382166116895760405162461bcd60e51b815260206004820152602b60248201527f455243373231413a2062616c616e636520717565727920666f7220746865207a60448201526a65726f206164647265737360a81b6064820152608401610ae9565b506001600160a01b03166000908152600560205260409020546001600160801b031690565b6000546001600160a01b031633146116d85760405162461bcd60e51b8152600401610ae9906133ec565b6116e260006127d4565b565b6000546001600160a01b0316331461170e5760405162461bcd60e51b8152600401610ae9906133ec565b600b805463ffffffff909216600160c01b0263ffffffff60c01b19909216919091179055565b60008142101561174d5750670de0b6b3a7640000919050565b614fb061175a8342613515565b1061176e5750670214e8348c4f0000919050565b60006104b061177d8442613515565b6117879190613494565b90506117976104b0614fb0613494565b6117b1670214e8348c4f0000670de0b6b3a7640000613515565b6117bb9190613494565b6117c590826134f6565b6117d790670de0b6b3a7640000613515565b9392505050565b919050565b60408051808201909152600080825260208201526109e68261262b565b600a548261180d60015490565b6118179190613452565b11156118565760405162461bcd60e51b815260206004820152600e60248201526d636f6c6c656374696f6e53697a6560901b6044820152606401610ae9565b611860818361258a565b5050565b6060600380546109fb906133b1565b6001600160a01b0382163314156118cc5760405162461bcd60e51b815260206004820152601a60248201527f455243373231413a20617070726f766520746f2063616c6c65720000000000006044820152606401610ae9565b3360008181526007602090815260408083206001600160a01b03871680855290835292819020805460ff191686151590811790915590519081529192917f17307eab39ab6107e8899845ad3d59bd9653f200f220920489ca2b5937696c31910160405180910390a35050565b6000546001600160a01b031633146119625760405162461bcd60e51b8152600401610ae9906133ec565b600260095414156119b55760405162461bcd60e51b815260206004820152601f60248201527f5265656e7472616e637947756172643a207265656e7472616e742063616c6c006044820152606401610ae9565b6002600955604051600090339047908381818185875af1925050503d80600081146119fc576040519150601f19603f3d011682016040523d82523d6000602084013e611a01565b606091505b5050905080610da45760405162461bcd60e51b815260206004820152601060248201526f2a3930b739b332b9103330b4b632b21760811b6044820152606401610ae9565b6000546001600160a01b03163314611a6f5760405162461bcd60e51b8152600401610ae9906133ec565b600a54811015611ac15760405162461bcd60e51b815260206004820152601d60248201527f646f6e277420646563726561736520636f6c6c656374696f6e53697a650000006044820152606401610ae9565b600a55565b6000546001600160a01b03163314611af05760405162461bcd60e51b8152600401610ae9906133ec565b8051825114611b525760405162461bcd60e51b815260206004820152602860248201527f61646472657373657320646f6573206e6f74206d61746368206e756d536c6f746044820152670e640d8cadccee8d60c31b6064820152608401610ae9565b60005b8251811015610c2157818181518110611b7057611b7061352c565b6020026020010151600c6000858481518110611b8e57611b8e61352c565b60200260200101516001600160a01b03166001600160a01b03168152602001908152602001600020819055508080611bc590613437565b915050611b55565b611bd884848461201f565b611be484848484612824565b611c005760405162461bcd60e51b8152600401610ae990613542565b50505050565b6060611c13826001541190565b611c775760405162461bcd60e51b815260206004820152602f60248201527f4552433732314d657461646174613a2055524920717565727920666f72206e6f60448201526e3732bc34b9ba32b73a103a37b5b2b760891b6064820152608401610ae9565b6000611c81612922565b90506000815111611ca157604051806020016040528060008152506117d7565b80611cab84612931565b604051602001611cbc929190613595565b6040516020818303038152906040529392505050565b323314611cf15760405162461bcd60e51b8152600401610ae9906134a8565b6040805160a081018252600b5463ffffffff808216835264010000000082048116602084018190526001600160401b03600160401b8404811695850195909552600160801b830490941660608401819052600160c01b90920416608083018190529192848314611db15760405162461bcd60e51b815260206004820152602560248201527f63616c6c6564207769746820696e636f7272656374207075626c69632073616c60448201526465206b657960d81b6064820152608401610ae9565b611dbc82848361126c565b611e085760405162461bcd60e51b815260206004820152601d60248201527f7075626c69632073616c6520686173206e6f7420626567756e207965740000006044820152606401610ae9565b7f000000000000000000000000000000000000000000000000000000000000000086611e3360015490565b611e3d9190613452565b1115611e805760405162461bcd60e51b815260206004820152601260248201527172656163686564206d617820737570706c7960701b6044820152606401610ae9565b7f000000000000000000000000000000000000000000000000000000000000000086611eab33611f20565b611eb59190613452565b1115611efc5760405162461bcd60e51b815260206004820152601660248201527563616e206e6f74206d696e742074686973206d616e7960501b6044820152606401610ae9565b611f06338761258a565b611f18611f1387846134f6565b6125a4565b505050505050565b60006109e682612a2e565b6000546001600160a01b03163314611f555760405162461bcd60e51b8152600401610ae9906133ec565b6001600160a01b038116611fba5760405162461bcd60e51b815260206004820152602660248201527f4f776e61626c653a206e6577206f776e657220697320746865207a65726f206160448201526564647265737360d01b6064820152608401610ae9565b611269816127d4565b60008281526006602052604080822080546001600160a01b0319166001600160a01b0387811691821790925591518593918516917f8c5be1e5ebec7d5bd14f71427d1e84f3dd0314c0f7b2291e5b200ac8c7c3b92591a4505050565b600061202a8261262b565b80519091506000906001600160a01b0316336001600160a01b0316148061206157503361205684610a7e565b6001600160a01b0316145b806120735750815161207390336108e7565b9050806120dd5760405162461bcd60e51b815260206004820152603260248201527f455243373231413a207472616e736665722063616c6c6572206973206e6f74206044820152711bdddb995c881b9bdc88185c1c1c9bdd995960721b6064820152608401610ae9565b846001600160a01b031682600001516001600160a01b0316146121515760405162461bcd60e51b815260206004820152602660248201527f455243373231413a207472616e736665722066726f6d20696e636f72726563746044820152651037bbb732b960d11b6064820152608401610ae9565b6001600160a01b0384166121b55760405162461bcd60e51b815260206004820152602560248201527f455243373231413a207472616e7366657220746f20746865207a65726f206164604482015264647265737360d81b6064820152608401610ae9565b6121c56000848460000151611fc3565b6001600160a01b03851660009081526005602052604081208054600192906121f79084906001600160801b03166135c4565b82546101009290920a6001600160801b038181021990931691831602179091556001600160a01b03861660009081526005602052604081208054600194509092612243918591166135ec565b82546001600160801b039182166101009390930a9283029190920219909116179055506040805180820182526001600160a01b0380871682526001600160401b03428116602080850191825260008981526004909152948520935184549151909216600160a01b026001600160e01b031990911691909216171790556122ca846001613452565b6000818152600460205260409020549091506001600160a01b031661235b576122f4816001541190565b1561235b5760408051808201825284516001600160a01b0390811682526020808701516001600160401b039081168285019081526000878152600490935294909120925183549451909116600160a01b026001600160e01b03199094169116179190911790555b83856001600160a01b0316876001600160a01b03167fddf252ad1be2c89b69c2b068fc378daa952ba7f163c4a11628f55a4df523b3ef60405160405180910390a4611f18565b600854816123f15760405162461bcd60e51b815260206004820152601860248201527f7175616e74697479206d757374206265206e6f6e7a65726f00000000000000006044820152606401610ae9565b600060016123ff8484613452565b6124099190613515565b905061243660017f0000000000000000000000000000000000000000000000000000000000000000613515565b81111561246b5761246860017f0000000000000000000000000000000000000000000000000000000000000000613515565b90505b612476816001541190565b6124d15760405162461bcd60e51b815260206004820152602660248201527f6e6f7420656e6f756768206d696e7465642079657420666f722074686973206360448201526506c65616e75760d41b6064820152608401610ae9565b815b818111612576576000818152600460205260409020546001600160a01b03166125645760006125018261262b565b60408051808201825282516001600160a01b0390811682526020938401516001600160401b039081168584019081526000888152600490965293909420915182549351909416600160a01b026001600160e01b0319909316931692909217179055505b8061256e81613437565b9150506124d3565b50612582816001613452565b600855505050565b611860828260405180602001604052806000815250612acc565b803410156125ed5760405162461bcd60e51b81526020600482015260166024820152752732b2b2103a379039b2b7321036b7b9329022aa241760511b6044820152606401610ae9565b8034111561126957336108fc6126038334613515565b6040518115909202916000818181858888f19350505050158015611860573d6000803e3d6000fd5b604080518082019091526000808252602082015261264a826001541190565b6126a95760405162461bcd60e51b815260206004820152602a60248201527f455243373231413a206f776e657220717565727920666f72206e6f6e657869736044820152693a32b73a103a37b5b2b760b11b6064820152608401610ae9565b60007f0000000000000000000000000000000000000000000000000000000000000000831061270a576126fc7f000000000000000000000000000000000000000000000000000000000000000084613515565b612707906001613452565b90505b825b818110612773576000818152600460209081526040918290208251808401909352546001600160a01b038116808452600160a01b9091046001600160401b0316918301919091521561276057949350505050565b508061276b816134df565b91505061270c565b5060405162461bcd60e51b815260206004820152602f60248201527f455243373231413a20756e61626c6520746f2064657465726d696e652074686560448201526e1037bbb732b91037b3103a37b5b2b760891b6064820152608401610ae9565b600080546001600160a01b038381166001600160a01b0319831681178455604051919092169283917f8be0079c531659141344cd1fd0a4f28419497f9722a3daafe3b4186f6b6457e09190a35050565b60006001600160a01b0384163b1561291757604051630a85bd0160e11b81526001600160a01b0385169063150b7a029061286890339089908890889060040161360e565b6020604051808303816000875af19250505080156128a3575060408051601f3d908101601f191682019092526128a09181019061364b565b60015b6128fd573d8080156128d1576040519150601f19603f3d011682016040523d82523d6000602084013e6128d6565b606091505b5080516128f55760405162461bcd60e51b8152600401610ae990613542565b805181602001fd5b6001600160e01b031916630a85bd0160e11b149050611288565b506001949350505050565b6060600d80546109fb906133b1565b6060816129555750506040805180820190915260018152600360fc1b602082015290565b8160005b811561297f578061296981613437565b91506129789050600a83613494565b9150612959565b6000816001600160401b0381111561299957612999613113565b6040519080825280601f01601f1916602001820160405280156129c3576020820181803683370190505b5090505b8415611288576129d8600183613515565b91506129e5600a86613480565b6129f0906030613452565b60f81b818381518110612a0557612a0561352c565b60200101906001600160f81b031916908160001a905350612a27600a86613494565b94506129c7565b60006001600160a01b038216612aa05760405162461bcd60e51b815260206004820152603160248201527f455243373231413a206e756d626572206d696e74656420717565727920666f7260448201527020746865207a65726f206164647265737360781b6064820152608401610ae9565b506001600160a01b0316600090815260056020526040902054600160801b90046001600160801b031690565b6001546001600160a01b038416612b2f5760405162461bcd60e51b815260206004820152602160248201527f455243373231413a206d696e7420746f20746865207a65726f206164647265736044820152607360f81b6064820152608401610ae9565b612b3a816001541190565b15612b875760405162461bcd60e51b815260206004820152601d60248201527f455243373231413a20746f6b656e20616c7265616479206d696e7465640000006044820152606401610ae9565b7f0000000000000000000000000000000000000000000000000000000000000000831115612c025760405162461bcd60e51b815260206004820152602260248201527f455243373231413a207175616e7469747920746f206d696e7420746f6f2068696044820152610ced60f31b6064820152608401610ae9565b6001600160a01b0384166000908152600560209081526040918290208251808401845290546001600160801b038082168352600160801b9091041691810191909152815180830190925280519091908190612c5e9087906135ec565b6001600160801b03168152602001858360200151612c7c91906135ec565b6001600160801b039081169091526001600160a01b0380881660008181526005602090815260408083208751978301518716600160801b029790961696909617909455845180860186529182526001600160401b034281168386019081528883526004909552948120915182549451909516600160a01b026001600160e01b031990941694909216939093179190911790915582905b85811015612d9b5760405182906001600160a01b038916906000907fddf252ad1be2c89b69c2b068fc378daa952ba7f163c4a11628f55a4df523b3ef908290a4612d5f6000888488612824565b612d7b5760405162461bcd60e51b8152600401610ae990613542565b81612d8581613437565b9250508080612d9390613437565b915050612d12565b506001819055611f18565b828054612db2906133b1565b90600052602060002090601f016020900481019282612dd45760008555612e1a565b82601f10612ded5782800160ff19823516178555612e1a565b82800160010185558215612e1a579182015b82811115612e1a578235825591602001919060010190612dff565b506114f49291505b808211156114f45760008155600101612e22565b6001600160e01b03198116811461126957600080fd5b600060208284031215612e5e57600080fd5b81356117d781612e36565b60005b83811015612e84578181015183820152602001612e6c565b83811115611c005750506000910152565b60008151808452612ead816020860160208601612e69565b601f01601f19169290920160200192915050565b6020815260006117d76020830184612e95565b600060208284031215612ee657600080fd5b5035919050565b80356001600160a01b03811681146117de57600080fd5b60008060408385031215612f1757600080fd5b612f2083612eed565b946020939093013593505050565b80356001600160401b03811681146117de57600080fd5b803563ffffffff811681146117de57600080fd5b600080600060608486031215612f6e57600080fd5b612f7784612f2e565b9250612f8560208501612f2e565b9150612f9360408501612f45565b90509250925092565b600080600060608486031215612fb157600080fd5b612fba84612eed565b9250612fc860208501612eed565b9150604084013590509250925092565b600080600060608486031215612fed57600080fd5b505081359360208301359350604090920135919050565b6000806020838503121561301757600080fd5b82356001600160401b038082111561302e57600080fd5b818501915085601f83011261304257600080fd5b81358181111561305157600080fd5b86602082850101111561306357600080fd5b60209290920196919550909350505050565b60006020828403121561308757600080fd5b6117d782612eed565b6000602082840312156130a257600080fd5b6117d782612f45565b600080604083850312156130be57600080fd5b823591506130ce60208401612eed565b90509250929050565b600080604083850312156130ea57600080fd5b6130f383612eed565b91506020830135801515811461310857600080fd5b809150509250929050565b634e487b7160e01b600052604160045260246000fd5b604051601f8201601f191681016001600160401b038111828210171561315157613151613113565b604052919050565b60006001600160401b0382111561317257613172613113565b5060051b60200190565b600082601f83011261318d57600080fd5b813560206131a261319d83613159565b613129565b82815260059290921b840181019181810190868411156131c157600080fd5b8286015b848110156131dc57803583529183019183016131c5565b509695505050505050565b600080604083850312156131fa57600080fd5b82356001600160401b038082111561321157600080fd5b818501915085601f83011261322557600080fd5b8135602061323561319d83613159565b82815260059290921b8401810191818101908984111561325457600080fd5b948201945b838610156132795761326a86612eed565b82529482019490820190613259565b9650508601359250508082111561328f57600080fd5b5061329c8582860161317c565b9150509250929050565b600080600080608085870312156132bc57600080fd5b6132c585612eed565b935060206132d4818701612eed565b93506040860135925060608601356001600160401b03808211156132f757600080fd5b818801915088601f83011261330b57600080fd5b81358181111561331d5761331d613113565b61332f601f8201601f19168501613129565b9150808252898482850101111561334557600080fd5b808484018584013760008482840101525080935050505092959194509250565b6000806040838503121561337857600080fd5b50508035926020909101359150565b6000806040838503121561339a57600080fd5b6133a383612eed565b91506130ce60208401612eed565b600181811c908216806133c557607f821691505b602082108114156133e657634e487b7160e01b600052602260045260246000fd5b50919050565b6020808252818101527f4f776e61626c653a2063616c6c6572206973206e6f7420746865206f776e6572604082015260600190565b634e487b7160e01b600052601160045260246000fd5b600060001982141561344b5761344b613421565b5060010190565b6000821982111561346557613465613421565b500190565b634e487b7160e01b600052601260045260246000fd5b60008261348f5761348f61346a565b500690565b6000826134a3576134a361346a565b500490565b6020808252601e908201527f5468652063616c6c657220697320616e6f7468657220636f6e74726163740000604082015260600190565b6000816134ee576134ee613421565b506000190190565b600081600019048311821515161561351057613510613421565b500290565b60008282101561352757613527613421565b500390565b634e487b7160e01b600052603260045260246000fd5b60208082526033908201527f455243373231413a207472616e7366657220746f206e6f6e204552433732315260408201527232b1b2b4bb32b91034b6b83632b6b2b73a32b960691b606082015260800190565b600083516135a7818460208801612e69565b8351908301906135bb818360208801612e69565b01949350505050565b60006001600160801b03838116908316818110156135e4576135e4613421565b039392505050565b60006001600160801b038083168185168083038211156135bb576135bb613421565b6001600160a01b038581168252841660208201526040810183905260806060820181905260009061364190830184612e95565b9695505050505050565b60006020828403121561365d57600080fd5b81516117d781612e3656fea26469706673582212201fcb6731bcd69e637f0c26750fbbf93a9dd9b84615ff3306a5411cc3b6c2300c64736f6c634300080a0033",
			"opcodes": "PUSH2 0x120 PUSH1 0x40 MSTORE PUSH1 0x0 PUSH1 0x1 SSTORE PUSH1 0x0 PUSH1 0x8 SSTORE CALLVALUE DUP1 ISZERO PUSH3 0x1C JUMPI PUSH1 0x0 DUP1 REVERT JUMPDEST POP PUSH1 0x40 MLOAD PUSH3 0x3ABA CODESIZE SUB DUP1 PUSH3 0x3ABA DUP4 CODECOPY DUP2 ADD PUSH1 0x40 DUP2 SWAP1 MSTORE PUSH3 0x3F SWAP2 PUSH3 0x30F JUMP JUMPDEST PUSH1 0x40 MLOAD DUP1 PUSH1 0x40 ADD PUSH1 0x40 MSTORE DUP1 PUSH1 0x5 DUP2 MSTORE PUSH1 0x20 ADD PUSH5 0x417A756B69 PUSH1 0xD8 SHL DUP2 MSTORE POP PUSH1 0x40 MLOAD DUP1 PUSH1 0x40 ADD PUSH1 0x40 MSTORE DUP1 PUSH1 0x5 DUP2 MSTORE PUSH1 0x20 ADD PUSH5 0x415A554B49 PUSH1 0xD8 SHL DUP2 MSTORE POP DUP6 DUP6 PUSH3 0x97 PUSH3 0x91 PUSH3 0x215 PUSH1 0x20 SHL PUSH1 0x20 SHR JUMP JUMPDEST PUSH3 0x219 JUMP JUMPDEST PUSH1 0x0 DUP2 GT PUSH3 0x104 JUMPI PUSH1 0x40 MLOAD PUSH3 0x461BCD PUSH1 0xE5 SHL DUP2 MSTORE PUSH1 0x20 PUSH1 0x4 DUP3 ADD MSTORE PUSH1 0x2E PUSH1 0x24 DUP3 ADD MSTORE PUSH32 0x455243373231413A20636F6C6C656374696F6E206D7573742068617665206120 PUSH1 0x44 DUP3 ADD MSTORE PUSH14 0x6E6F6E7A65726F20737570706C79 PUSH1 0x90 SHL PUSH1 0x64 DUP3 ADD MSTORE PUSH1 0x84 ADD JUMPDEST PUSH1 0x40 MLOAD DUP1 SWAP2 SUB SWAP1 REVERT JUMPDEST PUSH1 0x0 DUP3 GT PUSH3 0x166 JUMPI PUSH1 0x40 MLOAD PUSH3 0x461BCD PUSH1 0xE5 SHL DUP2 MSTORE PUSH1 0x20 PUSH1 0x4 DUP3 ADD MSTORE PUSH1 0x27 PUSH1 0x24 DUP3 ADD MSTORE PUSH32 0x455243373231413A206D61782062617463682073697A65206D75737420626520 PUSH1 0x44 DUP3 ADD MSTORE PUSH7 0x6E6F6E7A65726F PUSH1 0xC8 SHL PUSH1 0x64 DUP3 ADD MSTORE PUSH1 0x84 ADD PUSH3 0xFB JUMP JUMPDEST DUP4 MLOAD PUSH3 0x17B SWAP1 PUSH1 0x2 SWAP1 PUSH1 0x20 DUP8 ADD SWAP1 PUSH3 0x269 JUMP JUMPDEST POP DUP3 MLOAD PUSH3 0x191 SWAP1 PUSH1 0x3 SWAP1 PUSH1 0x20 DUP7 ADD SWAP1 PUSH3 0x269 JUMP JUMPDEST POP PUSH1 0xA0 SWAP2 SWAP1 SWAP2 MSTORE PUSH1 0x80 MSTORE POP POP PUSH1 0x1 PUSH1 0x9 SSTORE PUSH1 0xC0 DUP5 SWAP1 MSTORE PUSH2 0x100 DUP3 SWAP1 MSTORE PUSH1 0xE0 DUP2 SWAP1 MSTORE DUP3 DUP3 GT ISZERO PUSH3 0x204 JUMPI PUSH1 0x40 MLOAD PUSH3 0x461BCD PUSH1 0xE5 SHL DUP2 MSTORE PUSH1 0x20 PUSH1 0x4 DUP3 ADD MSTORE PUSH1 0x1D PUSH1 0x24 DUP3 ADD MSTORE PUSH32 0x6C617267657220636F6C6C656374696F6E2073697A65206E6565646564000000 PUSH1 0x44 DUP3 ADD MSTORE PUSH1 0x64 ADD PUSH3 0xFB JUMP JUMPDEST POP POP PUSH2 0x2710 PUSH1 0xA SSTORE POP PUSH3 0x383 SWAP1 POP JUMP JUMPDEST CALLER SWAP1 JUMP JUMPDEST PUSH1 0x0 DUP1 SLOAD PUSH1 0x1 PUSH1 0x1 PUSH1 0xA0 SHL SUB DUP4 DUP2 AND PUSH1 0x1 PUSH1 0x1 PUSH1 0xA0 SHL SUB NOT DUP4 AND DUP2 OR DUP5 SSTORE PUSH1 0x40 MLOAD SWAP2 SWAP1 SWAP3 AND SWAP3 DUP4 SWAP2 PUSH32 0x8BE0079C531659141344CD1FD0A4F28419497F9722A3DAAFE3B4186F6B6457E0 SWAP2 SWAP1 LOG3 POP POP JUMP JUMPDEST DUP3 DUP1 SLOAD PUSH3 0x277 SWAP1 PUSH3 0x346 JUMP JUMPDEST SWAP1 PUSH1 0x0 MSTORE PUSH1 0x20 PUSH1 0x0 KECCAK256 SWAP1 PUSH1 0x1F ADD PUSH1 0x20 SWAP1 DIV DUP2 ADD SWAP3 DUP3 PUSH3 0x29B JUMPI PUSH1 0x0 DUP6 SSTORE PUSH3 0x2E6 JUMP JUMPDEST DUP3 PUSH1 0x1F LT PUSH3 0x2B6 JUMPI DUP1 MLOAD PUSH1 0xFF NOT AND DUP4 DUP1 ADD OR DUP6 SSTORE PUSH3 0x2E6 JUMP JUMPDEST DUP3 DUP1 ADD PUSH1 0x1 ADD DUP6 SSTORE DUP3 ISZERO PUSH3 0x2E6 JUMPI SWAP2 DUP3 ADD JUMPDEST DUP3 DUP2 GT ISZERO PUSH3 0x2E6 JUMPI DUP3 MLOAD DUP3 SSTORE SWAP2 PUSH1 0x20 ADD SWAP2 SWAP1 PUSH1 0x1 ADD SWAP1 PUSH3 0x2C9 JUMP JUMPDEST POP PUSH3 0x2F4 SWAP3 SWAP2 POP PUSH3 0x2F8 JUMP JUMPDEST POP SWAP1 JUMP JUMPDEST JUMPDEST DUP1 DUP3 GT ISZERO PUSH3 0x2F4 JUMPI PUSH1 0x0 DUP2 SSTORE PUSH1 0x1 ADD PUSH3 0x2F9 JUMP JUMPDEST PUSH1 0x0 DUP1 PUSH1 0x0 DUP1 PUSH1 0x80 DUP6 DUP8 SUB SLT ISZERO PUSH3 0x326 JUMPI PUSH1 0x0 DUP1 REVERT JUMPDEST POP POP DUP3 MLOAD PUSH1 0x20 DUP5 ADD MLOAD PUSH1 0x40 DUP6 ADD MLOAD PUSH1 0x60 SWAP1 SWAP6 ADD MLOAD SWAP2 SWAP7 SWAP1 SWAP6 POP SWAP1 SWAP3 POP SWAP1 POP JUMP JUMPDEST PUSH1 0x1 DUP2 DUP2 SHR SWAP1 DUP3 AND DUP1 PUSH3 0x35B JUMPI PUSH1 0x7F DUP3 AND SWAP2 POP JUMPDEST PUSH1 0x20 DUP3 LT DUP2 EQ ISZERO PUSH3 0x37D JUMPI PUSH4 0x4E487B71 PUSH1 0xE0 SHL PUSH1 0x0 MSTORE PUSH1 0x22 PUSH1 0x4 MSTORE PUSH1 0x24 PUSH1 0x0 REVERT JUMPDEST POP SWAP2 SWAP1 POP JUMP JUMPDEST PUSH1 0x80 MLOAD PUSH1 0xA0 MLOAD PUSH1 0xC0 MLOAD PUSH1 0xE0 MLOAD PUSH2 0x100 MLOAD PUSH2 0x369E PUSH3 0x41C PUSH1 0x0 CODECOPY PUSH1 0x0 DUP2 DUP2 PUSH2 0x4D0 ADD MSTORE PUSH2 0x1330 ADD MSTORE PUSH1 0x0 DUP2 DUP2 PUSH2 0x95D ADD MSTORE PUSH2 0xF50 ADD MSTORE PUSH1 0x0 DUP2 DUP2 PUSH2 0x5E0 ADD MSTORE DUP2 DUP2 PUSH2 0x13EA ADD MSTORE PUSH2 0x1E82 ADD MSTORE PUSH1 0x0 DUP2 DUP2 PUSH2 0xFE6 ADD MSTORE DUP2 DUP2 PUSH2 0x1074 ADD MSTORE DUP2 DUP2 PUSH2 0x10AC ADD MSTORE DUP2 DUP2 PUSH2 0x26AD ADD MSTORE DUP2 DUP2 PUSH2 0x26D7 ADD MSTORE PUSH2 0x2B89 ADD MSTORE PUSH1 0x0 DUP2 DUP2 PUSH2 0x11BF ADD MSTORE DUP2 DUP2 PUSH2 0x1E0A ADD MSTORE DUP2 DUP2 PUSH2 0x2412 ADD MSTORE PUSH2 0x2444 ADD MSTORE PUSH2 0x369E PUSH1 0x0 RETURN INVALID PUSH1 0x80 PUSH1 0x40 MSTORE PUSH1 0x4 CALLDATASIZE LT PUSH2 0x2AE JUMPI PUSH1 0x0 CALLDATALOAD PUSH1 0xE0 SHR DUP1 PUSH4 0x7A1C4A56 GT PUSH2 0x175 JUMPI DUP1 PUSH4 0xACA8FFE7 GT PUSH2 0xDC JUMPI DUP1 PUSH4 0xCB91D8B3 GT PUSH2 0x95 JUMPI DUP1 PUSH4 0xE985E9C5 GT PUSH2 0x6F JUMPI DUP1 PUSH4 0xE985E9C5 EQ PUSH2 0x8CC JUMPI DUP1 PUSH4 0xF2FDE38B EQ PUSH2 0x915 JUMPI DUP1 PUSH4 0xF8A987D8 EQ PUSH2 0x935 JUMPI DUP1 PUSH4 0xFBE1AA51 EQ PUSH2 0x94B JUMPI PUSH1 0x0 DUP1 REVERT JUMPDEST DUP1 PUSH4 0xCB91D8B3 EQ PUSH2 0x883 JUMPI DUP1 PUSH4 0xD7224BA0 EQ PUSH2 0x896 JUMPI DUP1 PUSH4 0xDC33E681 EQ PUSH2 0x8AC JUMPI PUSH1 0x0 DUP1 REVERT JUMPDEST DUP1 PUSH4 0xACA8FFE7 EQ PUSH2 0x7D1 JUMPI DUP1 PUSH4 0xB05863D5 EQ PUSH2 0x7F1 JUMPI DUP1 PUSH4 0xB88D4FDE EQ PUSH2 0x811 JUMPI DUP1 PUSH4 0xC701A3E0 EQ PUSH2 0x831 JUMPI DUP1 PUSH4 0xC87B56DD EQ PUSH2 0x847 JUMPI DUP1 PUSH4 0xCAF8A6D1 EQ PUSH2 0x867 JUMPI PUSH1 0x0 DUP1 REVERT JUMPDEST DUP1 PUSH4 0x9231AB2A GT PUSH2 0x12E JUMPI DUP1 PUSH4 0x9231AB2A EQ PUSH2 0x6ED JUMPI DUP1 PUSH4 0x94BF804D EQ PUSH2 0x73A JUMPI DUP1 PUSH4 0x95D89B41 EQ PUSH2 0x75A JUMPI DUP1 PUSH4 0xA22CB465 EQ PUSH2 0x76F JUMPI DUP1 PUSH4 0xA7CD52CB EQ PUSH2 0x78F JUMPI DUP1 PUSH4 0xAC446002 EQ PUSH2 0x7BC JUMPI PUSH1 0x0 DUP1 REVERT JUMPDEST DUP1 PUSH4 0x7A1C4A56 EQ PUSH2 0x5B2 JUMPI DUP1 PUSH4 0x8BC35C2F EQ PUSH2 0x5CE JUMPI DUP1 PUSH4 0x8DA5CB5B EQ PUSH2 0x602 JUMPI DUP1 PUSH4 0x90028083 EQ PUSH2 0x620 JUMPI DUP1 PUSH4 0x90AA0B0F EQ PUSH2 0x640 JUMPI DUP1 PUSH4 0x917D009E EQ PUSH2 0x6CD JUMPI PUSH1 0x0 DUP1 REVERT JUMPDEST DUP1 PUSH4 0x42842E0E GT PUSH2 0x219 JUMPI DUP1 PUSH4 0x5CAE01D3 GT PUSH2 0x1D2 JUMPI DUP1 PUSH4 0x5CAE01D3 EQ PUSH2 0x507 JUMPI DUP1 PUSH4 0x6352211E EQ PUSH2 0x51D JUMPI DUP1 PUSH4 0x6A627842 EQ PUSH2 0x53D JUMPI DUP1 PUSH4 0x6EBC5601 EQ PUSH2 0x55D JUMPI DUP1 PUSH4 0x70A08231 EQ PUSH2 0x57D JUMPI DUP1 PUSH4 0x715018A6 EQ PUSH2 0x59D JUMPI PUSH1 0x0 DUP1 REVERT JUMPDEST DUP1 PUSH4 0x42842E0E EQ PUSH2 0x44B JUMPI DUP1 PUSH4 0x4D3554C3 EQ PUSH2 0x46B JUMPI DUP1 PUSH4 0x4F6CCCE7 EQ PUSH2 0x47E JUMPI DUP1 PUSH4 0x55F804B3 EQ PUSH2 0x49E JUMPI DUP1 PUSH4 0x5666C880 EQ PUSH2 0x4BE JUMPI DUP1 PUSH4 0x59F369FE EQ PUSH2 0x4F2 JUMPI PUSH1 0x0 DUP1 REVERT JUMPDEST DUP1 PUSH4 0x23B872DD GT PUSH2 0x26B JUMPI DUP1 PUSH4 0x23B872DD EQ PUSH2 0x3A3 JUMPI DUP1 PUSH4 0x2D20FB60 EQ PUSH2 0x3C3 JUMPI DUP1 PUSH4 0x2F745C59 EQ PUSH2 0x3E3 JUMPI DUP1 PUSH4 0x375A069A EQ PUSH2 0x403 JUMPI DUP1 PUSH4 0x41FBDDBD EQ PUSH2 0x423 JUMPI DUP1 PUSH4 0x422030BA EQ PUSH2 0x42B JUMPI PUSH1 0x0 DUP1 REVERT JUMPDEST DUP1 PUSH4 0x1FFC9A7 EQ PUSH2 0x2B3 JUMPI DUP1 PUSH4 0x6FDDE03 EQ PUSH2 0x2E8 JUMPI DUP1 PUSH4 0x81812FC EQ PUSH2 0x30A JUMPI DUP1 PUSH4 0x95EA7B3 EQ PUSH2 0x342 JUMPI DUP1 PUSH4 0x16E6E15A EQ PUSH2 0x364 JUMPI DUP1 PUSH4 0x18160DDD EQ PUSH2 0x384 JUMPI JUMPDEST PUSH1 0x0 DUP1 REVERT JUMPDEST CALLVALUE DUP1 ISZERO PUSH2 0x2BF JUMPI PUSH1 0x0 DUP1 REVERT JUMPDEST POP PUSH2 0x2D3 PUSH2 0x2CE CALLDATASIZE PUSH1 0x4 PUSH2 0x2E4C JUMP JUMPDEST PUSH2 0x97F JUMP JUMPDEST PUSH1 0x40 MLOAD SWAP1 ISZERO ISZERO DUP2 MSTORE PUSH1 0x20 ADD JUMPDEST PUSH1 0x40 MLOAD DUP1 SWAP2 SUB SWAP1 RETURN JUMPDEST CALLVALUE DUP1 ISZERO PUSH2 0x2F4 JUMPI PUSH1 0x0 DUP1 REVERT JUMPDEST POP PUSH2 0x2FD PUSH2 0x9EC JUMP JUMPDEST PUSH1 0x40 MLOAD PUSH2 0x2DF SWAP2 SWAP1 PUSH2 0x2EC1 JUMP JUMPDEST CALLVALUE DUP1 ISZERO PUSH2 0x316 JUMPI PUSH1 0x0 DUP1 REVERT JUMPDEST POP PUSH2 0x32A PUSH2 0x325 CALLDATASIZE PUSH1 0x4 PUSH2 0x2ED4 JUMP JUMPDEST PUSH2 0xA7E JUMP JUMPDEST PUSH1 0x40 MLOAD PUSH1 0x1 PUSH1 0x1 PUSH1 0xA0 SHL SUB SWAP1 SWAP2 AND DUP2 MSTORE PUSH1 0x20 ADD PUSH2 0x2DF JUMP JUMPDEST CALLVALUE DUP1 ISZERO PUSH2 0x34E JUMPI PUSH1 0x0 DUP1 REVERT JUMPDEST POP PUSH2 0x362 PUSH2 0x35D CALLDATASIZE PUSH1 0x4 PUSH2 0x2F04 JUMP JUMPDEST PUSH2 0xB0E JUMP JUMPDEST STOP JUMPDEST CALLVALUE DUP1 ISZERO PUSH2 0x370 JUMPI PUSH1 0x0 DUP1 REVERT JUMPDEST POP PUSH2 0x362 PUSH2 0x37F CALLDATASIZE PUSH1 0x4 PUSH2 0x2F59 JUMP JUMPDEST PUSH2 0xC26 JUMP JUMPDEST CALLVALUE DUP1 ISZERO PUSH2 0x390 JUMPI PUSH1 0x0 DUP1 REVERT JUMPDEST POP PUSH1 0x1 SLOAD JUMPDEST PUSH1 0x40 MLOAD SWAP1 DUP2 MSTORE PUSH1 0x20 ADD PUSH2 0x2DF JUMP JUMPDEST CALLVALUE DUP1 ISZERO PUSH2 0x3AF JUMPI PUSH1 0x0 DUP1 REVERT JUMPDEST POP PUSH2 0x362 PUSH2 0x3BE CALLDATASIZE PUSH1 0x4 PUSH2 0x2F9C JUMP JUMPDEST PUSH2 0xD0E JUMP JUMPDEST CALLVALUE DUP1 ISZERO PUSH2 0x3CF JUMPI PUSH1 0x0 DUP1 REVERT JUMPDEST POP PUSH2 0x362 PUSH2 0x3DE CALLDATASIZE PUSH1 0x4 PUSH2 0x2ED4 JUMP JUMPDEST PUSH2 0xD19 JUMP JUMPDEST CALLVALUE DUP1 ISZERO PUSH2 0x3EF JUMPI PUSH1 0x0 DUP1 REVERT JUMPDEST POP PUSH2 0x395 PUSH2 0x3FE CALLDATASIZE PUSH1 0x4 PUSH2 0x2F04 JUMP JUMPDEST PUSH2 0xDAC JUMP JUMPDEST CALLVALUE DUP1 ISZERO PUSH2 0x40F JUMPI PUSH1 0x0 DUP1 REVERT JUMPDEST POP PUSH2 0x362 PUSH2 0x41E CALLDATASIZE PUSH1 0x4 PUSH2 0x2ED4 JUMP JUMPDEST PUSH2 0xF24 JUMP JUMPDEST PUSH2 0x362 PUSH2 0x10E2 JUMP JUMPDEST CALLVALUE DUP1 ISZERO PUSH2 0x437 JUMPI PUSH1 0x0 DUP1 REVERT JUMPDEST POP PUSH2 0x2D3 PUSH2 0x446 CALLDATASIZE PUSH1 0x4 PUSH2 0x2FD8 JUMP JUMPDEST PUSH2 0x126C JUMP JUMPDEST CALLVALUE DUP1 ISZERO PUSH2 0x457 JUMPI PUSH1 0x0 DUP1 REVERT JUMPDEST POP PUSH2 0x362 PUSH2 0x466 CALLDATASIZE PUSH1 0x4 PUSH2 0x2F9C JUMP JUMPDEST PUSH2 0x1290 JUMP JUMPDEST PUSH2 0x362 PUSH2 0x479 CALLDATASIZE PUSH1 0x4 PUSH2 0x2ED4 JUMP JUMPDEST PUSH2 0x12AB JUMP JUMPDEST CALLVALUE DUP1 ISZERO PUSH2 0x48A JUMPI PUSH1 0x0 DUP1 REVERT JUMPDEST POP PUSH2 0x395 PUSH2 0x499 CALLDATASIZE PUSH1 0x4 PUSH2 0x2ED4 JUMP JUMPDEST PUSH2 0x148F JUMP JUMPDEST CALLVALUE DUP1 ISZERO PUSH2 0x4AA JUMPI PUSH1 0x0 DUP1 REVERT JUMPDEST POP PUSH2 0x362 PUSH2 0x4B9 CALLDATASIZE PUSH1 0x4 PUSH2 0x3004 JUMP JUMPDEST PUSH2 0x14F8 JUMP JUMPDEST CALLVALUE DUP1 ISZERO PUSH2 0x4CA JUMPI PUSH1 0x0 DUP1 REVERT JUMPDEST POP PUSH2 0x395 PUSH32 0x0 DUP2 JUMP JUMPDEST CALLVALUE DUP1 ISZERO PUSH2 0x4FE JUMPI PUSH1 0x0 DUP1 REVERT JUMPDEST POP PUSH2 0x395 PUSH2 0x152E JUMP JUMPDEST CALLVALUE DUP1 ISZERO PUSH2 0x513 JUMPI PUSH1 0x0 DUP1 REVERT JUMPDEST POP PUSH2 0x395 PUSH2 0x4B0 DUP2 JUMP JUMPDEST CALLVALUE DUP1 ISZERO PUSH2 0x529 JUMPI PUSH1 0x0 DUP1 REVERT JUMPDEST POP PUSH2 0x32A PUSH2 0x538 CALLDATASIZE PUSH1 0x4 PUSH2 0x2ED4 JUMP JUMPDEST PUSH2 0x1563 JUMP JUMPDEST CALLVALUE DUP1 ISZERO PUSH2 0x549 JUMPI PUSH1 0x0 DUP1 REVERT JUMPDEST POP PUSH2 0x362 PUSH2 0x558 CALLDATASIZE PUSH1 0x4 PUSH2 0x3075 JUMP JUMPDEST PUSH2 0x1575 JUMP JUMPDEST CALLVALUE DUP1 ISZERO PUSH2 0x569 JUMPI PUSH1 0x0 DUP1 REVERT JUMPDEST POP PUSH2 0x362 PUSH2 0x578 CALLDATASIZE PUSH1 0x4 PUSH2 0x3090 JUMP JUMPDEST PUSH2 0x15D7 JUMP JUMPDEST CALLVALUE DUP1 ISZERO PUSH2 0x589 JUMPI PUSH1 0x0 DUP1 REVERT JUMPDEST POP PUSH2 0x395 PUSH2 0x598 CALLDATASIZE PUSH1 0x4 PUSH2 0x3075 JUMP JUMPDEST PUSH2 0x161D JUMP JUMPDEST CALLVALUE DUP1 ISZERO PUSH2 0x5A9 JUMPI PUSH1 0x0 DUP1 REVERT JUMPDEST POP PUSH2 0x362 PUSH2 0x16AE JUMP JUMPDEST CALLVALUE DUP1 ISZERO PUSH2 0x5BE JUMPI PUSH1 0x0 DUP1 REVERT JUMPDEST POP PUSH2 0x395 PUSH8 0xDE0B6B3A7640000 DUP2 JUMP JUMPDEST CALLVALUE DUP1 ISZERO PUSH2 0x5DA JUMPI PUSH1 0x0 DUP1 REVERT JUMPDEST POP PUSH2 0x395 PUSH32 0x0 DUP2 JUMP JUMPDEST CALLVALUE DUP1 ISZERO PUSH2 0x60E JUMPI PUSH1 0x0 DUP1 REVERT JUMPDEST POP PUSH1 0x0 SLOAD PUSH1 0x1 PUSH1 0x1 PUSH1 0xA0 SHL SUB AND PUSH2 0x32A JUMP JUMPDEST CALLVALUE DUP1 ISZERO PUSH2 0x62C JUMPI PUSH1 0x0 DUP1 REVERT JUMPDEST POP PUSH2 0x362 PUSH2 0x63B CALLDATASIZE PUSH1 0x4 PUSH2 0x3090 JUMP JUMPDEST PUSH2 0x16E4 JUMP JUMPDEST CALLVALUE DUP1 ISZERO PUSH2 0x64C JUMPI PUSH1 0x0 DUP1 REVERT JUMPDEST POP PUSH1 0xB SLOAD PUSH2 0x691 SWAP1 PUSH4 0xFFFFFFFF DUP1 DUP3 AND SWAP2 PUSH5 0x100000000 DUP2 DIV DUP3 AND SWAP2 PUSH1 0x1 PUSH1 0x1 PUSH1 0x40 SHL SUB PUSH1 0x1 PUSH1 0x40 SHL DUP4 DIV DUP2 AND SWAP3 PUSH1 0x1 PUSH1 0x80 SHL DUP2 DIV SWAP1 SWAP2 AND SWAP2 PUSH1 0x1 PUSH1 0xC0 SHL SWAP1 SWAP2 DIV AND DUP6 JUMP JUMPDEST PUSH1 0x40 DUP1 MLOAD PUSH4 0xFFFFFFFF SWAP7 DUP8 AND DUP2 MSTORE SWAP5 DUP7 AND PUSH1 0x20 DUP7 ADD MSTORE PUSH1 0x1 PUSH1 0x1 PUSH1 0x40 SHL SUB SWAP4 DUP5 AND SWAP1 DUP6 ADD MSTORE SWAP2 AND PUSH1 0x60 DUP4 ADD MSTORE SWAP1 SWAP2 AND PUSH1 0x80 DUP3 ADD MSTORE PUSH1 0xA0 ADD PUSH2 0x2DF JUMP JUMPDEST CALLVALUE DUP1 ISZERO PUSH2 0x6D9 JUMPI PUSH1 0x0 DUP1 REVERT JUMPDEST POP PUSH2 0x395 PUSH2 0x6E8 CALLDATASIZE PUSH1 0x4 PUSH2 0x2ED4 JUMP JUMPDEST PUSH2 0x1734 JUMP JUMPDEST CALLVALUE DUP1 ISZERO PUSH2 0x6F9 JUMPI PUSH1 0x0 DUP1 REVERT JUMPDEST POP PUSH2 0x70D PUSH2 0x708 CALLDATASIZE PUSH1 0x4 PUSH2 0x2ED4 JUMP JUMPDEST PUSH2 0x17E3 JUMP JUMPDEST PUSH1 0x40 DUP1 MLOAD DUP3 MLOAD PUSH1 0x1 PUSH1 0x1 PUSH1 0xA0 SHL SUB AND DUP2 MSTORE PUSH1 0x20 SWAP3 DUP4 ADD MLOAD PUSH1 0x1 PUSH1 0x1 PUSH1 0x40 SHL SUB AND SWAP3 DUP2 ADD SWAP3 SWAP1 SWAP3 MSTORE ADD PUSH2 0x2DF JUMP JUMPDEST CALLVALUE DUP1 ISZERO PUSH2 0x746 JUMPI PUSH1 0x0 DUP1 REVERT JUMPDEST POP PUSH2 0x362 PUSH2 0x755 CALLDATASIZE PUSH1 0x4 PUSH2 0x30AB JUMP JUMPDEST PUSH2 0x1800 JUMP JUMPDEST CALLVALUE DUP1 ISZERO PUSH2 0x766 JUMPI PUSH1 0x0 DUP1 REVERT JUMPDEST POP PUSH2 0x2FD PUSH2 0x1864 JUMP JUMPDEST CALLVALUE DUP1 ISZERO PUSH2 0x77B JUMPI PUSH1 0x0 DUP1 REVERT JUMPDEST POP PUSH2 0x362 PUSH2 0x78A CALLDATASIZE PUSH1 0x4 PUSH2 0x30D7 JUMP JUMPDEST PUSH2 0x1873 JUMP JUMPDEST CALLVALUE DUP1 ISZERO PUSH2 0x79B JUMPI PUSH1 0x0 DUP1 REVERT JUMPDEST POP PUSH2 0x395 PUSH2 0x7AA CALLDATASIZE PUSH1 0x4 PUSH2 0x3075 JUMP JUMPDEST PUSH1 0xC PUSH1 0x20 MSTORE PUSH1 0x0 SWAP1 DUP2 MSTORE PUSH1 0x40 SWAP1 KECCAK256 SLOAD DUP2 JUMP JUMPDEST CALLVALUE DUP1 ISZERO PUSH2 0x7C8 JUMPI PUSH1 0x0 DUP1 REVERT JUMPDEST POP PUSH2 0x362 PUSH2 0x1938 JUMP JUMPDEST CALLVALUE DUP1 ISZERO PUSH2 0x7DD JUMPI PUSH1 0x0 DUP1 REVERT JUMPDEST POP PUSH2 0x362 PUSH2 0x7EC CALLDATASIZE PUSH1 0x4 PUSH2 0x2ED4 JUMP JUMPDEST PUSH2 0x1A45 JUMP JUMPDEST CALLVALUE DUP1 ISZERO PUSH2 0x7FD JUMPI PUSH1 0x0 DUP1 REVERT JUMPDEST POP PUSH2 0x362 PUSH2 0x80C CALLDATASIZE PUSH1 0x4 PUSH2 0x31E7 JUMP JUMPDEST PUSH2 0x1AC6 JUMP JUMPDEST CALLVALUE DUP1 ISZERO PUSH2 0x81D JUMPI PUSH1 0x0 DUP1 REVERT JUMPDEST POP PUSH2 0x362 PUSH2 0x82C CALLDATASIZE PUSH1 0x4 PUSH2 0x32A6 JUMP JUMPDEST PUSH2 0x1BCD JUMP JUMPDEST CALLVALUE DUP1 ISZERO PUSH2 0x83D JUMPI PUSH1 0x0 DUP1 REVERT JUMPDEST POP PUSH2 0x395 PUSH1 0xA SLOAD DUP2 JUMP JUMPDEST CALLVALUE DUP1 ISZERO PUSH2 0x853 JUMPI PUSH1 0x0 DUP1 REVERT JUMPDEST POP PUSH2 0x2FD PUSH2 0x862 CALLDATASIZE PUSH1 0x4 PUSH2 0x2ED4 JUMP JUMPDEST PUSH2 0x1C06 JUMP JUMPDEST CALLVALUE DUP1 ISZERO PUSH2 0x873 JUMPI PUSH1 0x0 DUP1 REVERT JUMPDEST POP PUSH2 0x395 PUSH8 0x214E8348C4F0000 DUP2 JUMP JUMPDEST PUSH2 0x362 PUSH2 0x891 CALLDATASIZE PUSH1 0x4 PUSH2 0x3365 JUMP JUMPDEST PUSH2 0x1CD2 JUMP JUMPDEST CALLVALUE DUP1 ISZERO PUSH2 0x8A2 JUMPI PUSH1 0x0 DUP1 REVERT JUMPDEST POP PUSH2 0x395 PUSH1 0x8 SLOAD DUP2 JUMP JUMPDEST CALLVALUE DUP1 ISZERO PUSH2 0x8B8 JUMPI PUSH1 0x0 DUP1 REVERT JUMPDEST POP PUSH2 0x395 PUSH2 0x8C7 CALLDATASIZE PUSH1 0x4 PUSH2 0x3075 JUMP JUMPDEST PUSH2 0x1F20 JUMP JUMPDEST CALLVALUE DUP1 ISZERO PUSH2 0x8D8 JUMPI PUSH1 0x0 DUP1 REVERT JUMPDEST POP PUSH2 0x2D3 PUSH2 0x8E7 CALLDATASIZE PUSH1 0x4 PUSH2 0x3387 JUMP JUMPDEST PUSH1 0x1 PUSH1 0x1 PUSH1 0xA0 SHL SUB SWAP2 DUP3 AND PUSH1 0x0 SWAP1 DUP2 MSTORE PUSH1 0x7 PUSH1 0x20 SWAP1 DUP2 MSTORE PUSH1 0x40 DUP1 DUP4 KECCAK256 SWAP4 SWAP1 SWAP5 AND DUP3 MSTORE SWAP2 SWAP1 SWAP2 MSTORE KECCAK256 SLOAD PUSH1 0xFF AND SWAP1 JUMP JUMPDEST CALLVALUE DUP1 ISZERO PUSH2 0x921 JUMPI PUSH1 0x0 DUP1 REVERT JUMPDEST POP PUSH2 0x362 PUSH2 0x930 CALLDATASIZE PUSH1 0x4 PUSH2 0x3075 JUMP JUMPDEST PUSH2 0x1F2B JUMP JUMPDEST CALLVALUE DUP1 ISZERO PUSH2 0x941 JUMPI PUSH1 0x0 DUP1 REVERT JUMPDEST POP PUSH2 0x395 PUSH2 0x4FB0 DUP2 JUMP JUMPDEST CALLVALUE DUP1 ISZERO PUSH2 0x957 JUMPI PUSH1 0x0 DUP1 REVERT JUMPDEST POP PUSH2 0x395 PUSH32 0x0 DUP2 JUMP JUMPDEST PUSH1 0x0 PUSH1 0x1 PUSH1 0x1 PUSH1 0xE0 SHL SUB NOT DUP3 AND PUSH4 0x80AC58CD PUSH1 0xE0 SHL EQ DUP1 PUSH2 0x9B0 JUMPI POP PUSH1 0x1 PUSH1 0x1 PUSH1 0xE0 SHL SUB NOT DUP3 AND PUSH4 0x5B5E139F PUSH1 0xE0 SHL EQ JUMPDEST DUP1 PUSH2 0x9CB JUMPI POP PUSH1 0x1 PUSH1 0x1 PUSH1 0xE0 SHL SUB NOT DUP3 AND PUSH4 0x780E9D63 PUSH1 0xE0 SHL EQ JUMPDEST DUP1 PUSH2 0x9E6 JUMPI POP PUSH4 0x1FFC9A7 PUSH1 0xE0 SHL PUSH1 0x1 PUSH1 0x1 PUSH1 0xE0 SHL SUB NOT DUP4 AND EQ JUMPDEST SWAP3 SWAP2 POP POP JUMP JUMPDEST PUSH1 0x60 PUSH1 0x2 DUP1 SLOAD PUSH2 0x9FB SWAP1 PUSH2 0x33B1 JUMP JUMPDEST DUP1 PUSH1 0x1F ADD PUSH1 0x20 DUP1 SWAP2 DIV MUL PUSH1 0x20 ADD PUSH1 0x40 MLOAD SWAP1 DUP2 ADD PUSH1 0x40 MSTORE DUP1 SWAP3 SWAP2 SWAP1 DUP2 DUP2 MSTORE PUSH1 0x20 ADD DUP3 DUP1 SLOAD PUSH2 0xA27 SWAP1 PUSH2 0x33B1 JUMP JUMPDEST DUP1 ISZERO PUSH2 0xA74 JUMPI DUP1 PUSH1 0x1F LT PUSH2 0xA49 JUMPI PUSH2 0x100 DUP1 DUP4 SLOAD DIV MUL DUP4 MSTORE SWAP2 PUSH1 0x20 ADD SWAP2 PUSH2 0xA74 JUMP JUMPDEST DUP3 ADD SWAP2 SWAP1 PUSH1 0x0 MSTORE PUSH1 0x20 PUSH1 0x0 KECCAK256 SWAP1 JUMPDEST DUP2 SLOAD DUP2 MSTORE SWAP1 PUSH1 0x1 ADD SWAP1 PUSH1 0x20 ADD DUP1 DUP4 GT PUSH2 0xA57 JUMPI DUP3 SWAP1 SUB PUSH1 0x1F AND DUP3 ADD SWAP2 JUMPDEST POP POP POP POP POP SWAP1 POP SWAP1 JUMP JUMPDEST PUSH1 0x0 PUSH2 0xA8B DUP3 PUSH1 0x1 SLOAD GT SWAP1 JUMP JUMPDEST PUSH2 0xAF2 JUMPI PUSH1 0x40 MLOAD PUSH3 0x461BCD PUSH1 0xE5 SHL DUP2 MSTORE PUSH1 0x20 PUSH1 0x4 DUP3 ADD MSTORE PUSH1 0x2D PUSH1 0x24 DUP3 ADD MSTORE PUSH32 0x455243373231413A20617070726F76656420717565727920666F72206E6F6E65 PUSH1 0x44 DUP3 ADD MSTORE PUSH13 0x3C34B9BA32B73A103A37B5B2B7 PUSH1 0x99 SHL PUSH1 0x64 DUP3 ADD MSTORE PUSH1 0x84 ADD JUMPDEST PUSH1 0x40 MLOAD DUP1 SWAP2 SUB SWAP1 REVERT JUMPDEST POP PUSH1 0x0 SWAP1 DUP2 MSTORE PUSH1 0x6 PUSH1 0x20 MSTORE PUSH1 0x40 SWAP1 KECCAK256 SLOAD PUSH1 0x1 PUSH1 0x1 PUSH1 0xA0 SHL SUB AND SWAP1 JUMP JUMPDEST PUSH1 0x0 PUSH2 0xB19 DUP3 PUSH2 0x1563 JUMP JUMPDEST SWAP1 POP DUP1 PUSH1 0x1 PUSH1 0x1 PUSH1 0xA0 SHL SUB AND DUP4 PUSH1 0x1 PUSH1 0x1 PUSH1 0xA0 SHL SUB AND EQ ISZERO PUSH2 0xB88 JUMPI PUSH1 0x40 MLOAD PUSH3 0x461BCD PUSH1 0xE5 SHL DUP2 MSTORE PUSH1 0x20 PUSH1 0x4 DUP3 ADD MSTORE PUSH1 0x22 PUSH1 0x24 DUP3 ADD MSTORE PUSH32 0x455243373231413A20617070726F76616C20746F2063757272656E74206F776E PUSH1 0x44 DUP3 ADD MSTORE PUSH2 0x32B9 PUSH1 0xF1 SHL PUSH1 0x64 DUP3 ADD MSTORE PUSH1 0x84 ADD PUSH2 0xAE9 JUMP JUMPDEST CALLER PUSH1 0x1 PUSH1 0x1 PUSH1 0xA0 SHL SUB DUP3 AND EQ DUP1 PUSH2 0xBA4 JUMPI POP PUSH2 0xBA4 DUP2 CALLER PUSH2 0x8E7 JUMP JUMPDEST PUSH2 0xC16 JUMPI PUSH1 0x40 MLOAD PUSH3 0x461BCD PUSH1 0xE5 SHL DUP2 MSTORE PUSH1 0x20 PUSH1 0x4 DUP3 ADD MSTORE PUSH1 0x39 PUSH1 0x24 DUP3 ADD MSTORE PUSH32 0x455243373231413A20617070726F76652063616C6C6572206973206E6F74206F PUSH1 0x44 DUP3 ADD MSTORE PUSH32 0x776E6572206E6F7220617070726F76656420666F7220616C6C00000000000000 PUSH1 0x64 DUP3 ADD MSTORE PUSH1 0x84 ADD PUSH2 0xAE9 JUMP JUMPDEST PUSH2 0xC21 DUP4 DUP4 DUP4 PUSH2 0x1FC3 JUMP JUMPDEST POP POP POP JUMP JUMPDEST PUSH1 0x0 SLOAD PUSH1 0x1 PUSH1 0x1 PUSH1 0xA0 SHL SUB AND CALLER EQ PUSH2 0xC50 JUMPI PUSH1 0x40 MLOAD PUSH3 0x461BCD PUSH1 0xE5 SHL DUP2 MSTORE PUSH1 0x4 ADD PUSH2 0xAE9 SWAP1 PUSH2 0x33EC JUMP JUMPDEST PUSH1 0x40 DUP1 MLOAD PUSH1 0xA0 DUP2 ADD DUP3 MSTORE PUSH1 0x0 DUP2 MSTORE PUSH4 0xFFFFFFFF SWAP3 DUP4 AND PUSH1 0x20 DUP3 ADD DUP2 SWAP1 MSTORE PUSH1 0x1 PUSH1 0x1 PUSH1 0x40 SHL SUB SWAP6 DUP7 AND SWAP3 DUP3 ADD DUP4 SWAP1 MSTORE SWAP4 SWAP1 SWAP5 AND PUSH1 0x60 DUP6 ADD DUP2 SWAP1 MSTORE PUSH1 0xB DUP1 SLOAD PUSH1 0x1 PUSH1 0xC0 SHL DUP1 DUP3 DIV SWAP1 SWAP6 AND PUSH1 0x80 SWAP1 SWAP8 ADD DUP8 SWAP1 MSTORE PUSH16 0xFFFFFFFFFFFFFFFFFFFFFFFFFFFFFFFF NOT AND PUSH5 0x100000000 SWAP1 SWAP6 MUL PUSH16 0xFFFFFFFFFFFFFFFF0000000000000000 NOT AND SWAP5 SWAP1 SWAP5 OR PUSH1 0x1 PUSH1 0x40 SHL SWAP1 SWAP3 MUL SWAP2 SWAP1 SWAP2 OR PUSH12 0xFFFFFFFFFFFFFFFFFFFFFFFF PUSH1 0x80 SHL NOT AND PUSH1 0x1 PUSH1 0x80 SHL SWAP1 SWAP2 MUL PUSH4 0xFFFFFFFF PUSH1 0xC0 SHL NOT AND OR SWAP3 MUL SWAP2 SWAP1 SWAP2 OR SWAP1 SSTORE JUMP JUMPDEST PUSH2 0xC21 DUP4 DUP4 DUP4 PUSH2 0x201F JUMP JUMPDEST PUSH1 0x0 SLOAD PUSH1 0x1 PUSH1 0x1 PUSH1 0xA0 SHL SUB AND CALLER EQ PUSH2 0xD43 JUMPI PUSH1 0x40 MLOAD PUSH3 0x461BCD PUSH1 0xE5 SHL DUP2 MSTORE PUSH1 0x4 ADD PUSH2 0xAE9 SWAP1 PUSH2 0x33EC JUMP JUMPDEST PUSH1 0x2 PUSH1 0x9 SLOAD EQ ISZERO PUSH2 0xD96 JUMPI PUSH1 0x40 MLOAD PUSH3 0x461BCD PUSH1 0xE5 SHL DUP2 MSTORE PUSH1 0x20 PUSH1 0x4 DUP3 ADD MSTORE PUSH1 0x1F PUSH1 0x24 DUP3 ADD MSTORE PUSH32 0x5265656E7472616E637947756172643A207265656E7472616E742063616C6C00 PUSH1 0x44 DUP3 ADD MSTORE PUSH1 0x64 ADD PUSH2 0xAE9 JUMP JUMPDEST PUSH1 0x2 PUSH1 0x9 SSTORE PUSH2 0xDA4 DUP2 PUSH2 0x23A1 JUMP JUMPDEST POP PUSH1 0x1 PUSH1 0x9 SSTORE JUMP JUMPDEST PUSH1 0x0 PUSH2 0xDB7 DUP4 PUSH2 0x161D JUMP JUMPDEST DUP3 LT PUSH2 0xE10 JUMPI PUSH1 0x40 MLOAD PUSH3 0x461BCD PUSH1 0xE5 SHL DUP2 MSTORE PUSH1 0x20 PUSH1 0x4 DUP3 ADD MSTORE PUSH1 0x22 PUSH1 0x24 DUP3 ADD MSTORE PUSH32 0x455243373231413A206F776E657220696E646578206F7574206F6620626F756E PUSH1 0x44 DUP3 ADD MSTORE PUSH2 0x6473 PUSH1 0xF0 SHL PUSH1 0x64 DUP3 ADD MSTORE PUSH1 0x84 ADD PUSH2 0xAE9 JUMP JUMPDEST PUSH1 0x0 PUSH2 0xE1B PUSH1 0x1 SLOAD SWAP1 JUMP JUMPDEST SWAP1 POP PUSH1 0x0 DUP1 PUSH1 0x0 JUMPDEST DUP4 DUP2 LT ISZERO PUSH2 0xEC4 JUMPI PUSH1 0x0 DUP2 DUP2 MSTORE PUSH1 0x4 PUSH1 0x20 SWAP1 DUP2 MSTORE PUSH1 0x40 SWAP2 DUP3 SWAP1 KECCAK256 DUP3 MLOAD DUP1 DUP5 ADD SWAP1 SWAP4 MSTORE SLOAD PUSH1 0x1 PUSH1 0x1 PUSH1 0xA0 SHL SUB DUP2 AND DUP1 DUP5 MSTORE PUSH1 0x1 PUSH1 0xA0 SHL SWAP1 SWAP2 DIV PUSH1 0x1 PUSH1 0x1 PUSH1 0x40 SHL SUB AND SWAP2 DUP4 ADD SWAP2 SWAP1 SWAP2 MSTORE ISZERO PUSH2 0xE75 JUMPI DUP1 MLOAD SWAP3 POP JUMPDEST DUP8 PUSH1 0x1 PUSH1 0x1 PUSH1 0xA0 SHL SUB AND DUP4 PUSH1 0x1 PUSH1 0x1 PUSH1 0xA0 SHL SUB AND EQ ISZERO PUSH2 0xEB1 JUMPI DUP7 DUP5 EQ ISZERO PUSH2 0xEA3 JUMPI POP SWAP4 POP PUSH2 0x9E6 SWAP3 POP POP POP JUMP JUMPDEST DUP4 PUSH2 0xEAD DUP2 PUSH2 0x3437 JUMP JUMPDEST SWAP5 POP POP JUMPDEST POP DUP1 PUSH2 0xEBC DUP2 PUSH2 0x3437 JUMP JUMPDEST SWAP2 POP POP PUSH2 0xE23 JUMP JUMPDEST POP PUSH1 0x40 MLOAD PUSH3 0x461BCD PUSH1 0xE5 SHL DUP2 MSTORE PUSH1 0x20 PUSH1 0x4 DUP3 ADD MSTORE PUSH1 0x2E PUSH1 0x24 DUP3 ADD MSTORE PUSH32 0x455243373231413A20756E61626C6520746F2067657420746F6B656E206F6620 PUSH1 0x44 DUP3 ADD MSTORE PUSH14 0xDEEEDCCAE440C4F240D2DCC8CAF PUSH1 0x93 SHL PUSH1 0x64 DUP3 ADD MSTORE PUSH1 0x84 ADD PUSH2 0xAE9 JUMP JUMPDEST PUSH1 0x0 SLOAD PUSH1 0x1 PUSH1 0x1 PUSH1 0xA0 SHL SUB AND CALLER EQ PUSH2 0xF4E JUMPI PUSH1 0x40 MLOAD PUSH3 0x461BCD PUSH1 0xE5 SHL DUP2 MSTORE PUSH1 0x4 ADD PUSH2 0xAE9 SWAP1 PUSH2 0x33EC JUMP JUMPDEST PUSH32 0x0 DUP2 PUSH2 0xF79 PUSH1 0x1 SLOAD SWAP1 JUMP JUMPDEST PUSH2 0xF83 SWAP2 SWAP1 PUSH2 0x3452 JUMP JUMPDEST GT ISZERO PUSH2 0xFE1 JUMPI PUSH1 0x40 MLOAD PUSH3 0x461BCD PUSH1 0xE5 SHL DUP2 MSTORE PUSH1 0x20 PUSH1 0x4 DUP3 ADD MSTORE PUSH1 0x27 PUSH1 0x24 DUP3 ADD MSTORE PUSH32 0x746F6F206D616E7920616C7265616479206D696E746564206265666F72652064 PUSH1 0x44 DUP3 ADD MSTORE PUSH7 0x195D881B5A5B9D PUSH1 0xCA SHL PUSH1 0x64 DUP3 ADD MSTORE PUSH1 0x84 ADD PUSH2 0xAE9 JUMP JUMPDEST PUSH2 0x100B PUSH32 0x0 DUP3 PUSH2 0x3480 JUMP JUMPDEST ISZERO PUSH2 0x106D JUMPI PUSH1 0x40 MLOAD PUSH3 0x461BCD PUSH1 0xE5 SHL DUP2 MSTORE PUSH1 0x20 PUSH1 0x4 DUP3 ADD MSTORE PUSH1 0x2C PUSH1 0x24 DUP3 ADD MSTORE PUSH32 0x63616E206F6E6C79206D696E742061206D756C7469706C65206F662074686520 PUSH1 0x44 DUP3 ADD MSTORE PUSH12 0x6D6178426174636853697A65 PUSH1 0xA0 SHL PUSH1 0x64 DUP3 ADD MSTORE PUSH1 0x84 ADD PUSH2 0xAE9 JUMP JUMPDEST PUSH1 0x0 PUSH2 0x1099 PUSH32 0x0 DUP4 PUSH2 0x3494 JUMP JUMPDEST SWAP1 POP PUSH1 0x0 JUMPDEST DUP2 DUP2 LT ISZERO PUSH2 0xC21 JUMPI PUSH2 0x10D0 CALLER PUSH32 0x0 PUSH2 0x258A JUMP JUMPDEST DUP1 PUSH2 0x10DA DUP2 PUSH2 0x3437 JUMP JUMPDEST SWAP2 POP POP PUSH2 0x109E JUMP JUMPDEST ORIGIN CALLER EQ PUSH2 0x1101 JUMPI PUSH1 0x40 MLOAD PUSH3 0x461BCD PUSH1 0xE5 SHL DUP2 MSTORE PUSH1 0x4 ADD PUSH2 0xAE9 SWAP1 PUSH2 0x34A8 JUMP JUMPDEST PUSH1 0xB SLOAD PUSH1 0x1 PUSH1 0x40 SHL SWAP1 DIV PUSH1 0x1 PUSH1 0x1 PUSH1 0x40 SHL SUB AND DUP1 PUSH2 0x1161 JUMPI PUSH1 0x40 MLOAD PUSH3 0x461BCD PUSH1 0xE5 SHL DUP2 MSTORE PUSH1 0x20 PUSH1 0x4 DUP3 ADD DUP2 SWAP1 MSTORE PUSH1 0x24 DUP3 ADD MSTORE PUSH32 0x616C6C6F776C6973742073616C6520686173206E6F7420626567756E20796574 PUSH1 0x44 DUP3 ADD MSTORE PUSH1 0x64 ADD PUSH2 0xAE9 JUMP JUMPDEST CALLER PUSH1 0x0 SWAP1 DUP2 MSTORE PUSH1 0xC PUSH1 0x20 MSTORE PUSH1 0x40 SWAP1 KECCAK256 SLOAD PUSH2 0x11BD JUMPI PUSH1 0x40 MLOAD PUSH3 0x461BCD PUSH1 0xE5 SHL DUP2 MSTORE PUSH1 0x20 PUSH1 0x4 DUP3 ADD MSTORE PUSH1 0x1F PUSH1 0x24 DUP3 ADD MSTORE PUSH32 0x6E6F7420656C696769626C6520666F7220616C6C6F776C697374206D696E7400 PUSH1 0x44 DUP3 ADD MSTORE PUSH1 0x64 ADD PUSH2 0xAE9 JUMP JUMPDEST PUSH32 0x0 PUSH2 0x11E7 PUSH1 0x1 SLOAD SWAP1 JUMP JUMPDEST PUSH2 0x11F2 SWAP1 PUSH1 0x1 PUSH2 0x3452 JUMP JUMPDEST GT ISZERO PUSH2 0x1235 JUMPI PUSH1 0x40 MLOAD PUSH3 0x461BCD PUSH1 0xE5 SHL DUP2 MSTORE PUSH1 0x20 PUSH1 0x4 DUP3 ADD MSTORE PUSH1 0x12 PUSH1 0x24 DUP3 ADD MSTORE PUSH18 0x72656163686564206D617820737570706C79 PUSH1 0x70 SHL PUSH1 0x44 DUP3 ADD MSTORE PUSH1 0x64 ADD PUSH2 0xAE9 JUMP JUMPDEST CALLER PUSH1 0x0 SWAP1 DUP2 MSTORE PUSH1 0xC PUSH1 0x20 MSTORE PUSH1 0x40 DUP2 KECCAK256 DUP1 SLOAD SWAP2 PUSH2 0x1250 DUP4 PUSH2 0x34DF JUMP JUMPDEST SWAP2 SWAP1 POP SSTORE POP PUSH2 0x1260 CALLER PUSH1 0x1 PUSH2 0x258A JUMP JUMPDEST PUSH2 0x1269 DUP2 PUSH2 0x25A4 JUMP JUMPDEST POP JUMP JUMPDEST PUSH1 0x0 DUP4 ISZERO DUP1 ISZERO SWAP1 PUSH2 0x127C JUMPI POP DUP3 ISZERO ISZERO JUMPDEST DUP1 ISZERO PUSH2 0x1288 JUMPI POP DUP2 TIMESTAMP LT ISZERO JUMPDEST SWAP5 SWAP4 POP POP POP POP JUMP JUMPDEST PUSH2 0xC21 DUP4 DUP4 DUP4 PUSH1 0x40 MLOAD DUP1 PUSH1 0x20 ADD PUSH1 0x40 MSTORE DUP1 PUSH1 0x0 DUP2 MSTORE POP PUSH2 0x1BCD JUMP JUMPDEST ORIGIN CALLER EQ PUSH2 0x12CA JUMPI PUSH1 0x40 MLOAD PUSH3 0x461BCD PUSH1 0xE5 SHL DUP2 MSTORE PUSH1 0x4 ADD PUSH2 0xAE9 SWAP1 PUSH2 0x34A8 JUMP JUMPDEST PUSH1 0xB SLOAD PUSH4 0xFFFFFFFF AND DUP1 ISZERO DUP1 ISZERO SWAP1 PUSH2 0x12E2 JUMPI POP DUP1 TIMESTAMP LT ISZERO JUMPDEST PUSH2 0x132E JUMPI PUSH1 0x40 MLOAD PUSH3 0x461BCD PUSH1 0xE5 SHL DUP2 MSTORE PUSH1 0x20 PUSH1 0x4 DUP3 ADD MSTORE PUSH1 0x18 PUSH1 0x24 DUP3 ADD MSTORE PUSH32 0x73616C6520686173206E6F742073746172746564207965740000000000000000 PUSH1 0x44 DUP3 ADD MSTORE PUSH1 0x64 ADD PUSH2 0xAE9 JUMP JUMPDEST PUSH32 0x0 DUP3 PUSH2 0x1359 PUSH1 0x1 SLOAD SWAP1 JUMP JUMPDEST PUSH2 0x1363 SWAP2 SWAP1 PUSH2 0x3452 JUMP JUMPDEST GT ISZERO PUSH2 0x13E8 JUMPI PUSH1 0x40 MLOAD PUSH3 0x461BCD PUSH1 0xE5 SHL DUP2 MSTORE PUSH1 0x20 PUSH1 0x4 DUP3 ADD MSTORE PUSH1 0x48 PUSH1 0x24 DUP3 ADD MSTORE PUSH32 0x6E6F7420656E6F7567682072656D61696E696E6720726573657276656420666F PUSH1 0x44 DUP3 ADD MSTORE PUSH32 0x722061756374696F6E20746F20737570706F72742064657369726564206D696E PUSH1 0x64 DUP3 ADD MSTORE PUSH8 0x1D08185B5BDD5B9D PUSH1 0xC2 SHL PUSH1 0x84 DUP3 ADD MSTORE PUSH1 0xA4 ADD PUSH2 0xAE9 JUMP JUMPDEST PUSH32 0x0 DUP3 PUSH2 0x1413 CALLER PUSH2 0x1F20 JUMP JUMPDEST PUSH2 0x141D SWAP2 SWAP1 PUSH2 0x3452 JUMP JUMPDEST GT ISZERO PUSH2 0x1464 JUMPI PUSH1 0x40 MLOAD PUSH3 0x461BCD PUSH1 0xE5 SHL DUP2 MSTORE PUSH1 0x20 PUSH1 0x4 DUP3 ADD MSTORE PUSH1 0x16 PUSH1 0x24 DUP3 ADD MSTORE PUSH22 0x63616E206E6F74206D696E742074686973206D616E79 PUSH1 0x50 SHL PUSH1 0x44 DUP3 ADD MSTORE PUSH1 0x64 ADD PUSH2 0xAE9 JUMP JUMPDEST PUSH1 0x0 DUP3 PUSH2 0x1470 DUP4 PUSH2 0x1734 JUMP JUMPDEST PUSH2 0x147A SWAP2 SWAP1 PUSH2 0x34F6 JUMP JUMPDEST SWAP1 POP PUSH2 0x1486 CALLER DUP5 PUSH2 0x258A JUMP JUMPDEST PUSH2 0xC21 DUP2 PUSH2 0x25A4 JUMP JUMPDEST PUSH1 0x0 PUSH2 0x149A PUSH1 0x1 SLOAD SWAP1 JUMP JUMPDEST DUP3 LT PUSH2 0x14F4 JUMPI PUSH1 0x40 MLOAD PUSH3 0x461BCD PUSH1 0xE5 SHL DUP2 MSTORE PUSH1 0x20 PUSH1 0x4 DUP3 ADD MSTORE PUSH1 0x23 PUSH1 0x24 DUP3 ADD MSTORE PUSH32 0x455243373231413A20676C6F62616C20696E646578206F7574206F6620626F75 PUSH1 0x44 DUP3 ADD MSTORE PUSH3 0x6E6473 PUSH1 0xE8 SHL PUSH1 0x64 DUP3 ADD MSTORE PUSH1 0x84 ADD PUSH2 0xAE9 JUMP JUMPDEST POP SWAP1 JUMP JUMPDEST PUSH1 0x0 SLOAD PUSH1 0x1 PUSH1 0x1 PUSH1 0xA0 SHL SUB AND CALLER EQ PUSH2 0x1522 JUMPI PUSH1 0x40 MLOAD PUSH3 0x461BCD PUSH1 0xE5 SHL DUP2 MSTORE PUSH1 0x4 ADD PUSH2 0xAE9 SWAP1 PUSH2 0x33EC JUMP JUMPDEST PUSH2 0xC21 PUSH1 0xD DUP4 DUP4 PUSH2 0x2DA6 JUMP JUMPDEST PUSH2 0x153C PUSH2 0x4B0 PUSH2 0x4FB0 PUSH2 0x3494 JUMP JUMPDEST PUSH2 0x1556 PUSH8 0x214E8348C4F0000 PUSH8 0xDE0B6B3A7640000 PUSH2 0x3515 JUMP JUMPDEST PUSH2 0x1560 SWAP2 SWAP1 PUSH2 0x3494 JUMP JUMPDEST DUP2 JUMP JUMPDEST PUSH1 0x0 PUSH2 0x156E DUP3 PUSH2 0x262B JUMP JUMPDEST MLOAD SWAP3 SWAP2 POP POP JUMP JUMPDEST PUSH1 0xA SLOAD PUSH1 0x1 SLOAD PUSH2 0x1586 SWAP1 PUSH1 0x1 PUSH2 0x3452 JUMP JUMPDEST GT ISZERO PUSH2 0x15CC JUMPI PUSH1 0x40 MLOAD PUSH3 0x461BCD PUSH1 0xE5 SHL DUP2 MSTORE PUSH1 0x20 PUSH1 0x4 DUP3 ADD MSTORE PUSH1 0x15 PUSH1 0x24 DUP3 ADD MSTORE PUSH21 0x65786365656420636F6C6C656374696F6E53697A65 PUSH1 0x58 SHL PUSH1 0x44 DUP3 ADD MSTORE PUSH1 0x64 ADD PUSH2 0xAE9 JUMP JUMPDEST PUSH2 0x1269 DUP2 PUSH1 0x1 PUSH2 0x258A JUMP JUMPDEST PUSH1 0x0 SLOAD PUSH1 0x1 PUSH1 0x1 PUSH1 0xA0 SHL SUB AND CALLER EQ PUSH2 0x1601 JUMPI PUSH1 0x40 MLOAD PUSH3 0x461BCD PUSH1 0xE5 SHL DUP2 MSTORE PUSH1 0x4 ADD PUSH2 0xAE9 SWAP1 PUSH2 0x33EC JUMP JUMPDEST PUSH1 0xB DUP1 SLOAD PUSH4 0xFFFFFFFF NOT AND PUSH4 0xFFFFFFFF SWAP3 SWAP1 SWAP3 AND SWAP2 SWAP1 SWAP2 OR SWAP1 SSTORE JUMP JUMPDEST PUSH1 0x0 PUSH1 0x1 PUSH1 0x1 PUSH1 0xA0 SHL SUB DUP3 AND PUSH2 0x1689 JUMPI PUSH1 0x40 MLOAD PUSH3 0x461BCD PUSH1 0xE5 SHL DUP2 MSTORE PUSH1 0x20 PUSH1 0x4 DUP3 ADD MSTORE PUSH1 0x2B PUSH1 0x24 DUP3 ADD MSTORE PUSH32 0x455243373231413A2062616C616E636520717565727920666F7220746865207A PUSH1 0x44 DUP3 ADD MSTORE PUSH11 0x65726F2061646472657373 PUSH1 0xA8 SHL PUSH1 0x64 DUP3 ADD MSTORE PUSH1 0x84 ADD PUSH2 0xAE9 JUMP JUMPDEST POP PUSH1 0x1 PUSH1 0x1 PUSH1 0xA0 SHL SUB AND PUSH1 0x0 SWAP1 DUP2 MSTORE PUSH1 0x5 PUSH1 0x20 MSTORE PUSH1 0x40 SWAP1 KECCAK256 SLOAD PUSH1 0x1 PUSH1 0x1 PUSH1 0x80 SHL SUB AND SWAP1 JUMP JUMPDEST PUSH1 0x0 SLOAD PUSH1 0x1 PUSH1 0x1 PUSH1 0xA0 SHL SUB AND CALLER EQ PUSH2 0x16D8 JUMPI PUSH1 0x40 MLOAD PUSH3 0x461BCD PUSH1 0xE5 SHL DUP2 MSTORE PUSH1 0x4 ADD PUSH2 0xAE9 SWAP1 PUSH2 0x33EC JUMP JUMPDEST PUSH2 0x16E2 PUSH1 0x0 PUSH2 0x27D4 JUMP JUMPDEST JUMP JUMPDEST PUSH1 0x0 SLOAD PUSH1 0x1 PUSH1 0x1 PUSH1 0xA0 SHL SUB AND CALLER EQ PUSH2 0x170E JUMPI PUSH1 0x40 MLOAD PUSH3 0x461BCD PUSH1 0xE5 SHL DUP2 MSTORE PUSH1 0x4 ADD PUSH2 0xAE9 SWAP1 PUSH2 0x33EC JUMP JUMPDEST PUSH1 0xB DUP1 SLOAD PUSH4 0xFFFFFFFF SWAP1 SWAP3 AND PUSH1 0x1 PUSH1 0xC0 SHL MUL PUSH4 0xFFFFFFFF PUSH1 0xC0 SHL NOT SWAP1 SWAP3 AND SWAP2 SWAP1 SWAP2 OR SWAP1 SSTORE JUMP JUMPDEST PUSH1 0x0 DUP2 TIMESTAMP LT ISZERO PUSH2 0x174D JUMPI POP PUSH8 0xDE0B6B3A7640000 SWAP2 SWAP1 POP JUMP JUMPDEST PUSH2 0x4FB0 PUSH2 0x175A DUP4 TIMESTAMP PUSH2 0x3515 JUMP JUMPDEST LT PUSH2 0x176E JUMPI POP PUSH8 0x214E8348C4F0000 SWAP2 SWAP1 POP JUMP JUMPDEST PUSH1 0x0 PUSH2 0x4B0 PUSH2 0x177D DUP5 TIMESTAMP PUSH2 0x3515 JUMP JUMPDEST PUSH2 0x1787 SWAP2 SWAP1 PUSH2 0x3494 JUMP JUMPDEST SWAP1 POP PUSH2 0x1797 PUSH2 0x4B0 PUSH2 0x4FB0 PUSH2 0x3494 JUMP JUMPDEST PUSH2 0x17B1 PUSH8 0x214E8348C4F0000 PUSH8 0xDE0B6B3A7640000 PUSH2 0x3515 JUMP JUMPDEST PUSH2 0x17BB SWAP2 SWAP1 PUSH2 0x3494 JUMP JUMPDEST PUSH2 0x17C5 SWAP1 DUP3 PUSH2 0x34F6 JUMP JUMPDEST PUSH2 0x17D7 SWAP1 PUSH8 0xDE0B6B3A7640000 PUSH2 0x3515 JUMP JUMPDEST SWAP4 SWAP3 POP POP POP JUMP JUMPDEST SWAP2 SWAP1 POP JUMP JUMPDEST PUSH1 0x40 DUP1 MLOAD DUP1 DUP3 ADD SWAP1 SWAP2 MSTORE PUSH1 0x0 DUP1 DUP3 MSTORE PUSH1 0x20 DUP3 ADD MSTORE PUSH2 0x9E6 DUP3 PUSH2 0x262B JUMP JUMPDEST PUSH1 0xA SLOAD DUP3 PUSH2 0x180D PUSH1 0x1 SLOAD SWAP1 JUMP JUMPDEST PUSH2 0x1817 SWAP2 SWAP1 PUSH2 0x3452 JUMP JUMPDEST GT ISZERO PUSH2 0x1856 JUMPI PUSH1 0x40 MLOAD PUSH3 0x461BCD PUSH1 0xE5 SHL DUP2 MSTORE PUSH1 0x20 PUSH1 0x4 DUP3 ADD MSTORE PUSH1 0xE PUSH1 0x24 DUP3 ADD MSTORE PUSH14 0x636F6C6C656374696F6E53697A65 PUSH1 0x90 SHL PUSH1 0x44 DUP3 ADD MSTORE PUSH1 0x64 ADD PUSH2 0xAE9 JUMP JUMPDEST PUSH2 0x1860 DUP2 DUP4 PUSH2 0x258A JUMP JUMPDEST POP POP JUMP JUMPDEST PUSH1 0x60 PUSH1 0x3 DUP1 SLOAD PUSH2 0x9FB SWAP1 PUSH2 0x33B1 JUMP JUMPDEST PUSH1 0x1 PUSH1 0x1 PUSH1 0xA0 SHL SUB DUP3 AND CALLER EQ ISZERO PUSH2 0x18CC JUMPI PUSH1 0x40 MLOAD PUSH3 0x461BCD PUSH1 0xE5 SHL DUP2 MSTORE PUSH1 0x20 PUSH1 0x4 DUP3 ADD MSTORE PUSH1 0x1A PUSH1 0x24 DUP3 ADD MSTORE PUSH32 0x455243373231413A20617070726F766520746F2063616C6C6572000000000000 PUSH1 0x44 DUP3 ADD MSTORE PUSH1 0x64 ADD PUSH2 0xAE9 JUMP JUMPDEST CALLER PUSH1 0x0 DUP2 DUP2 MSTORE PUSH1 0x7 PUSH1 0x20 SWAP1 DUP2 MSTORE PUSH1 0x40 DUP1 DUP4 KECCAK256 PUSH1 0x1 PUSH1 0x1 PUSH1 0xA0 SHL SUB DUP8 AND DUP1 DUP6 MSTORE SWAP1 DUP4 MSTORE SWAP3 DUP2 SWAP1 KECCAK256 DUP1 SLOAD PUSH1 0xFF NOT AND DUP7 ISZERO ISZERO SWAP1 DUP2 OR SWAP1 SWAP2 SSTORE SWAP1 MLOAD SWAP1 DUP2 MSTORE SWAP2 SWAP3 SWAP2 PUSH32 0x17307EAB39AB6107E8899845AD3D59BD9653F200F220920489CA2B5937696C31 SWAP2 ADD PUSH1 0x40 MLOAD DUP1 SWAP2 SUB SWAP1 LOG3 POP POP JUMP JUMPDEST PUSH1 0x0 SLOAD PUSH1 0x1 PUSH1 0x1 PUSH1 0xA0 SHL SUB AND CALLER EQ PUSH2 0x1962 JUMPI PUSH1 0x40 MLOAD PUSH3 0x461BCD PUSH1 0xE5 SHL DUP2 MSTORE PUSH1 0x4 ADD PUSH2 0xAE9 SWAP1 PUSH2 0x33EC JUMP JUMPDEST PUSH1 0x2 PUSH1 0x9 SLOAD EQ ISZERO PUSH2 0x19B5 JUMPI PUSH1 0x40 MLOAD PUSH3 0x461BCD PUSH1 0xE5 SHL DUP2 MSTORE PUSH1 0x20 PUSH1 0x4 DUP3 ADD MSTORE PUSH1 0x1F PUSH1 0x24 DUP3 ADD MSTORE PUSH32 0x5265656E7472616E637947756172643A207265656E7472616E742063616C6C00 PUSH1 0x44 DUP3 ADD MSTORE PUSH1 0x64 ADD PUSH2 0xAE9 JUMP JUMPDEST PUSH1 0x2 PUSH1 0x9 SSTORE PUSH1 0x40 MLOAD PUSH1 0x0 SWAP1 CALLER SWAP1 SELFBALANCE SWAP1 DUP4 DUP2 DUP2 DUP2 DUP6 DUP8 GAS CALL SWAP3 POP POP POP RETURNDATASIZE DUP1 PUSH1 0x0 DUP2 EQ PUSH2 0x19FC JUMPI PUSH1 0x40 MLOAD SWAP2 POP PUSH1 0x1F NOT PUSH1 0x3F RETURNDATASIZE ADD AND DUP3 ADD PUSH1 0x40 MSTORE RETURNDATASIZE DUP3 MSTORE RETURNDATASIZE PUSH1 0x0 PUSH1 0x20 DUP5 ADD RETURNDATACOPY PUSH2 0x1A01 JUMP JUMPDEST PUSH1 0x60 SWAP2 POP JUMPDEST POP POP SWAP1 POP DUP1 PUSH2 0xDA4 JUMPI PUSH1 0x40 MLOAD PUSH3 0x461BCD PUSH1 0xE5 SHL DUP2 MSTORE PUSH1 0x20 PUSH1 0x4 DUP3 ADD MSTORE PUSH1 0x10 PUSH1 0x24 DUP3 ADD MSTORE PUSH16 0x2A3930B739B332B9103330B4B632B217 PUSH1 0x81 SHL PUSH1 0x44 DUP3 ADD MSTORE PUSH1 0x64 ADD PUSH2 0xAE9 JUMP JUMPDEST PUSH1 0x0 SLOAD PUSH1 0x1 PUSH1 0x1 PUSH1 0xA0 SHL SUB AND CALLER EQ PUSH2 0x1A6F JUMPI PUSH1 0x40 MLOAD PUSH3 0x461BCD PUSH1 0xE5 SHL DUP2 MSTORE PUSH1 0x4 ADD PUSH2 0xAE9 SWAP1 PUSH2 0x33EC JUMP JUMPDEST PUSH1 0xA SLOAD DUP2 LT ISZERO PUSH2 0x1AC1 JUMPI PUSH1 0x40 MLOAD PUSH3 0x461BCD PUSH1 0xE5 SHL DUP2 MSTORE PUSH1 0x20 PUSH1 0x4 DUP3 ADD MSTORE PUSH1 0x1D PUSH1 0x24 DUP3 ADD MSTORE PUSH32 0x646F6E277420646563726561736520636F6C6C656374696F6E53697A65000000 PUSH1 0x44 DUP3 ADD MSTORE PUSH1 0x64 ADD PUSH2 0xAE9 JUMP JUMPDEST PUSH1 0xA SSTORE JUMP JUMPDEST PUSH1 0x0 SLOAD PUSH1 0x1 PUSH1 0x1 PUSH1 0xA0 SHL SUB AND CALLER EQ PUSH2 0x1AF0 JUMPI PUSH1 0x40 MLOAD PUSH3 0x461BCD PUSH1 0xE5 SHL DUP2 MSTORE PUSH1 0x4 ADD PUSH2 0xAE9 SWAP1 PUSH2 0x33EC JUMP JUMPDEST DUP1 MLOAD DUP3 MLOAD EQ PUSH2 0x1B52 JUMPI PUSH1 0x40 MLOAD PUSH3 0x461BCD PUSH1 0xE5 SHL DUP2 MSTORE PUSH1 0x20 PUSH1 0x4 DUP3 ADD MSTORE PUSH1 0x28 PUSH1 0x24 DUP3 ADD MSTORE PUSH32 0x61646472657373657320646F6573206E6F74206D61746368206E756D536C6F74 PUSH1 0x44 DUP3 ADD MSTORE PUSH8 0xE640D8CADCCEE8D PUSH1 0xC3 SHL PUSH1 0x64 DUP3 ADD MSTORE PUSH1 0x84 ADD PUSH2 0xAE9 JUMP JUMPDEST PUSH1 0x0 JUMPDEST DUP3 MLOAD DUP2 LT ISZERO PUSH2 0xC21 JUMPI DUP2 DUP2 DUP2 MLOAD DUP2 LT PUSH2 0x1B70 JUMPI PUSH2 0x1B70 PUSH2 0x352C JUMP JUMPDEST PUSH1 0x20 MUL PUSH1 0x20 ADD ADD MLOAD PUSH1 0xC PUSH1 0x0 DUP6 DUP5 DUP2 MLOAD DUP2 LT PUSH2 0x1B8E JUMPI PUSH2 0x1B8E PUSH2 0x352C JUMP JUMPDEST PUSH1 0x20 MUL PUSH1 0x20 ADD ADD MLOAD PUSH1 0x1 PUSH1 0x1 PUSH1 0xA0 SHL SUB AND PUSH1 0x1 PUSH1 0x1 PUSH1 0xA0 SHL SUB AND DUP2 MSTORE PUSH1 0x20 ADD SWAP1 DUP2 MSTORE PUSH1 0x20 ADD PUSH1 0x0 KECCAK256 DUP2 SWAP1 SSTORE POP DUP1 DUP1 PUSH2 0x1BC5 SWAP1 PUSH2 0x3437 JUMP JUMPDEST SWAP2 POP POP PUSH2 0x1B55 JUMP JUMPDEST PUSH2 0x1BD8 DUP5 DUP5 DUP5 PUSH2 0x201F JUMP JUMPDEST PUSH2 0x1BE4 DUP5 DUP5 DUP5 DUP5 PUSH2 0x2824 JUMP JUMPDEST PUSH2 0x1C00 JUMPI PUSH1 0x40 MLOAD PUSH3 0x461BCD PUSH1 0xE5 SHL DUP2 MSTORE PUSH1 0x4 ADD PUSH2 0xAE9 SWAP1 PUSH2 0x3542 JUMP JUMPDEST POP POP POP POP JUMP JUMPDEST PUSH1 0x60 PUSH2 0x1C13 DUP3 PUSH1 0x1 SLOAD GT SWAP1 JUMP JUMPDEST PUSH2 0x1C77 JUMPI PUSH1 0x40 MLOAD PUSH3 0x461BCD PUSH1 0xE5 SHL DUP2 MSTORE PUSH1 0x20 PUSH1 0x4 DUP3 ADD MSTORE PUSH1 0x2F PUSH1 0x24 DUP3 ADD MSTORE PUSH32 0x4552433732314D657461646174613A2055524920717565727920666F72206E6F PUSH1 0x44 DUP3 ADD MSTORE PUSH15 0x3732BC34B9BA32B73A103A37B5B2B7 PUSH1 0x89 SHL PUSH1 0x64 DUP3 ADD MSTORE PUSH1 0x84 ADD PUSH2 0xAE9 JUMP JUMPDEST PUSH1 0x0 PUSH2 0x1C81 PUSH2 0x2922 JUMP JUMPDEST SWAP1 POP PUSH1 0x0 DUP2 MLOAD GT PUSH2 0x1CA1 JUMPI PUSH1 0x40 MLOAD DUP1 PUSH1 0x20 ADD PUSH1 0x40 MSTORE DUP1 PUSH1 0x0 DUP2 MSTORE POP PUSH2 0x17D7 JUMP JUMPDEST DUP1 PUSH2 0x1CAB DUP5 PUSH2 0x2931 JUMP JUMPDEST PUSH1 0x40 MLOAD PUSH1 0x20 ADD PUSH2 0x1CBC SWAP3 SWAP2 SWAP1 PUSH2 0x3595 JUMP JUMPDEST PUSH1 0x40 MLOAD PUSH1 0x20 DUP2 DUP4 SUB SUB DUP2 MSTORE SWAP1 PUSH1 0x40 MSTORE SWAP4 SWAP3 POP POP POP JUMP JUMPDEST ORIGIN CALLER EQ PUSH2 0x1CF1 JUMPI PUSH1 0x40 MLOAD PUSH3 0x461BCD PUSH1 0xE5 SHL DUP2 MSTORE PUSH1 0x4 ADD PUSH2 0xAE9 SWAP1 PUSH2 0x34A8 JUMP JUMPDEST PUSH1 0x40 DUP1 MLOAD PUSH1 0xA0 DUP2 ADD DUP3 MSTORE PUSH1 0xB SLOAD PUSH4 0xFFFFFFFF DUP1 DUP3 AND DUP4 MSTORE PUSH5 0x100000000 DUP3 DIV DUP2 AND PUSH1 0x20 DUP5 ADD DUP2 SWAP1 MSTORE PUSH1 0x1 PUSH1 0x1 PUSH1 0x40 SHL SUB PUSH1 0x1 PUSH1 0x40 SHL DUP5 DIV DUP2 AND SWAP6 DUP6 ADD SWAP6 SWAP1 SWAP6 MSTORE PUSH1 0x1 PUSH1 0x80 SHL DUP4 DIV SWAP1 SWAP5 AND PUSH1 0x60 DUP5 ADD DUP2 SWAP1 MSTORE PUSH1 0x1 PUSH1 0xC0 SHL SWAP1 SWAP3 DIV AND PUSH1 0x80 DUP4 ADD DUP2 SWAP1 MSTORE SWAP2 SWAP3 DUP5 DUP4 EQ PUSH2 0x1DB1 JUMPI PUSH1 0x40 MLOAD PUSH3 0x461BCD PUSH1 0xE5 SHL DUP2 MSTORE PUSH1 0x20 PUSH1 0x4 DUP3 ADD MSTORE PUSH1 0x25 PUSH1 0x24 DUP3 ADD MSTORE PUSH32 0x63616C6C6564207769746820696E636F7272656374207075626C69632073616C PUSH1 0x44 DUP3 ADD MSTORE PUSH5 0x65206B6579 PUSH1 0xD8 SHL PUSH1 0x64 DUP3 ADD MSTORE PUSH1 0x84 ADD PUSH2 0xAE9 JUMP JUMPDEST PUSH2 0x1DBC DUP3 DUP5 DUP4 PUSH2 0x126C JUMP JUMPDEST PUSH2 0x1E08 JUMPI PUSH1 0x40 MLOAD PUSH3 0x461BCD PUSH1 0xE5 SHL DUP2 MSTORE PUSH1 0x20 PUSH1 0x4 DUP3 ADD MSTORE PUSH1 0x1D PUSH1 0x24 DUP3 ADD MSTORE PUSH32 0x7075626C69632073616C6520686173206E6F7420626567756E20796574000000 PUSH1 0x44 DUP3 ADD MSTORE PUSH1 0x64 ADD PUSH2 0xAE9 JUMP JUMPDEST PUSH32 0x0 DUP7 PUSH2 0x1E33 PUSH1 0x1 SLOAD SWAP1 JUMP JUMPDEST PUSH2 0x1E3D SWAP2 SWAP1 PUSH2 0x3452 JUMP JUMPDEST GT ISZERO PUSH2 0x1E80 JUMPI PUSH1 0x40 MLOAD PUSH3 0x461BCD PUSH1 0xE5 SHL DUP2 MSTORE PUSH1 0x20 PUSH1 0x4 DUP3 ADD MSTORE PUSH1 0x12 PUSH1 0x24 DUP3 ADD MSTORE PUSH18 0x72656163686564206D617820737570706C79 PUSH1 0x70 SHL PUSH1 0x44 DUP3 ADD MSTORE PUSH1 0x64 ADD PUSH2 0xAE9 JUMP JUMPDEST PUSH32 0x0 DUP7 PUSH2 0x1EAB CALLER PUSH2 0x1F20 JUMP JUMPDEST PUSH2 0x1EB5 SWAP2 SWAP1 PUSH2 0x3452 JUMP JUMPDEST GT ISZERO PUSH2 0x1EFC JUMPI PUSH1 0x40 MLOAD PUSH3 0x461BCD PUSH1 0xE5 SHL DUP2 MSTORE PUSH1 0x20 PUSH1 0x4 DUP3 ADD MSTORE PUSH1 0x16 PUSH1 0x24 DUP3 ADD MSTORE PUSH22 0x63616E206E6F74206D696E742074686973206D616E79 PUSH1 0x50 SHL PUSH1 0x44 DUP3 ADD MSTORE PUSH1 0x64 ADD PUSH2 0xAE9 JUMP JUMPDEST PUSH2 0x1F06 CALLER DUP8 PUSH2 0x258A JUMP JUMPDEST PUSH2 0x1F18 PUSH2 0x1F13 DUP8 DUP5 PUSH2 0x34F6 JUMP JUMPDEST PUSH2 0x25A4 JUMP JUMPDEST POP POP POP POP POP POP JUMP JUMPDEST PUSH1 0x0 PUSH2 0x9E6 DUP3 PUSH2 0x2A2E JUMP JUMPDEST PUSH1 0x0 SLOAD PUSH1 0x1 PUSH1 0x1 PUSH1 0xA0 SHL SUB AND CALLER EQ PUSH2 0x1F55 JUMPI PUSH1 0x40 MLOAD PUSH3 0x461BCD PUSH1 0xE5 SHL DUP2 MSTORE PUSH1 0x4 ADD PUSH2 0xAE9 SWAP1 PUSH2 0x33EC JUMP JUMPDEST PUSH1 0x1 PUSH1 0x1 PUSH1 0xA0 SHL SUB DUP2 AND PUSH2 0x1FBA JUMPI PUSH1 0x40 MLOAD PUSH3 0x461BCD PUSH1 0xE5 SHL DUP2 MSTORE PUSH1 0x20 PUSH1 0x4 DUP3 ADD MSTORE PUSH1 0x26 PUSH1 0x24 DUP3 ADD MSTORE PUSH32 0x4F776E61626C653A206E6577206F776E657220697320746865207A65726F2061 PUSH1 0x44 DUP3 ADD MSTORE PUSH6 0x646472657373 PUSH1 0xD0 SHL PUSH1 0x64 DUP3 ADD MSTORE PUSH1 0x84 ADD PUSH2 0xAE9 JUMP JUMPDEST PUSH2 0x1269 DUP2 PUSH2 0x27D4 JUMP JUMPDEST PUSH1 0x0 DUP3 DUP2 MSTORE PUSH1 0x6 PUSH1 0x20 MSTORE PUSH1 0x40 DUP1 DUP3 KECCAK256 DUP1 SLOAD PUSH1 0x1 PUSH1 0x1 PUSH1 0xA0 SHL SUB NOT AND PUSH1 0x1 PUSH1 0x1 PUSH1 0xA0 SHL SUB DUP8 DUP2 AND SWAP2 DUP3 OR SWAP1 SWAP3 SSTORE SWAP2 MLOAD DUP6 SWAP4 SWAP2 DUP6 AND SWAP2 PUSH32 0x8C5BE1E5EBEC7D5BD14F71427D1E84F3DD0314C0F7B2291E5B200AC8C7C3B925 SWAP2 LOG4 POP POP POP JUMP JUMPDEST PUSH1 0x0 PUSH2 0x202A DUP3 PUSH2 0x262B JUMP JUMPDEST DUP1 MLOAD SWAP1 SWAP2 POP PUSH1 0x0 SWAP1 PUSH1 0x1 PUSH1 0x1 PUSH1 0xA0 SHL SUB AND CALLER PUSH1 0x1 PUSH1 0x1 PUSH1 0xA0 SHL SUB AND EQ DUP1 PUSH2 0x2061 JUMPI POP CALLER PUSH2 0x2056 DUP5 PUSH2 0xA7E JUMP JUMPDEST PUSH1 0x1 PUSH1 0x1 PUSH1 0xA0 SHL SUB AND EQ JUMPDEST DUP1 PUSH2 0x2073 JUMPI POP DUP2 MLOAD PUSH2 0x2073 SWAP1 CALLER PUSH2 0x8E7 JUMP JUMPDEST SWAP1 POP DUP1 PUSH2 0x20DD JUMPI PUSH1 0x40 MLOAD PUSH3 0x461BCD PUSH1 0xE5 SHL DUP2 MSTORE PUSH1 0x20 PUSH1 0x4 DUP3 ADD MSTORE PUSH1 0x32 PUSH1 0x24 DUP3 ADD MSTORE PUSH32 0x455243373231413A207472616E736665722063616C6C6572206973206E6F7420 PUSH1 0x44 DUP3 ADD MSTORE PUSH18 0x1BDDDB995C881B9BDC88185C1C1C9BDD9959 PUSH1 0x72 SHL PUSH1 0x64 DUP3 ADD MSTORE PUSH1 0x84 ADD PUSH2 0xAE9 JUMP JUMPDEST DUP5 PUSH1 0x1 PUSH1 0x1 PUSH1 0xA0 SHL SUB AND DUP3 PUSH1 0x0 ADD MLOAD PUSH1 0x1 PUSH1 0x1 PUSH1 0xA0 SHL SUB AND EQ PUSH2 0x2151 JUMPI PUSH1 0x40 MLOAD PUSH3 0x461BCD PUSH1 0xE5 SHL DUP2 MSTORE PUSH1 0x20 PUSH1 0x4 DUP3 ADD MSTORE PUSH1 0x26 PUSH1 0x24 DUP3 ADD MSTORE PUSH32 0x455243373231413A207472616E736665722066726F6D20696E636F7272656374 PUSH1 0x44 DUP3 ADD MSTORE PUSH6 0x1037BBB732B9 PUSH1 0xD1 SHL PUSH1 0x64 DUP3 ADD MSTORE PUSH1 0x84 ADD PUSH2 0xAE9 JUMP JUMPDEST PUSH1 0x1 PUSH1 0x1 PUSH1 0xA0 SHL SUB DUP5 AND PUSH2 0x21B5 JUMPI PUSH1 0x40 MLOAD PUSH3 0x461BCD PUSH1 0xE5 SHL DUP2 MSTORE PUSH1 0x20 PUSH1 0x4 DUP3 ADD MSTORE PUSH1 0x25 PUSH1 0x24 DUP3 ADD MSTORE PUSH32 0x455243373231413A207472616E7366657220746F20746865207A65726F206164 PUSH1 0x44 DUP3 ADD MSTORE PUSH5 0x6472657373 PUSH1 0xD8 SHL PUSH1 0x64 DUP3 ADD MSTORE PUSH1 0x84 ADD PUSH2 0xAE9 JUMP JUMPDEST PUSH2 0x21C5 PUSH1 0x0 DUP5 DUP5 PUSH1 0x0 ADD MLOAD PUSH2 0x1FC3 JUMP JUMPDEST PUSH1 0x1 PUSH1 0x1 PUSH1 0xA0 SHL SUB DUP6 AND PUSH1 0x0 SWAP1 DUP2 MSTORE PUSH1 0x5 PUSH1 0x20 MSTORE PUSH1 0x40 DUP2 KECCAK256 DUP1 SLOAD PUSH1 0x1 SWAP3 SWAP1 PUSH2 0x21F7 SWAP1 DUP5 SWAP1 PUSH1 0x1 PUSH1 0x1 PUSH1 0x80 SHL SUB AND PUSH2 0x35C4 JUMP JUMPDEST DUP3 SLOAD PUSH2 0x100 SWAP3 SWAP1 SWAP3 EXP PUSH1 0x1 PUSH1 0x1 PUSH1 0x80 SHL SUB DUP2 DUP2 MUL NOT SWAP1 SWAP4 AND SWAP2 DUP4 AND MUL OR SWAP1 SWAP2 SSTORE PUSH1 0x1 PUSH1 0x1 PUSH1 0xA0 SHL SUB DUP7 AND PUSH1 0x0 SWAP1 DUP2 MSTORE PUSH1 0x5 PUSH1 0x20 MSTORE PUSH1 0x40 DUP2 KECCAK256 DUP1 SLOAD PUSH1 0x1 SWAP5 POP SWAP1 SWAP3 PUSH2 0x2243 SWAP2 DUP6 SWAP2 AND PUSH2 0x35EC JUMP JUMPDEST DUP3 SLOAD PUSH1 0x1 PUSH1 0x1 PUSH1 0x80 SHL SUB SWAP2 DUP3 AND PUSH2 0x100 SWAP4 SWAP1 SWAP4 EXP SWAP3 DUP4 MUL SWAP2 SWAP1 SWAP3 MUL NOT SWAP1 SWAP2 AND OR SWAP1 SSTORE POP PUSH1 0x40 DUP1 MLOAD DUP1 DUP3 ADD DUP3 MSTORE PUSH1 0x1 PUSH1 0x1 PUSH1 0xA0 SHL SUB DUP1 DUP8 AND DUP3 MSTORE PUSH1 0x1 PUSH1 0x1 PUSH1 0x40 SHL SUB TIMESTAMP DUP2 AND PUSH1 0x20 DUP1 DUP6 ADD SWAP2 DUP3 MSTORE PUSH1 0x0 DUP10 DUP2 MSTORE PUSH1 0x4 SWAP1 SWAP2 MSTORE SWAP5 DUP6 KECCAK256 SWAP4 MLOAD DUP5 SLOAD SWAP2 MLOAD SWAP1 SWAP3 AND PUSH1 0x1 PUSH1 0xA0 SHL MUL PUSH1 0x1 PUSH1 0x1 PUSH1 0xE0 SHL SUB NOT SWAP1 SWAP2 AND SWAP2 SWAP1 SWAP3 AND OR OR SWAP1 SSTORE PUSH2 0x22CA DUP5 PUSH1 0x1 PUSH2 0x3452 JUMP JUMPDEST PUSH1 0x0 DUP2 DUP2 MSTORE PUSH1 0x4 PUSH1 0x20 MSTORE PUSH1 0x40 SWAP1 KECCAK256 SLOAD SWAP1 SWAP2 POP PUSH1 0x1 PUSH1 0x1 PUSH1 0xA0 SHL SUB AND PUSH2 0x235B JUMPI PUSH2 0x22F4 DUP2 PUSH1 0x1 SLOAD GT SWAP1 JUMP JUMPDEST ISZERO PUSH2 0x235B JUMPI PUSH1 0x40 DUP1 MLOAD DUP1 DUP3 ADD DUP3 MSTORE DUP5 MLOAD PUSH1 0x1 PUSH1 0x1 PUSH1 0xA0 SHL SUB SWAP1 DUP2 AND DUP3 MSTORE PUSH1 0x20 DUP1 DUP8 ADD MLOAD PUSH1 0x1 PUSH1 0x1 PUSH1 0x40 SHL SUB SWAP1 DUP2 AND DUP3 DUP6 ADD SWAP1 DUP2 MSTORE PUSH1 0x0 DUP8 DUP2 MSTORE PUSH1 0x4 SWAP1 SWAP4 MSTORE SWAP5 SWAP1 SWAP2 KECCAK256 SWAP3 MLOAD DUP4 SLOAD SWAP5 MLOAD SWAP1 SWAP2 AND PUSH1 0x1 PUSH1 0xA0 SHL MUL PUSH1 0x1 PUSH1 0x1 PUSH1 0xE0 SHL SUB NOT SWAP1 SWAP5 AND SWAP2 AND OR SWAP2 SWAP1 SWAP2 OR SWAP1 SSTORE JUMPDEST DUP4 DUP6 PUSH1 0x1 PUSH1 0x1 PUSH1 0xA0 SHL SUB AND DUP8 PUSH1 0x1 PUSH1 0x1 PUSH1 0xA0 SHL SUB AND PUSH32 0xDDF252AD1BE2C89B69C2B068FC378DAA952BA7F163C4A11628F55A4DF523B3EF PUSH1 0x40 MLOAD PUSH1 0x40 MLOAD DUP1 SWAP2 SUB SWAP1 LOG4 PUSH2 0x1F18 JUMP JUMPDEST PUSH1 0x8 SLOAD DUP2 PUSH2 0x23F1 JUMPI PUSH1 0x40 MLOAD PUSH3 0x461BCD PUSH1 0xE5 SHL DUP2 MSTORE PUSH1 0x20 PUSH1 0x4 DUP3 ADD MSTORE PUSH1 0x18 PUSH1 0x24 DUP3 ADD MSTORE PUSH32 0x7175616E74697479206D757374206265206E6F6E7A65726F0000000000000000 PUSH1 0x44 DUP3 ADD MSTORE PUSH1 0x64 ADD PUSH2 0xAE9 JUMP JUMPDEST PUSH1 0x0 PUSH1 0x1 PUSH2 0x23FF DUP5 DUP5 PUSH2 0x3452 JUMP JUMPDEST PUSH2 0x2409 SWAP2 SWAP1 PUSH2 0x3515 JUMP JUMPDEST SWAP1 POP PUSH2 0x2436 PUSH1 0x1 PUSH32 0x0 PUSH2 0x3515 JUMP JUMPDEST DUP2 GT ISZERO PUSH2 0x246B JUMPI PUSH2 0x2468 PUSH1 0x1 PUSH32 0x0 PUSH2 0x3515 JUMP JUMPDEST SWAP1 POP JUMPDEST PUSH2 0x2476 DUP2 PUSH1 0x1 SLOAD GT SWAP1 JUMP JUMPDEST PUSH2 0x24D1 JUMPI PUSH1 0x40 MLOAD PUSH3 0x461BCD PUSH1 0xE5 SHL DUP2 MSTORE PUSH1 0x20 PUSH1 0x4 DUP3 ADD MSTORE PUSH1 0x26 PUSH1 0x24 DUP3 ADD MSTORE PUSH32 0x6E6F7420656E6F756768206D696E7465642079657420666F7220746869732063 PUSH1 0x44 DUP3 ADD MSTORE PUSH6 0x6C65616E757 PUSH1 0xD4 SHL PUSH1 0x64 DUP3 ADD MSTORE PUSH1 0x84 ADD PUSH2 0xAE9 JUMP JUMPDEST DUP2 JUMPDEST DUP2 DUP2 GT PUSH2 0x2576 JUMPI PUSH1 0x0 DUP2 DUP2 MSTORE PUSH1 0x4 PUSH1 0x20 MSTORE PUSH1 0x40 SWAP1 KECCAK256 SLOAD PUSH1 0x1 PUSH1 0x1 PUSH1 0xA0 SHL SUB AND PUSH2 0x2564 JUMPI PUSH1 0x0 PUSH2 0x2501 DUP3 PUSH2 0x262B JUMP JUMPDEST PUSH1 0x40 DUP1 MLOAD DUP1 DUP3 ADD DUP3 MSTORE DUP3 MLOAD PUSH1 0x1 PUSH1 0x1 PUSH1 0xA0 SHL SUB SWAP1 DUP2 AND DUP3 MSTORE PUSH1 0x20 SWAP4 DUP5 ADD MLOAD PUSH1 0x1 PUSH1 0x1 PUSH1 0x40 SHL SUB SWAP1 DUP2 AND DUP6 DUP5 ADD SWAP1 DUP2 MSTORE PUSH1 0x0 DUP9 DUP2 MSTORE PUSH1 0x4 SWAP1 SWAP7 MSTORE SWAP4 SWAP1 SWAP5 KECCAK256 SWAP2 MLOAD DUP3 SLOAD SWAP4 MLOAD SWAP1 SWAP5 AND PUSH1 0x1 PUSH1 0xA0 SHL MUL PUSH1 0x1 PUSH1 0x1 PUSH1 0xE0 SHL SUB NOT SWAP1 SWAP4 AND SWAP4 AND SWAP3 SWAP1 SWAP3 OR OR SWAP1 SSTORE POP JUMPDEST DUP1 PUSH2 0x256E DUP2 PUSH2 0x3437 JUMP JUMPDEST SWAP2 POP POP PUSH2 0x24D3 JUMP JUMPDEST POP PUSH2 0x2582 DUP2 PUSH1 0x1 PUSH2 0x3452 JUMP JUMPDEST PUSH1 0x8 SSTORE POP POP POP JUMP JUMPDEST PUSH2 0x1860 DUP3 DUP3 PUSH1 0x40 MLOAD DUP1 PUSH1 0x20 ADD PUSH1 0x40 MSTORE DUP1 PUSH1 0x0 DUP2 MSTORE POP PUSH2 0x2ACC JUMP JUMPDEST DUP1 CALLVALUE LT ISZERO PUSH2 0x25ED JUMPI PUSH1 0x40 MLOAD PUSH3 0x461BCD PUSH1 0xE5 SHL DUP2 MSTORE PUSH1 0x20 PUSH1 0x4 DUP3 ADD MSTORE PUSH1 0x16 PUSH1 0x24 DUP3 ADD MSTORE PUSH22 0x2732B2B2103A379039B2B7321036B7B9329022AA2417 PUSH1 0x51 SHL PUSH1 0x44 DUP3 ADD MSTORE PUSH1 0x64 ADD PUSH2 0xAE9 JUMP JUMPDEST DUP1 CALLVALUE GT ISZERO PUSH2 0x1269 JUMPI CALLER PUSH2 0x8FC PUSH2 0x2603 DUP4 CALLVALUE PUSH2 0x3515 JUMP JUMPDEST PUSH1 0x40 MLOAD DUP2 ISZERO SWAP1 SWAP3 MUL SWAP2 PUSH1 0x0 DUP2 DUP2 DUP2 DUP6 DUP9 DUP9 CALL SWAP4 POP POP POP POP ISZERO DUP1 ISZERO PUSH2 0x1860 JUMPI RETURNDATASIZE PUSH1 0x0 DUP1 RETURNDATACOPY RETURNDATASIZE PUSH1 0x0 REVERT JUMPDEST PUSH1 0x40 DUP1 MLOAD DUP1 DUP3 ADD SWAP1 SWAP2 MSTORE PUSH1 0x0 DUP1 DUP3 MSTORE PUSH1 0x20 DUP3 ADD MSTORE PUSH2 0x264A DUP3 PUSH1 0x1 SLOAD GT SWAP1 JUMP JUMPDEST PUSH2 0x26A9 JUMPI PUSH1 0x40 MLOAD PUSH3 0x461BCD PUSH1 0xE5 SHL DUP2 MSTORE PUSH1 0x20 PUSH1 0x4 DUP3 ADD MSTORE PUSH1 0x2A PUSH1 0x24 DUP3 ADD MSTORE PUSH32 0x455243373231413A206F776E657220717565727920666F72206E6F6E65786973 PUSH1 0x44 DUP3 ADD MSTORE PUSH10 0x3A32B73A103A37B5B2B7 PUSH1 0xB1 SHL PUSH1 0x64 DUP3 ADD MSTORE PUSH1 0x84 ADD PUSH2 0xAE9 JUMP JUMPDEST PUSH1 0x0 PUSH32 0x0 DUP4 LT PUSH2 0x270A JUMPI PUSH2 0x26FC PUSH32 0x0 DUP5 PUSH2 0x3515 JUMP JUMPDEST PUSH2 0x2707 SWAP1 PUSH1 0x1 PUSH2 0x3452 JUMP JUMPDEST SWAP1 POP JUMPDEST DUP3 JUMPDEST DUP2 DUP2 LT PUSH2 0x2773 JUMPI PUSH1 0x0 DUP2 DUP2 MSTORE PUSH1 0x4 PUSH1 0x20 SWAP1 DUP2 MSTORE PUSH1 0x40 SWAP2 DUP3 SWAP1 KECCAK256 DUP3 MLOAD DUP1 DUP5 ADD SWAP1 SWAP4 MSTORE SLOAD PUSH1 0x1 PUSH1 0x1 PUSH1 0xA0 SHL SUB DUP2 AND DUP1 DUP5 MSTORE PUSH1 0x1 PUSH1 0xA0 SHL SWAP1 SWAP2 DIV PUSH1 0x1 PUSH1 0x1 PUSH1 0x40 SHL SUB AND SWAP2 DUP4 ADD SWAP2 SWAP1 SWAP2 MSTORE ISZERO PUSH2 0x2760 JUMPI SWAP5 SWAP4 POP POP POP POP JUMP JUMPDEST POP DUP1 PUSH2 0x276B DUP2 PUSH2 0x34DF JUMP JUMPDEST SWAP2 POP POP PUSH2 0x270C JUMP JUMPDEST POP PUSH1 0x40 MLOAD PUSH3 0x461BCD PUSH1 0xE5 SHL DUP2 MSTORE PUSH1 0x20 PUSH1 0x4 DUP3 ADD MSTORE PUSH1 0x2F PUSH1 0x24 DUP3 ADD MSTORE PUSH32 0x455243373231413A20756E61626C6520746F2064657465726D696E6520746865 PUSH1 0x44 DUP3 ADD MSTORE PUSH15 0x1037BBB732B91037B3103A37B5B2B7 PUSH1 0x89 SHL PUSH1 0x64 DUP3 ADD MSTORE PUSH1 0x84 ADD PUSH2 0xAE9 JUMP JUMPDEST PUSH1 0x0 DUP1 SLOAD PUSH1 0x1 PUSH1 0x1 PUSH1 0xA0 SHL SUB DUP4 DUP2 AND PUSH1 0x1 PUSH1 0x1 PUSH1 0xA0 SHL SUB NOT DUP4 AND DUP2 OR DUP5 SSTORE PUSH1 0x40 MLOAD SWAP2 SWAP1 SWAP3 AND SWAP3 DUP4 SWAP2 PUSH32 0x8BE0079C531659141344CD1FD0A4F28419497F9722A3DAAFE3B4186F6B6457E0 SWAP2 SWAP1 LOG3 POP POP JUMP JUMPDEST PUSH1 0x0 PUSH1 0x1 PUSH1 0x1 PUSH1 0xA0 SHL SUB DUP5 AND EXTCODESIZE ISZERO PUSH2 0x2917 JUMPI PUSH1 0x40 MLOAD PUSH4 0xA85BD01 PUSH1 0xE1 SHL DUP2 MSTORE PUSH1 0x1 PUSH1 0x1 PUSH1 0xA0 SHL SUB DUP6 AND SWAP1 PUSH4 0x150B7A02 SWAP1 PUSH2 0x2868 SWAP1 CALLER SWAP1 DUP10 SWAP1 DUP9 SWAP1 DUP9 SWAP1 PUSH1 0x4 ADD PUSH2 0x360E JUMP JUMPDEST PUSH1 0x20 PUSH1 0x40 MLOAD DUP1 DUP4 SUB DUP2 PUSH1 0x0 DUP8 GAS CALL SWAP3 POP POP POP DUP1 ISZERO PUSH2 0x28A3 JUMPI POP PUSH1 0x40 DUP1 MLOAD PUSH1 0x1F RETURNDATASIZE SWAP1 DUP2 ADD PUSH1 0x1F NOT AND DUP3 ADD SWAP1 SWAP3 MSTORE PUSH2 0x28A0 SWAP2 DUP2 ADD SWAP1 PUSH2 0x364B JUMP JUMPDEST PUSH1 0x1 JUMPDEST PUSH2 0x28FD JUMPI RETURNDATASIZE DUP1 DUP1 ISZERO PUSH2 0x28D1 JUMPI PUSH1 0x40 MLOAD SWAP2 POP PUSH1 0x1F NOT PUSH1 0x3F RETURNDATASIZE ADD AND DUP3 ADD PUSH1 0x40 MSTORE RETURNDATASIZE DUP3 MSTORE RETURNDATASIZE PUSH1 0x0 PUSH1 0x20 DUP5 ADD RETURNDATACOPY PUSH2 0x28D6 JUMP JUMPDEST PUSH1 0x60 SWAP2 POP JUMPDEST POP DUP1 MLOAD PUSH2 0x28F5 JUMPI PUSH1 0x40 MLOAD PUSH3 0x461BCD PUSH1 0xE5 SHL DUP2 MSTORE PUSH1 0x4 ADD PUSH2 0xAE9 SWAP1 PUSH2 0x3542 JUMP JUMPDEST DUP1 MLOAD DUP2 PUSH1 0x20 ADD REVERT JUMPDEST PUSH1 0x1 PUSH1 0x1 PUSH1 0xE0 SHL SUB NOT AND PUSH4 0xA85BD01 PUSH1 0xE1 SHL EQ SWAP1 POP PUSH2 0x1288 JUMP JUMPDEST POP PUSH1 0x1 SWAP5 SWAP4 POP POP POP POP JUMP JUMPDEST PUSH1 0x60 PUSH1 0xD DUP1 SLOAD PUSH2 0x9FB SWAP1 PUSH2 0x33B1 JUMP JUMPDEST PUSH1 0x60 DUP2 PUSH2 0x2955 JUMPI POP POP PUSH1 0x40 DUP1 MLOAD DUP1 DUP3 ADD SWAP1 SWAP2 MSTORE PUSH1 0x1 DUP2 MSTORE PUSH1 0x3 PUSH1 0xFC SHL PUSH1 0x20 DUP3 ADD MSTORE SWAP1 JUMP JUMPDEST DUP2 PUSH1 0x0 JUMPDEST DUP2 ISZERO PUSH2 0x297F JUMPI DUP1 PUSH2 0x2969 DUP2 PUSH2 0x3437 JUMP JUMPDEST SWAP2 POP PUSH2 0x2978 SWAP1 POP PUSH1 0xA DUP4 PUSH2 0x3494 JUMP JUMPDEST SWAP2 POP PUSH2 0x2959 JUMP JUMPDEST PUSH1 0x0 DUP2 PUSH1 0x1 PUSH1 0x1 PUSH1 0x40 SHL SUB DUP2 GT ISZERO PUSH2 0x2999 JUMPI PUSH2 0x2999 PUSH2 0x3113 JUMP JUMPDEST PUSH1 0x40 MLOAD SWAP1 DUP1 DUP3 MSTORE DUP1 PUSH1 0x1F ADD PUSH1 0x1F NOT AND PUSH1 0x20 ADD DUP3 ADD PUSH1 0x40 MSTORE DUP1 ISZERO PUSH2 0x29C3 JUMPI PUSH1 0x20 DUP3 ADD DUP2 DUP1 CALLDATASIZE DUP4 CALLDATACOPY ADD SWAP1 POP JUMPDEST POP SWAP1 POP JUMPDEST DUP5 ISZERO PUSH2 0x1288 JUMPI PUSH2 0x29D8 PUSH1 0x1 DUP4 PUSH2 0x3515 JUMP JUMPDEST SWAP2 POP PUSH2 0x29E5 PUSH1 0xA DUP7 PUSH2 0x3480 JUMP JUMPDEST PUSH2 0x29F0 SWAP1 PUSH1 0x30 PUSH2 0x3452 JUMP JUMPDEST PUSH1 0xF8 SHL DUP2 DUP4 DUP2 MLOAD DUP2 LT PUSH2 0x2A05 JUMPI PUSH2 0x2A05 PUSH2 0x352C JUMP JUMPDEST PUSH1 0x20 ADD ADD SWAP1 PUSH1 0x1 PUSH1 0x1 PUSH1 0xF8 SHL SUB NOT AND SWAP1 DUP2 PUSH1 0x0 BYTE SWAP1 MSTORE8 POP PUSH2 0x2A27 PUSH1 0xA DUP7 PUSH2 0x3494 JUMP JUMPDEST SWAP5 POP PUSH2 0x29C7 JUMP JUMPDEST PUSH1 0x0 PUSH1 0x1 PUSH1 0x1 PUSH1 0xA0 SHL SUB DUP3 AND PUSH2 0x2AA0 JUMPI PUSH1 0x40 MLOAD PUSH3 0x461BCD PUSH1 0xE5 SHL DUP2 MSTORE PUSH1 0x20 PUSH1 0x4 DUP3 ADD MSTORE PUSH1 0x31 PUSH1 0x24 DUP3 ADD MSTORE PUSH32 0x455243373231413A206E756D626572206D696E74656420717565727920666F72 PUSH1 0x44 DUP3 ADD MSTORE PUSH17 0x20746865207A65726F2061646472657373 PUSH1 0x78 SHL PUSH1 0x64 DUP3 ADD MSTORE PUSH1 0x84 ADD PUSH2 0xAE9 JUMP JUMPDEST POP PUSH1 0x1 PUSH1 0x1 PUSH1 0xA0 SHL SUB AND PUSH1 0x0 SWAP1 DUP2 MSTORE PUSH1 0x5 PUSH1 0x20 MSTORE PUSH1 0x40 SWAP1 KECCAK256 SLOAD PUSH1 0x1 PUSH1 0x80 SHL SWAP1 DIV PUSH1 0x1 PUSH1 0x1 PUSH1 0x80 SHL SUB AND SWAP1 JUMP JUMPDEST PUSH1 0x1 SLOAD PUSH1 0x1 PUSH1 0x1 PUSH1 0xA0 SHL SUB DUP5 AND PUSH2 0x2B2F JUMPI PUSH1 0x40 MLOAD PUSH3 0x461BCD PUSH1 0xE5 SHL DUP2 MSTORE PUSH1 0x20 PUSH1 0x4 DUP3 ADD MSTORE PUSH1 0x21 PUSH1 0x24 DUP3 ADD MSTORE PUSH32 0x455243373231413A206D696E7420746F20746865207A65726F20616464726573 PUSH1 0x44 DUP3 ADD MSTORE PUSH1 0x73 PUSH1 0xF8 SHL PUSH1 0x64 DUP3 ADD MSTORE PUSH1 0x84 ADD PUSH2 0xAE9 JUMP JUMPDEST PUSH2 0x2B3A DUP2 PUSH1 0x1 SLOAD GT SWAP1 JUMP JUMPDEST ISZERO PUSH2 0x2B87 JUMPI PUSH1 0x40 MLOAD PUSH3 0x461BCD PUSH1 0xE5 SHL DUP2 MSTORE PUSH1 0x20 PUSH1 0x4 DUP3 ADD MSTORE PUSH1 0x1D PUSH1 0x24 DUP3 ADD MSTORE PUSH32 0x455243373231413A20746F6B656E20616C7265616479206D696E746564000000 PUSH1 0x44 DUP3 ADD MSTORE PUSH1 0x64 ADD PUSH2 0xAE9 JUMP JUMPDEST PUSH32 0x0 DUP4 GT ISZERO PUSH2 0x2C02 JUMPI PUSH1 0x40 MLOAD PUSH3 0x461BCD PUSH1 0xE5 SHL DUP2 MSTORE PUSH1 0x20 PUSH1 0x4 DUP3 ADD MSTORE PUSH1 0x22 PUSH1 0x24 DUP3 ADD MSTORE PUSH32 0x455243373231413A207175616E7469747920746F206D696E7420746F6F206869 PUSH1 0x44 DUP3 ADD MSTORE PUSH2 0xCED PUSH1 0xF3 SHL PUSH1 0x64 DUP3 ADD MSTORE PUSH1 0x84 ADD PUSH2 0xAE9 JUMP JUMPDEST PUSH1 0x1 PUSH1 0x1 PUSH1 0xA0 SHL SUB DUP5 AND PUSH1 0x0 SWAP1 DUP2 MSTORE PUSH1 0x5 PUSH1 0x20 SWAP1 DUP2 MSTORE PUSH1 0x40 SWAP2 DUP3 SWAP1 KECCAK256 DUP3 MLOAD DUP1 DUP5 ADD DUP5 MSTORE SWAP1 SLOAD PUSH1 0x1 PUSH1 0x1 PUSH1 0x80 SHL SUB DUP1 DUP3 AND DUP4 MSTORE PUSH1 0x1 PUSH1 0x80 SHL SWAP1 SWAP2 DIV AND SWAP2 DUP2 ADD SWAP2 SWAP1 SWAP2 MSTORE DUP2 MLOAD DUP1 DUP4 ADD SWAP1 SWAP3 MSTORE DUP1 MLOAD SWAP1 SWAP2 SWAP1 DUP2 SWAP1 PUSH2 0x2C5E SWAP1 DUP8 SWAP1 PUSH2 0x35EC JUMP JUMPDEST PUSH1 0x1 PUSH1 0x1 PUSH1 0x80 SHL SUB AND DUP2 MSTORE PUSH1 0x20 ADD DUP6 DUP4 PUSH1 0x20 ADD MLOAD PUSH2 0x2C7C SWAP2 SWAP1 PUSH2 0x35EC JUMP JUMPDEST PUSH1 0x1 PUSH1 0x1 PUSH1 0x80 SHL SUB SWAP1 DUP2 AND SWAP1 SWAP2 MSTORE PUSH1 0x1 PUSH1 0x1 PUSH1 0xA0 SHL SUB DUP1 DUP9 AND PUSH1 0x0 DUP2 DUP2 MSTORE PUSH1 0x5 PUSH1 0x20 SWAP1 DUP2 MSTORE PUSH1 0x40 DUP1 DUP4 KECCAK256 DUP8 MLOAD SWAP8 DUP4 ADD MLOAD DUP8 AND PUSH1 0x1 PUSH1 0x80 SHL MUL SWAP8 SWAP1 SWAP7 AND SWAP7 SWAP1 SWAP7 OR SWAP1 SWAP5 SSTORE DUP5 MLOAD DUP1 DUP7 ADD DUP7 MSTORE SWAP2 DUP3 MSTORE PUSH1 0x1 PUSH1 0x1 PUSH1 0x40 SHL SUB TIMESTAMP DUP2 AND DUP4 DUP7 ADD SWAP1 DUP2 MSTORE DUP9 DUP4 MSTORE PUSH1 0x4 SWAP1 SWAP6 MSTORE SWAP5 DUP2 KECCAK256 SWAP2 MLOAD DUP3 SLOAD SWAP5 MLOAD SWAP1 SWAP6 AND PUSH1 0x1 PUSH1 0xA0 SHL MUL PUSH1 0x1 PUSH1 0x1 PUSH1 0xE0 SHL SUB NOT SWAP1 SWAP5 AND SWAP5 SWAP1 SWAP3 AND SWAP4 SWAP1 SWAP4 OR SWAP2 SWAP1 SWAP2 OR SWAP1 SWAP2 SSTORE DUP3 SWAP1 JUMPDEST DUP6 DUP2 LT ISZERO PUSH2 0x2D9B JUMPI PUSH1 0x40 MLOAD DUP3 SWAP1 PUSH1 0x1 PUSH1 0x1 PUSH1 0xA0 SHL SUB DUP10 AND SWAP1 PUSH1 0x0 SWAP1 PUSH32 0xDDF252AD1BE2C89B69C2B068FC378DAA952BA7F163C4A11628F55A4DF523B3EF SWAP1 DUP3 SWAP1 LOG4 PUSH2 0x2D5F PUSH1 0x0 DUP9 DUP5 DUP9 PUSH2 0x2824 JUMP JUMPDEST PUSH2 0x2D7B JUMPI PUSH1 0x40 MLOAD PUSH3 0x461BCD PUSH1 0xE5 SHL DUP2 MSTORE PUSH1 0x4 ADD PUSH2 0xAE9 SWAP1 PUSH2 0x3542 JUMP JUMPDEST DUP2 PUSH2 0x2D85 DUP2 PUSH2 0x3437 JUMP JUMPDEST SWAP3 POP POP DUP1 DUP1 PUSH2 0x2D93 SWAP1 PUSH2 0x3437 JUMP JUMPDEST SWAP2 POP POP PUSH2 0x2D12 JUMP JUMPDEST POP PUSH1 0x1 DUP2 SWAP1 SSTORE PUSH2 0x1F18 JUMP JUMPDEST DUP3 DUP1 SLOAD PUSH2 0x2DB2 SWAP1 PUSH2 0x33B1 JUMP JUMPDEST SWAP1 PUSH1 0x0 MSTORE PUSH1 0x20 PUSH1 0x0 KECCAK256 SWAP1 PUSH1 0x1F ADD PUSH1 0x20 SWAP1 DIV DUP2 ADD SWAP3 DUP3 PUSH2 0x2DD4 JUMPI PUSH1 0x0 DUP6 SSTORE PUSH2 0x2E1A JUMP JUMPDEST DUP3 PUSH1 0x1F LT PUSH2 0x2DED JUMPI DUP3 DUP1 ADD PUSH1 0xFF NOT DUP3 CALLDATALOAD AND OR DUP6 SSTORE PUSH2 0x2E1A JUMP JUMPDEST DUP3 DUP1 ADD PUSH1 0x1 ADD DUP6 SSTORE DUP3 ISZERO PUSH2 0x2E1A JUMPI SWAP2 DUP3 ADD JUMPDEST DUP3 DUP2 GT ISZERO PUSH2 0x2E1A JUMPI DUP3 CALLDATALOAD DUP3 SSTORE SWAP2 PUSH1 0x20 ADD SWAP2 SWAP1 PUSH1 0x1 ADD SWAP1 PUSH2 0x2DFF JUMP JUMPDEST POP PUSH2 0x14F4 SWAP3 SWAP2 POP JUMPDEST DUP1 DUP3 GT ISZERO PUSH2 0x14F4 JUMPI PUSH1 0x0 DUP2 SSTORE PUSH1 0x1 ADD PUSH2 0x2E22 JUMP JUMPDEST PUSH1 0x1 PUSH1 0x1 PUSH1 0xE0 SHL SUB NOT DUP2 AND DUP2 EQ PUSH2 0x1269 JUMPI PUSH1 0x0 DUP1 REVERT JUMPDEST PUSH1 0x0 PUSH1 0x20 DUP3 DUP5 SUB SLT ISZERO PUSH2 0x2E5E JUMPI PUSH1 0x0 DUP1 REVERT JUMPDEST DUP2 CALLDATALOAD PUSH2 0x17D7 DUP2 PUSH2 0x2E36 JUMP JUMPDEST PUSH1 0x0 JUMPDEST DUP4 DUP2 LT ISZERO PUSH2 0x2E84 JUMPI DUP2 DUP2 ADD MLOAD DUP4 DUP3 ADD MSTORE PUSH1 0x20 ADD PUSH2 0x2E6C JUMP JUMPDEST DUP4 DUP2 GT ISZERO PUSH2 0x1C00 JUMPI POP POP PUSH1 0x0 SWAP2 ADD MSTORE JUMP JUMPDEST PUSH1 0x0 DUP2 MLOAD DUP1 DUP5 MSTORE PUSH2 0x2EAD DUP2 PUSH1 0x20 DUP7 ADD PUSH1 0x20 DUP7 ADD PUSH2 0x2E69 JUMP JUMPDEST PUSH1 0x1F ADD PUSH1 0x1F NOT AND SWAP3 SWAP1 SWAP3 ADD PUSH1 0x20 ADD SWAP3 SWAP2 POP POP JUMP JUMPDEST PUSH1 0x20 DUP2 MSTORE PUSH1 0x0 PUSH2 0x17D7 PUSH1 0x20 DUP4 ADD DUP5 PUSH2 0x2E95 JUMP JUMPDEST PUSH1 0x0 PUSH1 0x20 DUP3 DUP5 SUB SLT ISZERO PUSH2 0x2EE6 JUMPI PUSH1 0x0 DUP1 REVERT JUMPDEST POP CALLDATALOAD SWAP2 SWAP1 POP JUMP JUMPDEST DUP1 CALLDATALOAD PUSH1 0x1 PUSH1 0x1 PUSH1 0xA0 SHL SUB DUP2 AND DUP2 EQ PUSH2 0x17DE JUMPI PUSH1 0x0 DUP1 REVERT JUMPDEST PUSH1 0x0 DUP1 PUSH1 0x40 DUP4 DUP6 SUB SLT ISZERO PUSH2 0x2F17 JUMPI PUSH1 0x0 DUP1 REVERT JUMPDEST PUSH2 0x2F20 DUP4 PUSH2 0x2EED JUMP JUMPDEST SWAP5 PUSH1 0x20 SWAP4 SWAP1 SWAP4 ADD CALLDATALOAD SWAP4 POP POP POP JUMP JUMPDEST DUP1 CALLDATALOAD PUSH1 0x1 PUSH1 0x1 PUSH1 0x40 SHL SUB DUP2 AND DUP2 EQ PUSH2 0x17DE JUMPI PUSH1 0x0 DUP1 REVERT JUMPDEST DUP1 CALLDATALOAD PUSH4 0xFFFFFFFF DUP2 AND DUP2 EQ PUSH2 0x17DE JUMPI PUSH1 0x0 DUP1 REVERT JUMPDEST PUSH1 0x0 DUP1 PUSH1 0x0 PUSH1 0x60 DUP5 DUP7 SUB SLT ISZERO PUSH2 0x2F6E JUMPI PUSH1 0x0 DUP1 REVERT JUMPDEST PUSH2 0x2F77 DUP5 PUSH2 0x2F2E JUMP JUMPDEST SWAP3 POP PUSH2 0x2F85 PUSH1 0x20 DUP6 ADD PUSH2 0x2F2E JUMP JUMPDEST SWAP2 POP PUSH2 0x2F93 PUSH1 0x40 DUP6 ADD PUSH2 0x2F45 JUMP JUMPDEST SWAP1 POP SWAP3 POP SWAP3 POP SWAP3 JUMP JUMPDEST PUSH1 0x0 DUP1 PUSH1 0x0 PUSH1 0x60 DUP5 DUP7 SUB SLT ISZERO PUSH2 0x2FB1 JUMPI PUSH1 0x0 DUP1 REVERT JUMPDEST PUSH2 0x2FBA DUP5 PUSH2 0x2EED JUMP JUMPDEST SWAP3 POP PUSH2 0x2FC8 PUSH1 0x20 DUP6 ADD PUSH2 0x2EED JUMP JUMPDEST SWAP2 POP PUSH1 0x40 DUP5 ADD CALLDATALOAD SWAP1 POP SWAP3 POP SWAP3 POP SWAP3 JUMP JUMPDEST PUSH1 0x0 DUP1 PUSH1 0x0 PUSH1 0x60 DUP5 DUP7 SUB SLT ISZERO PUSH2 0x2FED JUMPI PUSH1 0x0 DUP1 REVERT JUMPDEST POP POP DUP2 CALLDATALOAD SWAP4 PUSH1 0x20 DUP4 ADD CALLDATALOAD SWAP4 POP PUSH1 0x40 SWAP1 SWAP3 ADD CALLDATALOAD SWAP2 SWAP1 POP JUMP JUMPDEST PUSH1 0x0 DUP1 PUSH1 0x20 DUP4 DUP6 SUB SLT ISZERO PUSH2 0x3017 JUMPI PUSH1 0x0 DUP1 REVERT JUMPDEST DUP3 CALLDATALOAD PUSH1 0x1 PUSH1 0x1 PUSH1 0x40 SHL SUB DUP1 DUP3 GT ISZERO PUSH2 0x302E JUMPI PUSH1 0x0 DUP1 REVERT JUMPDEST DUP2 DUP6 ADD SWAP2 POP DUP6 PUSH1 0x1F DUP4 ADD SLT PUSH2 0x3042 JUMPI PUSH1 0x0 DUP1 REVERT JUMPDEST DUP2 CALLDATALOAD DUP2 DUP2 GT ISZERO PUSH2 0x3051 JUMPI PUSH1 0x0 DUP1 REVERT JUMPDEST DUP7 PUSH1 0x20 DUP3 DUP6 ADD ADD GT ISZERO PUSH2 0x3063 JUMPI PUSH1 0x0 DUP1 REVERT JUMPDEST PUSH1 0x20 SWAP3 SWAP1 SWAP3 ADD SWAP7 SWAP2 SWAP6 POP SWAP1 SWAP4 POP POP POP POP JUMP JUMPDEST PUSH1 0x0 PUSH1 0x20 DUP3 DUP5 SUB SLT ISZERO PUSH2 0x3087 JUMPI PUSH1 0x0 DUP1 REVERT JUMPDEST PUSH2 0x17D7 DUP3 PUSH2 0x2EED JUMP JUMPDEST PUSH1 0x0 PUSH1 0x20 DUP3 DUP5 SUB SLT ISZERO PUSH2 0x30A2 JUMPI PUSH1 0x0 DUP1 REVERT JUMPDEST PUSH2 0x17D7 DUP3 PUSH2 0x2F45 JUMP JUMPDEST PUSH1 0x0 DUP1 PUSH1 0x40 DUP4 DUP6 SUB SLT ISZERO PUSH2 0x30BE JUMPI PUSH1 0x0 DUP1 REVERT JUMPDEST DUP3 CALLDATALOAD SWAP2 POP PUSH2 0x30CE PUSH1 0x20 DUP5 ADD PUSH2 0x2EED JUMP JUMPDEST SWAP1 POP SWAP3 POP SWAP3 SWAP1 POP JUMP JUMPDEST PUSH1 0x0 DUP1 PUSH1 0x40 DUP4 DUP6 SUB SLT ISZERO PUSH2 0x30EA JUMPI PUSH1 0x0 DUP1 REVERT JUMPDEST PUSH2 0x30F3 DUP4 PUSH2 0x2EED JUMP JUMPDEST SWAP2 POP PUSH1 0x20 DUP4 ADD CALLDATALOAD DUP1 ISZERO ISZERO DUP2 EQ PUSH2 0x3108 JUMPI PUSH1 0x0 DUP1 REVERT JUMPDEST DUP1 SWAP2 POP POP SWAP3 POP SWAP3 SWAP1 POP JUMP JUMPDEST PUSH4 0x4E487B71 PUSH1 0xE0 SHL PUSH1 0x0 MSTORE PUSH1 0x41 PUSH1 0x4 MSTORE PUSH1 0x24 PUSH1 0x0 REVERT JUMPDEST PUSH1 0x40 MLOAD PUSH1 0x1F DUP3 ADD PUSH1 0x1F NOT AND DUP2 ADD PUSH1 0x1 PUSH1 0x1 PUSH1 0x40 SHL SUB DUP2 GT DUP3 DUP3 LT OR ISZERO PUSH2 0x3151 JUMPI PUSH2 0x3151 PUSH2 0x3113 JUMP JUMPDEST PUSH1 0x40 MSTORE SWAP2 SWAP1 POP JUMP JUMPDEST PUSH1 0x0 PUSH1 0x1 PUSH1 0x1 PUSH1 0x40 SHL SUB DUP3 GT ISZERO PUSH2 0x3172 JUMPI PUSH2 0x3172 PUSH2 0x3113 JUMP JUMPDEST POP PUSH1 0x5 SHL PUSH1 0x20 ADD SWAP1 JUMP JUMPDEST PUSH1 0x0 DUP3 PUSH1 0x1F DUP4 ADD SLT PUSH2 0x318D JUMPI PUSH1 0x0 DUP1 REVERT JUMPDEST DUP2 CALLDATALOAD PUSH1 0x20 PUSH2 0x31A2 PUSH2 0x319D DUP4 PUSH2 0x3159 JUMP JUMPDEST PUSH2 0x3129 JUMP JUMPDEST DUP3 DUP2 MSTORE PUSH1 0x5 SWAP3 SWAP1 SWAP3 SHL DUP5 ADD DUP2 ADD SWAP2 DUP2 DUP2 ADD SWAP1 DUP7 DUP5 GT ISZERO PUSH2 0x31C1 JUMPI PUSH1 0x0 DUP1 REVERT JUMPDEST DUP3 DUP7 ADD JUMPDEST DUP5 DUP2 LT ISZERO PUSH2 0x31DC JUMPI DUP1 CALLDATALOAD DUP4 MSTORE SWAP2 DUP4 ADD SWAP2 DUP4 ADD PUSH2 0x31C5 JUMP JUMPDEST POP SWAP7 SWAP6 POP POP POP POP POP POP JUMP JUMPDEST PUSH1 0x0 DUP1 PUSH1 0x40 DUP4 DUP6 SUB SLT ISZERO PUSH2 0x31FA JUMPI PUSH1 0x0 DUP1 REVERT JUMPDEST DUP3 CALLDATALOAD PUSH1 0x1 PUSH1 0x1 PUSH1 0x40 SHL SUB DUP1 DUP3 GT ISZERO PUSH2 0x3211 JUMPI PUSH1 0x0 DUP1 REVERT JUMPDEST DUP2 DUP6 ADD SWAP2 POP DUP6 PUSH1 0x1F DUP4 ADD SLT PUSH2 0x3225 JUMPI PUSH1 0x0 DUP1 REVERT JUMPDEST DUP2 CALLDATALOAD PUSH1 0x20 PUSH2 0x3235 PUSH2 0x319D DUP4 PUSH2 0x3159 JUMP JUMPDEST DUP3 DUP2 MSTORE PUSH1 0x5 SWAP3 SWAP1 SWAP3 SHL DUP5 ADD DUP2 ADD SWAP2 DUP2 DUP2 ADD SWAP1 DUP10 DUP5 GT ISZERO PUSH2 0x3254 JUMPI PUSH1 0x0 DUP1 REVERT JUMPDEST SWAP5 DUP3 ADD SWAP5 JUMPDEST DUP4 DUP7 LT ISZERO PUSH2 0x3279 JUMPI PUSH2 0x326A DUP7 PUSH2 0x2EED JUMP JUMPDEST DUP3 MSTORE SWAP5 DUP3 ADD SWAP5 SWAP1 DUP3 ADD SWAP1 PUSH2 0x3259 JUMP JUMPDEST SWAP7 POP POP DUP7 ADD CALLDATALOAD SWAP3 POP POP DUP1 DUP3 GT ISZERO PUSH2 0x328F JUMPI PUSH1 0x0 DUP1 REVERT JUMPDEST POP PUSH2 0x329C DUP6 DUP3 DUP7 ADD PUSH2 0x317C JUMP JUMPDEST SWAP2 POP POP SWAP3 POP SWAP3 SWAP1 POP JUMP JUMPDEST PUSH1 0x0 DUP1 PUSH1 0x0 DUP1 PUSH1 0x80 DUP6 DUP8 SUB SLT ISZERO PUSH2 0x32BC JUMPI PUSH1 0x0 DUP1 REVERT JUMPDEST PUSH2 0x32C5 DUP6 PUSH2 0x2EED JUMP JUMPDEST SWAP4 POP PUSH1 0x20 PUSH2 0x32D4 DUP2 DUP8 ADD PUSH2 0x2EED JUMP JUMPDEST SWAP4 POP PUSH1 0x40 DUP7 ADD CALLDATALOAD SWAP3 POP PUSH1 0x60 DUP7 ADD CALLDATALOAD PUSH1 0x1 PUSH1 0x1 PUSH1 0x40 SHL SUB DUP1 DUP3 GT ISZERO PUSH2 0x32F7 JUMPI PUSH1 0x0 DUP1 REVERT JUMPDEST DUP2 DUP9 ADD SWAP2 POP DUP9 PUSH1 0x1F DUP4 ADD SLT PUSH2 0x330B JUMPI PUSH1 0x0 DUP1 REVERT JUMPDEST DUP2 CALLDATALOAD DUP2 DUP2 GT ISZERO PUSH2 0x331D JUMPI PUSH2 0x331D PUSH2 0x3113 JUMP JUMPDEST PUSH2 0x332F PUSH1 0x1F DUP3 ADD PUSH1 0x1F NOT AND DUP6 ADD PUSH2 0x3129 JUMP JUMPDEST SWAP2 POP DUP1 DUP3 MSTORE DUP10 DUP5 DUP3 DUP6 ADD ADD GT ISZERO PUSH2 0x3345 JUMPI PUSH1 0x0 DUP1 REVERT JUMPDEST DUP1 DUP5 DUP5 ADD DUP6 DUP5 ADD CALLDATACOPY PUSH1 0x0 DUP5 DUP3 DUP5 ADD ADD MSTORE POP DUP1 SWAP4 POP POP POP POP SWAP3 SWAP6 SWAP2 SWAP5 POP SWAP3 POP JUMP JUMPDEST PUSH1 0x0 DUP1 PUSH1 0x40 DUP4 DUP6 SUB SLT ISZERO PUSH2 0x3378 JUMPI PUSH1 0x0 DUP1 REVERT JUMPDEST POP POP DUP1 CALLDATALOAD SWAP3 PUSH1 0x20 SWAP1 SWAP2 ADD CALLDATALOAD SWAP2 POP JUMP JUMPDEST PUSH1 0x0 DUP1 PUSH1 0x40 DUP4 DUP6 SUB SLT ISZERO PUSH2 0x339A JUMPI PUSH1 0x0 DUP1 REVERT JUMPDEST PUSH2 0x33A3 DUP4 PUSH2 0x2EED JUMP JUMPDEST SWAP2 POP PUSH2 0x30CE PUSH1 0x20 DUP5 ADD PUSH2 0x2EED JUMP JUMPDEST PUSH1 0x1 DUP2 DUP2 SHR SWAP1 DUP3 AND DUP1 PUSH2 0x33C5 JUMPI PUSH1 0x7F DUP3 AND SWAP2 POP JUMPDEST PUSH1 0x20 DUP3 LT DUP2 EQ ISZERO PUSH2 0x33E6 JUMPI PUSH4 0x4E487B71 PUSH1 0xE0 SHL PUSH1 0x0 MSTORE PUSH1 0x22 PUSH1 0x4 MSTORE PUSH1 0x24 PUSH1 0x0 REVERT JUMPDEST POP SWAP2 SWAP1 POP JUMP JUMPDEST PUSH1 0x20 DUP1 DUP3 MSTORE DUP2 DUP2 ADD MSTORE PUSH32 0x4F776E61626C653A2063616C6C6572206973206E6F7420746865206F776E6572 PUSH1 0x40 DUP3 ADD MSTORE PUSH1 0x60 ADD SWAP1 JUMP JUMPDEST PUSH4 0x4E487B71 PUSH1 0xE0 SHL PUSH1 0x0 MSTORE PUSH1 0x11 PUSH1 0x4 MSTORE PUSH1 0x24 PUSH1 0x0 REVERT JUMPDEST PUSH1 0x0 PUSH1 0x0 NOT DUP3 EQ ISZERO PUSH2 0x344B JUMPI PUSH2 0x344B PUSH2 0x3421 JUMP JUMPDEST POP PUSH1 0x1 ADD SWAP1 JUMP JUMPDEST PUSH1 0x0 DUP3 NOT DUP3 GT ISZERO PUSH2 0x3465 JUMPI PUSH2 0x3465 PUSH2 0x3421 JUMP JUMPDEST POP ADD SWAP1 JUMP JUMPDEST PUSH4 0x4E487B71 PUSH1 0xE0 SHL PUSH1 0x0 MSTORE PUSH1 0x12 PUSH1 0x4 MSTORE PUSH1 0x24 PUSH1 0x0 REVERT JUMPDEST PUSH1 0x0 DUP3 PUSH2 0x348F JUMPI PUSH2 0x348F PUSH2 0x346A JUMP JUMPDEST POP MOD SWAP1 JUMP JUMPDEST PUSH1 0x0 DUP3 PUSH2 0x34A3 JUMPI PUSH2 0x34A3 PUSH2 0x346A JUMP JUMPDEST POP DIV SWAP1 JUMP JUMPDEST PUSH1 0x20 DUP1 DUP3 MSTORE PUSH1 0x1E SWAP1 DUP3 ADD MSTORE PUSH32 0x5468652063616C6C657220697320616E6F7468657220636F6E74726163740000 PUSH1 0x40 DUP3 ADD MSTORE PUSH1 0x60 ADD SWAP1 JUMP JUMPDEST PUSH1 0x0 DUP2 PUSH2 0x34EE JUMPI PUSH2 0x34EE PUSH2 0x3421 JUMP JUMPDEST POP PUSH1 0x0 NOT ADD SWAP1 JUMP JUMPDEST PUSH1 0x0 DUP2 PUSH1 0x0 NOT DIV DUP4 GT DUP3 ISZERO ISZERO AND ISZERO PUSH2 0x3510 JUMPI PUSH2 0x3510 PUSH2 0x3421 JUMP JUMPDEST POP MUL SWAP1 JUMP JUMPDEST PUSH1 0x0 DUP3 DUP3 LT ISZERO PUSH2 0x3527 JUMPI PUSH2 0x3527 PUSH2 0x3421 JUMP JUMPDEST POP SUB SWAP1 JUMP JUMPDEST PUSH4 0x4E487B71 PUSH1 0xE0 SHL PUSH1 0x0 MSTORE PUSH1 0x32 PUSH1 0x4 MSTORE PUSH1 0x24 PUSH1 0x0 REVERT JUMPDEST PUSH1 0x20 DUP1 DUP3 MSTORE PUSH1 0x33 SWAP1 DUP3 ADD MSTORE PUSH32 0x455243373231413A207472616E7366657220746F206E6F6E2045524337323152 PUSH1 0x40 DUP3 ADD MSTORE PUSH19 0x32B1B2B4BB32B91034B6B83632B6B2B73A32B9 PUSH1 0x69 SHL PUSH1 0x60 DUP3 ADD MSTORE PUSH1 0x80 ADD SWAP1 JUMP JUMPDEST PUSH1 0x0 DUP4 MLOAD PUSH2 0x35A7 DUP2 DUP5 PUSH1 0x20 DUP9 ADD PUSH2 0x2E69 JUMP JUMPDEST DUP4 MLOAD SWAP1 DUP4 ADD SWAP1 PUSH2 0x35BB DUP2 DUP4 PUSH1 0x20 DUP9 ADD PUSH2 0x2E69 JUMP JUMPDEST ADD SWAP5 SWAP4 POP POP POP POP JUMP JUMPDEST PUSH1 0x0 PUSH1 0x1 PUSH1 0x1 PUSH1 0x80 SHL SUB DUP4 DUP2 AND SWAP1 DUP4 AND DUP2 DUP2 LT ISZERO PUSH2 0x35E4 JUMPI PUSH2 0x35E4 PUSH2 0x3421 JUMP JUMPDEST SUB SWAP4 SWAP3 POP POP POP JUMP JUMPDEST PUSH1 0x0 PUSH1 0x1 PUSH1 0x1 PUSH1 0x80 SHL SUB DUP1 DUP4 AND DUP2 DUP6 AND DUP1 DUP4 SUB DUP3 GT ISZERO PUSH2 0x35BB JUMPI PUSH2 0x35BB PUSH2 0x3421 JUMP JUMPDEST PUSH1 0x1 PUSH1 0x1 PUSH1 0xA0 SHL SUB DUP6 DUP2 AND DUP3 MSTORE DUP5 AND PUSH1 0x20 DUP3 ADD MSTORE PUSH1 0x40 DUP2 ADD DUP4 SWAP1 MSTORE PUSH1 0x80 PUSH1 0x60 DUP3 ADD DUP2 SWAP1 MSTORE PUSH1 0x0 SWAP1 PUSH2 0x3641 SWAP1 DUP4 ADD DUP5 PUSH2 0x2E95 JUMP JUMPDEST SWAP7 SWAP6 POP POP POP POP POP POP JUMP JUMPDEST PUSH1 0x0 PUSH1 0x20 DUP3 DUP5 SUB SLT ISZERO PUSH2 0x365D JUMPI PUSH1 0x0 DUP1 REVERT JUMPDEST DUP2 MLOAD PUSH2 0x17D7 DUP2 PUSH2 0x2E36 JUMP INVALID LOG2 PUSH5 0x6970667358 0x22 SLT KECCAK256 0x1F 0xCB PUSH8 0x31BCD69E637F0C26 PUSH22 0xFBBF93A9DD9B84615FF3306A5411CC3B6C2300C6473 PUSH16 0x6C634300080A00330000000000000000 "
		},
		"gasEstimates": {
			"creation": {
				"codeDepositCost": "2796400",
				"executionCost": "infinite",
				"totalCost": "infinite"
			},
			"external": {
				"AUCTION_DROP_INTERVAL()": "240",
				"AUCTION_DROP_PER_STEP()": "infinite",
				"AUCTION_END_PRICE()": "350",
				"AUCTION_PRICE_CURVE_LENGTH()": "305",
				"AUCTION_START_PRICE()": "241",
				"allowlist(address)": "1352",
				"allowlistMint()": "infinite",
				"amountForAuctionAndDev()": "infinite",
				"amountForDevs()": "infinite",
				"approve(address,uint256)": "infinite",
				"auctionMint(uint256)": "infinite",
				"balanceOf(address)": "1440",
				"devMint(uint256)": "infinite",
				"endAuctionAndSetupNonAuctionSaleInfo(uint64,uint64,uint32)": "infinite",
				"getApproved(uint256)": "2123",
				"getAuctionPrice(uint256)": "infinite",
				"getOwnershipData(uint256)": "infinite",
				"isApprovedForAll(address,address)": "infinite",
				"isPublicSaleOn(uint256,uint256,uint256)": "565",
				"maxPerAddressDuringMint()": "infinite",
				"mint(address)": "infinite",
				"mint(uint256,address)": "infinite",
				"name()": "infinite",
				"nextOwnerToExplicitlySet()": "1084",
				"numberMinted(address)": "1475",
				"overrideCollectionSize()": "1106",
				"owner()": "1121",
				"ownerOf(uint256)": "infinite",
				"publicSaleMint(uint256,uint256)": "infinite",
				"renounceOwnership()": "23569",
				"safeTransferFrom(address,address,uint256)": "infinite",
				"safeTransferFrom(address,address,uint256,bytes)": "infinite",
				"saleConfig()": "1380",
				"seedAllowlist(address[],uint256[])": "infinite",
				"setApprovalForAll(address,bool)": "23339",
				"setAuctionSaleStartTime(uint32)": "22086",
				"setBaseURI(string)": "infinite",
				"setCollectionSize(uint256)": "21935",
				"setOwnersExplicit(uint256)": "infinite",
				"setPublicSaleKey(uint32)": "22110",
				"supportsInterface(bytes4)": "612",
				"symbol()": "infinite",
				"tokenByIndex(uint256)": "1283",
				"tokenOfOwnerByIndex(address,uint256)": "infinite",
				"tokenURI(uint256)": "infinite",
				"totalSupply()": "1138",
				"transferFrom(address,address,uint256)": "infinite",
				"transferOwnership(address)": "23697",
				"withdrawMoney()": "infinite"
			},
			"internal": {
				"_baseURI()": "infinite",
				"refundIfOver(uint256)": "infinite"
			}
		},
		"methodIdentifiers": {
			"AUCTION_DROP_INTERVAL()": "5cae01d3",
			"AUCTION_DROP_PER_STEP()": "59f369fe",
			"AUCTION_END_PRICE()": "caf8a6d1",
			"AUCTION_PRICE_CURVE_LENGTH()": "f8a987d8",
			"AUCTION_START_PRICE()": "7a1c4a56",
			"allowlist(address)": "a7cd52cb",
			"allowlistMint()": "41fbddbd",
			"amountForAuctionAndDev()": "5666c880",
			"amountForDevs()": "fbe1aa51",
			"approve(address,uint256)": "095ea7b3",
			"auctionMint(uint256)": "4d3554c3",
			"balanceOf(address)": "70a08231",
			"devMint(uint256)": "375a069a",
			"endAuctionAndSetupNonAuctionSaleInfo(uint64,uint64,uint32)": "16e6e15a",
			"getApproved(uint256)": "081812fc",
			"getAuctionPrice(uint256)": "917d009e",
			"getOwnershipData(uint256)": "9231ab2a",
			"isApprovedForAll(address,address)": "e985e9c5",
			"isPublicSaleOn(uint256,uint256,uint256)": "422030ba",
			"maxPerAddressDuringMint()": "8bc35c2f",
			"mint(address)": "6a627842",
			"mint(uint256,address)": "94bf804d",
			"name()": "06fdde03",
			"nextOwnerToExplicitlySet()": "d7224ba0",
			"numberMinted(address)": "dc33e681",
			"overrideCollectionSize()": "c701a3e0",
			"owner()": "8da5cb5b",
			"ownerOf(uint256)": "6352211e",
			"publicSaleMint(uint256,uint256)": "cb91d8b3",
			"renounceOwnership()": "715018a6",
			"safeTransferFrom(address,address,uint256)": "42842e0e",
			"safeTransferFrom(address,address,uint256,bytes)": "b88d4fde",
			"saleConfig()": "90aa0b0f",
			"seedAllowlist(address[],uint256[])": "b05863d5",
			"setApprovalForAll(address,bool)": "a22cb465",
			"setAuctionSaleStartTime(uint32)": "6ebc5601",
			"setBaseURI(string)": "55f804b3",
			"setCollectionSize(uint256)": "aca8ffe7",
			"setOwnersExplicit(uint256)": "2d20fb60",
			"setPublicSaleKey(uint32)": "90028083",
			"supportsInterface(bytes4)": "01ffc9a7",
			"symbol()": "95d89b41",
			"tokenByIndex(uint256)": "4f6ccce7",
			"tokenOfOwnerByIndex(address,uint256)": "2f745c59",
			"tokenURI(uint256)": "c87b56dd",
			"totalSupply()": "18160ddd",
			"transferFrom(address,address,uint256)": "23b872dd",
			"transferOwnership(address)": "f2fde38b",
			"withdrawMoney()": "ac446002"
		}
	},
	"abi": [
		{
			"inputs": [
				{
					"internalType": "uint256",
					"name": "maxBatchSize_",
					"type": "uint256"
				},
				{
					"internalType": "uint256",
					"name": "collectionSize_",
					"type": "uint256"
				},
				{
					"internalType": "uint256",
					"name": "amountForAuctionAndDev_",
					"type": "uint256"
				},
				{
					"internalType": "uint256",
					"name": "amountForDevs_",
					"type": "uint256"
				}
			],
			"stateMutability": "nonpayable",
			"type": "constructor"
		},
		{
			"anonymous": false,
			"inputs": [
				{
					"indexed": true,
					"internalType": "address",
					"name": "owner",
					"type": "address"
				},
				{
					"indexed": true,
					"internalType": "address",
					"name": "approved",
					"type": "address"
				},
				{
					"indexed": true,
					"internalType": "uint256",
					"name": "tokenId",
					"type": "uint256"
				}
			],
			"name": "Approval",
			"type": "event"
		},
		{
			"anonymous": false,
			"inputs": [
				{
					"indexed": true,
					"internalType": "address",
					"name": "owner",
					"type": "address"
				},
				{
					"indexed": true,
					"internalType": "address",
					"name": "operator",
					"type": "address"
				},
				{
					"indexed": false,
					"internalType": "bool",
					"name": "approved",
					"type": "bool"
				}
			],
			"name": "ApprovalForAll",
			"type": "event"
		},
		{
			"anonymous": false,
			"inputs": [
				{
					"indexed": true,
					"internalType": "address",
					"name": "previousOwner",
					"type": "address"
				},
				{
					"indexed": true,
					"internalType": "address",
					"name": "newOwner",
					"type": "address"
				}
			],
			"name": "OwnershipTransferred",
			"type": "event"
		},
		{
			"anonymous": false,
			"inputs": [
				{
					"indexed": true,
					"internalType": "address",
					"name": "from",
					"type": "address"
				},
				{
					"indexed": true,
					"internalType": "address",
					"name": "to",
					"type": "address"
				},
				{
					"indexed": true,
					"internalType": "uint256",
					"name": "tokenId",
					"type": "uint256"
				}
			],
			"name": "Transfer",
			"type": "event"
		},
		{
			"inputs": [],
			"name": "AUCTION_DROP_INTERVAL",
			"outputs": [
				{
					"internalType": "uint256",
					"name": "",
					"type": "uint256"
				}
			],
			"stateMutability": "view",
			"type": "function"
		},
		{
			"inputs": [],
			"name": "AUCTION_DROP_PER_STEP",
			"outputs": [
				{
					"internalType": "uint256",
					"name": "",
					"type": "uint256"
				}
			],
			"stateMutability": "view",
			"type": "function"
		},
		{
			"inputs": [],
			"name": "AUCTION_END_PRICE",
			"outputs": [
				{
					"internalType": "uint256",
					"name": "",
					"type": "uint256"
				}
			],
			"stateMutability": "view",
			"type": "function"
		},
		{
			"inputs": [],
			"name": "AUCTION_PRICE_CURVE_LENGTH",
			"outputs": [
				{
					"internalType": "uint256",
					"name": "",
					"type": "uint256"
				}
			],
			"stateMutability": "view",
			"type": "function"
		},
		{
			"inputs": [],
			"name": "AUCTION_START_PRICE",
			"outputs": [
				{
					"internalType": "uint256",
					"name": "",
					"type": "uint256"
				}
			],
			"stateMutability": "view",
			"type": "function"
		},
		{
			"inputs": [
				{
					"internalType": "address",
					"name": "",
					"type": "address"
				}
			],
			"name": "allowlist",
			"outputs": [
				{
					"internalType": "uint256",
					"name": "",
					"type": "uint256"
				}
			],
			"stateMutability": "view",
			"type": "function"
		},
		{
			"inputs": [],
			"name": "allowlistMint",
			"outputs": [],
			"stateMutability": "payable",
			"type": "function"
		},
		{
			"inputs": [],
			"name": "amountForAuctionAndDev",
			"outputs": [
				{
					"internalType": "uint256",
					"name": "",
					"type": "uint256"
				}
			],
			"stateMutability": "view",
			"type": "function"
		},
		{
			"inputs": [],
			"name": "amountForDevs",
			"outputs": [
				{
					"internalType": "uint256",
					"name": "",
					"type": "uint256"
				}
			],
			"stateMutability": "view",
			"type": "function"
		},
		{
			"inputs": [
				{
					"internalType": "address",
					"name": "to",
					"type": "address"
				},
				{
					"internalType": "uint256",
					"name": "tokenId",
					"type": "uint256"
				}
			],
			"name": "approve",
			"outputs": [],
			"stateMutability": "nonpayable",
			"type": "function"
		},
		{
			"inputs": [
				{
					"internalType": "uint256",
					"name": "quantity",
					"type": "uint256"
				}
			],
			"name": "auctionMint",
			"outputs": [],
			"stateMutability": "payable",
			"type": "function"
		},
		{
			"inputs": [
				{
					"internalType": "address",
					"name": "owner",
					"type": "address"
				}
			],
			"name": "balanceOf",
			"outputs": [
				{
					"internalType": "uint256",
					"name": "",
					"type": "uint256"
				}
			],
			"stateMutability": "view",
			"type": "function"
		},
		{
			"inputs": [
				{
					"internalType": "uint256",
					"name": "quantity",
					"type": "uint256"
				}
			],
			"name": "devMint",
			"outputs": [],
			"stateMutability": "nonpayable",
			"type": "function"
		},
		{
			"inputs": [
				{
					"internalType": "uint64",
					"name": "mintlistPriceWei",
					"type": "uint64"
				},
				{
					"internalType": "uint64",
					"name": "publicPriceWei",
					"type": "uint64"
				},
				{
					"internalType": "uint32",
					"name": "publicSaleStartTime",
					"type": "uint32"
				}
			],
			"name": "endAuctionAndSetupNonAuctionSaleInfo",
			"outputs": [],
			"stateMutability": "nonpayable",
			"type": "function"
		},
		{
			"inputs": [
				{
					"internalType": "uint256",
					"name": "tokenId",
					"type": "uint256"
				}
			],
			"name": "getApproved",
			"outputs": [
				{
					"internalType": "address",
					"name": "",
					"type": "address"
				}
			],
			"stateMutability": "view",
			"type": "function"
		},
		{
			"inputs": [
				{
					"internalType": "uint256",
					"name": "_saleStartTime",
					"type": "uint256"
				}
			],
			"name": "getAuctionPrice",
			"outputs": [
				{
					"internalType": "uint256",
					"name": "",
					"type": "uint256"
				}
			],
			"stateMutability": "view",
			"type": "function"
		},
		{
			"inputs": [
				{
					"internalType": "uint256",
					"name": "tokenId",
					"type": "uint256"
				}
			],
			"name": "getOwnershipData",
			"outputs": [
				{
					"components": [
						{
							"internalType": "address",
							"name": "addr",
							"type": "address"
						},
						{
							"internalType": "uint64",
							"name": "startTimestamp",
							"type": "uint64"
						}
					],
					"internalType": "struct ERC721A.TokenOwnership",
					"name": "",
					"type": "tuple"
				}
			],
			"stateMutability": "view",
			"type": "function"
		},
		{
			"inputs": [
				{
					"internalType": "address",
					"name": "owner",
					"type": "address"
				},
				{
					"internalType": "address",
					"name": "operator",
					"type": "address"
				}
			],
			"name": "isApprovedForAll",
			"outputs": [
				{
					"internalType": "bool",
					"name": "",
					"type": "bool"
				}
			],
			"stateMutability": "view",
			"type": "function"
		},
		{
			"inputs": [
				{
					"internalType": "uint256",
					"name": "publicPriceWei",
					"type": "uint256"
				},
				{
					"internalType": "uint256",
					"name": "publicSaleKey",
					"type": "uint256"
				},
				{
					"internalType": "uint256",
					"name": "publicSaleStartTime",
					"type": "uint256"
				}
			],
			"name": "isPublicSaleOn",
			"outputs": [
				{
					"internalType": "bool",
					"name": "",
					"type": "bool"
				}
			],
			"stateMutability": "view",
			"type": "function"
		},
		{
			"inputs": [],
			"name": "maxPerAddressDuringMint",
			"outputs": [
				{
					"internalType": "uint256",
					"name": "",
					"type": "uint256"
				}
			],
			"stateMutability": "view",
			"type": "function"
		},
		{
			"inputs": [
				{
					"internalType": "address",
					"name": "_to",
					"type": "address"
				}
			],
			"name": "mint",
			"outputs": [],
			"stateMutability": "nonpayable",
			"type": "function"
		},
		{
			"inputs": [
				{
					"internalType": "uint256",
					"name": "count",
					"type": "uint256"
				},
				{
					"internalType": "address",
					"name": "to",
					"type": "address"
				}
			],
			"name": "mint",
			"outputs": [],
			"stateMutability": "nonpayable",
			"type": "function"
		},
		{
			"inputs": [],
			"name": "name",
			"outputs": [
				{
					"internalType": "string",
					"name": "",
					"type": "string"
				}
			],
			"stateMutability": "view",
			"type": "function"
		},
		{
			"inputs": [],
			"name": "nextOwnerToExplicitlySet",
			"outputs": [
				{
					"internalType": "uint256",
					"name": "",
					"type": "uint256"
				}
			],
			"stateMutability": "view",
			"type": "function"
		},
		{
			"inputs": [
				{
					"internalType": "address",
					"name": "owner",
					"type": "address"
				}
			],
			"name": "numberMinted",
			"outputs": [
				{
					"internalType": "uint256",
					"name": "",
					"type": "uint256"
				}
			],
			"stateMutability": "view",
			"type": "function"
		},
		{
			"inputs": [],
			"name": "overrideCollectionSize",
			"outputs": [
				{
					"internalType": "uint256",
					"name": "",
					"type": "uint256"
				}
			],
			"stateMutability": "view",
			"type": "function"
		},
		{
			"inputs": [],
			"name": "owner",
			"outputs": [
				{
					"internalType": "address",
					"name": "",
					"type": "address"
				}
			],
			"stateMutability": "view",
			"type": "function"
		},
		{
			"inputs": [
				{
					"internalType": "uint256",
					"name": "tokenId",
					"type": "uint256"
				}
			],
			"name": "ownerOf",
			"outputs": [
				{
					"internalType": "address",
					"name": "",
					"type": "address"
				}
			],
			"stateMutability": "view",
			"type": "function"
		},
		{
			"inputs": [
				{
					"internalType": "uint256",
					"name": "quantity",
					"type": "uint256"
				},
				{
					"internalType": "uint256",
					"name": "callerPublicSaleKey",
					"type": "uint256"
				}
			],
			"name": "publicSaleMint",
			"outputs": [],
			"stateMutability": "payable",
			"type": "function"
		},
		{
			"inputs": [],
			"name": "renounceOwnership",
			"outputs": [],
			"stateMutability": "nonpayable",
			"type": "function"
		},
		{
			"inputs": [
				{
					"internalType": "address",
					"name": "from",
					"type": "address"
				},
				{
					"internalType": "address",
					"name": "to",
					"type": "address"
				},
				{
					"internalType": "uint256",
					"name": "tokenId",
					"type": "uint256"
				}
			],
			"name": "safeTransferFrom",
			"outputs": [],
			"stateMutability": "nonpayable",
			"type": "function"
		},
		{
			"inputs": [
				{
					"internalType": "address",
					"name": "from",
					"type": "address"
				},
				{
					"internalType": "address",
					"name": "to",
					"type": "address"
				},
				{
					"internalType": "uint256",
					"name": "tokenId",
					"type": "uint256"
				},
				{
					"internalType": "bytes",
					"name": "_data",
					"type": "bytes"
				}
			],
			"name": "safeTransferFrom",
			"outputs": [],
			"stateMutability": "nonpayable",
			"type": "function"
		},
		{
			"inputs": [],
			"name": "saleConfig",
			"outputs": [
				{
					"internalType": "uint32",
					"name": "auctionSaleStartTime",
					"type": "uint32"
				},
				{
					"internalType": "uint32",
					"name": "publicSaleStartTime",
					"type": "uint32"
				},
				{
					"internalType": "uint64",
					"name": "mintlistPrice",
					"type": "uint64"
				},
				{
					"internalType": "uint64",
					"name": "publicPrice",
					"type": "uint64"
				},
				{
					"internalType": "uint32",
					"name": "publicSaleKey",
					"type": "uint32"
				}
			],
			"stateMutability": "view",
			"type": "function"
		},
		{
			"inputs": [
				{
					"internalType": "address[]",
					"name": "addresses",
					"type": "address[]"
				},
				{
					"internalType": "uint256[]",
					"name": "numSlots",
					"type": "uint256[]"
				}
			],
			"name": "seedAllowlist",
			"outputs": [],
			"stateMutability": "nonpayable",
			"type": "function"
		},
		{
			"inputs": [
				{
					"internalType": "address",
					"name": "operator",
					"type": "address"
				},
				{
					"internalType": "bool",
					"name": "approved",
					"type": "bool"
				}
			],
			"name": "setApprovalForAll",
			"outputs": [],
			"stateMutability": "nonpayable",
			"type": "function"
		},
		{
			"inputs": [
				{
					"internalType": "uint32",
					"name": "timestamp",
					"type": "uint32"
				}
			],
			"name": "setAuctionSaleStartTime",
			"outputs": [],
			"stateMutability": "nonpayable",
			"type": "function"
		},
		{
			"inputs": [
				{
					"internalType": "string",
					"name": "baseURI",
					"type": "string"
				}
			],
			"name": "setBaseURI",
			"outputs": [],
			"stateMutability": "nonpayable",
			"type": "function"
		},
		{
			"inputs": [
				{
					"internalType": "uint256",
					"name": "_newSize",
					"type": "uint256"
				}
			],
			"name": "setCollectionSize",
			"outputs": [],
			"stateMutability": "nonpayable",
			"type": "function"
		},
		{
			"inputs": [
				{
					"internalType": "uint256",
					"name": "quantity",
					"type": "uint256"
				}
			],
			"name": "setOwnersExplicit",
			"outputs": [],
			"stateMutability": "nonpayable",
			"type": "function"
		},
		{
			"inputs": [
				{
					"internalType": "uint32",
					"name": "key",
					"type": "uint32"
				}
			],
			"name": "setPublicSaleKey",
			"outputs": [],
			"stateMutability": "nonpayable",
			"type": "function"
		},
		{
			"inputs": [
				{
					"internalType": "bytes4",
					"name": "interfaceId",
					"type": "bytes4"
				}
			],
			"name": "supportsInterface",
			"outputs": [
				{
					"internalType": "bool",
					"name": "",
					"type": "bool"
				}
			],
			"stateMutability": "view",
			"type": "function"
		},
		{
			"inputs": [],
			"name": "symbol",
			"outputs": [
				{
					"internalType": "string",
					"name": "",
					"type": "string"
				}
			],
			"stateMutability": "view",
			"type": "function"
		},
		{
			"inputs": [
				{
					"internalType": "uint256",
					"name": "index",
					"type": "uint256"
				}
			],
			"name": "tokenByIndex",
			"outputs": [
				{
					"internalType": "uint256",
					"name": "",
					"type": "uint256"
				}
			],
			"stateMutability": "view",
			"type": "function"
		},
		{
			"inputs": [
				{
					"internalType": "address",
					"name": "owner",
					"type": "address"
				},
				{
					"internalType": "uint256",
					"name": "index",
					"type": "uint256"
				}
			],
			"name": "tokenOfOwnerByIndex",
			"outputs": [
				{
					"internalType": "uint256",
					"name": "",
					"type": "uint256"
				}
			],
			"stateMutability": "view",
			"type": "function"
		},
		{
			"inputs": [
				{
					"internalType": "uint256",
					"name": "tokenId",
					"type": "uint256"
				}
			],
			"name": "tokenURI",
			"outputs": [
				{
					"internalType": "string",
					"name": "",
					"type": "string"
				}
			],
			"stateMutability": "view",
			"type": "function"
		},
		{
			"inputs": [],
			"name": "totalSupply",
			"outputs": [
				{
					"internalType": "uint256",
					"name": "",
					"type": "uint256"
				}
			],
			"stateMutability": "view",
			"type": "function"
		},
		{
			"inputs": [
				{
					"internalType": "address",
					"name": "from",
					"type": "address"
				},
				{
					"internalType": "address",
					"name": "to",
					"type": "address"
				},
				{
					"internalType": "uint256",
					"name": "tokenId",
					"type": "uint256"
				}
			],
			"name": "transferFrom",
			"outputs": [],
			"stateMutability": "nonpayable",
			"type": "function"
		},
		{
			"inputs": [
				{
					"internalType": "address",
					"name": "newOwner",
					"type": "address"
				}
			],
			"name": "transferOwnership",
			"outputs": [],
			"stateMutability": "nonpayable",
			"type": "function"
		},
		{
			"inputs": [],
			"name": "withdrawMoney",
			"outputs": [],
			"stateMutability": "nonpayable",
			"type": "function"
		}
	]
}