{
	"data": {
		"bytecode": {
			"linkReferences": {},
			"object": "60c06040526014805461ffff19166175301790553480156200002057600080fd5b50604051620033543803806200335483398101604081905262000043916200029a565b8351849084906200005c9060009060208501906200010a565b508051620000729060019060208401906200010a565b5050506200008f62000089620000b460201b60201c565b620000b8565b6001600b556001600160a01b039182166080521660a052505061271060175562000366565b3390565b600a80546001600160a01b038381166001600160a01b0319831681179093556040519116919082907f8be0079c531659141344cd1fd0a4f28419497f9722a3daafe3b4186f6b6457e090600090a35050565b828054620001189062000329565b90600052602060002090601f0160209004810192826200013c576000855562000187565b82601f106200015757805160ff191683800117855562000187565b8280016001018555821562000187579182015b82811115620001875782518255916020019190600101906200016a565b506200019592915062000199565b5090565b5b808211156200019557600081556001016200019a565b634e487b7160e01b600052604160045260246000fd5b600082601f830112620001d857600080fd5b81516001600160401b0380821115620001f557620001f5620001b0565b604051601f8301601f19908116603f01168101908282118183101715620002205762000220620001b0565b816040528381526020925086838588010111156200023d57600080fd5b600091505b8382101562000261578582018301518183018401529082019062000242565b83821115620002735760008385830101525b9695505050505050565b80516001600160a01b03811681146200029557600080fd5b919050565b60008060008060808587031215620002b157600080fd5b84516001600160401b0380821115620002c957600080fd5b620002d788838901620001c6565b95506020870151915080821115620002ee57600080fd5b50620002fd87828801620001c6565b9350506200030e604086016200027d565b91506200031e606086016200027d565b905092959194509250565b600181811c908216806200033e57607f821691505b602082108114156200036057634e487b7160e01b600052602260045260246000fd5b50919050565b60805160a051612fc162000393600039600081816118610152611b0d0152600061176d0152612fc16000f3fe608060405234801561001057600080fd5b506004361061030b5760003560e01c8063715018a61161019d578063c87b56dd116100e9578063e43437c8116100a2578063e985e9c51161007c578063e985e9c5146105d4578063ee21123314610610578063f2fde38b14610623578063fd48354e1461063657600080fd5b8063e43437c8146105b8578063e6f0df8c14610472578063e73a9a25146105c157600080fd5b8063c87b56dd1461056c578063c973d72d1461057f578063d0b77feb14610588578063e1c3ad0c14610590578063e2d9f685146105a2578063e3764a8b146105aa57600080fd5b8063a7f93ebd11610156578063b88d4fde11610130578063b88d4fde14610531578063bc8893b414610544578063bd5e5e0c14610551578063c0bb92ea1461056457600080fd5b8063a7f93ebd1461050d578063aca8ffe714610515578063b23142e21461052857600080fd5b8063715018a6146104bd578063725ae16c146104c55780638da5cb5b146104ce57806394bf804d146104df57806395d89b41146104f2578063a22cb465146104fa57600080fd5b80633a12e9331161025c57806355f804b3116102155780636352211e116101ef5780636352211e1461047b5780636a6278421461048e5780636bb7b1d9146104a157806370a08231146104aa57600080fd5b806355f804b314610457578063567ac4f61461046a57806361169ea81461047257600080fd5b80633a12e933146104055780633ccfd60b1461041857806342842e0e1461042057806345c0f5331461043357806348cd4f081461043c5780634f6ccce71461044457600080fd5b80630c41f497116102c957806323b872dd116102a357806323b872dd146103c35780632f2eda31146103d65780632f745c59146103df57806333c41a90146103f257600080fd5b80630c41f497146103ab5780630c894cfe146103b357806318160ddd146103bb57600080fd5b8062dbabc71461031057806301ffc9a71461031a57806306fdde0314610342578063081812fc14610357578063095ea7b3146103825780630af7f2b814610395575b600080fd5b61031861063f565b005b61032d610328366004612891565b6108ab565b60405190151581526020015b60405180910390f35b61034a6108d6565b6040516103399190612906565b61036a610365366004612919565b610968565b6040516001600160a01b039091168152602001610339565b610318610390366004612947565b6109f0565b61039d601481565b604051908152602001610339565b610318610b06565b610318610bca565b60085461039d565b6103186103d1366004612973565b610c08565b61039d60115481565b61039d6103ed366004612947565b610c39565b61032d610400366004612919565b610ccf565b6103186104133660046129b4565b610d35565b610318610dfe565b61031861042e366004612973565b610e47565b61039d60175481565b61039d610e62565b61039d610452366004612919565b610e7f565b610318610465366004612a62565b610f12565b61039d610f53565b61039d61271081565b61036a610489366004612919565b610fcd565b61031861049c366004612aab565b611044565b61039d600f5481565b61039d6104b8366004612aab565b6110ed565b610318611174565b61039d60125481565b600a546001600160a01b031661036a565b6103186104ed366004612ac8565b6111aa565b61034a611278565b610318610508366004612af8565b611287565b61039d61134c565b610318610523366004612919565b611412565b61039d60135481565b61031861053f366004612b2b565b611493565b60105461032d9060ff1681565b61039d61055f366004612bc1565b6114cb565b61039d600881565b61034a61057a366004612919565b6115a1565b61039d600c5481565b61031861166b565b60105461032d90610100900460ff1681565b61034a6116b2565b61039d662386f26fc1000081565b61039d600d5481565b6103186105cf3660046129b4565b6116ce565b61032d6105e2366004612bed565b6001600160a01b03918216600090815260056020908152604080832093909416825291909152205460ff1690565b61032d61061e366004612c1b565b611b7b565b610318610631366004612aab565b611bc2565b61039d600e5481565b601254156106a95760405162461bcd60e51b815260206004820152602c60248201527f4d696e746564204d7574616e7473207374617274696e6720696e64657820697360448201526b08185b1c9958591e481cd95d60a21b60648201526084015b60405180910390fd5b6013541561070c5760405162461bcd60e51b815260206004820152602a60248201527f4d656761204d7574616e7473207374617274696e6720696e64657820697320616044820152691b1c9958591e481cd95d60b21b60648201526084016106a0565b60115461075b5760405162461bcd60e51b815260206004820181905260248201527f5374617274696e6720696e64657820626c6f636b206d7573742062652073657460448201526064016106a0565b6000610765611c5a565b9050600e54811015801561077b57506000600f54115b6107d55760405162461bcd60e51b815260206004820152602560248201527f496e76616c6964207365745374617274696e67496e646963657320636f6e646960448201526474696f6e7360d81b60648201526084016106a0565b6107e3601154612710611c78565b6012556011546107f4906008611c78565b60135560115460ff906108079043612c4d565b111561083f5761082361081b600143612c4d565b612710611c78565b60125561083b610834600143612c4d565b6008611c78565b6013555b60125461085c576012805490600061085683612c64565b91905055505b601354610879576013805490600061087383612c64565b91905055505b6013546012546040517f78350484f1ffcc8f055a7c88028cb214465df9c18d7d2b8c6584ab2389c4bceb90600090a350565b60006001600160e01b0319821663780e9d6360e01b14806108d057506108d082611c85565b92915050565b6060600080546108e590612c7f565b80601f016020809104026020016040519081016040528092919081815260200182805461091190612c7f565b801561095e5780601f106109335761010080835404028352916020019161095e565b820191906000526020600020905b81548152906001019060200180831161094157829003601f168201915b5050505050905090565b600061097382611cd5565b6109d45760405162461bcd60e51b815260206004820152602c60248201527f4552433732313a20617070726f76656420717565727920666f72206e6f6e657860448201526b34b9ba32b73a103a37b5b2b760a11b60648201526084016106a0565b506000908152600460205260409020546001600160a01b031690565b60006109fb82610fcd565b9050806001600160a01b0316836001600160a01b03161415610a695760405162461bcd60e51b815260206004820152602160248201527f4552433732313a20617070726f76616c20746f2063757272656e74206f776e656044820152603960f91b60648201526084016106a0565b336001600160a01b0382161480610a855750610a8581336105e2565b610af75760405162461bcd60e51b815260206004820152603860248201527f4552433732313a20617070726f76652063616c6c6572206973206e6f74206f7760448201527f6e6572206e6f7220617070726f76656420666f7220616c6c000000000000000060648201526084016106a0565b610b018383611cf2565b505050565b600a546001600160a01b03163314610b305760405162461bcd60e51b81526004016106a090612cba565b60105460ff16610b7e5760405162461bcd60e51b81526020600482015260196024820152785075626c69632073616c65206973206e6f742061637469766560381b60448201526064016106a0565b6000610b8861134c565b6010805460ff191690559050610b9c611c5a565b60405182907f11be19c514ca2377de0ba482bedfd33a9a262050819cf2b8bc52c04298447f3090600090a350565b600a546001600160a01b03163314610bf45760405162461bcd60e51b81526004016106a090612cba565b6010805460ff19811660ff90911615179055565b610c123382611d60565b610c2e5760405162461bcd60e51b81526004016106a090612cef565b610b01838383611e46565b6000610c44836110ed565b8210610ca65760405162461bcd60e51b815260206004820152602b60248201527f455243373231456e756d657261626c653a206f776e657220696e646578206f7560448201526a74206f6620626f756e647360a81b60648201526084016106a0565b506001600160a01b03919091166000908152600660209081526040808320938352929052205490565b60006175378210610d2c5760405162461bcd60e51b815260206004820152602160248201527f746f6b656e4964206f75747369646520636f6c6c656374696f6e20626f756e646044820152607360f81b60648201526084016106a0565b6108d082611cd5565b600a546001600160a01b03163314610d5f5760405162461bcd60e51b81526004016106a090612cba565b60105460ff1615610db25760405162461bcd60e51b815260206004820152601d60248201527f5075626c69632073616c652068617320616c726561647920626567756e00000060448201526064016106a0565b600e829055600c81905542600f8190556010805460ff1916600117905560405183907fe7a2bd41b03361b062f9a965bb9dab248ea91b878e26faf49eabd35df4a2c4d190600090a35050565b600a546001600160a01b03163314610e285760405162461bcd60e51b81526004016106a090612cba565b47610e44610e3e600a546001600160a01b031690565b82611fed565b50565b610b0183838360405180602001604052806000815250611493565b6000600d54610e7060085490565b610e7a9190612c4d565b905090565b6000610e8a60085490565b8210610eed5760405162461bcd60e51b815260206004820152602c60248201527f455243373231456e756d657261626c653a20676c6f62616c20696e646578206f60448201526b7574206f6620626f756e647360a01b60648201526084016106a0565b60088281548110610f0057610f00612d40565b90600052602060002001549050919050565b600a546001600160a01b03163314610f3c5760405162461bcd60e51b81526004016106a090612cba565b8051610f4f9060169060208401906127eb565b5050565b600080600f5411610fa65760405162461bcd60e51b815260206004820152601e60248201527f5075626c69632073616c65206861736e2774207374617274656420796574000060448201526064016106a0565b600e54610fb1611c5a565b10610fbc5750600090565b42600e54600f54610e709190612d56565b6000818152600260205260408120546001600160a01b0316806108d05760405162461bcd60e51b815260206004820152602960248201527f4552433732313a206f776e657220717565727920666f72206e6f6e657869737460448201526832b73a103a37b5b2b760b91b60648201526084016106a0565b6002600b5414156110675760405162461bcd60e51b81526004016106a090612d6e565b6002600b5560175460085461107d906001612d56565b11156110c35760405162461bcd60e51b815260206004820152601560248201527465786365656420636f6c6c656374696f6e53697a6560581b60448201526064016106a0565b600d805490819060006110d583612c64565b91905055506110e48282612106565b50506001600b55565b60006001600160a01b0382166111585760405162461bcd60e51b815260206004820152602a60248201527f4552433732313a2062616c616e636520717565727920666f7220746865207a65604482015269726f206164647265737360b01b60648201526084016106a0565b506001600160a01b031660009081526003602052604090205490565b600a546001600160a01b0316331461119e5760405162461bcd60e51b81526004016106a090612cba565b6111a86000612120565b565b6002600b5414156111cd5760405162461bcd60e51b81526004016106a090612d6e565b6002600b55601754826111df60085490565b6111e99190612d56565b111561122f5760405162461bcd60e51b815260206004820152601560248201527465786365656420636f6c6c656374696f6e53697a6560581b60448201526064016106a0565b60005b8281101561126e57600d8054908190600061124c83612c64565b919050555061125b8382612106565b508061126681612c64565b915050611232565b50506001600b5550565b6060600180546108e590612c7f565b6001600160a01b0382163314156112e05760405162461bcd60e51b815260206004820152601960248201527f4552433732313a20617070726f766520746f2063616c6c65720000000000000060448201526064016106a0565b3360008181526005602090815260408083206001600160a01b03871680855290835292819020805460ff191686151590811790915590519081529192917f17307eab39ab6107e8899845ad3d59bd9653f200f220920489ca2b5937696c31910160405180910390a35050565b60105460009060ff1661139d5760405162461bcd60e51b81526020600482015260196024820152785075626c69632073616c65206973206e6f742061637469766560381b60448201526064016106a0565b60006113a7611c5a565b9050600e5481106113c057662386f26fc1000091505090565b600e54600c54600091906113d48483612c4d565b6113de9190612da5565b6113e89190612dda565b9050662386f26fc10000811161140557662386f26fc10000611407565b805b9250505090565b5090565b600a546001600160a01b0316331461143c5760405162461bcd60e51b81526004016106a090612cba565b60175481101561148e5760405162461bcd60e51b815260206004820152601d60248201527f646f6e277420646563726561736520636f6c6c656374696f6e53697a6500000060448201526064016106a0565b601755565b61149d3383611d60565b6114b95760405162461bcd60e51b81526004016106a090612cef565b6114c584848484612172565b50505050565b60008060458360ff1614156115355750600083815260156020526040902054806115305760405162461bcd60e51b8152602060048201526016602482015275125b9d985b1a5908135151d048135d5d185b9d08125960521b60448201526064016106a0565b611545565b6115428360ff16856121a5565b90505b61154e81611cd5565b61159a5760405162461bcd60e51b815260206004820152601c60248201527f517565727920666f72206e6f6e6578697374656e74206d7574616e740000000060448201526064016106a0565b9392505050565b60606115ac82611cd5565b6116105760405162461bcd60e51b815260206004820152602f60248201527f4552433732314d657461646174613a2055524920717565727920666f72206e6f60448201526e3732bc34b9ba32b73a103a37b5b2b760891b60648201526084016106a0565b600061161a612226565b9050600081511161163a576040518060200160405280600081525061159a565b8061164484612235565b604051602001611655929190612dee565b6040516020818303038152906040529392505050565b600a546001600160a01b031633146116955760405162461bcd60e51b81526004016106a090612cba565b6010805461ff001981166101009182900460ff1615909102179055565b604051806060016040528060408152602001612f4c6040913981565b6002600b5414156116f15760405162461bcd60e51b81526004016106a090612d6e565b6002600b55601054610100900460ff1661174d5760405162461bcd60e51b815260206004820152601c60248201527f536572756d204d75746174696f6e206973206e6f74206163746976650000000060448201526064016106a0565b6040516331a9108f60e11b81526004810182905233906001600160a01b037f00000000000000000000000000000000000000000000000000000000000000001690636352211e90602401602060405180830381865afa1580156117b4573d6000803e3d6000fd5b505050506040513d601f19601f820116820180604052508101906117d89190612e1d565b6001600160a01b0316146118435760405162461bcd60e51b815260206004820152602c60248201527f4d757374206f776e207468652061706520796f7527726520617474656d70746960448201526b6e6720746f206d757461746560a01b60648201526084016106a0565b604051627eeac760e11b8152336004820152602481018390526000907f00000000000000000000000000000000000000000000000000000000000000006001600160a01b03169062fdd58e90604401602060405180830381865afa1580156118af573d6000803e3d6000fd5b505050506040513d601f19601f820116820180604052508101906118d39190612e3a565b1161193b5760405162461bcd60e51b815260206004820152603260248201527f4d757374206f776e206174206c65617374206f6e65206f66207468697320736560448201527172756d207479706520746f206d757461746560701b60648201526084016106a0565b60006045831415611a7b5760145461753761ffff90911611156119bc5760405162461bcd60e51b815260206004820152603360248201527f576f756c642065786365656420737570706c79206f6620736572756d2d6d7574604482015272617461626c65204d454741204d5554414e545360681b60648201526084016106a0565b60008281526015602052604090205415611a2d5760405162461bcd60e51b815260206004820152602c60248201527f41706520616c7265616479206d7574617465642077697468204d454741204d5560448201526b544154494f4e20534552554d60a01b60648201526084016106a0565b5060148054600083815260156020526040812061ffff928316908190558354909392169190611a5b83612e53565b91906101000a81548161ffff021916908361ffff16021790555050611af1565b611a8583836121a5565b9050611a9081611cd5565b15611af15760405162461bcd60e51b815260206004820152602b60248201527f41706520616c7265616479206d7574617465642077697468207468697320747960448201526a7065206f6620736572756d60a81b60648201526084016106a0565b6040516370ff9ea360e01b8152600481018490523360248201527f00000000000000000000000000000000000000000000000000000000000000006001600160a01b0316906370ff9ea390604401600060405180830381600087803b158015611b5957600080fd5b505af1158015611b6d573d6000803e3d6000fd5b5050505061126e3382612106565b600060458360ff161415611ba0575060008181526015602052604090205415156108d0565b6000611baf8460ff16846121a5565b9050611bba81611cd5565b949350505050565b600a546001600160a01b03163314611bec5760405162461bcd60e51b81526004016106a090612cba565b6001600160a01b038116611c515760405162461bcd60e51b815260206004820152602660248201527f4f776e61626c653a206e6577206f776e657220697320746865207a65726f206160448201526564647265737360d01b60648201526084016106a0565b610e4481612120565b600080600f5411611c6b5750600090565b600f54610e7a9042612c4d565b600061159a828440612e75565b60006001600160e01b031982166380ac58cd60e01b1480611cb657506001600160e01b03198216635b5e139f60e01b145b806108d057506301ffc9a760e01b6001600160e01b03198316146108d0565b6000908152600260205260409020546001600160a01b0316151590565b600081815260046020526040902080546001600160a01b0319166001600160a01b0384169081179091558190611d2782610fcd565b6001600160a01b03167f8c5be1e5ebec7d5bd14f71427d1e84f3dd0314c0f7b2291e5b200ac8c7c3b92560405160405180910390a45050565b6000611d6b82611cd5565b611dcc5760405162461bcd60e51b815260206004820152602c60248201527f4552433732313a206f70657261746f7220717565727920666f72206e6f6e657860448201526b34b9ba32b73a103a37b5b2b760a11b60648201526084016106a0565b6000611dd783610fcd565b9050806001600160a01b0316846001600160a01b03161480611e125750836001600160a01b0316611e0784610968565b6001600160a01b0316145b80611bba57506001600160a01b0380821660009081526005602090815260408083209388168352929052205460ff16611bba565b826001600160a01b0316611e5982610fcd565b6001600160a01b031614611ebd5760405162461bcd60e51b815260206004820152602560248201527f4552433732313a207472616e736665722066726f6d20696e636f72726563742060448201526437bbb732b960d91b60648201526084016106a0565b6001600160a01b038216611f1f5760405162461bcd60e51b8152602060048201526024808201527f4552433732313a207472616e7366657220746f20746865207a65726f206164646044820152637265737360e01b60648201526084016106a0565b611f2a838383612333565b611f35600082611cf2565b6001600160a01b0383166000908152600360205260408120805460019290611f5e908490612c4d565b90915550506001600160a01b0382166000908152600360205260408120805460019290611f8c908490612d56565b909155505060008181526002602052604080822080546001600160a01b0319166001600160a01b0386811691821790925591518493918716917fddf252ad1be2c89b69c2b068fc378daa952ba7f163c4a11628f55a4df523b3ef91a4505050565b8047101561203d5760405162461bcd60e51b815260206004820152601d60248201527f416464726573733a20696e73756666696369656e742062616c616e636500000060448201526064016106a0565b6000826001600160a01b03168260405160006040518083038185875af1925050503d806000811461208a576040519150601f19603f3d011682016040523d82523d6000602084013e61208f565b606091505b5050905080610b015760405162461bcd60e51b815260206004820152603a60248201527f416464726573733a20756e61626c6520746f2073656e642076616c75652c207260448201527f6563697069656e74206d6179206861766520726576657274656400000000000060648201526084016106a0565b610f4f8282604051806020016040528060008152506123eb565b600a80546001600160a01b038381166001600160a01b0319831681179093556040519116919082907f8be0079c531659141344cd1fd0a4f28419497f9722a3daafe3b4186f6b6457e090600090a35050565b61217d848484611e46565b6121898484848461241e565b6114c55760405162461bcd60e51b81526004016106a090612e89565b600060458314156122035760405162461bcd60e51b815260206004820152602260248201527f4d656761206d7574616e742049442063616e27742062652063616c63756c6174604482015261195960f21b60648201526084016106a0565b61271083612212600285612da5565b61221c9190612d56565b61159a9190612d56565b6060601680546108e590612c7f565b6060816122595750506040805180820190915260018152600360fc1b602082015290565b8160005b8115612283578061226d81612c64565b915061227c9050600a83612dda565b915061225d565b60008167ffffffffffffffff81111561229e5761229e6129d6565b6040519080825280601f01601f1916602001820160405280156122c8576020820181803683370190505b5090505b8415611bba576122dd600183612c4d565b91506122ea600a86612e75565b6122f5906030612d56565b60f81b81838151811061230a5761230a612d40565b60200101906001600160f81b031916908160001a90535061232c600a86612dda565b94506122cc565b6001600160a01b03831661238e5761238981600880546000838152600960205260408120829055600182018355919091527ff3f7a9fe364faab93b216da50a3214154f22a0a2b415b23a84c8169e8b636ee30155565b6123b1565b816001600160a01b0316836001600160a01b0316146123b1576123b1838261251c565b6001600160a01b0382166123c857610b01816125b9565b826001600160a01b0316826001600160a01b031614610b0157610b018282612668565b6123f583836126ac565b612402600084848461241e565b610b015760405162461bcd60e51b81526004016106a090612e89565b60006001600160a01b0384163b1561251157604051630a85bd0160e11b81526001600160a01b0385169063150b7a0290612462903390899088908890600401612edb565b6020604051808303816000875af192505050801561249d575060408051601f3d908101601f1916820190925261249a91810190612f18565b60015b6124f7573d8080156124cb576040519150601f19603f3d011682016040523d82523d6000602084013e6124d0565b606091505b5080516124ef5760405162461bcd60e51b81526004016106a090612e89565b805181602001fd5b6001600160e01b031916630a85bd0160e11b149050611bba565b506001949350505050565b60006001612529846110ed565b6125339190612c4d565b600083815260076020526040902054909150808214612586576001600160a01b03841660009081526006602090815260408083208584528252808320548484528184208190558352600790915290208190555b5060009182526007602090815260408084208490556001600160a01b039094168352600681528383209183525290812055565b6008546000906125cb90600190612c4d565b600083815260096020526040812054600880549394509092849081106125f3576125f3612d40565b90600052602060002001549050806008838154811061261457612614612d40565b600091825260208083209091019290925582815260099091526040808220849055858252812055600880548061264c5761264c612f35565b6001900381819060005260206000200160009055905550505050565b6000612673836110ed565b6001600160a01b039093166000908152600660209081526040808320868452825280832085905593825260079052919091209190915550565b6001600160a01b0382166127025760405162461bcd60e51b815260206004820181905260248201527f4552433732313a206d696e7420746f20746865207a65726f206164647265737360448201526064016106a0565b61270b81611cd5565b156127585760405162461bcd60e51b815260206004820152601c60248201527f4552433732313a20746f6b656e20616c7265616479206d696e7465640000000060448201526064016106a0565b61276460008383612333565b6001600160a01b038216600090815260036020526040812080546001929061278d908490612d56565b909155505060008181526002602052604080822080546001600160a01b0319166001600160a01b03861690811790915590518392907fddf252ad1be2c89b69c2b068fc378daa952ba7f163c4a11628f55a4df523b3ef908290a45050565b8280546127f790612c7f565b90600052602060002090601f016020900481019282612819576000855561285f565b82601f1061283257805160ff191683800117855561285f565b8280016001018555821561285f579182015b8281111561285f578251825591602001919060010190612844565b5061140e9291505b8082111561140e5760008155600101612867565b6001600160e01b031981168114610e4457600080fd5b6000602082840312156128a357600080fd5b813561159a8161287b565b60005b838110156128c95781810151838201526020016128b1565b838111156114c55750506000910152565b600081518084526128f28160208601602086016128ae565b601f01601f19169290920160200192915050565b60208152600061159a60208301846128da565b60006020828403121561292b57600080fd5b5035919050565b6001600160a01b0381168114610e4457600080fd5b6000806040838503121561295a57600080fd5b823561296581612932565b946020939093013593505050565b60008060006060848603121561298857600080fd5b833561299381612932565b925060208401356129a381612932565b929592945050506040919091013590565b600080604083850312156129c757600080fd5b50508035926020909101359150565b634e487b7160e01b600052604160045260246000fd5b600067ffffffffffffffff80841115612a0757612a076129d6565b604051601f8501601f19908116603f01168101908282118183101715612a2f57612a2f6129d6565b81604052809350858152868686011115612a4857600080fd5b858560208301376000602087830101525050509392505050565b600060208284031215612a7457600080fd5b813567ffffffffffffffff811115612a8b57600080fd5b8201601f81018413612a9c57600080fd5b611bba848235602084016129ec565b600060208284031215612abd57600080fd5b813561159a81612932565b60008060408385031215612adb57600080fd5b823591506020830135612aed81612932565b809150509250929050565b60008060408385031215612b0b57600080fd5b8235612b1681612932565b915060208301358015158114612aed57600080fd5b60008060008060808587031215612b4157600080fd5b8435612b4c81612932565b93506020850135612b5c81612932565b925060408501359150606085013567ffffffffffffffff811115612b7f57600080fd5b8501601f81018713612b9057600080fd5b612b9f878235602084016129ec565b91505092959194509250565b803560ff81168114612bbc57600080fd5b919050565b60008060408385031215612bd457600080fd5b82359150612be460208401612bab565b90509250929050565b60008060408385031215612c0057600080fd5b8235612c0b81612932565b91506020830135612aed81612932565b60008060408385031215612c2e57600080fd5b61296583612bab565b634e487b7160e01b600052601160045260246000fd5b600082821015612c5f57612c5f612c37565b500390565b6000600019821415612c7857612c78612c37565b5060010190565b600181811c90821680612c9357607f821691505b60208210811415612cb457634e487b7160e01b600052602260045260246000fd5b50919050565b6020808252818101527f4f776e61626c653a2063616c6c6572206973206e6f7420746865206f776e6572604082015260600190565b60208082526031908201527f4552433732313a207472616e736665722063616c6c6572206973206e6f74206f6040820152701ddb995c881b9bdc88185c1c1c9bdd9959607a1b606082015260800190565b634e487b7160e01b600052603260045260246000fd5b60008219821115612d6957612d69612c37565b500190565b6020808252601f908201527f5265656e7472616e637947756172643a207265656e7472616e742063616c6c00604082015260600190565b6000816000190483118215151615612dbf57612dbf612c37565b500290565b634e487b7160e01b600052601260045260246000fd5b600082612de957612de9612dc4565b500490565b60008351612e008184602088016128ae565b835190830190612e148183602088016128ae565b01949350505050565b600060208284031215612e2f57600080fd5b815161159a81612932565b600060208284031215612e4c57600080fd5b5051919050565b600061ffff80831681811415612e6b57612e6b612c37565b6001019392505050565b600082612e8457612e84612dc4565b500690565b60208082526032908201527f4552433732313a207472616e7366657220746f206e6f6e20455243373231526560408201527131b2b4bb32b91034b6b83632b6b2b73a32b960711b606082015260800190565b6001600160a01b0385811682528416602082015260408101839052608060608201819052600090612f0e908301846128da565b9695505050505050565b600060208284031215612f2a57600080fd5b815161159a8161287b565b634e487b7160e01b600052603160045260246000fdfe63613731353163633433366461306463336133643636323639346638633964613561653339613733353566616261616663303065366161353830393237313735a26469706673582212208d06ba558b08e1d4aeffadc3410b94c83efc68aa2fcfb4ec5a289fa43641199464736f6c634300080a0033",
			"opcodes": "PUSH1 0xC0 PUSH1 0x40 MSTORE PUSH1 0x14 DUP1 SLOAD PUSH2 0xFFFF NOT AND PUSH2 0x7530 OR SWAP1 SSTORE CALLVALUE DUP1 ISZERO PUSH3 0x20 JUMPI PUSH1 0x0 DUP1 REVERT JUMPDEST POP PUSH1 0x40 MLOAD PUSH3 0x3354 CODESIZE SUB DUP1 PUSH3 0x3354 DUP4 CODECOPY DUP2 ADD PUSH1 0x40 DUP2 SWAP1 MSTORE PUSH3 0x43 SWAP2 PUSH3 0x29A JUMP JUMPDEST DUP4 MLOAD DUP5 SWAP1 DUP5 SWAP1 PUSH3 0x5C SWAP1 PUSH1 0x0 SWAP1 PUSH1 0x20 DUP6 ADD SWAP1 PUSH3 0x10A JUMP JUMPDEST POP DUP1 MLOAD PUSH3 0x72 SWAP1 PUSH1 0x1 SWAP1 PUSH1 0x20 DUP5 ADD SWAP1 PUSH3 0x10A JUMP JUMPDEST POP POP POP PUSH3 0x8F PUSH3 0x89 PUSH3 0xB4 PUSH1 0x20 SHL PUSH1 0x20 SHR JUMP JUMPDEST PUSH3 0xB8 JUMP JUMPDEST PUSH1 0x1 PUSH1 0xB SSTORE PUSH1 0x1 PUSH1 0x1 PUSH1 0xA0 SHL SUB SWAP2 DUP3 AND PUSH1 0x80 MSTORE AND PUSH1 0xA0 MSTORE POP POP PUSH2 0x2710 PUSH1 0x17 SSTORE PUSH3 0x366 JUMP JUMPDEST CALLER SWAP1 JUMP JUMPDEST PUSH1 0xA DUP1 SLOAD PUSH1 0x1 PUSH1 0x1 PUSH1 0xA0 SHL SUB DUP4 DUP2 AND PUSH1 0x1 PUSH1 0x1 PUSH1 0xA0 SHL SUB NOT DUP4 AND DUP2 OR SWAP1 SWAP4 SSTORE PUSH1 0x40 MLOAD SWAP2 AND SWAP2 SWAP1 DUP3 SWAP1 PUSH32 0x8BE0079C531659141344CD1FD0A4F28419497F9722A3DAAFE3B4186F6B6457E0 SWAP1 PUSH1 0x0 SWAP1 LOG3 POP POP JUMP JUMPDEST DUP3 DUP1 SLOAD PUSH3 0x118 SWAP1 PUSH3 0x329 JUMP JUMPDEST SWAP1 PUSH1 0x0 MSTORE PUSH1 0x20 PUSH1 0x0 KECCAK256 SWAP1 PUSH1 0x1F ADD PUSH1 0x20 SWAP1 DIV DUP2 ADD SWAP3 DUP3 PUSH3 0x13C JUMPI PUSH1 0x0 DUP6 SSTORE PUSH3 0x187 JUMP JUMPDEST DUP3 PUSH1 0x1F LT PUSH3 0x157 JUMPI DUP1 MLOAD PUSH1 0xFF NOT AND DUP4 DUP1 ADD OR DUP6 SSTORE PUSH3 0x187 JUMP JUMPDEST DUP3 DUP1 ADD PUSH1 0x1 ADD DUP6 SSTORE DUP3 ISZERO PUSH3 0x187 JUMPI SWAP2 DUP3 ADD JUMPDEST DUP3 DUP2 GT ISZERO PUSH3 0x187 JUMPI DUP3 MLOAD DUP3 SSTORE SWAP2 PUSH1 0x20 ADD SWAP2 SWAP1 PUSH1 0x1 ADD SWAP1 PUSH3 0x16A JUMP JUMPDEST POP PUSH3 0x195 SWAP3 SWAP2 POP PUSH3 0x199 JUMP JUMPDEST POP SWAP1 JUMP JUMPDEST JUMPDEST DUP1 DUP3 GT ISZERO PUSH3 0x195 JUMPI PUSH1 0x0 DUP2 SSTORE PUSH1 0x1 ADD PUSH3 0x19A JUMP JUMPDEST PUSH4 0x4E487B71 PUSH1 0xE0 SHL PUSH1 0x0 MSTORE PUSH1 0x41 PUSH1 0x4 MSTORE PUSH1 0x24 PUSH1 0x0 REVERT JUMPDEST PUSH1 0x0 DUP3 PUSH1 0x1F DUP4 ADD SLT PUSH3 0x1D8 JUMPI PUSH1 0x0 DUP1 REVERT JUMPDEST DUP2 MLOAD PUSH1 0x1 PUSH1 0x1 PUSH1 0x40 SHL SUB DUP1 DUP3 GT ISZERO PUSH3 0x1F5 JUMPI PUSH3 0x1F5 PUSH3 0x1B0 JUMP JUMPDEST PUSH1 0x40 MLOAD PUSH1 0x1F DUP4 ADD PUSH1 0x1F NOT SWAP1 DUP2 AND PUSH1 0x3F ADD AND DUP2 ADD SWAP1 DUP3 DUP3 GT DUP2 DUP4 LT OR ISZERO PUSH3 0x220 JUMPI PUSH3 0x220 PUSH3 0x1B0 JUMP JUMPDEST DUP2 PUSH1 0x40 MSTORE DUP4 DUP2 MSTORE PUSH1 0x20 SWAP3 POP DUP7 DUP4 DUP6 DUP9 ADD ADD GT ISZERO PUSH3 0x23D JUMPI PUSH1 0x0 DUP1 REVERT JUMPDEST PUSH1 0x0 SWAP2 POP JUMPDEST DUP4 DUP3 LT ISZERO PUSH3 0x261 JUMPI DUP6 DUP3 ADD DUP4 ADD MLOAD DUP2 DUP4 ADD DUP5 ADD MSTORE SWAP1 DUP3 ADD SWAP1 PUSH3 0x242 JUMP JUMPDEST DUP4 DUP3 GT ISZERO PUSH3 0x273 JUMPI PUSH1 0x0 DUP4 DUP6 DUP4 ADD ADD MSTORE JUMPDEST SWAP7 SWAP6 POP POP POP POP POP POP JUMP JUMPDEST DUP1 MLOAD PUSH1 0x1 PUSH1 0x1 PUSH1 0xA0 SHL SUB DUP2 AND DUP2 EQ PUSH3 0x295 JUMPI PUSH1 0x0 DUP1 REVERT JUMPDEST SWAP2 SWAP1 POP JUMP JUMPDEST PUSH1 0x0 DUP1 PUSH1 0x0 DUP1 PUSH1 0x80 DUP6 DUP8 SUB SLT ISZERO PUSH3 0x2B1 JUMPI PUSH1 0x0 DUP1 REVERT JUMPDEST DUP5 MLOAD PUSH1 0x1 PUSH1 0x1 PUSH1 0x40 SHL SUB DUP1 DUP3 GT ISZERO PUSH3 0x2C9 JUMPI PUSH1 0x0 DUP1 REVERT JUMPDEST PUSH3 0x2D7 DUP9 DUP4 DUP10 ADD PUSH3 0x1C6 JUMP JUMPDEST SWAP6 POP PUSH1 0x20 DUP8 ADD MLOAD SWAP2 POP DUP1 DUP3 GT ISZERO PUSH3 0x2EE JUMPI PUSH1 0x0 DUP1 REVERT JUMPDEST POP PUSH3 0x2FD DUP8 DUP3 DUP9 ADD PUSH3 0x1C6 JUMP JUMPDEST SWAP4 POP POP PUSH3 0x30E PUSH1 0x40 DUP7 ADD PUSH3 0x27D JUMP JUMPDEST SWAP2 POP PUSH3 0x31E PUSH1 0x60 DUP7 ADD PUSH3 0x27D JUMP JUMPDEST SWAP1 POP SWAP3 SWAP6 SWAP2 SWAP5 POP SWAP3 POP JUMP JUMPDEST PUSH1 0x1 DUP2 DUP2 SHR SWAP1 DUP3 AND DUP1 PUSH3 0x33E JUMPI PUSH1 0x7F DUP3 AND SWAP2 POP JUMPDEST PUSH1 0x20 DUP3 LT DUP2 EQ ISZERO PUSH3 0x360 JUMPI PUSH4 0x4E487B71 PUSH1 0xE0 SHL PUSH1 0x0 MSTORE PUSH1 0x22 PUSH1 0x4 MSTORE PUSH1 0x24 PUSH1 0x0 REVERT JUMPDEST POP SWAP2 SWAP1 POP JUMP JUMPDEST PUSH1 0x80 MLOAD PUSH1 0xA0 MLOAD PUSH2 0x2FC1 PUSH3 0x393 PUSH1 0x0 CODECOPY PUSH1 0x0 DUP2 DUP2 PUSH2 0x1861 ADD MSTORE PUSH2 0x1B0D ADD MSTORE PUSH1 0x0 PUSH2 0x176D ADD MSTORE PUSH2 0x2FC1 PUSH1 0x0 RETURN INVALID PUSH1 0x80 PUSH1 0x40 MSTORE CALLVALUE DUP1 ISZERO PUSH2 0x10 JUMPI PUSH1 0x0 DUP1 REVERT JUMPDEST POP PUSH1 0x4 CALLDATASIZE LT PUSH2 0x30B JUMPI PUSH1 0x0 CALLDATALOAD PUSH1 0xE0 SHR DUP1 PUSH4 0x715018A6 GT PUSH2 0x19D JUMPI DUP1 PUSH4 0xC87B56DD GT PUSH2 0xE9 JUMPI DUP1 PUSH4 0xE43437C8 GT PUSH2 0xA2 JUMPI DUP1 PUSH4 0xE985E9C5 GT PUSH2 0x7C JUMPI DUP1 PUSH4 0xE985E9C5 EQ PUSH2 0x5D4 JUMPI DUP1 PUSH4 0xEE211233 EQ PUSH2 0x610 JUMPI DUP1 PUSH4 0xF2FDE38B EQ PUSH2 0x623 JUMPI DUP1 PUSH4 0xFD48354E EQ PUSH2 0x636 JUMPI PUSH1 0x0 DUP1 REVERT JUMPDEST DUP1 PUSH4 0xE43437C8 EQ PUSH2 0x5B8 JUMPI DUP1 PUSH4 0xE6F0DF8C EQ PUSH2 0x472 JUMPI DUP1 PUSH4 0xE73A9A25 EQ PUSH2 0x5C1 JUMPI PUSH1 0x0 DUP1 REVERT JUMPDEST DUP1 PUSH4 0xC87B56DD EQ PUSH2 0x56C JUMPI DUP1 PUSH4 0xC973D72D EQ PUSH2 0x57F JUMPI DUP1 PUSH4 0xD0B77FEB EQ PUSH2 0x588 JUMPI DUP1 PUSH4 0xE1C3AD0C EQ PUSH2 0x590 JUMPI DUP1 PUSH4 0xE2D9F685 EQ PUSH2 0x5A2 JUMPI DUP1 PUSH4 0xE3764A8B EQ PUSH2 0x5AA JUMPI PUSH1 0x0 DUP1 REVERT JUMPDEST DUP1 PUSH4 0xA7F93EBD GT PUSH2 0x156 JUMPI DUP1 PUSH4 0xB88D4FDE GT PUSH2 0x130 JUMPI DUP1 PUSH4 0xB88D4FDE EQ PUSH2 0x531 JUMPI DUP1 PUSH4 0xBC8893B4 EQ PUSH2 0x544 JUMPI DUP1 PUSH4 0xBD5E5E0C EQ PUSH2 0x551 JUMPI DUP1 PUSH4 0xC0BB92EA EQ PUSH2 0x564 JUMPI PUSH1 0x0 DUP1 REVERT JUMPDEST DUP1 PUSH4 0xA7F93EBD EQ PUSH2 0x50D JUMPI DUP1 PUSH4 0xACA8FFE7 EQ PUSH2 0x515 JUMPI DUP1 PUSH4 0xB23142E2 EQ PUSH2 0x528 JUMPI PUSH1 0x0 DUP1 REVERT JUMPDEST DUP1 PUSH4 0x715018A6 EQ PUSH2 0x4BD JUMPI DUP1 PUSH4 0x725AE16C EQ PUSH2 0x4C5 JUMPI DUP1 PUSH4 0x8DA5CB5B EQ PUSH2 0x4CE JUMPI DUP1 PUSH4 0x94BF804D EQ PUSH2 0x4DF JUMPI DUP1 PUSH4 0x95D89B41 EQ PUSH2 0x4F2 JUMPI DUP1 PUSH4 0xA22CB465 EQ PUSH2 0x4FA JUMPI PUSH1 0x0 DUP1 REVERT JUMPDEST DUP1 PUSH4 0x3A12E933 GT PUSH2 0x25C JUMPI DUP1 PUSH4 0x55F804B3 GT PUSH2 0x215 JUMPI DUP1 PUSH4 0x6352211E GT PUSH2 0x1EF JUMPI DUP1 PUSH4 0x6352211E EQ PUSH2 0x47B JUMPI DUP1 PUSH4 0x6A627842 EQ PUSH2 0x48E JUMPI DUP1 PUSH4 0x6BB7B1D9 EQ PUSH2 0x4A1 JUMPI DUP1 PUSH4 0x70A08231 EQ PUSH2 0x4AA JUMPI PUSH1 0x0 DUP1 REVERT JUMPDEST DUP1 PUSH4 0x55F804B3 EQ PUSH2 0x457 JUMPI DUP1 PUSH4 0x567AC4F6 EQ PUSH2 0x46A JUMPI DUP1 PUSH4 0x61169EA8 EQ PUSH2 0x472 JUMPI PUSH1 0x0 DUP1 REVERT JUMPDEST DUP1 PUSH4 0x3A12E933 EQ PUSH2 0x405 JUMPI DUP1 PUSH4 0x3CCFD60B EQ PUSH2 0x418 JUMPI DUP1 PUSH4 0x42842E0E EQ PUSH2 0x420 JUMPI DUP1 PUSH4 0x45C0F533 EQ PUSH2 0x433 JUMPI DUP1 PUSH4 0x48CD4F08 EQ PUSH2 0x43C JUMPI DUP1 PUSH4 0x4F6CCCE7 EQ PUSH2 0x444 JUMPI PUSH1 0x0 DUP1 REVERT JUMPDEST DUP1 PUSH4 0xC41F497 GT PUSH2 0x2C9 JUMPI DUP1 PUSH4 0x23B872DD GT PUSH2 0x2A3 JUMPI DUP1 PUSH4 0x23B872DD EQ PUSH2 0x3C3 JUMPI DUP1 PUSH4 0x2F2EDA31 EQ PUSH2 0x3D6 JUMPI DUP1 PUSH4 0x2F745C59 EQ PUSH2 0x3DF JUMPI DUP1 PUSH4 0x33C41A90 EQ PUSH2 0x3F2 JUMPI PUSH1 0x0 DUP1 REVERT JUMPDEST DUP1 PUSH4 0xC41F497 EQ PUSH2 0x3AB JUMPI DUP1 PUSH4 0xC894CFE EQ PUSH2 0x3B3 JUMPI DUP1 PUSH4 0x18160DDD EQ PUSH2 0x3BB JUMPI PUSH1 0x0 DUP1 REVERT JUMPDEST DUP1 PUSH3 0xDBABC7 EQ PUSH2 0x310 JUMPI DUP1 PUSH4 0x1FFC9A7 EQ PUSH2 0x31A JUMPI DUP1 PUSH4 0x6FDDE03 EQ PUSH2 0x342 JUMPI DUP1 PUSH4 0x81812FC EQ PUSH2 0x357 JUMPI DUP1 PUSH4 0x95EA7B3 EQ PUSH2 0x382 JUMPI DUP1 PUSH4 0xAF7F2B8 EQ PUSH2 0x395 JUMPI JUMPDEST PUSH1 0x0 DUP1 REVERT JUMPDEST PUSH2 0x318 PUSH2 0x63F JUMP JUMPDEST STOP JUMPDEST PUSH2 0x32D PUSH2 0x328 CALLDATASIZE PUSH1 0x4 PUSH2 0x2891 JUMP JUMPDEST PUSH2 0x8AB JUMP JUMPDEST PUSH1 0x40 MLOAD SWAP1 ISZERO ISZERO DUP2 MSTORE PUSH1 0x20 ADD JUMPDEST PUSH1 0x40 MLOAD DUP1 SWAP2 SUB SWAP1 RETURN JUMPDEST PUSH2 0x34A PUSH2 0x8D6 JUMP JUMPDEST PUSH1 0x40 MLOAD PUSH2 0x339 SWAP2 SWAP1 PUSH2 0x2906 JUMP JUMPDEST PUSH2 0x36A PUSH2 0x365 CALLDATASIZE PUSH1 0x4 PUSH2 0x2919 JUMP JUMPDEST PUSH2 0x968 JUMP JUMPDEST PUSH1 0x40 MLOAD PUSH1 0x1 PUSH1 0x1 PUSH1 0xA0 SHL SUB SWAP1 SWAP2 AND DUP2 MSTORE PUSH1 0x20 ADD PUSH2 0x339 JUMP JUMPDEST PUSH2 0x318 PUSH2 0x390 CALLDATASIZE PUSH1 0x4 PUSH2 0x2947 JUMP JUMPDEST PUSH2 0x9F0 JUMP JUMPDEST PUSH2 0x39D PUSH1 0x14 DUP2 JUMP JUMPDEST PUSH1 0x40 MLOAD SWAP1 DUP2 MSTORE PUSH1 0x20 ADD PUSH2 0x339 JUMP JUMPDEST PUSH2 0x318 PUSH2 0xB06 JUMP JUMPDEST PUSH2 0x318 PUSH2 0xBCA JUMP JUMPDEST PUSH1 0x8 SLOAD PUSH2 0x39D JUMP JUMPDEST PUSH2 0x318 PUSH2 0x3D1 CALLDATASIZE PUSH1 0x4 PUSH2 0x2973 JUMP JUMPDEST PUSH2 0xC08 JUMP JUMPDEST PUSH2 0x39D PUSH1 0x11 SLOAD DUP2 JUMP JUMPDEST PUSH2 0x39D PUSH2 0x3ED CALLDATASIZE PUSH1 0x4 PUSH2 0x2947 JUMP JUMPDEST PUSH2 0xC39 JUMP JUMPDEST PUSH2 0x32D PUSH2 0x400 CALLDATASIZE PUSH1 0x4 PUSH2 0x2919 JUMP JUMPDEST PUSH2 0xCCF JUMP JUMPDEST PUSH2 0x318 PUSH2 0x413 CALLDATASIZE PUSH1 0x4 PUSH2 0x29B4 JUMP JUMPDEST PUSH2 0xD35 JUMP JUMPDEST PUSH2 0x318 PUSH2 0xDFE JUMP JUMPDEST PUSH2 0x318 PUSH2 0x42E CALLDATASIZE PUSH1 0x4 PUSH2 0x2973 JUMP JUMPDEST PUSH2 0xE47 JUMP JUMPDEST PUSH2 0x39D PUSH1 0x17 SLOAD DUP2 JUMP JUMPDEST PUSH2 0x39D PUSH2 0xE62 JUMP JUMPDEST PUSH2 0x39D PUSH2 0x452 CALLDATASIZE PUSH1 0x4 PUSH2 0x2919 JUMP JUMPDEST PUSH2 0xE7F JUMP JUMPDEST PUSH2 0x318 PUSH2 0x465 CALLDATASIZE PUSH1 0x4 PUSH2 0x2A62 JUMP JUMPDEST PUSH2 0xF12 JUMP JUMPDEST PUSH2 0x39D PUSH2 0xF53 JUMP JUMPDEST PUSH2 0x39D PUSH2 0x2710 DUP2 JUMP JUMPDEST PUSH2 0x36A PUSH2 0x489 CALLDATASIZE PUSH1 0x4 PUSH2 0x2919 JUMP JUMPDEST PUSH2 0xFCD JUMP JUMPDEST PUSH2 0x318 PUSH2 0x49C CALLDATASIZE PUSH1 0x4 PUSH2 0x2AAB JUMP JUMPDEST PUSH2 0x1044 JUMP JUMPDEST PUSH2 0x39D PUSH1 0xF SLOAD DUP2 JUMP JUMPDEST PUSH2 0x39D PUSH2 0x4B8 CALLDATASIZE PUSH1 0x4 PUSH2 0x2AAB JUMP JUMPDEST PUSH2 0x10ED JUMP JUMPDEST PUSH2 0x318 PUSH2 0x1174 JUMP JUMPDEST PUSH2 0x39D PUSH1 0x12 SLOAD DUP2 JUMP JUMPDEST PUSH1 0xA SLOAD PUSH1 0x1 PUSH1 0x1 PUSH1 0xA0 SHL SUB AND PUSH2 0x36A JUMP JUMPDEST PUSH2 0x318 PUSH2 0x4ED CALLDATASIZE PUSH1 0x4 PUSH2 0x2AC8 JUMP JUMPDEST PUSH2 0x11AA JUMP JUMPDEST PUSH2 0x34A PUSH2 0x1278 JUMP JUMPDEST PUSH2 0x318 PUSH2 0x508 CALLDATASIZE PUSH1 0x4 PUSH2 0x2AF8 JUMP JUMPDEST PUSH2 0x1287 JUMP JUMPDEST PUSH2 0x39D PUSH2 0x134C JUMP JUMPDEST PUSH2 0x318 PUSH2 0x523 CALLDATASIZE PUSH1 0x4 PUSH2 0x2919 JUMP JUMPDEST PUSH2 0x1412 JUMP JUMPDEST PUSH2 0x39D PUSH1 0x13 SLOAD DUP2 JUMP JUMPDEST PUSH2 0x318 PUSH2 0x53F CALLDATASIZE PUSH1 0x4 PUSH2 0x2B2B JUMP JUMPDEST PUSH2 0x1493 JUMP JUMPDEST PUSH1 0x10 SLOAD PUSH2 0x32D SWAP1 PUSH1 0xFF AND DUP2 JUMP JUMPDEST PUSH2 0x39D PUSH2 0x55F CALLDATASIZE PUSH1 0x4 PUSH2 0x2BC1 JUMP JUMPDEST PUSH2 0x14CB JUMP JUMPDEST PUSH2 0x39D PUSH1 0x8 DUP2 JUMP JUMPDEST PUSH2 0x34A PUSH2 0x57A CALLDATASIZE PUSH1 0x4 PUSH2 0x2919 JUMP JUMPDEST PUSH2 0x15A1 JUMP JUMPDEST PUSH2 0x39D PUSH1 0xC SLOAD DUP2 JUMP JUMPDEST PUSH2 0x318 PUSH2 0x166B JUMP JUMPDEST PUSH1 0x10 SLOAD PUSH2 0x32D SWAP1 PUSH2 0x100 SWAP1 DIV PUSH1 0xFF AND DUP2 JUMP JUMPDEST PUSH2 0x34A PUSH2 0x16B2 JUMP JUMPDEST PUSH2 0x39D PUSH7 0x2386F26FC10000 DUP2 JUMP JUMPDEST PUSH2 0x39D PUSH1 0xD SLOAD DUP2 JUMP JUMPDEST PUSH2 0x318 PUSH2 0x5CF CALLDATASIZE PUSH1 0x4 PUSH2 0x29B4 JUMP JUMPDEST PUSH2 0x16CE JUMP JUMPDEST PUSH2 0x32D PUSH2 0x5E2 CALLDATASIZE PUSH1 0x4 PUSH2 0x2BED JUMP JUMPDEST PUSH1 0x1 PUSH1 0x1 PUSH1 0xA0 SHL SUB SWAP2 DUP3 AND PUSH1 0x0 SWAP1 DUP2 MSTORE PUSH1 0x5 PUSH1 0x20 SWAP1 DUP2 MSTORE PUSH1 0x40 DUP1 DUP4 KECCAK256 SWAP4 SWAP1 SWAP5 AND DUP3 MSTORE SWAP2 SWAP1 SWAP2 MSTORE KECCAK256 SLOAD PUSH1 0xFF AND SWAP1 JUMP JUMPDEST PUSH2 0x32D PUSH2 0x61E CALLDATASIZE PUSH1 0x4 PUSH2 0x2C1B JUMP JUMPDEST PUSH2 0x1B7B JUMP JUMPDEST PUSH2 0x318 PUSH2 0x631 CALLDATASIZE PUSH1 0x4 PUSH2 0x2AAB JUMP JUMPDEST PUSH2 0x1BC2 JUMP JUMPDEST PUSH2 0x39D PUSH1 0xE SLOAD DUP2 JUMP JUMPDEST PUSH1 0x12 SLOAD ISZERO PUSH2 0x6A9 JUMPI PUSH1 0x40 MLOAD PUSH3 0x461BCD PUSH1 0xE5 SHL DUP2 MSTORE PUSH1 0x20 PUSH1 0x4 DUP3 ADD MSTORE PUSH1 0x2C PUSH1 0x24 DUP3 ADD MSTORE PUSH32 0x4D696E746564204D7574616E7473207374617274696E6720696E646578206973 PUSH1 0x44 DUP3 ADD MSTORE PUSH12 0x8185B1C9958591E481CD95D PUSH1 0xA2 SHL PUSH1 0x64 DUP3 ADD MSTORE PUSH1 0x84 ADD JUMPDEST PUSH1 0x40 MLOAD DUP1 SWAP2 SUB SWAP1 REVERT JUMPDEST PUSH1 0x13 SLOAD ISZERO PUSH2 0x70C JUMPI PUSH1 0x40 MLOAD PUSH3 0x461BCD PUSH1 0xE5 SHL DUP2 MSTORE PUSH1 0x20 PUSH1 0x4 DUP3 ADD MSTORE PUSH1 0x2A PUSH1 0x24 DUP3 ADD MSTORE PUSH32 0x4D656761204D7574616E7473207374617274696E6720696E6465782069732061 PUSH1 0x44 DUP3 ADD MSTORE PUSH10 0x1B1C9958591E481CD95D PUSH1 0xB2 SHL PUSH1 0x64 DUP3 ADD MSTORE PUSH1 0x84 ADD PUSH2 0x6A0 JUMP JUMPDEST PUSH1 0x11 SLOAD PUSH2 0x75B JUMPI PUSH1 0x40 MLOAD PUSH3 0x461BCD PUSH1 0xE5 SHL DUP2 MSTORE PUSH1 0x20 PUSH1 0x4 DUP3 ADD DUP2 SWAP1 MSTORE PUSH1 0x24 DUP3 ADD MSTORE PUSH32 0x5374617274696E6720696E64657820626C6F636B206D75737420626520736574 PUSH1 0x44 DUP3 ADD MSTORE PUSH1 0x64 ADD PUSH2 0x6A0 JUMP JUMPDEST PUSH1 0x0 PUSH2 0x765 PUSH2 0x1C5A JUMP JUMPDEST SWAP1 POP PUSH1 0xE SLOAD DUP2 LT ISZERO DUP1 ISZERO PUSH2 0x77B JUMPI POP PUSH1 0x0 PUSH1 0xF SLOAD GT JUMPDEST PUSH2 0x7D5 JUMPI PUSH1 0x40 MLOAD PUSH3 0x461BCD PUSH1 0xE5 SHL DUP2 MSTORE PUSH1 0x20 PUSH1 0x4 DUP3 ADD MSTORE PUSH1 0x25 PUSH1 0x24 DUP3 ADD MSTORE PUSH32 0x496E76616C6964207365745374617274696E67496E646963657320636F6E6469 PUSH1 0x44 DUP3 ADD MSTORE PUSH5 0x74696F6E73 PUSH1 0xD8 SHL PUSH1 0x64 DUP3 ADD MSTORE PUSH1 0x84 ADD PUSH2 0x6A0 JUMP JUMPDEST PUSH2 0x7E3 PUSH1 0x11 SLOAD PUSH2 0x2710 PUSH2 0x1C78 JUMP JUMPDEST PUSH1 0x12 SSTORE PUSH1 0x11 SLOAD PUSH2 0x7F4 SWAP1 PUSH1 0x8 PUSH2 0x1C78 JUMP JUMPDEST PUSH1 0x13 SSTORE PUSH1 0x11 SLOAD PUSH1 0xFF SWAP1 PUSH2 0x807 SWAP1 NUMBER PUSH2 0x2C4D JUMP JUMPDEST GT ISZERO PUSH2 0x83F JUMPI PUSH2 0x823 PUSH2 0x81B PUSH1 0x1 NUMBER PUSH2 0x2C4D JUMP JUMPDEST PUSH2 0x2710 PUSH2 0x1C78 JUMP JUMPDEST PUSH1 0x12 SSTORE PUSH2 0x83B PUSH2 0x834 PUSH1 0x1 NUMBER PUSH2 0x2C4D JUMP JUMPDEST PUSH1 0x8 PUSH2 0x1C78 JUMP JUMPDEST PUSH1 0x13 SSTORE JUMPDEST PUSH1 0x12 SLOAD PUSH2 0x85C JUMPI PUSH1 0x12 DUP1 SLOAD SWAP1 PUSH1 0x0 PUSH2 0x856 DUP4 PUSH2 0x2C64 JUMP JUMPDEST SWAP2 SWAP1 POP SSTORE POP JUMPDEST PUSH1 0x13 SLOAD PUSH2 0x879 JUMPI PUSH1 0x13 DUP1 SLOAD SWAP1 PUSH1 0x0 PUSH2 0x873 DUP4 PUSH2 0x2C64 JUMP JUMPDEST SWAP2 SWAP1 POP SSTORE POP JUMPDEST PUSH1 0x13 SLOAD PUSH1 0x12 SLOAD PUSH1 0x40 MLOAD PUSH32 0x78350484F1FFCC8F055A7C88028CB214465DF9C18D7D2B8C6584AB2389C4BCEB SWAP1 PUSH1 0x0 SWAP1 LOG3 POP JUMP JUMPDEST PUSH1 0x0 PUSH1 0x1 PUSH1 0x1 PUSH1 0xE0 SHL SUB NOT DUP3 AND PUSH4 0x780E9D63 PUSH1 0xE0 SHL EQ DUP1 PUSH2 0x8D0 JUMPI POP PUSH2 0x8D0 DUP3 PUSH2 0x1C85 JUMP JUMPDEST SWAP3 SWAP2 POP POP JUMP JUMPDEST PUSH1 0x60 PUSH1 0x0 DUP1 SLOAD PUSH2 0x8E5 SWAP1 PUSH2 0x2C7F JUMP JUMPDEST DUP1 PUSH1 0x1F ADD PUSH1 0x20 DUP1 SWAP2 DIV MUL PUSH1 0x20 ADD PUSH1 0x40 MLOAD SWAP1 DUP2 ADD PUSH1 0x40 MSTORE DUP1 SWAP3 SWAP2 SWAP1 DUP2 DUP2 MSTORE PUSH1 0x20 ADD DUP3 DUP1 SLOAD PUSH2 0x911 SWAP1 PUSH2 0x2C7F JUMP JUMPDEST DUP1 ISZERO PUSH2 0x95E JUMPI DUP1 PUSH1 0x1F LT PUSH2 0x933 JUMPI PUSH2 0x100 DUP1 DUP4 SLOAD DIV MUL DUP4 MSTORE SWAP2 PUSH1 0x20 ADD SWAP2 PUSH2 0x95E JUMP JUMPDEST DUP3 ADD SWAP2 SWAP1 PUSH1 0x0 MSTORE PUSH1 0x20 PUSH1 0x0 KECCAK256 SWAP1 JUMPDEST DUP2 SLOAD DUP2 MSTORE SWAP1 PUSH1 0x1 ADD SWAP1 PUSH1 0x20 ADD DUP1 DUP4 GT PUSH2 0x941 JUMPI DUP3 SWAP1 SUB PUSH1 0x1F AND DUP3 ADD SWAP2 JUMPDEST POP POP POP POP POP SWAP1 POP SWAP1 JUMP JUMPDEST PUSH1 0x0 PUSH2 0x973 DUP3 PUSH2 0x1CD5 JUMP JUMPDEST PUSH2 0x9D4 JUMPI PUSH1 0x40 MLOAD PUSH3 0x461BCD PUSH1 0xE5 SHL DUP2 MSTORE PUSH1 0x20 PUSH1 0x4 DUP3 ADD MSTORE PUSH1 0x2C PUSH1 0x24 DUP3 ADD MSTORE PUSH32 0x4552433732313A20617070726F76656420717565727920666F72206E6F6E6578 PUSH1 0x44 DUP3 ADD MSTORE PUSH12 0x34B9BA32B73A103A37B5B2B7 PUSH1 0xA1 SHL PUSH1 0x64 DUP3 ADD MSTORE PUSH1 0x84 ADD PUSH2 0x6A0 JUMP JUMPDEST POP PUSH1 0x0 SWAP1 DUP2 MSTORE PUSH1 0x4 PUSH1 0x20 MSTORE PUSH1 0x40 SWAP1 KECCAK256 SLOAD PUSH1 0x1 PUSH1 0x1 PUSH1 0xA0 SHL SUB AND SWAP1 JUMP JUMPDEST PUSH1 0x0 PUSH2 0x9FB DUP3 PUSH2 0xFCD JUMP JUMPDEST SWAP1 POP DUP1 PUSH1 0x1 PUSH1 0x1 PUSH1 0xA0 SHL SUB AND DUP4 PUSH1 0x1 PUSH1 0x1 PUSH1 0xA0 SHL SUB AND EQ ISZERO PUSH2 0xA69 JUMPI PUSH1 0x40 MLOAD PUSH3 0x461BCD PUSH1 0xE5 SHL DUP2 MSTORE PUSH1 0x20 PUSH1 0x4 DUP3 ADD MSTORE PUSH1 0x21 PUSH1 0x24 DUP3 ADD MSTORE PUSH32 0x4552433732313A20617070726F76616C20746F2063757272656E74206F776E65 PUSH1 0x44 DUP3 ADD MSTORE PUSH1 0x39 PUSH1 0xF9 SHL PUSH1 0x64 DUP3 ADD MSTORE PUSH1 0x84 ADD PUSH2 0x6A0 JUMP JUMPDEST CALLER PUSH1 0x1 PUSH1 0x1 PUSH1 0xA0 SHL SUB DUP3 AND EQ DUP1 PUSH2 0xA85 JUMPI POP PUSH2 0xA85 DUP2 CALLER PUSH2 0x5E2 JUMP JUMPDEST PUSH2 0xAF7 JUMPI PUSH1 0x40 MLOAD PUSH3 0x461BCD PUSH1 0xE5 SHL DUP2 MSTORE PUSH1 0x20 PUSH1 0x4 DUP3 ADD MSTORE PUSH1 0x38 PUSH1 0x24 DUP3 ADD MSTORE PUSH32 0x4552433732313A20617070726F76652063616C6C6572206973206E6F74206F77 PUSH1 0x44 DUP3 ADD MSTORE PUSH32 0x6E6572206E6F7220617070726F76656420666F7220616C6C0000000000000000 PUSH1 0x64 DUP3 ADD MSTORE PUSH1 0x84 ADD PUSH2 0x6A0 JUMP JUMPDEST PUSH2 0xB01 DUP4 DUP4 PUSH2 0x1CF2 JUMP JUMPDEST POP POP POP JUMP JUMPDEST PUSH1 0xA SLOAD PUSH1 0x1 PUSH1 0x1 PUSH1 0xA0 SHL SUB AND CALLER EQ PUSH2 0xB30 JUMPI PUSH1 0x40 MLOAD PUSH3 0x461BCD PUSH1 0xE5 SHL DUP2 MSTORE PUSH1 0x4 ADD PUSH2 0x6A0 SWAP1 PUSH2 0x2CBA JUMP JUMPDEST PUSH1 0x10 SLOAD PUSH1 0xFF AND PUSH2 0xB7E JUMPI PUSH1 0x40 MLOAD PUSH3 0x461BCD PUSH1 0xE5 SHL DUP2 MSTORE PUSH1 0x20 PUSH1 0x4 DUP3 ADD MSTORE PUSH1 0x19 PUSH1 0x24 DUP3 ADD MSTORE PUSH25 0x5075626C69632073616C65206973206E6F7420616374697665 PUSH1 0x38 SHL PUSH1 0x44 DUP3 ADD MSTORE PUSH1 0x64 ADD PUSH2 0x6A0 JUMP JUMPDEST PUSH1 0x0 PUSH2 0xB88 PUSH2 0x134C JUMP JUMPDEST PUSH1 0x10 DUP1 SLOAD PUSH1 0xFF NOT AND SWAP1 SSTORE SWAP1 POP PUSH2 0xB9C PUSH2 0x1C5A JUMP JUMPDEST PUSH1 0x40 MLOAD DUP3 SWAP1 PUSH32 0x11BE19C514CA2377DE0BA482BEDFD33A9A262050819CF2B8BC52C04298447F30 SWAP1 PUSH1 0x0 SWAP1 LOG3 POP JUMP JUMPDEST PUSH1 0xA SLOAD PUSH1 0x1 PUSH1 0x1 PUSH1 0xA0 SHL SUB AND CALLER EQ PUSH2 0xBF4 JUMPI PUSH1 0x40 MLOAD PUSH3 0x461BCD PUSH1 0xE5 SHL DUP2 MSTORE PUSH1 0x4 ADD PUSH2 0x6A0 SWAP1 PUSH2 0x2CBA JUMP JUMPDEST PUSH1 0x10 DUP1 SLOAD PUSH1 0xFF NOT DUP2 AND PUSH1 0xFF SWAP1 SWAP2 AND ISZERO OR SWAP1 SSTORE JUMP JUMPDEST PUSH2 0xC12 CALLER DUP3 PUSH2 0x1D60 JUMP JUMPDEST PUSH2 0xC2E JUMPI PUSH1 0x40 MLOAD PUSH3 0x461BCD PUSH1 0xE5 SHL DUP2 MSTORE PUSH1 0x4 ADD PUSH2 0x6A0 SWAP1 PUSH2 0x2CEF JUMP JUMPDEST PUSH2 0xB01 DUP4 DUP4 DUP4 PUSH2 0x1E46 JUMP JUMPDEST PUSH1 0x0 PUSH2 0xC44 DUP4 PUSH2 0x10ED JUMP JUMPDEST DUP3 LT PUSH2 0xCA6 JUMPI PUSH1 0x40 MLOAD PUSH3 0x461BCD PUSH1 0xE5 SHL DUP2 MSTORE PUSH1 0x20 PUSH1 0x4 DUP3 ADD MSTORE PUSH1 0x2B PUSH1 0x24 DUP3 ADD MSTORE PUSH32 0x455243373231456E756D657261626C653A206F776E657220696E646578206F75 PUSH1 0x44 DUP3 ADD MSTORE PUSH11 0x74206F6620626F756E6473 PUSH1 0xA8 SHL PUSH1 0x64 DUP3 ADD MSTORE PUSH1 0x84 ADD PUSH2 0x6A0 JUMP JUMPDEST POP PUSH1 0x1 PUSH1 0x1 PUSH1 0xA0 SHL SUB SWAP2 SWAP1 SWAP2 AND PUSH1 0x0 SWAP1 DUP2 MSTORE PUSH1 0x6 PUSH1 0x20 SWAP1 DUP2 MSTORE PUSH1 0x40 DUP1 DUP4 KECCAK256 SWAP4 DUP4 MSTORE SWAP3 SWAP1 MSTORE KECCAK256 SLOAD SWAP1 JUMP JUMPDEST PUSH1 0x0 PUSH2 0x7537 DUP3 LT PUSH2 0xD2C JUMPI PUSH1 0x40 MLOAD PUSH3 0x461BCD PUSH1 0xE5 SHL DUP2 MSTORE PUSH1 0x20 PUSH1 0x4 DUP3 ADD MSTORE PUSH1 0x21 PUSH1 0x24 DUP3 ADD MSTORE PUSH32 0x746F6B656E4964206F75747369646520636F6C6C656374696F6E20626F756E64 PUSH1 0x44 DUP3 ADD MSTORE PUSH1 0x73 PUSH1 0xF8 SHL PUSH1 0x64 DUP3 ADD MSTORE PUSH1 0x84 ADD PUSH2 0x6A0 JUMP JUMPDEST PUSH2 0x8D0 DUP3 PUSH2 0x1CD5 JUMP JUMPDEST PUSH1 0xA SLOAD PUSH1 0x1 PUSH1 0x1 PUSH1 0xA0 SHL SUB AND CALLER EQ PUSH2 0xD5F JUMPI PUSH1 0x40 MLOAD PUSH3 0x461BCD PUSH1 0xE5 SHL DUP2 MSTORE PUSH1 0x4 ADD PUSH2 0x6A0 SWAP1 PUSH2 0x2CBA JUMP JUMPDEST PUSH1 0x10 SLOAD PUSH1 0xFF AND ISZERO PUSH2 0xDB2 JUMPI PUSH1 0x40 MLOAD PUSH3 0x461BCD PUSH1 0xE5 SHL DUP2 MSTORE PUSH1 0x20 PUSH1 0x4 DUP3 ADD MSTORE PUSH1 0x1D PUSH1 0x24 DUP3 ADD MSTORE PUSH32 0x5075626C69632073616C652068617320616C726561647920626567756E000000 PUSH1 0x44 DUP3 ADD MSTORE PUSH1 0x64 ADD PUSH2 0x6A0 JUMP JUMPDEST PUSH1 0xE DUP3 SWAP1 SSTORE PUSH1 0xC DUP2 SWAP1 SSTORE TIMESTAMP PUSH1 0xF DUP2 SWAP1 SSTORE PUSH1 0x10 DUP1 SLOAD PUSH1 0xFF NOT AND PUSH1 0x1 OR SWAP1 SSTORE PUSH1 0x40 MLOAD DUP4 SWAP1 PUSH32 0xE7A2BD41B03361B062F9A965BB9DAB248EA91B878E26FAF49EABD35DF4A2C4D1 SWAP1 PUSH1 0x0 SWAP1 LOG3 POP POP JUMP JUMPDEST PUSH1 0xA SLOAD PUSH1 0x1 PUSH1 0x1 PUSH1 0xA0 SHL SUB AND CALLER EQ PUSH2 0xE28 JUMPI PUSH1 0x40 MLOAD PUSH3 0x461BCD PUSH1 0xE5 SHL DUP2 MSTORE PUSH1 0x4 ADD PUSH2 0x6A0 SWAP1 PUSH2 0x2CBA JUMP JUMPDEST SELFBALANCE PUSH2 0xE44 PUSH2 0xE3E PUSH1 0xA SLOAD PUSH1 0x1 PUSH1 0x1 PUSH1 0xA0 SHL SUB AND SWAP1 JUMP JUMPDEST DUP3 PUSH2 0x1FED JUMP JUMPDEST POP JUMP JUMPDEST PUSH2 0xB01 DUP4 DUP4 DUP4 PUSH1 0x40 MLOAD DUP1 PUSH1 0x20 ADD PUSH1 0x40 MSTORE DUP1 PUSH1 0x0 DUP2 MSTORE POP PUSH2 0x1493 JUMP JUMPDEST PUSH1 0x0 PUSH1 0xD SLOAD PUSH2 0xE70 PUSH1 0x8 SLOAD SWAP1 JUMP JUMPDEST PUSH2 0xE7A SWAP2 SWAP1 PUSH2 0x2C4D JUMP JUMPDEST SWAP1 POP SWAP1 JUMP JUMPDEST PUSH1 0x0 PUSH2 0xE8A PUSH1 0x8 SLOAD SWAP1 JUMP JUMPDEST DUP3 LT PUSH2 0xEED JUMPI PUSH1 0x40 MLOAD PUSH3 0x461BCD PUSH1 0xE5 SHL DUP2 MSTORE PUSH1 0x20 PUSH1 0x4 DUP3 ADD MSTORE PUSH1 0x2C PUSH1 0x24 DUP3 ADD MSTORE PUSH32 0x455243373231456E756D657261626C653A20676C6F62616C20696E646578206F PUSH1 0x44 DUP3 ADD MSTORE PUSH12 0x7574206F6620626F756E6473 PUSH1 0xA0 SHL PUSH1 0x64 DUP3 ADD MSTORE PUSH1 0x84 ADD PUSH2 0x6A0 JUMP JUMPDEST PUSH1 0x8 DUP3 DUP2 SLOAD DUP2 LT PUSH2 0xF00 JUMPI PUSH2 0xF00 PUSH2 0x2D40 JUMP JUMPDEST SWAP1 PUSH1 0x0 MSTORE PUSH1 0x20 PUSH1 0x0 KECCAK256 ADD SLOAD SWAP1 POP SWAP2 SWAP1 POP JUMP JUMPDEST PUSH1 0xA SLOAD PUSH1 0x1 PUSH1 0x1 PUSH1 0xA0 SHL SUB AND CALLER EQ PUSH2 0xF3C JUMPI PUSH1 0x40 MLOAD PUSH3 0x461BCD PUSH1 0xE5 SHL DUP2 MSTORE PUSH1 0x4 ADD PUSH2 0x6A0 SWAP1 PUSH2 0x2CBA JUMP JUMPDEST DUP1 MLOAD PUSH2 0xF4F SWAP1 PUSH1 0x16 SWAP1 PUSH1 0x20 DUP5 ADD SWAP1 PUSH2 0x27EB JUMP JUMPDEST POP POP JUMP JUMPDEST PUSH1 0x0 DUP1 PUSH1 0xF SLOAD GT PUSH2 0xFA6 JUMPI PUSH1 0x40 MLOAD PUSH3 0x461BCD PUSH1 0xE5 SHL DUP2 MSTORE PUSH1 0x20 PUSH1 0x4 DUP3 ADD MSTORE PUSH1 0x1E PUSH1 0x24 DUP3 ADD MSTORE PUSH32 0x5075626C69632073616C65206861736E27742073746172746564207965740000 PUSH1 0x44 DUP3 ADD MSTORE PUSH1 0x64 ADD PUSH2 0x6A0 JUMP JUMPDEST PUSH1 0xE SLOAD PUSH2 0xFB1 PUSH2 0x1C5A JUMP JUMPDEST LT PUSH2 0xFBC JUMPI POP PUSH1 0x0 SWAP1 JUMP JUMPDEST TIMESTAMP PUSH1 0xE SLOAD PUSH1 0xF SLOAD PUSH2 0xE70 SWAP2 SWAP1 PUSH2 0x2D56 JUMP JUMPDEST PUSH1 0x0 DUP2 DUP2 MSTORE PUSH1 0x2 PUSH1 0x20 MSTORE PUSH1 0x40 DUP2 KECCAK256 SLOAD PUSH1 0x1 PUSH1 0x1 PUSH1 0xA0 SHL SUB AND DUP1 PUSH2 0x8D0 JUMPI PUSH1 0x40 MLOAD PUSH3 0x461BCD PUSH1 0xE5 SHL DUP2 MSTORE PUSH1 0x20 PUSH1 0x4 DUP3 ADD MSTORE PUSH1 0x29 PUSH1 0x24 DUP3 ADD MSTORE PUSH32 0x4552433732313A206F776E657220717565727920666F72206E6F6E6578697374 PUSH1 0x44 DUP3 ADD MSTORE PUSH9 0x32B73A103A37B5B2B7 PUSH1 0xB9 SHL PUSH1 0x64 DUP3 ADD MSTORE PUSH1 0x84 ADD PUSH2 0x6A0 JUMP JUMPDEST PUSH1 0x2 PUSH1 0xB SLOAD EQ ISZERO PUSH2 0x1067 JUMPI PUSH1 0x40 MLOAD PUSH3 0x461BCD PUSH1 0xE5 SHL DUP2 MSTORE PUSH1 0x4 ADD PUSH2 0x6A0 SWAP1 PUSH2 0x2D6E JUMP JUMPDEST PUSH1 0x2 PUSH1 0xB SSTORE PUSH1 0x17 SLOAD PUSH1 0x8 SLOAD PUSH2 0x107D SWAP1 PUSH1 0x1 PUSH2 0x2D56 JUMP JUMPDEST GT ISZERO PUSH2 0x10C3 JUMPI PUSH1 0x40 MLOAD PUSH3 0x461BCD PUSH1 0xE5 SHL DUP2 MSTORE PUSH1 0x20 PUSH1 0x4 DUP3 ADD MSTORE PUSH1 0x15 PUSH1 0x24 DUP3 ADD MSTORE PUSH21 0x65786365656420636F6C6C656374696F6E53697A65 PUSH1 0x58 SHL PUSH1 0x44 DUP3 ADD MSTORE PUSH1 0x64 ADD PUSH2 0x6A0 JUMP JUMPDEST PUSH1 0xD DUP1 SLOAD SWAP1 DUP2 SWAP1 PUSH1 0x0 PUSH2 0x10D5 DUP4 PUSH2 0x2C64 JUMP JUMPDEST SWAP2 SWAP1 POP SSTORE POP PUSH2 0x10E4 DUP3 DUP3 PUSH2 0x2106 JUMP JUMPDEST POP POP PUSH1 0x1 PUSH1 0xB SSTORE JUMP JUMPDEST PUSH1 0x0 PUSH1 0x1 PUSH1 0x1 PUSH1 0xA0 SHL SUB DUP3 AND PUSH2 0x1158 JUMPI PUSH1 0x40 MLOAD PUSH3 0x461BCD PUSH1 0xE5 SHL DUP2 MSTORE PUSH1 0x20 PUSH1 0x4 DUP3 ADD MSTORE PUSH1 0x2A PUSH1 0x24 DUP3 ADD MSTORE PUSH32 0x4552433732313A2062616C616E636520717565727920666F7220746865207A65 PUSH1 0x44 DUP3 ADD MSTORE PUSH10 0x726F2061646472657373 PUSH1 0xB0 SHL PUSH1 0x64 DUP3 ADD MSTORE PUSH1 0x84 ADD PUSH2 0x6A0 JUMP JUMPDEST POP PUSH1 0x1 PUSH1 0x1 PUSH1 0xA0 SHL SUB AND PUSH1 0x0 SWAP1 DUP2 MSTORE PUSH1 0x3 PUSH1 0x20 MSTORE PUSH1 0x40 SWAP1 KECCAK256 SLOAD SWAP1 JUMP JUMPDEST PUSH1 0xA SLOAD PUSH1 0x1 PUSH1 0x1 PUSH1 0xA0 SHL SUB AND CALLER EQ PUSH2 0x119E JUMPI PUSH1 0x40 MLOAD PUSH3 0x461BCD PUSH1 0xE5 SHL DUP2 MSTORE PUSH1 0x4 ADD PUSH2 0x6A0 SWAP1 PUSH2 0x2CBA JUMP JUMPDEST PUSH2 0x11A8 PUSH1 0x0 PUSH2 0x2120 JUMP JUMPDEST JUMP JUMPDEST PUSH1 0x2 PUSH1 0xB SLOAD EQ ISZERO PUSH2 0x11CD JUMPI PUSH1 0x40 MLOAD PUSH3 0x461BCD PUSH1 0xE5 SHL DUP2 MSTORE PUSH1 0x4 ADD PUSH2 0x6A0 SWAP1 PUSH2 0x2D6E JUMP JUMPDEST PUSH1 0x2 PUSH1 0xB SSTORE PUSH1 0x17 SLOAD DUP3 PUSH2 0x11DF PUSH1 0x8 SLOAD SWAP1 JUMP JUMPDEST PUSH2 0x11E9 SWAP2 SWAP1 PUSH2 0x2D56 JUMP JUMPDEST GT ISZERO PUSH2 0x122F JUMPI PUSH1 0x40 MLOAD PUSH3 0x461BCD PUSH1 0xE5 SHL DUP2 MSTORE PUSH1 0x20 PUSH1 0x4 DUP3 ADD MSTORE PUSH1 0x15 PUSH1 0x24 DUP3 ADD MSTORE PUSH21 0x65786365656420636F6C6C656374696F6E53697A65 PUSH1 0x58 SHL PUSH1 0x44 DUP3 ADD MSTORE PUSH1 0x64 ADD PUSH2 0x6A0 JUMP JUMPDEST PUSH1 0x0 JUMPDEST DUP3 DUP2 LT ISZERO PUSH2 0x126E JUMPI PUSH1 0xD DUP1 SLOAD SWAP1 DUP2 SWAP1 PUSH1 0x0 PUSH2 0x124C DUP4 PUSH2 0x2C64 JUMP JUMPDEST SWAP2 SWAP1 POP SSTORE POP PUSH2 0x125B DUP4 DUP3 PUSH2 0x2106 JUMP JUMPDEST POP DUP1 PUSH2 0x1266 DUP2 PUSH2 0x2C64 JUMP JUMPDEST SWAP2 POP POP PUSH2 0x1232 JUMP JUMPDEST POP POP PUSH1 0x1 PUSH1 0xB SSTORE POP JUMP JUMPDEST PUSH1 0x60 PUSH1 0x1 DUP1 SLOAD PUSH2 0x8E5 SWAP1 PUSH2 0x2C7F JUMP JUMPDEST PUSH1 0x1 PUSH1 0x1 PUSH1 0xA0 SHL SUB DUP3 AND CALLER EQ ISZERO PUSH2 0x12E0 JUMPI PUSH1 0x40 MLOAD PUSH3 0x461BCD PUSH1 0xE5 SHL DUP2 MSTORE PUSH1 0x20 PUSH1 0x4 DUP3 ADD MSTORE PUSH1 0x19 PUSH1 0x24 DUP3 ADD MSTORE PUSH32 0x4552433732313A20617070726F766520746F2063616C6C657200000000000000 PUSH1 0x44 DUP3 ADD MSTORE PUSH1 0x64 ADD PUSH2 0x6A0 JUMP JUMPDEST CALLER PUSH1 0x0 DUP2 DUP2 MSTORE PUSH1 0x5 PUSH1 0x20 SWAP1 DUP2 MSTORE PUSH1 0x40 DUP1 DUP4 KECCAK256 PUSH1 0x1 PUSH1 0x1 PUSH1 0xA0 SHL SUB DUP8 AND DUP1 DUP6 MSTORE SWAP1 DUP4 MSTORE SWAP3 DUP2 SWAP1 KECCAK256 DUP1 SLOAD PUSH1 0xFF NOT AND DUP7 ISZERO ISZERO SWAP1 DUP2 OR SWAP1 SWAP2 SSTORE SWAP1 MLOAD SWAP1 DUP2 MSTORE SWAP2 SWAP3 SWAP2 PUSH32 0x17307EAB39AB6107E8899845AD3D59BD9653F200F220920489CA2B5937696C31 SWAP2 ADD PUSH1 0x40 MLOAD DUP1 SWAP2 SUB SWAP1 LOG3 POP POP JUMP JUMPDEST PUSH1 0x10 SLOAD PUSH1 0x0 SWAP1 PUSH1 0xFF AND PUSH2 0x139D JUMPI PUSH1 0x40 MLOAD PUSH3 0x461BCD PUSH1 0xE5 SHL DUP2 MSTORE PUSH1 0x20 PUSH1 0x4 DUP3 ADD MSTORE PUSH1 0x19 PUSH1 0x24 DUP3 ADD MSTORE PUSH25 0x5075626C69632073616C65206973206E6F7420616374697665 PUSH1 0x38 SHL PUSH1 0x44 DUP3 ADD MSTORE PUSH1 0x64 ADD PUSH2 0x6A0 JUMP JUMPDEST PUSH1 0x0 PUSH2 0x13A7 PUSH2 0x1C5A JUMP JUMPDEST SWAP1 POP PUSH1 0xE SLOAD DUP2 LT PUSH2 0x13C0 JUMPI PUSH7 0x2386F26FC10000 SWAP2 POP POP SWAP1 JUMP JUMPDEST PUSH1 0xE SLOAD PUSH1 0xC SLOAD PUSH1 0x0 SWAP2 SWAP1 PUSH2 0x13D4 DUP5 DUP4 PUSH2 0x2C4D JUMP JUMPDEST PUSH2 0x13DE SWAP2 SWAP1 PUSH2 0x2DA5 JUMP JUMPDEST PUSH2 0x13E8 SWAP2 SWAP1 PUSH2 0x2DDA JUMP JUMPDEST SWAP1 POP PUSH7 0x2386F26FC10000 DUP2 GT PUSH2 0x1405 JUMPI PUSH7 0x2386F26FC10000 PUSH2 0x1407 JUMP JUMPDEST DUP1 JUMPDEST SWAP3 POP POP POP SWAP1 JUMP JUMPDEST POP SWAP1 JUMP JUMPDEST PUSH1 0xA SLOAD PUSH1 0x1 PUSH1 0x1 PUSH1 0xA0 SHL SUB AND CALLER EQ PUSH2 0x143C JUMPI PUSH1 0x40 MLOAD PUSH3 0x461BCD PUSH1 0xE5 SHL DUP2 MSTORE PUSH1 0x4 ADD PUSH2 0x6A0 SWAP1 PUSH2 0x2CBA JUMP JUMPDEST PUSH1 0x17 SLOAD DUP2 LT ISZERO PUSH2 0x148E JUMPI PUSH1 0x40 MLOAD PUSH3 0x461BCD PUSH1 0xE5 SHL DUP2 MSTORE PUSH1 0x20 PUSH1 0x4 DUP3 ADD MSTORE PUSH1 0x1D PUSH1 0x24 DUP3 ADD MSTORE PUSH32 0x646F6E277420646563726561736520636F6C6C656374696F6E53697A65000000 PUSH1 0x44 DUP3 ADD MSTORE PUSH1 0x64 ADD PUSH2 0x6A0 JUMP JUMPDEST PUSH1 0x17 SSTORE JUMP JUMPDEST PUSH2 0x149D CALLER DUP4 PUSH2 0x1D60 JUMP JUMPDEST PUSH2 0x14B9 JUMPI PUSH1 0x40 MLOAD PUSH3 0x461BCD PUSH1 0xE5 SHL DUP2 MSTORE PUSH1 0x4 ADD PUSH2 0x6A0 SWAP1 PUSH2 0x2CEF JUMP JUMPDEST PUSH2 0x14C5 DUP5 DUP5 DUP5 DUP5 PUSH2 0x2172 JUMP JUMPDEST POP POP POP POP JUMP JUMPDEST PUSH1 0x0 DUP1 PUSH1 0x45 DUP4 PUSH1 0xFF AND EQ ISZERO PUSH2 0x1535 JUMPI POP PUSH1 0x0 DUP4 DUP2 MSTORE PUSH1 0x15 PUSH1 0x20 MSTORE PUSH1 0x40 SWAP1 KECCAK256 SLOAD DUP1 PUSH2 0x1530 JUMPI PUSH1 0x40 MLOAD PUSH3 0x461BCD PUSH1 0xE5 SHL DUP2 MSTORE PUSH1 0x20 PUSH1 0x4 DUP3 ADD MSTORE PUSH1 0x16 PUSH1 0x24 DUP3 ADD MSTORE PUSH22 0x125B9D985B1A5908135151D048135D5D185B9D081259 PUSH1 0x52 SHL PUSH1 0x44 DUP3 ADD MSTORE PUSH1 0x64 ADD PUSH2 0x6A0 JUMP JUMPDEST PUSH2 0x1545 JUMP JUMPDEST PUSH2 0x1542 DUP4 PUSH1 0xFF AND DUP6 PUSH2 0x21A5 JUMP JUMPDEST SWAP1 POP JUMPDEST PUSH2 0x154E DUP2 PUSH2 0x1CD5 JUMP JUMPDEST PUSH2 0x159A JUMPI PUSH1 0x40 MLOAD PUSH3 0x461BCD PUSH1 0xE5 SHL DUP2 MSTORE PUSH1 0x20 PUSH1 0x4 DUP3 ADD MSTORE PUSH1 0x1C PUSH1 0x24 DUP3 ADD MSTORE PUSH32 0x517565727920666F72206E6F6E6578697374656E74206D7574616E7400000000 PUSH1 0x44 DUP3 ADD MSTORE PUSH1 0x64 ADD PUSH2 0x6A0 JUMP JUMPDEST SWAP4 SWAP3 POP POP POP JUMP JUMPDEST PUSH1 0x60 PUSH2 0x15AC DUP3 PUSH2 0x1CD5 JUMP JUMPDEST PUSH2 0x1610 JUMPI PUSH1 0x40 MLOAD PUSH3 0x461BCD PUSH1 0xE5 SHL DUP2 MSTORE PUSH1 0x20 PUSH1 0x4 DUP3 ADD MSTORE PUSH1 0x2F PUSH1 0x24 DUP3 ADD MSTORE PUSH32 0x4552433732314D657461646174613A2055524920717565727920666F72206E6F PUSH1 0x44 DUP3 ADD MSTORE PUSH15 0x3732BC34B9BA32B73A103A37B5B2B7 PUSH1 0x89 SHL PUSH1 0x64 DUP3 ADD MSTORE PUSH1 0x84 ADD PUSH2 0x6A0 JUMP JUMPDEST PUSH1 0x0 PUSH2 0x161A PUSH2 0x2226 JUMP JUMPDEST SWAP1 POP PUSH1 0x0 DUP2 MLOAD GT PUSH2 0x163A JUMPI PUSH1 0x40 MLOAD DUP1 PUSH1 0x20 ADD PUSH1 0x40 MSTORE DUP1 PUSH1 0x0 DUP2 MSTORE POP PUSH2 0x159A JUMP JUMPDEST DUP1 PUSH2 0x1644 DUP5 PUSH2 0x2235 JUMP JUMPDEST PUSH1 0x40 MLOAD PUSH1 0x20 ADD PUSH2 0x1655 SWAP3 SWAP2 SWAP1 PUSH2 0x2DEE JUMP JUMPDEST PUSH1 0x40 MLOAD PUSH1 0x20 DUP2 DUP4 SUB SUB DUP2 MSTORE SWAP1 PUSH1 0x40 MSTORE SWAP4 SWAP3 POP POP POP JUMP JUMPDEST PUSH1 0xA SLOAD PUSH1 0x1 PUSH1 0x1 PUSH1 0xA0 SHL SUB AND CALLER EQ PUSH2 0x1695 JUMPI PUSH1 0x40 MLOAD PUSH3 0x461BCD PUSH1 0xE5 SHL DUP2 MSTORE PUSH1 0x4 ADD PUSH2 0x6A0 SWAP1 PUSH2 0x2CBA JUMP JUMPDEST PUSH1 0x10 DUP1 SLOAD PUSH2 0xFF00 NOT DUP2 AND PUSH2 0x100 SWAP2 DUP3 SWAP1 DIV PUSH1 0xFF AND ISZERO SWAP1 SWAP2 MUL OR SWAP1 SSTORE JUMP JUMPDEST PUSH1 0x40 MLOAD DUP1 PUSH1 0x60 ADD PUSH1 0x40 MSTORE DUP1 PUSH1 0x40 DUP2 MSTORE PUSH1 0x20 ADD PUSH2 0x2F4C PUSH1 0x40 SWAP2 CODECOPY DUP2 JUMP JUMPDEST PUSH1 0x2 PUSH1 0xB SLOAD EQ ISZERO PUSH2 0x16F1 JUMPI PUSH1 0x40 MLOAD PUSH3 0x461BCD PUSH1 0xE5 SHL DUP2 MSTORE PUSH1 0x4 ADD PUSH2 0x6A0 SWAP1 PUSH2 0x2D6E JUMP JUMPDEST PUSH1 0x2 PUSH1 0xB SSTORE PUSH1 0x10 SLOAD PUSH2 0x100 SWAP1 DIV PUSH1 0xFF AND PUSH2 0x174D JUMPI PUSH1 0x40 MLOAD PUSH3 0x461BCD PUSH1 0xE5 SHL DUP2 MSTORE PUSH1 0x20 PUSH1 0x4 DUP3 ADD MSTORE PUSH1 0x1C PUSH1 0x24 DUP3 ADD MSTORE PUSH32 0x536572756D204D75746174696F6E206973206E6F742061637469766500000000 PUSH1 0x44 DUP3 ADD MSTORE PUSH1 0x64 ADD PUSH2 0x6A0 JUMP JUMPDEST PUSH1 0x40 MLOAD PUSH4 0x31A9108F PUSH1 0xE1 SHL DUP2 MSTORE PUSH1 0x4 DUP2 ADD DUP3 SWAP1 MSTORE CALLER SWAP1 PUSH1 0x1 PUSH1 0x1 PUSH1 0xA0 SHL SUB PUSH32 0x0 AND SWAP1 PUSH4 0x6352211E SWAP1 PUSH1 0x24 ADD PUSH1 0x20 PUSH1 0x40 MLOAD DUP1 DUP4 SUB DUP2 DUP7 GAS STATICCALL ISZERO DUP1 ISZERO PUSH2 0x17B4 JUMPI RETURNDATASIZE PUSH1 0x0 DUP1 RETURNDATACOPY RETURNDATASIZE PUSH1 0x0 REVERT JUMPDEST POP POP POP POP PUSH1 0x40 MLOAD RETURNDATASIZE PUSH1 0x1F NOT PUSH1 0x1F DUP3 ADD AND DUP3 ADD DUP1 PUSH1 0x40 MSTORE POP DUP2 ADD SWAP1 PUSH2 0x17D8 SWAP2 SWAP1 PUSH2 0x2E1D JUMP JUMPDEST PUSH1 0x1 PUSH1 0x1 PUSH1 0xA0 SHL SUB AND EQ PUSH2 0x1843 JUMPI PUSH1 0x40 MLOAD PUSH3 0x461BCD PUSH1 0xE5 SHL DUP2 MSTORE PUSH1 0x20 PUSH1 0x4 DUP3 ADD MSTORE PUSH1 0x2C PUSH1 0x24 DUP3 ADD MSTORE PUSH32 0x4D757374206F776E207468652061706520796F7527726520617474656D707469 PUSH1 0x44 DUP3 ADD MSTORE PUSH12 0x6E6720746F206D7574617465 PUSH1 0xA0 SHL PUSH1 0x64 DUP3 ADD MSTORE PUSH1 0x84 ADD PUSH2 0x6A0 JUMP JUMPDEST PUSH1 0x40 MLOAD PUSH3 0x7EEAC7 PUSH1 0xE1 SHL DUP2 MSTORE CALLER PUSH1 0x4 DUP3 ADD MSTORE PUSH1 0x24 DUP2 ADD DUP4 SWAP1 MSTORE PUSH1 0x0 SWAP1 PUSH32 0x0 PUSH1 0x1 PUSH1 0x1 PUSH1 0xA0 SHL SUB AND SWAP1 PUSH3 0xFDD58E SWAP1 PUSH1 0x44 ADD PUSH1 0x20 PUSH1 0x40 MLOAD DUP1 DUP4 SUB DUP2 DUP7 GAS STATICCALL ISZERO DUP1 ISZERO PUSH2 0x18AF JUMPI RETURNDATASIZE PUSH1 0x0 DUP1 RETURNDATACOPY RETURNDATASIZE PUSH1 0x0 REVERT JUMPDEST POP POP POP POP PUSH1 0x40 MLOAD RETURNDATASIZE PUSH1 0x1F NOT PUSH1 0x1F DUP3 ADD AND DUP3 ADD DUP1 PUSH1 0x40 MSTORE POP DUP2 ADD SWAP1 PUSH2 0x18D3 SWAP2 SWAP1 PUSH2 0x2E3A JUMP JUMPDEST GT PUSH2 0x193B JUMPI PUSH1 0x40 MLOAD PUSH3 0x461BCD PUSH1 0xE5 SHL DUP2 MSTORE PUSH1 0x20 PUSH1 0x4 DUP3 ADD MSTORE PUSH1 0x32 PUSH1 0x24 DUP3 ADD MSTORE PUSH32 0x4D757374206F776E206174206C65617374206F6E65206F662074686973207365 PUSH1 0x44 DUP3 ADD MSTORE PUSH18 0x72756D207479706520746F206D7574617465 PUSH1 0x70 SHL PUSH1 0x64 DUP3 ADD MSTORE PUSH1 0x84 ADD PUSH2 0x6A0 JUMP JUMPDEST PUSH1 0x0 PUSH1 0x45 DUP4 EQ ISZERO PUSH2 0x1A7B JUMPI PUSH1 0x14 SLOAD PUSH2 0x7537 PUSH2 0xFFFF SWAP1 SWAP2 AND GT ISZERO PUSH2 0x19BC JUMPI PUSH1 0x40 MLOAD PUSH3 0x461BCD PUSH1 0xE5 SHL DUP2 MSTORE PUSH1 0x20 PUSH1 0x4 DUP3 ADD MSTORE PUSH1 0x33 PUSH1 0x24 DUP3 ADD MSTORE PUSH32 0x576F756C642065786365656420737570706C79206F6620736572756D2D6D7574 PUSH1 0x44 DUP3 ADD MSTORE PUSH19 0x617461626C65204D454741204D5554414E5453 PUSH1 0x68 SHL PUSH1 0x64 DUP3 ADD MSTORE PUSH1 0x84 ADD PUSH2 0x6A0 JUMP JUMPDEST PUSH1 0x0 DUP3 DUP2 MSTORE PUSH1 0x15 PUSH1 0x20 MSTORE PUSH1 0x40 SWAP1 KECCAK256 SLOAD ISZERO PUSH2 0x1A2D JUMPI PUSH1 0x40 MLOAD PUSH3 0x461BCD PUSH1 0xE5 SHL DUP2 MSTORE PUSH1 0x20 PUSH1 0x4 DUP3 ADD MSTORE PUSH1 0x2C PUSH1 0x24 DUP3 ADD MSTORE PUSH32 0x41706520616C7265616479206D7574617465642077697468204D454741204D55 PUSH1 0x44 DUP3 ADD MSTORE PUSH12 0x544154494F4E20534552554D PUSH1 0xA0 SHL PUSH1 0x64 DUP3 ADD MSTORE PUSH1 0x84 ADD PUSH2 0x6A0 JUMP JUMPDEST POP PUSH1 0x14 DUP1 SLOAD PUSH1 0x0 DUP4 DUP2 MSTORE PUSH1 0x15 PUSH1 0x20 MSTORE PUSH1 0x40 DUP2 KECCAK256 PUSH2 0xFFFF SWAP3 DUP4 AND SWAP1 DUP2 SWAP1 SSTORE DUP4 SLOAD SWAP1 SWAP4 SWAP3 AND SWAP2 SWAP1 PUSH2 0x1A5B DUP4 PUSH2 0x2E53 JUMP JUMPDEST SWAP2 SWAP1 PUSH2 0x100 EXP DUP2 SLOAD DUP2 PUSH2 0xFFFF MUL NOT AND SWAP1 DUP4 PUSH2 0xFFFF AND MUL OR SWAP1 SSTORE POP POP PUSH2 0x1AF1 JUMP JUMPDEST PUSH2 0x1A85 DUP4 DUP4 PUSH2 0x21A5 JUMP JUMPDEST SWAP1 POP PUSH2 0x1A90 DUP2 PUSH2 0x1CD5 JUMP JUMPDEST ISZERO PUSH2 0x1AF1 JUMPI PUSH1 0x40 MLOAD PUSH3 0x461BCD PUSH1 0xE5 SHL DUP2 MSTORE PUSH1 0x20 PUSH1 0x4 DUP3 ADD MSTORE PUSH1 0x2B PUSH1 0x24 DUP3 ADD MSTORE PUSH32 0x41706520616C7265616479206D75746174656420776974682074686973207479 PUSH1 0x44 DUP3 ADD MSTORE PUSH11 0x7065206F6620736572756D PUSH1 0xA8 SHL PUSH1 0x64 DUP3 ADD MSTORE PUSH1 0x84 ADD PUSH2 0x6A0 JUMP JUMPDEST PUSH1 0x40 MLOAD PUSH4 0x70FF9EA3 PUSH1 0xE0 SHL DUP2 MSTORE PUSH1 0x4 DUP2 ADD DUP5 SWAP1 MSTORE CALLER PUSH1 0x24 DUP3 ADD MSTORE PUSH32 0x0 PUSH1 0x1 PUSH1 0x1 PUSH1 0xA0 SHL SUB AND SWAP1 PUSH4 0x70FF9EA3 SWAP1 PUSH1 0x44 ADD PUSH1 0x0 PUSH1 0x40 MLOAD DUP1 DUP4 SUB DUP2 PUSH1 0x0 DUP8 DUP1 EXTCODESIZE ISZERO DUP1 ISZERO PUSH2 0x1B59 JUMPI PUSH1 0x0 DUP1 REVERT JUMPDEST POP GAS CALL ISZERO DUP1 ISZERO PUSH2 0x1B6D JUMPI RETURNDATASIZE PUSH1 0x0 DUP1 RETURNDATACOPY RETURNDATASIZE PUSH1 0x0 REVERT JUMPDEST POP POP POP POP PUSH2 0x126E CALLER DUP3 PUSH2 0x2106 JUMP JUMPDEST PUSH1 0x0 PUSH1 0x45 DUP4 PUSH1 0xFF AND EQ ISZERO PUSH2 0x1BA0 JUMPI POP PUSH1 0x0 DUP2 DUP2 MSTORE PUSH1 0x15 PUSH1 0x20 MSTORE PUSH1 0x40 SWAP1 KECCAK256 SLOAD ISZERO ISZERO PUSH2 0x8D0 JUMP JUMPDEST PUSH1 0x0 PUSH2 0x1BAF DUP5 PUSH1 0xFF AND DUP5 PUSH2 0x21A5 JUMP JUMPDEST SWAP1 POP PUSH2 0x1BBA DUP2 PUSH2 0x1CD5 JUMP JUMPDEST SWAP5 SWAP4 POP POP POP POP JUMP JUMPDEST PUSH1 0xA SLOAD PUSH1 0x1 PUSH1 0x1 PUSH1 0xA0 SHL SUB AND CALLER EQ PUSH2 0x1BEC JUMPI PUSH1 0x40 MLOAD PUSH3 0x461BCD PUSH1 0xE5 SHL DUP2 MSTORE PUSH1 0x4 ADD PUSH2 0x6A0 SWAP1 PUSH2 0x2CBA JUMP JUMPDEST PUSH1 0x1 PUSH1 0x1 PUSH1 0xA0 SHL SUB DUP2 AND PUSH2 0x1C51 JUMPI PUSH1 0x40 MLOAD PUSH3 0x461BCD PUSH1 0xE5 SHL DUP2 MSTORE PUSH1 0x20 PUSH1 0x4 DUP3 ADD MSTORE PUSH1 0x26 PUSH1 0x24 DUP3 ADD MSTORE PUSH32 0x4F776E61626C653A206E6577206F776E657220697320746865207A65726F2061 PUSH1 0x44 DUP3 ADD MSTORE PUSH6 0x646472657373 PUSH1 0xD0 SHL PUSH1 0x64 DUP3 ADD MSTORE PUSH1 0x84 ADD PUSH2 0x6A0 JUMP JUMPDEST PUSH2 0xE44 DUP2 PUSH2 0x2120 JUMP JUMPDEST PUSH1 0x0 DUP1 PUSH1 0xF SLOAD GT PUSH2 0x1C6B JUMPI POP PUSH1 0x0 SWAP1 JUMP JUMPDEST PUSH1 0xF SLOAD PUSH2 0xE7A SWAP1 TIMESTAMP PUSH2 0x2C4D JUMP JUMPDEST PUSH1 0x0 PUSH2 0x159A DUP3 DUP5 BLOCKHASH PUSH2 0x2E75 JUMP JUMPDEST PUSH1 0x0 PUSH1 0x1 PUSH1 0x1 PUSH1 0xE0 SHL SUB NOT DUP3 AND PUSH4 0x80AC58CD PUSH1 0xE0 SHL EQ DUP1 PUSH2 0x1CB6 JUMPI POP PUSH1 0x1 PUSH1 0x1 PUSH1 0xE0 SHL SUB NOT DUP3 AND PUSH4 0x5B5E139F PUSH1 0xE0 SHL EQ JUMPDEST DUP1 PUSH2 0x8D0 JUMPI POP PUSH4 0x1FFC9A7 PUSH1 0xE0 SHL PUSH1 0x1 PUSH1 0x1 PUSH1 0xE0 SHL SUB NOT DUP4 AND EQ PUSH2 0x8D0 JUMP JUMPDEST PUSH1 0x0 SWAP1 DUP2 MSTORE PUSH1 0x2 PUSH1 0x20 MSTORE PUSH1 0x40 SWAP1 KECCAK256 SLOAD PUSH1 0x1 PUSH1 0x1 PUSH1 0xA0 SHL SUB AND ISZERO ISZERO SWAP1 JUMP JUMPDEST PUSH1 0x0 DUP2 DUP2 MSTORE PUSH1 0x4 PUSH1 0x20 MSTORE PUSH1 0x40 SWAP1 KECCAK256 DUP1 SLOAD PUSH1 0x1 PUSH1 0x1 PUSH1 0xA0 SHL SUB NOT AND PUSH1 0x1 PUSH1 0x1 PUSH1 0xA0 SHL SUB DUP5 AND SWAP1 DUP2 OR SWAP1 SWAP2 SSTORE DUP2 SWAP1 PUSH2 0x1D27 DUP3 PUSH2 0xFCD JUMP JUMPDEST PUSH1 0x1 PUSH1 0x1 PUSH1 0xA0 SHL SUB AND PUSH32 0x8C5BE1E5EBEC7D5BD14F71427D1E84F3DD0314C0F7B2291E5B200AC8C7C3B925 PUSH1 0x40 MLOAD PUSH1 0x40 MLOAD DUP1 SWAP2 SUB SWAP1 LOG4 POP POP JUMP JUMPDEST PUSH1 0x0 PUSH2 0x1D6B DUP3 PUSH2 0x1CD5 JUMP JUMPDEST PUSH2 0x1DCC JUMPI PUSH1 0x40 MLOAD PUSH3 0x461BCD PUSH1 0xE5 SHL DUP2 MSTORE PUSH1 0x20 PUSH1 0x4 DUP3 ADD MSTORE PUSH1 0x2C PUSH1 0x24 DUP3 ADD MSTORE PUSH32 0x4552433732313A206F70657261746F7220717565727920666F72206E6F6E6578 PUSH1 0x44 DUP3 ADD MSTORE PUSH12 0x34B9BA32B73A103A37B5B2B7 PUSH1 0xA1 SHL PUSH1 0x64 DUP3 ADD MSTORE PUSH1 0x84 ADD PUSH2 0x6A0 JUMP JUMPDEST PUSH1 0x0 PUSH2 0x1DD7 DUP4 PUSH2 0xFCD JUMP JUMPDEST SWAP1 POP DUP1 PUSH1 0x1 PUSH1 0x1 PUSH1 0xA0 SHL SUB AND DUP5 PUSH1 0x1 PUSH1 0x1 PUSH1 0xA0 SHL SUB AND EQ DUP1 PUSH2 0x1E12 JUMPI POP DUP4 PUSH1 0x1 PUSH1 0x1 PUSH1 0xA0 SHL SUB AND PUSH2 0x1E07 DUP5 PUSH2 0x968 JUMP JUMPDEST PUSH1 0x1 PUSH1 0x1 PUSH1 0xA0 SHL SUB AND EQ JUMPDEST DUP1 PUSH2 0x1BBA JUMPI POP PUSH1 0x1 PUSH1 0x1 PUSH1 0xA0 SHL SUB DUP1 DUP3 AND PUSH1 0x0 SWAP1 DUP2 MSTORE PUSH1 0x5 PUSH1 0x20 SWAP1 DUP2 MSTORE PUSH1 0x40 DUP1 DUP4 KECCAK256 SWAP4 DUP9 AND DUP4 MSTORE SWAP3 SWAP1 MSTORE KECCAK256 SLOAD PUSH1 0xFF AND PUSH2 0x1BBA JUMP JUMPDEST DUP3 PUSH1 0x1 PUSH1 0x1 PUSH1 0xA0 SHL SUB AND PUSH2 0x1E59 DUP3 PUSH2 0xFCD JUMP JUMPDEST PUSH1 0x1 PUSH1 0x1 PUSH1 0xA0 SHL SUB AND EQ PUSH2 0x1EBD JUMPI PUSH1 0x40 MLOAD PUSH3 0x461BCD PUSH1 0xE5 SHL DUP2 MSTORE PUSH1 0x20 PUSH1 0x4 DUP3 ADD MSTORE PUSH1 0x25 PUSH1 0x24 DUP3 ADD MSTORE PUSH32 0x4552433732313A207472616E736665722066726F6D20696E636F727265637420 PUSH1 0x44 DUP3 ADD MSTORE PUSH5 0x37BBB732B9 PUSH1 0xD9 SHL PUSH1 0x64 DUP3 ADD MSTORE PUSH1 0x84 ADD PUSH2 0x6A0 JUMP JUMPDEST PUSH1 0x1 PUSH1 0x1 PUSH1 0xA0 SHL SUB DUP3 AND PUSH2 0x1F1F JUMPI PUSH1 0x40 MLOAD PUSH3 0x461BCD PUSH1 0xE5 SHL DUP2 MSTORE PUSH1 0x20 PUSH1 0x4 DUP3 ADD MSTORE PUSH1 0x24 DUP1 DUP3 ADD MSTORE PUSH32 0x4552433732313A207472616E7366657220746F20746865207A65726F20616464 PUSH1 0x44 DUP3 ADD MSTORE PUSH4 0x72657373 PUSH1 0xE0 SHL PUSH1 0x64 DUP3 ADD MSTORE PUSH1 0x84 ADD PUSH2 0x6A0 JUMP JUMPDEST PUSH2 0x1F2A DUP4 DUP4 DUP4 PUSH2 0x2333 JUMP JUMPDEST PUSH2 0x1F35 PUSH1 0x0 DUP3 PUSH2 0x1CF2 JUMP JUMPDEST PUSH1 0x1 PUSH1 0x1 PUSH1 0xA0 SHL SUB DUP4 AND PUSH1 0x0 SWAP1 DUP2 MSTORE PUSH1 0x3 PUSH1 0x20 MSTORE PUSH1 0x40 DUP2 KECCAK256 DUP1 SLOAD PUSH1 0x1 SWAP3 SWAP1 PUSH2 0x1F5E SWAP1 DUP5 SWAP1 PUSH2 0x2C4D JUMP JUMPDEST SWAP1 SWAP2 SSTORE POP POP PUSH1 0x1 PUSH1 0x1 PUSH1 0xA0 SHL SUB DUP3 AND PUSH1 0x0 SWAP1 DUP2 MSTORE PUSH1 0x3 PUSH1 0x20 MSTORE PUSH1 0x40 DUP2 KECCAK256 DUP1 SLOAD PUSH1 0x1 SWAP3 SWAP1 PUSH2 0x1F8C SWAP1 DUP5 SWAP1 PUSH2 0x2D56 JUMP JUMPDEST SWAP1 SWAP2 SSTORE POP POP PUSH1 0x0 DUP2 DUP2 MSTORE PUSH1 0x2 PUSH1 0x20 MSTORE PUSH1 0x40 DUP1 DUP3 KECCAK256 DUP1 SLOAD PUSH1 0x1 PUSH1 0x1 PUSH1 0xA0 SHL SUB NOT AND PUSH1 0x1 PUSH1 0x1 PUSH1 0xA0 SHL SUB DUP7 DUP2 AND SWAP2 DUP3 OR SWAP1 SWAP3 SSTORE SWAP2 MLOAD DUP5 SWAP4 SWAP2 DUP8 AND SWAP2 PUSH32 0xDDF252AD1BE2C89B69C2B068FC378DAA952BA7F163C4A11628F55A4DF523B3EF SWAP2 LOG4 POP POP POP JUMP JUMPDEST DUP1 SELFBALANCE LT ISZERO PUSH2 0x203D JUMPI PUSH1 0x40 MLOAD PUSH3 0x461BCD PUSH1 0xE5 SHL DUP2 MSTORE PUSH1 0x20 PUSH1 0x4 DUP3 ADD MSTORE PUSH1 0x1D PUSH1 0x24 DUP3 ADD MSTORE PUSH32 0x416464726573733A20696E73756666696369656E742062616C616E6365000000 PUSH1 0x44 DUP3 ADD MSTORE PUSH1 0x64 ADD PUSH2 0x6A0 JUMP JUMPDEST PUSH1 0x0 DUP3 PUSH1 0x1 PUSH1 0x1 PUSH1 0xA0 SHL SUB AND DUP3 PUSH1 0x40 MLOAD PUSH1 0x0 PUSH1 0x40 MLOAD DUP1 DUP4 SUB DUP2 DUP6 DUP8 GAS CALL SWAP3 POP POP POP RETURNDATASIZE DUP1 PUSH1 0x0 DUP2 EQ PUSH2 0x208A JUMPI PUSH1 0x40 MLOAD SWAP2 POP PUSH1 0x1F NOT PUSH1 0x3F RETURNDATASIZE ADD AND DUP3 ADD PUSH1 0x40 MSTORE RETURNDATASIZE DUP3 MSTORE RETURNDATASIZE PUSH1 0x0 PUSH1 0x20 DUP5 ADD RETURNDATACOPY PUSH2 0x208F JUMP JUMPDEST PUSH1 0x60 SWAP2 POP JUMPDEST POP POP SWAP1 POP DUP1 PUSH2 0xB01 JUMPI PUSH1 0x40 MLOAD PUSH3 0x461BCD PUSH1 0xE5 SHL DUP2 MSTORE PUSH1 0x20 PUSH1 0x4 DUP3 ADD MSTORE PUSH1 0x3A PUSH1 0x24 DUP3 ADD MSTORE PUSH32 0x416464726573733A20756E61626C6520746F2073656E642076616C75652C2072 PUSH1 0x44 DUP3 ADD MSTORE PUSH32 0x6563697069656E74206D61792068617665207265766572746564000000000000 PUSH1 0x64 DUP3 ADD MSTORE PUSH1 0x84 ADD PUSH2 0x6A0 JUMP JUMPDEST PUSH2 0xF4F DUP3 DUP3 PUSH1 0x40 MLOAD DUP1 PUSH1 0x20 ADD PUSH1 0x40 MSTORE DUP1 PUSH1 0x0 DUP2 MSTORE POP PUSH2 0x23EB JUMP JUMPDEST PUSH1 0xA DUP1 SLOAD PUSH1 0x1 PUSH1 0x1 PUSH1 0xA0 SHL SUB DUP4 DUP2 AND PUSH1 0x1 PUSH1 0x1 PUSH1 0xA0 SHL SUB NOT DUP4 AND DUP2 OR SWAP1 SWAP4 SSTORE PUSH1 0x40 MLOAD SWAP2 AND SWAP2 SWAP1 DUP3 SWAP1 PUSH32 0x8BE0079C531659141344CD1FD0A4F28419497F9722A3DAAFE3B4186F6B6457E0 SWAP1 PUSH1 0x0 SWAP1 LOG3 POP POP JUMP JUMPDEST PUSH2 0x217D DUP5 DUP5 DUP5 PUSH2 0x1E46 JUMP JUMPDEST PUSH2 0x2189 DUP5 DUP5 DUP5 DUP5 PUSH2 0x241E JUMP JUMPDEST PUSH2 0x14C5 JUMPI PUSH1 0x40 MLOAD PUSH3 0x461BCD PUSH1 0xE5 SHL DUP2 MSTORE PUSH1 0x4 ADD PUSH2 0x6A0 SWAP1 PUSH2 0x2E89 JUMP JUMPDEST PUSH1 0x0 PUSH1 0x45 DUP4 EQ ISZERO PUSH2 0x2203 JUMPI PUSH1 0x40 MLOAD PUSH3 0x461BCD PUSH1 0xE5 SHL DUP2 MSTORE PUSH1 0x20 PUSH1 0x4 DUP3 ADD MSTORE PUSH1 0x22 PUSH1 0x24 DUP3 ADD MSTORE PUSH32 0x4D656761206D7574616E742049442063616E27742062652063616C63756C6174 PUSH1 0x44 DUP3 ADD MSTORE PUSH2 0x1959 PUSH1 0xF2 SHL PUSH1 0x64 DUP3 ADD MSTORE PUSH1 0x84 ADD PUSH2 0x6A0 JUMP JUMPDEST PUSH2 0x2710 DUP4 PUSH2 0x2212 PUSH1 0x2 DUP6 PUSH2 0x2DA5 JUMP JUMPDEST PUSH2 0x221C SWAP2 SWAP1 PUSH2 0x2D56 JUMP JUMPDEST PUSH2 0x159A SWAP2 SWAP1 PUSH2 0x2D56 JUMP JUMPDEST PUSH1 0x60 PUSH1 0x16 DUP1 SLOAD PUSH2 0x8E5 SWAP1 PUSH2 0x2C7F JUMP JUMPDEST PUSH1 0x60 DUP2 PUSH2 0x2259 JUMPI POP POP PUSH1 0x40 DUP1 MLOAD DUP1 DUP3 ADD SWAP1 SWAP2 MSTORE PUSH1 0x1 DUP2 MSTORE PUSH1 0x3 PUSH1 0xFC SHL PUSH1 0x20 DUP3 ADD MSTORE SWAP1 JUMP JUMPDEST DUP2 PUSH1 0x0 JUMPDEST DUP2 ISZERO PUSH2 0x2283 JUMPI DUP1 PUSH2 0x226D DUP2 PUSH2 0x2C64 JUMP JUMPDEST SWAP2 POP PUSH2 0x227C SWAP1 POP PUSH1 0xA DUP4 PUSH2 0x2DDA JUMP JUMPDEST SWAP2 POP PUSH2 0x225D JUMP JUMPDEST PUSH1 0x0 DUP2 PUSH8 0xFFFFFFFFFFFFFFFF DUP2 GT ISZERO PUSH2 0x229E JUMPI PUSH2 0x229E PUSH2 0x29D6 JUMP JUMPDEST PUSH1 0x40 MLOAD SWAP1 DUP1 DUP3 MSTORE DUP1 PUSH1 0x1F ADD PUSH1 0x1F NOT AND PUSH1 0x20 ADD DUP3 ADD PUSH1 0x40 MSTORE DUP1 ISZERO PUSH2 0x22C8 JUMPI PUSH1 0x20 DUP3 ADD DUP2 DUP1 CALLDATASIZE DUP4 CALLDATACOPY ADD SWAP1 POP JUMPDEST POP SWAP1 POP JUMPDEST DUP5 ISZERO PUSH2 0x1BBA JUMPI PUSH2 0x22DD PUSH1 0x1 DUP4 PUSH2 0x2C4D JUMP JUMPDEST SWAP2 POP PUSH2 0x22EA PUSH1 0xA DUP7 PUSH2 0x2E75 JUMP JUMPDEST PUSH2 0x22F5 SWAP1 PUSH1 0x30 PUSH2 0x2D56 JUMP JUMPDEST PUSH1 0xF8 SHL DUP2 DUP4 DUP2 MLOAD DUP2 LT PUSH2 0x230A JUMPI PUSH2 0x230A PUSH2 0x2D40 JUMP JUMPDEST PUSH1 0x20 ADD ADD SWAP1 PUSH1 0x1 PUSH1 0x1 PUSH1 0xF8 SHL SUB NOT AND SWAP1 DUP2 PUSH1 0x0 BYTE SWAP1 MSTORE8 POP PUSH2 0x232C PUSH1 0xA DUP7 PUSH2 0x2DDA JUMP JUMPDEST SWAP5 POP PUSH2 0x22CC JUMP JUMPDEST PUSH1 0x1 PUSH1 0x1 PUSH1 0xA0 SHL SUB DUP4 AND PUSH2 0x238E JUMPI PUSH2 0x2389 DUP2 PUSH1 0x8 DUP1 SLOAD PUSH1 0x0 DUP4 DUP2 MSTORE PUSH1 0x9 PUSH1 0x20 MSTORE PUSH1 0x40 DUP2 KECCAK256 DUP3 SWAP1 SSTORE PUSH1 0x1 DUP3 ADD DUP4 SSTORE SWAP2 SWAP1 SWAP2 MSTORE PUSH32 0xF3F7A9FE364FAAB93B216DA50A3214154F22A0A2B415B23A84C8169E8B636EE3 ADD SSTORE JUMP JUMPDEST PUSH2 0x23B1 JUMP JUMPDEST DUP2 PUSH1 0x1 PUSH1 0x1 PUSH1 0xA0 SHL SUB AND DUP4 PUSH1 0x1 PUSH1 0x1 PUSH1 0xA0 SHL SUB AND EQ PUSH2 0x23B1 JUMPI PUSH2 0x23B1 DUP4 DUP3 PUSH2 0x251C JUMP JUMPDEST PUSH1 0x1 PUSH1 0x1 PUSH1 0xA0 SHL SUB DUP3 AND PUSH2 0x23C8 JUMPI PUSH2 0xB01 DUP2 PUSH2 0x25B9 JUMP JUMPDEST DUP3 PUSH1 0x1 PUSH1 0x1 PUSH1 0xA0 SHL SUB AND DUP3 PUSH1 0x1 PUSH1 0x1 PUSH1 0xA0 SHL SUB AND EQ PUSH2 0xB01 JUMPI PUSH2 0xB01 DUP3 DUP3 PUSH2 0x2668 JUMP JUMPDEST PUSH2 0x23F5 DUP4 DUP4 PUSH2 0x26AC JUMP JUMPDEST PUSH2 0x2402 PUSH1 0x0 DUP5 DUP5 DUP5 PUSH2 0x241E JUMP JUMPDEST PUSH2 0xB01 JUMPI PUSH1 0x40 MLOAD PUSH3 0x461BCD PUSH1 0xE5 SHL DUP2 MSTORE PUSH1 0x4 ADD PUSH2 0x6A0 SWAP1 PUSH2 0x2E89 JUMP JUMPDEST PUSH1 0x0 PUSH1 0x1 PUSH1 0x1 PUSH1 0xA0 SHL SUB DUP5 AND EXTCODESIZE ISZERO PUSH2 0x2511 JUMPI PUSH1 0x40 MLOAD PUSH4 0xA85BD01 PUSH1 0xE1 SHL DUP2 MSTORE PUSH1 0x1 PUSH1 0x1 PUSH1 0xA0 SHL SUB DUP6 AND SWAP1 PUSH4 0x150B7A02 SWAP1 PUSH2 0x2462 SWAP1 CALLER SWAP1 DUP10 SWAP1 DUP9 SWAP1 DUP9 SWAP1 PUSH1 0x4 ADD PUSH2 0x2EDB JUMP JUMPDEST PUSH1 0x20 PUSH1 0x40 MLOAD DUP1 DUP4 SUB DUP2 PUSH1 0x0 DUP8 GAS CALL SWAP3 POP POP POP DUP1 ISZERO PUSH2 0x249D JUMPI POP PUSH1 0x40 DUP1 MLOAD PUSH1 0x1F RETURNDATASIZE SWAP1 DUP2 ADD PUSH1 0x1F NOT AND DUP3 ADD SWAP1 SWAP3 MSTORE PUSH2 0x249A SWAP2 DUP2 ADD SWAP1 PUSH2 0x2F18 JUMP JUMPDEST PUSH1 0x1 JUMPDEST PUSH2 0x24F7 JUMPI RETURNDATASIZE DUP1 DUP1 ISZERO PUSH2 0x24CB JUMPI PUSH1 0x40 MLOAD SWAP2 POP PUSH1 0x1F NOT PUSH1 0x3F RETURNDATASIZE ADD AND DUP3 ADD PUSH1 0x40 MSTORE RETURNDATASIZE DUP3 MSTORE RETURNDATASIZE PUSH1 0x0 PUSH1 0x20 DUP5 ADD RETURNDATACOPY PUSH2 0x24D0 JUMP JUMPDEST PUSH1 0x60 SWAP2 POP JUMPDEST POP DUP1 MLOAD PUSH2 0x24EF JUMPI PUSH1 0x40 MLOAD PUSH3 0x461BCD PUSH1 0xE5 SHL DUP2 MSTORE PUSH1 0x4 ADD PUSH2 0x6A0 SWAP1 PUSH2 0x2E89 JUMP JUMPDEST DUP1 MLOAD DUP2 PUSH1 0x20 ADD REVERT JUMPDEST PUSH1 0x1 PUSH1 0x1 PUSH1 0xE0 SHL SUB NOT AND PUSH4 0xA85BD01 PUSH1 0xE1 SHL EQ SWAP1 POP PUSH2 0x1BBA JUMP JUMPDEST POP PUSH1 0x1 SWAP5 SWAP4 POP POP POP POP JUMP JUMPDEST PUSH1 0x0 PUSH1 0x1 PUSH2 0x2529 DUP5 PUSH2 0x10ED JUMP JUMPDEST PUSH2 0x2533 SWAP2 SWAP1 PUSH2 0x2C4D JUMP JUMPDEST PUSH1 0x0 DUP4 DUP2 MSTORE PUSH1 0x7 PUSH1 0x20 MSTORE PUSH1 0x40 SWAP1 KECCAK256 SLOAD SWAP1 SWAP2 POP DUP1 DUP3 EQ PUSH2 0x2586 JUMPI PUSH1 0x1 PUSH1 0x1 PUSH1 0xA0 SHL SUB DUP5 AND PUSH1 0x0 SWAP1 DUP2 MSTORE PUSH1 0x6 PUSH1 0x20 SWAP1 DUP2 MSTORE PUSH1 0x40 DUP1 DUP4 KECCAK256 DUP6 DUP5 MSTORE DUP3 MSTORE DUP1 DUP4 KECCAK256 SLOAD DUP5 DUP5 MSTORE DUP2 DUP5 KECCAK256 DUP2 SWAP1 SSTORE DUP4 MSTORE PUSH1 0x7 SWAP1 SWAP2 MSTORE SWAP1 KECCAK256 DUP2 SWAP1 SSTORE JUMPDEST POP PUSH1 0x0 SWAP2 DUP3 MSTORE PUSH1 0x7 PUSH1 0x20 SWAP1 DUP2 MSTORE PUSH1 0x40 DUP1 DUP5 KECCAK256 DUP5 SWAP1 SSTORE PUSH1 0x1 PUSH1 0x1 PUSH1 0xA0 SHL SUB SWAP1 SWAP5 AND DUP4 MSTORE PUSH1 0x6 DUP2 MSTORE DUP4 DUP4 KECCAK256 SWAP2 DUP4 MSTORE MSTORE SWAP1 DUP2 KECCAK256 SSTORE JUMP JUMPDEST PUSH1 0x8 SLOAD PUSH1 0x0 SWAP1 PUSH2 0x25CB SWAP1 PUSH1 0x1 SWAP1 PUSH2 0x2C4D JUMP JUMPDEST PUSH1 0x0 DUP4 DUP2 MSTORE PUSH1 0x9 PUSH1 0x20 MSTORE PUSH1 0x40 DUP2 KECCAK256 SLOAD PUSH1 0x8 DUP1 SLOAD SWAP4 SWAP5 POP SWAP1 SWAP3 DUP5 SWAP1 DUP2 LT PUSH2 0x25F3 JUMPI PUSH2 0x25F3 PUSH2 0x2D40 JUMP JUMPDEST SWAP1 PUSH1 0x0 MSTORE PUSH1 0x20 PUSH1 0x0 KECCAK256 ADD SLOAD SWAP1 POP DUP1 PUSH1 0x8 DUP4 DUP2 SLOAD DUP2 LT PUSH2 0x2614 JUMPI PUSH2 0x2614 PUSH2 0x2D40 JUMP JUMPDEST PUSH1 0x0 SWAP2 DUP3 MSTORE PUSH1 0x20 DUP1 DUP4 KECCAK256 SWAP1 SWAP2 ADD SWAP3 SWAP1 SWAP3 SSTORE DUP3 DUP2 MSTORE PUSH1 0x9 SWAP1 SWAP2 MSTORE PUSH1 0x40 DUP1 DUP3 KECCAK256 DUP5 SWAP1 SSTORE DUP6 DUP3 MSTORE DUP2 KECCAK256 SSTORE PUSH1 0x8 DUP1 SLOAD DUP1 PUSH2 0x264C JUMPI PUSH2 0x264C PUSH2 0x2F35 JUMP JUMPDEST PUSH1 0x1 SWAP1 SUB DUP2 DUP2 SWAP1 PUSH1 0x0 MSTORE PUSH1 0x20 PUSH1 0x0 KECCAK256 ADD PUSH1 0x0 SWAP1 SSTORE SWAP1 SSTORE POP POP POP POP JUMP JUMPDEST PUSH1 0x0 PUSH2 0x2673 DUP4 PUSH2 0x10ED JUMP JUMPDEST PUSH1 0x1 PUSH1 0x1 PUSH1 0xA0 SHL SUB SWAP1 SWAP4 AND PUSH1 0x0 SWAP1 DUP2 MSTORE PUSH1 0x6 PUSH1 0x20 SWAP1 DUP2 MSTORE PUSH1 0x40 DUP1 DUP4 KECCAK256 DUP7 DUP5 MSTORE DUP3 MSTORE DUP1 DUP4 KECCAK256 DUP6 SWAP1 SSTORE SWAP4 DUP3 MSTORE PUSH1 0x7 SWAP1 MSTORE SWAP2 SWAP1 SWAP2 KECCAK256 SWAP2 SWAP1 SWAP2 SSTORE POP JUMP JUMPDEST PUSH1 0x1 PUSH1 0x1 PUSH1 0xA0 SHL SUB DUP3 AND PUSH2 0x2702 JUMPI PUSH1 0x40 MLOAD PUSH3 0x461BCD PUSH1 0xE5 SHL DUP2 MSTORE PUSH1 0x20 PUSH1 0x4 DUP3 ADD DUP2 SWAP1 MSTORE PUSH1 0x24 DUP3 ADD MSTORE PUSH32 0x4552433732313A206D696E7420746F20746865207A65726F2061646472657373 PUSH1 0x44 DUP3 ADD MSTORE PUSH1 0x64 ADD PUSH2 0x6A0 JUMP JUMPDEST PUSH2 0x270B DUP2 PUSH2 0x1CD5 JUMP JUMPDEST ISZERO PUSH2 0x2758 JUMPI PUSH1 0x40 MLOAD PUSH3 0x461BCD PUSH1 0xE5 SHL DUP2 MSTORE PUSH1 0x20 PUSH1 0x4 DUP3 ADD MSTORE PUSH1 0x1C PUSH1 0x24 DUP3 ADD MSTORE PUSH32 0x4552433732313A20746F6B656E20616C7265616479206D696E74656400000000 PUSH1 0x44 DUP3 ADD MSTORE PUSH1 0x64 ADD PUSH2 0x6A0 JUMP JUMPDEST PUSH2 0x2764 PUSH1 0x0 DUP4 DUP4 PUSH2 0x2333 JUMP JUMPDEST PUSH1 0x1 PUSH1 0x1 PUSH1 0xA0 SHL SUB DUP3 AND PUSH1 0x0 SWAP1 DUP2 MSTORE PUSH1 0x3 PUSH1 0x20 MSTORE PUSH1 0x40 DUP2 KECCAK256 DUP1 SLOAD PUSH1 0x1 SWAP3 SWAP1 PUSH2 0x278D SWAP1 DUP5 SWAP1 PUSH2 0x2D56 JUMP JUMPDEST SWAP1 SWAP2 SSTORE POP POP PUSH1 0x0 DUP2 DUP2 MSTORE PUSH1 0x2 PUSH1 0x20 MSTORE PUSH1 0x40 DUP1 DUP3 KECCAK256 DUP1 SLOAD PUSH1 0x1 PUSH1 0x1 PUSH1 0xA0 SHL SUB NOT AND PUSH1 0x1 PUSH1 0x1 PUSH1 0xA0 SHL SUB DUP7 AND SWAP1 DUP2 OR SWAP1 SWAP2 SSTORE SWAP1 MLOAD DUP4 SWAP3 SWAP1 PUSH32 0xDDF252AD1BE2C89B69C2B068FC378DAA952BA7F163C4A11628F55A4DF523B3EF SWAP1 DUP3 SWAP1 LOG4 POP POP JUMP JUMPDEST DUP3 DUP1 SLOAD PUSH2 0x27F7 SWAP1 PUSH2 0x2C7F JUMP JUMPDEST SWAP1 PUSH1 0x0 MSTORE PUSH1 0x20 PUSH1 0x0 KECCAK256 SWAP1 PUSH1 0x1F ADD PUSH1 0x20 SWAP1 DIV DUP2 ADD SWAP3 DUP3 PUSH2 0x2819 JUMPI PUSH1 0x0 DUP6 SSTORE PUSH2 0x285F JUMP JUMPDEST DUP3 PUSH1 0x1F LT PUSH2 0x2832 JUMPI DUP1 MLOAD PUSH1 0xFF NOT AND DUP4 DUP1 ADD OR DUP6 SSTORE PUSH2 0x285F JUMP JUMPDEST DUP3 DUP1 ADD PUSH1 0x1 ADD DUP6 SSTORE DUP3 ISZERO PUSH2 0x285F JUMPI SWAP2 DUP3 ADD JUMPDEST DUP3 DUP2 GT ISZERO PUSH2 0x285F JUMPI DUP3 MLOAD DUP3 SSTORE SWAP2 PUSH1 0x20 ADD SWAP2 SWAP1 PUSH1 0x1 ADD SWAP1 PUSH2 0x2844 JUMP JUMPDEST POP PUSH2 0x140E SWAP3 SWAP2 POP JUMPDEST DUP1 DUP3 GT ISZERO PUSH2 0x140E JUMPI PUSH1 0x0 DUP2 SSTORE PUSH1 0x1 ADD PUSH2 0x2867 JUMP JUMPDEST PUSH1 0x1 PUSH1 0x1 PUSH1 0xE0 SHL SUB NOT DUP2 AND DUP2 EQ PUSH2 0xE44 JUMPI PUSH1 0x0 DUP1 REVERT JUMPDEST PUSH1 0x0 PUSH1 0x20 DUP3 DUP5 SUB SLT ISZERO PUSH2 0x28A3 JUMPI PUSH1 0x0 DUP1 REVERT JUMPDEST DUP2 CALLDATALOAD PUSH2 0x159A DUP2 PUSH2 0x287B JUMP JUMPDEST PUSH1 0x0 JUMPDEST DUP4 DUP2 LT ISZERO PUSH2 0x28C9 JUMPI DUP2 DUP2 ADD MLOAD DUP4 DUP3 ADD MSTORE PUSH1 0x20 ADD PUSH2 0x28B1 JUMP JUMPDEST DUP4 DUP2 GT ISZERO PUSH2 0x14C5 JUMPI POP POP PUSH1 0x0 SWAP2 ADD MSTORE JUMP JUMPDEST PUSH1 0x0 DUP2 MLOAD DUP1 DUP5 MSTORE PUSH2 0x28F2 DUP2 PUSH1 0x20 DUP7 ADD PUSH1 0x20 DUP7 ADD PUSH2 0x28AE JUMP JUMPDEST PUSH1 0x1F ADD PUSH1 0x1F NOT AND SWAP3 SWAP1 SWAP3 ADD PUSH1 0x20 ADD SWAP3 SWAP2 POP POP JUMP JUMPDEST PUSH1 0x20 DUP2 MSTORE PUSH1 0x0 PUSH2 0x159A PUSH1 0x20 DUP4 ADD DUP5 PUSH2 0x28DA JUMP JUMPDEST PUSH1 0x0 PUSH1 0x20 DUP3 DUP5 SUB SLT ISZERO PUSH2 0x292B JUMPI PUSH1 0x0 DUP1 REVERT JUMPDEST POP CALLDATALOAD SWAP2 SWAP1 POP JUMP JUMPDEST PUSH1 0x1 PUSH1 0x1 PUSH1 0xA0 SHL SUB DUP2 AND DUP2 EQ PUSH2 0xE44 JUMPI PUSH1 0x0 DUP1 REVERT JUMPDEST PUSH1 0x0 DUP1 PUSH1 0x40 DUP4 DUP6 SUB SLT ISZERO PUSH2 0x295A JUMPI PUSH1 0x0 DUP1 REVERT JUMPDEST DUP3 CALLDATALOAD PUSH2 0x2965 DUP2 PUSH2 0x2932 JUMP JUMPDEST SWAP5 PUSH1 0x20 SWAP4 SWAP1 SWAP4 ADD CALLDATALOAD SWAP4 POP POP POP JUMP JUMPDEST PUSH1 0x0 DUP1 PUSH1 0x0 PUSH1 0x60 DUP5 DUP7 SUB SLT ISZERO PUSH2 0x2988 JUMPI PUSH1 0x0 DUP1 REVERT JUMPDEST DUP4 CALLDATALOAD PUSH2 0x2993 DUP2 PUSH2 0x2932 JUMP JUMPDEST SWAP3 POP PUSH1 0x20 DUP5 ADD CALLDATALOAD PUSH2 0x29A3 DUP2 PUSH2 0x2932 JUMP JUMPDEST SWAP3 SWAP6 SWAP3 SWAP5 POP POP POP PUSH1 0x40 SWAP2 SWAP1 SWAP2 ADD CALLDATALOAD SWAP1 JUMP JUMPDEST PUSH1 0x0 DUP1 PUSH1 0x40 DUP4 DUP6 SUB SLT ISZERO PUSH2 0x29C7 JUMPI PUSH1 0x0 DUP1 REVERT JUMPDEST POP POP DUP1 CALLDATALOAD SWAP3 PUSH1 0x20 SWAP1 SWAP2 ADD CALLDATALOAD SWAP2 POP JUMP JUMPDEST PUSH4 0x4E487B71 PUSH1 0xE0 SHL PUSH1 0x0 MSTORE PUSH1 0x41 PUSH1 0x4 MSTORE PUSH1 0x24 PUSH1 0x0 REVERT JUMPDEST PUSH1 0x0 PUSH8 0xFFFFFFFFFFFFFFFF DUP1 DUP5 GT ISZERO PUSH2 0x2A07 JUMPI PUSH2 0x2A07 PUSH2 0x29D6 JUMP JUMPDEST PUSH1 0x40 MLOAD PUSH1 0x1F DUP6 ADD PUSH1 0x1F NOT SWAP1 DUP2 AND PUSH1 0x3F ADD AND DUP2 ADD SWAP1 DUP3 DUP3 GT DUP2 DUP4 LT OR ISZERO PUSH2 0x2A2F JUMPI PUSH2 0x2A2F PUSH2 0x29D6 JUMP JUMPDEST DUP2 PUSH1 0x40 MSTORE DUP1 SWAP4 POP DUP6 DUP2 MSTORE DUP7 DUP7 DUP7 ADD GT ISZERO PUSH2 0x2A48 JUMPI PUSH1 0x0 DUP1 REVERT JUMPDEST DUP6 DUP6 PUSH1 0x20 DUP4 ADD CALLDATACOPY PUSH1 0x0 PUSH1 0x20 DUP8 DUP4 ADD ADD MSTORE POP POP POP SWAP4 SWAP3 POP POP POP JUMP JUMPDEST PUSH1 0x0 PUSH1 0x20 DUP3 DUP5 SUB SLT ISZERO PUSH2 0x2A74 JUMPI PUSH1 0x0 DUP1 REVERT JUMPDEST DUP2 CALLDATALOAD PUSH8 0xFFFFFFFFFFFFFFFF DUP2 GT ISZERO PUSH2 0x2A8B JUMPI PUSH1 0x0 DUP1 REVERT JUMPDEST DUP3 ADD PUSH1 0x1F DUP2 ADD DUP5 SGT PUSH2 0x2A9C JUMPI PUSH1 0x0 DUP1 REVERT JUMPDEST PUSH2 0x1BBA DUP5 DUP3 CALLDATALOAD PUSH1 0x20 DUP5 ADD PUSH2 0x29EC JUMP JUMPDEST PUSH1 0x0 PUSH1 0x20 DUP3 DUP5 SUB SLT ISZERO PUSH2 0x2ABD JUMPI PUSH1 0x0 DUP1 REVERT JUMPDEST DUP2 CALLDATALOAD PUSH2 0x159A DUP2 PUSH2 0x2932 JUMP JUMPDEST PUSH1 0x0 DUP1 PUSH1 0x40 DUP4 DUP6 SUB SLT ISZERO PUSH2 0x2ADB JUMPI PUSH1 0x0 DUP1 REVERT JUMPDEST DUP3 CALLDATALOAD SWAP2 POP PUSH1 0x20 DUP4 ADD CALLDATALOAD PUSH2 0x2AED DUP2 PUSH2 0x2932 JUMP JUMPDEST DUP1 SWAP2 POP POP SWAP3 POP SWAP3 SWAP1 POP JUMP JUMPDEST PUSH1 0x0 DUP1 PUSH1 0x40 DUP4 DUP6 SUB SLT ISZERO PUSH2 0x2B0B JUMPI PUSH1 0x0 DUP1 REVERT JUMPDEST DUP3 CALLDATALOAD PUSH2 0x2B16 DUP2 PUSH2 0x2932 JUMP JUMPDEST SWAP2 POP PUSH1 0x20 DUP4 ADD CALLDATALOAD DUP1 ISZERO ISZERO DUP2 EQ PUSH2 0x2AED JUMPI PUSH1 0x0 DUP1 REVERT JUMPDEST PUSH1 0x0 DUP1 PUSH1 0x0 DUP1 PUSH1 0x80 DUP6 DUP8 SUB SLT ISZERO PUSH2 0x2B41 JUMPI PUSH1 0x0 DUP1 REVERT JUMPDEST DUP5 CALLDATALOAD PUSH2 0x2B4C DUP2 PUSH2 0x2932 JUMP JUMPDEST SWAP4 POP PUSH1 0x20 DUP6 ADD CALLDATALOAD PUSH2 0x2B5C DUP2 PUSH2 0x2932 JUMP JUMPDEST SWAP3 POP PUSH1 0x40 DUP6 ADD CALLDATALOAD SWAP2 POP PUSH1 0x60 DUP6 ADD CALLDATALOAD PUSH8 0xFFFFFFFFFFFFFFFF DUP2 GT ISZERO PUSH2 0x2B7F JUMPI PUSH1 0x0 DUP1 REVERT JUMPDEST DUP6 ADD PUSH1 0x1F DUP2 ADD DUP8 SGT PUSH2 0x2B90 JUMPI PUSH1 0x0 DUP1 REVERT JUMPDEST PUSH2 0x2B9F DUP8 DUP3 CALLDATALOAD PUSH1 0x20 DUP5 ADD PUSH2 0x29EC JUMP JUMPDEST SWAP2 POP POP SWAP3 SWAP6 SWAP2 SWAP5 POP SWAP3 POP JUMP JUMPDEST DUP1 CALLDATALOAD PUSH1 0xFF DUP2 AND DUP2 EQ PUSH2 0x2BBC JUMPI PUSH1 0x0 DUP1 REVERT JUMPDEST SWAP2 SWAP1 POP JUMP JUMPDEST PUSH1 0x0 DUP1 PUSH1 0x40 DUP4 DUP6 SUB SLT ISZERO PUSH2 0x2BD4 JUMPI PUSH1 0x0 DUP1 REVERT JUMPDEST DUP3 CALLDATALOAD SWAP2 POP PUSH2 0x2BE4 PUSH1 0x20 DUP5 ADD PUSH2 0x2BAB JUMP JUMPDEST SWAP1 POP SWAP3 POP SWAP3 SWAP1 POP JUMP JUMPDEST PUSH1 0x0 DUP1 PUSH1 0x40 DUP4 DUP6 SUB SLT ISZERO PUSH2 0x2C00 JUMPI PUSH1 0x0 DUP1 REVERT JUMPDEST DUP3 CALLDATALOAD PUSH2 0x2C0B DUP2 PUSH2 0x2932 JUMP JUMPDEST SWAP2 POP PUSH1 0x20 DUP4 ADD CALLDATALOAD PUSH2 0x2AED DUP2 PUSH2 0x2932 JUMP JUMPDEST PUSH1 0x0 DUP1 PUSH1 0x40 DUP4 DUP6 SUB SLT ISZERO PUSH2 0x2C2E JUMPI PUSH1 0x0 DUP1 REVERT JUMPDEST PUSH2 0x2965 DUP4 PUSH2 0x2BAB JUMP JUMPDEST PUSH4 0x4E487B71 PUSH1 0xE0 SHL PUSH1 0x0 MSTORE PUSH1 0x11 PUSH1 0x4 MSTORE PUSH1 0x24 PUSH1 0x0 REVERT JUMPDEST PUSH1 0x0 DUP3 DUP3 LT ISZERO PUSH2 0x2C5F JUMPI PUSH2 0x2C5F PUSH2 0x2C37 JUMP JUMPDEST POP SUB SWAP1 JUMP JUMPDEST PUSH1 0x0 PUSH1 0x0 NOT DUP3 EQ ISZERO PUSH2 0x2C78 JUMPI PUSH2 0x2C78 PUSH2 0x2C37 JUMP JUMPDEST POP PUSH1 0x1 ADD SWAP1 JUMP JUMPDEST PUSH1 0x1 DUP2 DUP2 SHR SWAP1 DUP3 AND DUP1 PUSH2 0x2C93 JUMPI PUSH1 0x7F DUP3 AND SWAP2 POP JUMPDEST PUSH1 0x20 DUP3 LT DUP2 EQ ISZERO PUSH2 0x2CB4 JUMPI PUSH4 0x4E487B71 PUSH1 0xE0 SHL PUSH1 0x0 MSTORE PUSH1 0x22 PUSH1 0x4 MSTORE PUSH1 0x24 PUSH1 0x0 REVERT JUMPDEST POP SWAP2 SWAP1 POP JUMP JUMPDEST PUSH1 0x20 DUP1 DUP3 MSTORE DUP2 DUP2 ADD MSTORE PUSH32 0x4F776E61626C653A2063616C6C6572206973206E6F7420746865206F776E6572 PUSH1 0x40 DUP3 ADD MSTORE PUSH1 0x60 ADD SWAP1 JUMP JUMPDEST PUSH1 0x20 DUP1 DUP3 MSTORE PUSH1 0x31 SWAP1 DUP3 ADD MSTORE PUSH32 0x4552433732313A207472616E736665722063616C6C6572206973206E6F74206F PUSH1 0x40 DUP3 ADD MSTORE PUSH17 0x1DDB995C881B9BDC88185C1C1C9BDD9959 PUSH1 0x7A SHL PUSH1 0x60 DUP3 ADD MSTORE PUSH1 0x80 ADD SWAP1 JUMP JUMPDEST PUSH4 0x4E487B71 PUSH1 0xE0 SHL PUSH1 0x0 MSTORE PUSH1 0x32 PUSH1 0x4 MSTORE PUSH1 0x24 PUSH1 0x0 REVERT JUMPDEST PUSH1 0x0 DUP3 NOT DUP3 GT ISZERO PUSH2 0x2D69 JUMPI PUSH2 0x2D69 PUSH2 0x2C37 JUMP JUMPDEST POP ADD SWAP1 JUMP JUMPDEST PUSH1 0x20 DUP1 DUP3 MSTORE PUSH1 0x1F SWAP1 DUP3 ADD MSTORE PUSH32 0x5265656E7472616E637947756172643A207265656E7472616E742063616C6C00 PUSH1 0x40 DUP3 ADD MSTORE PUSH1 0x60 ADD SWAP1 JUMP JUMPDEST PUSH1 0x0 DUP2 PUSH1 0x0 NOT DIV DUP4 GT DUP3 ISZERO ISZERO AND ISZERO PUSH2 0x2DBF JUMPI PUSH2 0x2DBF PUSH2 0x2C37 JUMP JUMPDEST POP MUL SWAP1 JUMP JUMPDEST PUSH4 0x4E487B71 PUSH1 0xE0 SHL PUSH1 0x0 MSTORE PUSH1 0x12 PUSH1 0x4 MSTORE PUSH1 0x24 PUSH1 0x0 REVERT JUMPDEST PUSH1 0x0 DUP3 PUSH2 0x2DE9 JUMPI PUSH2 0x2DE9 PUSH2 0x2DC4 JUMP JUMPDEST POP DIV SWAP1 JUMP JUMPDEST PUSH1 0x0 DUP4 MLOAD PUSH2 0x2E00 DUP2 DUP5 PUSH1 0x20 DUP9 ADD PUSH2 0x28AE JUMP JUMPDEST DUP4 MLOAD SWAP1 DUP4 ADD SWAP1 PUSH2 0x2E14 DUP2 DUP4 PUSH1 0x20 DUP9 ADD PUSH2 0x28AE JUMP JUMPDEST ADD SWAP5 SWAP4 POP POP POP POP JUMP JUMPDEST PUSH1 0x0 PUSH1 0x20 DUP3 DUP5 SUB SLT ISZERO PUSH2 0x2E2F JUMPI PUSH1 0x0 DUP1 REVERT JUMPDEST DUP2 MLOAD PUSH2 0x159A DUP2 PUSH2 0x2932 JUMP JUMPDEST PUSH1 0x0 PUSH1 0x20 DUP3 DUP5 SUB SLT ISZERO PUSH2 0x2E4C JUMPI PUSH1 0x0 DUP1 REVERT JUMPDEST POP MLOAD SWAP2 SWAP1 POP JUMP JUMPDEST PUSH1 0x0 PUSH2 0xFFFF DUP1 DUP4 AND DUP2 DUP2 EQ ISZERO PUSH2 0x2E6B JUMPI PUSH2 0x2E6B PUSH2 0x2C37 JUMP JUMPDEST PUSH1 0x1 ADD SWAP4 SWAP3 POP POP POP JUMP JUMPDEST PUSH1 0x0 DUP3 PUSH2 0x2E84 JUMPI PUSH2 0x2E84 PUSH2 0x2DC4 JUMP JUMPDEST POP MOD SWAP1 JUMP JUMPDEST PUSH1 0x20 DUP1 DUP3 MSTORE PUSH1 0x32 SWAP1 DUP3 ADD MSTORE PUSH32 0x4552433732313A207472616E7366657220746F206E6F6E204552433732315265 PUSH1 0x40 DUP3 ADD MSTORE PUSH18 0x31B2B4BB32B91034B6B83632B6B2B73A32B9 PUSH1 0x71 SHL PUSH1 0x60 DUP3 ADD MSTORE PUSH1 0x80 ADD SWAP1 JUMP JUMPDEST PUSH1 0x1 PUSH1 0x1 PUSH1 0xA0 SHL SUB DUP6 DUP2 AND DUP3 MSTORE DUP5 AND PUSH1 0x20 DUP3 ADD MSTORE PUSH1 0x40 DUP2 ADD DUP4 SWAP1 MSTORE PUSH1 0x80 PUSH1 0x60 DUP3 ADD DUP2 SWAP1 MSTORE PUSH1 0x0 SWAP1 PUSH2 0x2F0E SWAP1 DUP4 ADD DUP5 PUSH2 0x28DA JUMP JUMPDEST SWAP7 SWAP6 POP POP POP POP POP POP JUMP JUMPDEST PUSH1 0x0 PUSH1 0x20 DUP3 DUP5 SUB SLT ISZERO PUSH2 0x2F2A JUMPI PUSH1 0x0 DUP1 REVERT JUMPDEST DUP2 MLOAD PUSH2 0x159A DUP2 PUSH2 0x287B JUMP JUMPDEST PUSH4 0x4E487B71 PUSH1 0xE0 SHL PUSH1 0x0 MSTORE PUSH1 0x31 PUSH1 0x4 MSTORE PUSH1 0x24 PUSH1 0x0 REVERT INVALID PUSH4 0x61373135 BALANCE PUSH4 0x63343336 PUSH5 0x6130646333 PUSH2 0x3364 CALLDATASIZE CALLDATASIZE ORIGIN CALLDATASIZE CODECOPY CALLVALUE PUSH7 0x38633964613561 PUSH6 0x333961373335 CALLDATALOAD PUSH7 0x61626161666330 ADDRESS PUSH6 0x366161353830 CODECOPY ORIGIN CALLDATACOPY BALANCE CALLDATACOPY CALLDATALOAD LOG2 PUSH5 0x6970667358 0x22 SLT KECCAK256 DUP14 MOD 0xBA SSTORE DUP12 ADDMOD 0xE1 0xD4 0xAE SELFDESTRUCT 0xAD 0xC3 COINBASE SIGNEXTEND SWAP5 0xC8 RETURNDATACOPY 0xFC PUSH9 0xAA2FCFB4EC5A289FA4 CALLDATASIZE COINBASE NOT SWAP5 PUSH5 0x736F6C6343 STOP ADDMOD EXP STOP CALLER "
		},
		"gasEstimates": {
			"creation": {
				"codeDepositCost": "2445000",
				"executionCost": "infinite",
				"totalCost": "infinite"
			},
			"external": {
				"MAYC_PROVENANCE()": "infinite",
				"NUM_MEGA_MUTANTS()": "328",
				"PS_MAX_MUTANTS()": "284",
				"PS_MAX_MUTANT_PURCHASE()": "352",
				"PS_MUTANT_ENDING_PRICE()": "350",
				"SERUM_MUTATION_OFFSET()": "307",
				"approve(address,uint256)": "infinite",
				"balanceOf(address)": "1416",
				"collectionSize()": "1107",
				"collectionStartingIndexBlock()": "1085",
				"getApproved(uint256)": "2244",
				"getMintPrice()": "infinite",
				"getMutantIdForApeAndSerumCombination(uint256,uint8)": "infinite",
				"getRemainingSaleTime()": "infinite",
				"hasApeBeenMutatedWithType(uint8,uint256)": "infinite",
				"isApprovedForAll(address,address)": "infinite",
				"isMinted(uint256)": "1366",
				"megaMutantsStartingIndex()": "1107",
				"mint(address)": "infinite",
				"mint(uint256,address)": "infinite",
				"mintedMutantsStartingIndex()": "1063",
				"mutateApeWithSerum(uint256,uint256)": "infinite",
				"name()": "infinite",
				"numMutantsMinted()": "1062",
				"owner()": "1121",
				"ownerOf(uint256)": "1323",
				"pausePublicSale()": "infinite",
				"publicSaleActive()": "1088",
				"publicSaleDuration()": "1127",
				"publicSaleMutantStartingPrice()": "1062",
				"publicSaleStartTime()": "1106",
				"renounceOwnership()": "23463",
				"safeTransferFrom(address,address,uint256)": "infinite",
				"safeTransferFrom(address,address,uint256,bytes)": "infinite",
				"serumMutationActive()": "1121",
				"setApprovalForAll(address,bool)": "23378",
				"setBaseURI(string)": "infinite",
				"setCollectionSize(uint256)": "21980",
				"setStartingIndices()": "infinite",
				"startPublicSale(uint256,uint256)": "84337",
				"supportsInterface(bytes4)": "infinite",
				"symbol()": "infinite",
				"togglePublicSaleActive()": "21914",
				"toggleSerumMutationActive()": "21934",
				"tokenByIndex(uint256)": "2971",
				"tokenOfOwnerByIndex(address,uint256)": "2436",
				"tokenURI(uint256)": "infinite",
				"totalApesMutated()": "2034",
				"totalSupply()": "1105",
				"transferFrom(address,address,uint256)": "infinite",
				"transferOwnership(address)": "infinite",
				"withdraw()": "infinite"
			},
			"internal": {
				"_baseURI()": "infinite",
				"calculateStartingIndex(uint256,uint256)": "115",
				"getElapsedSaleTime()": "1729",
				"getMutantId(uint256,uint256)": "infinite"
			}
		},
		"methodIdentifiers": {
			"MAYC_PROVENANCE()": "e2d9f685",
			"NUM_MEGA_MUTANTS()": "c0bb92ea",
			"PS_MAX_MUTANTS()": "e6f0df8c",
			"PS_MAX_MUTANT_PURCHASE()": "0af7f2b8",
			"PS_MUTANT_ENDING_PRICE()": "e3764a8b",
			"SERUM_MUTATION_OFFSET()": "61169ea8",
			"approve(address,uint256)": "095ea7b3",
			"balanceOf(address)": "70a08231",
			"collectionSize()": "45c0f533",
			"collectionStartingIndexBlock()": "2f2eda31",
			"getApproved(uint256)": "081812fc",
			"getMintPrice()": "a7f93ebd",
			"getMutantIdForApeAndSerumCombination(uint256,uint8)": "bd5e5e0c",
			"getRemainingSaleTime()": "567ac4f6",
			"hasApeBeenMutatedWithType(uint8,uint256)": "ee211233",
			"isApprovedForAll(address,address)": "e985e9c5",
			"isMinted(uint256)": "33c41a90",
			"megaMutantsStartingIndex()": "b23142e2",
			"mint(address)": "6a627842",
			"mint(uint256,address)": "94bf804d",
			"mintedMutantsStartingIndex()": "725ae16c",
			"mutateApeWithSerum(uint256,uint256)": "e73a9a25",
			"name()": "06fdde03",
			"numMutantsMinted()": "e43437c8",
			"owner()": "8da5cb5b",
			"ownerOf(uint256)": "6352211e",
			"pausePublicSale()": "0c41f497",
			"publicSaleActive()": "bc8893b4",
			"publicSaleDuration()": "fd48354e",
			"publicSaleMutantStartingPrice()": "c973d72d",
			"publicSaleStartTime()": "6bb7b1d9",
			"renounceOwnership()": "715018a6",
			"safeTransferFrom(address,address,uint256)": "42842e0e",
			"safeTransferFrom(address,address,uint256,bytes)": "b88d4fde",
			"serumMutationActive()": "e1c3ad0c",
			"setApprovalForAll(address,bool)": "a22cb465",
			"setBaseURI(string)": "55f804b3",
			"setCollectionSize(uint256)": "aca8ffe7",
			"setStartingIndices()": "00dbabc7",
			"startPublicSale(uint256,uint256)": "3a12e933",
			"supportsInterface(bytes4)": "01ffc9a7",
			"symbol()": "95d89b41",
			"togglePublicSaleActive()": "0c894cfe",
			"toggleSerumMutationActive()": "d0b77feb",
			"tokenByIndex(uint256)": "4f6ccce7",
			"tokenOfOwnerByIndex(address,uint256)": "2f745c59",
			"tokenURI(uint256)": "c87b56dd",
			"totalApesMutated()": "48cd4f08",
			"totalSupply()": "18160ddd",
			"transferFrom(address,address,uint256)": "23b872dd",
			"transferOwnership(address)": "f2fde38b",
			"withdraw()": "3ccfd60b"
		}
	},
	"abi": [
		{
			"inputs": [
				{
					"internalType": "string",
					"name": "name",
					"type": "string"
				},
				{
					"internalType": "string",
					"name": "symbol",
					"type": "string"
				},
				{
					"internalType": "address",
					"name": "baycAddress",
					"type": "address"
				},
				{
					"internalType": "address",
					"name": "baccAddress",
					"type": "address"
				}
			],
			"stateMutability": "nonpayable",
			"type": "constructor"
		},
		{
			"anonymous": false,
			"inputs": [
				{
					"indexed": true,
					"internalType": "address",
					"name": "owner",
					"type": "address"
				},
				{
					"indexed": true,
					"internalType": "address",
					"name": "approved",
					"type": "address"
				},
				{
					"indexed": true,
					"internalType": "uint256",
					"name": "tokenId",
					"type": "uint256"
				}
			],
			"name": "Approval",
			"type": "event"
		},
		{
			"anonymous": false,
			"inputs": [
				{
					"indexed": true,
					"internalType": "address",
					"name": "owner",
					"type": "address"
				},
				{
					"indexed": true,
					"internalType": "address",
					"name": "operator",
					"type": "address"
				},
				{
					"indexed": false,
					"internalType": "bool",
					"name": "approved",
					"type": "bool"
				}
			],
			"name": "ApprovalForAll",
			"type": "event"
		},
		{
			"anonymous": false,
			"inputs": [
				{
					"indexed": true,
					"internalType": "uint256",
					"name": "_currentPrice",
					"type": "uint256"
				},
				{
					"indexed": true,
					"internalType": "uint256",
					"name": "_timeElapsed",
					"type": "uint256"
				}
			],
			"name": "MutantPublicSalePaused",
			"type": "event"
		},
		{
			"anonymous": false,
			"inputs": [
				{
					"indexed": true,
					"internalType": "uint256",
					"name": "_saleDuration",
					"type": "uint256"
				},
				{
					"indexed": true,
					"internalType": "uint256",
					"name": "_saleStartTime",
					"type": "uint256"
				}
			],
			"name": "MutantPublicSaleStart",
			"type": "event"
		},
		{
			"anonymous": false,
			"inputs": [
				{
					"indexed": true,
					"internalType": "address",
					"name": "previousOwner",
					"type": "address"
				},
				{
					"indexed": true,
					"internalType": "address",
					"name": "newOwner",
					"type": "address"
				}
			],
			"name": "OwnershipTransferred",
			"type": "event"
		},
		{
			"anonymous": false,
			"inputs": [
				{
					"indexed": true,
					"internalType": "uint256",
					"name": "_mintedMutantsStartingIndex",
					"type": "uint256"
				},
				{
					"indexed": true,
					"internalType": "uint256",
					"name": "_megaMutantsStartingIndex",
					"type": "uint256"
				}
			],
			"name": "StartingIndicesSet",
			"type": "event"
		},
		{
			"anonymous": false,
			"inputs": [
				{
					"indexed": true,
					"internalType": "address",
					"name": "from",
					"type": "address"
				},
				{
					"indexed": true,
					"internalType": "address",
					"name": "to",
					"type": "address"
				},
				{
					"indexed": true,
					"internalType": "uint256",
					"name": "tokenId",
					"type": "uint256"
				}
			],
			"name": "Transfer",
			"type": "event"
		},
		{
			"inputs": [],
			"name": "MAYC_PROVENANCE",
			"outputs": [
				{
					"internalType": "string",
					"name": "",
					"type": "string"
				}
			],
			"stateMutability": "view",
			"type": "function"
		},
		{
			"inputs": [],
			"name": "NUM_MEGA_MUTANTS",
			"outputs": [
				{
					"internalType": "uint256",
					"name": "",
					"type": "uint256"
				}
			],
			"stateMutability": "view",
			"type": "function"
		},
		{
			"inputs": [],
			"name": "PS_MAX_MUTANTS",
			"outputs": [
				{
					"internalType": "uint256",
					"name": "",
					"type": "uint256"
				}
			],
			"stateMutability": "view",
			"type": "function"
		},
		{
			"inputs": [],
			"name": "PS_MAX_MUTANT_PURCHASE",
			"outputs": [
				{
					"internalType": "uint256",
					"name": "",
					"type": "uint256"
				}
			],
			"stateMutability": "view",
			"type": "function"
		},
		{
			"inputs": [],
			"name": "PS_MUTANT_ENDING_PRICE",
			"outputs": [
				{
					"internalType": "uint256",
					"name": "",
					"type": "uint256"
				}
			],
			"stateMutability": "view",
			"type": "function"
		},
		{
			"inputs": [],
			"name": "SERUM_MUTATION_OFFSET",
			"outputs": [
				{
					"internalType": "uint256",
					"name": "",
					"type": "uint256"
				}
			],
			"stateMutability": "view",
			"type": "function"
		},
		{
			"inputs": [
				{
					"internalType": "address",
					"name": "to",
					"type": "address"
				},
				{
					"internalType": "uint256",
					"name": "tokenId",
					"type": "uint256"
				}
			],
			"name": "approve",
			"outputs": [],
			"stateMutability": "nonpayable",
			"type": "function"
		},
		{
			"inputs": [
				{
					"internalType": "address",
					"name": "owner",
					"type": "address"
				}
			],
			"name": "balanceOf",
			"outputs": [
				{
					"internalType": "uint256",
					"name": "",
					"type": "uint256"
				}
			],
			"stateMutability": "view",
			"type": "function"
		},
		{
			"inputs": [],
			"name": "collectionSize",
			"outputs": [
				{
					"internalType": "uint256",
					"name": "",
					"type": "uint256"
				}
			],
			"stateMutability": "view",
			"type": "function"
		},
		{
			"inputs": [],
			"name": "collectionStartingIndexBlock",
			"outputs": [
				{
					"internalType": "uint256",
					"name": "",
					"type": "uint256"
				}
			],
			"stateMutability": "view",
			"type": "function"
		},
		{
			"inputs": [
				{
					"internalType": "uint256",
					"name": "tokenId",
					"type": "uint256"
				}
			],
			"name": "getApproved",
			"outputs": [
				{
					"internalType": "address",
					"name": "",
					"type": "address"
				}
			],
			"stateMutability": "view",
			"type": "function"
		},
		{
			"inputs": [],
			"name": "getMintPrice",
			"outputs": [
				{
					"internalType": "uint256",
					"name": "",
					"type": "uint256"
				}
			],
			"stateMutability": "view",
			"type": "function"
		},
		{
			"inputs": [
				{
					"internalType": "uint256",
					"name": "apeId",
					"type": "uint256"
				},
				{
					"internalType": "uint8",
					"name": "serumTypeId",
					"type": "uint8"
				}
			],
			"name": "getMutantIdForApeAndSerumCombination",
			"outputs": [
				{
					"internalType": "uint256",
					"name": "",
					"type": "uint256"
				}
			],
			"stateMutability": "view",
			"type": "function"
		},
		{
			"inputs": [],
			"name": "getRemainingSaleTime",
			"outputs": [
				{
					"internalType": "uint256",
					"name": "",
					"type": "uint256"
				}
			],
			"stateMutability": "view",
			"type": "function"
		},
		{
			"inputs": [
				{
					"internalType": "uint8",
					"name": "serumType",
					"type": "uint8"
				},
				{
					"internalType": "uint256",
					"name": "apeId",
					"type": "uint256"
				}
			],
			"name": "hasApeBeenMutatedWithType",
			"outputs": [
				{
					"internalType": "bool",
					"name": "",
					"type": "bool"
				}
			],
			"stateMutability": "view",
			"type": "function"
		},
		{
			"inputs": [
				{
					"internalType": "address",
					"name": "owner",
					"type": "address"
				},
				{
					"internalType": "address",
					"name": "operator",
					"type": "address"
				}
			],
			"name": "isApprovedForAll",
			"outputs": [
				{
					"internalType": "bool",
					"name": "",
					"type": "bool"
				}
			],
			"stateMutability": "view",
			"type": "function"
		},
		{
			"inputs": [
				{
					"internalType": "uint256",
					"name": "tokenId",
					"type": "uint256"
				}
			],
			"name": "isMinted",
			"outputs": [
				{
					"internalType": "bool",
					"name": "",
					"type": "bool"
				}
			],
			"stateMutability": "view",
			"type": "function"
		},
		{
			"inputs": [],
			"name": "megaMutantsStartingIndex",
			"outputs": [
				{
					"internalType": "uint256",
					"name": "",
					"type": "uint256"
				}
			],
			"stateMutability": "view",
			"type": "function"
		},
		{
			"inputs": [
				{
					"internalType": "address",
					"name": "to",
					"type": "address"
				}
			],
			"name": "mint",
			"outputs": [],
			"stateMutability": "nonpayable",
			"type": "function"
		},
		{
			"inputs": [
				{
					"internalType": "uint256",
					"name": "numMutants",
					"type": "uint256"
				},
				{
					"internalType": "address",
					"name": "_to",
					"type": "address"
				}
			],
			"name": "mint",
			"outputs": [],
			"stateMutability": "nonpayable",
			"type": "function"
		},
		{
			"inputs": [],
			"name": "mintedMutantsStartingIndex",
			"outputs": [
				{
					"internalType": "uint256",
					"name": "",
					"type": "uint256"
				}
			],
			"stateMutability": "view",
			"type": "function"
		},
		{
			"inputs": [
				{
					"internalType": "uint256",
					"name": "serumTypeId",
					"type": "uint256"
				},
				{
					"internalType": "uint256",
					"name": "apeId",
					"type": "uint256"
				}
			],
			"name": "mutateApeWithSerum",
			"outputs": [],
			"stateMutability": "nonpayable",
			"type": "function"
		},
		{
			"inputs": [],
			"name": "name",
			"outputs": [
				{
					"internalType": "string",
					"name": "",
					"type": "string"
				}
			],
			"stateMutability": "view",
			"type": "function"
		},
		{
			"inputs": [],
			"name": "numMutantsMinted",
			"outputs": [
				{
					"internalType": "uint256",
					"name": "",
					"type": "uint256"
				}
			],
			"stateMutability": "view",
			"type": "function"
		},
		{
			"inputs": [],
			"name": "owner",
			"outputs": [
				{
					"internalType": "address",
					"name": "",
					"type": "address"
				}
			],
			"stateMutability": "view",
			"type": "function"
		},
		{
			"inputs": [
				{
					"internalType": "uint256",
					"name": "tokenId",
					"type": "uint256"
				}
			],
			"name": "ownerOf",
			"outputs": [
				{
					"internalType": "address",
					"name": "",
					"type": "address"
				}
			],
			"stateMutability": "view",
			"type": "function"
		},
		{
			"inputs": [],
			"name": "pausePublicSale",
			"outputs": [],
			"stateMutability": "nonpayable",
			"type": "function"
		},
		{
			"inputs": [],
			"name": "publicSaleActive",
			"outputs": [
				{
					"internalType": "bool",
					"name": "",
					"type": "bool"
				}
			],
			"stateMutability": "view",
			"type": "function"
		},
		{
			"inputs": [],
			"name": "publicSaleDuration",
			"outputs": [
				{
					"internalType": "uint256",
					"name": "",
					"type": "uint256"
				}
			],
			"stateMutability": "view",
			"type": "function"
		},
		{
			"inputs": [],
			"name": "publicSaleMutantStartingPrice",
			"outputs": [
				{
					"internalType": "uint256",
					"name": "",
					"type": "uint256"
				}
			],
			"stateMutability": "view",
			"type": "function"
		},
		{
			"inputs": [],
			"name": "publicSaleStartTime",
			"outputs": [
				{
					"internalType": "uint256",
					"name": "",
					"type": "uint256"
				}
			],
			"stateMutability": "view",
			"type": "function"
		},
		{
			"inputs": [],
			"name": "renounceOwnership",
			"outputs": [],
			"stateMutability": "nonpayable",
			"type": "function"
		},
		{
			"inputs": [
				{
					"internalType": "address",
					"name": "from",
					"type": "address"
				},
				{
					"internalType": "address",
					"name": "to",
					"type": "address"
				},
				{
					"internalType": "uint256",
					"name": "tokenId",
					"type": "uint256"
				}
			],
			"name": "safeTransferFrom",
			"outputs": [],
			"stateMutability": "nonpayable",
			"type": "function"
		},
		{
			"inputs": [
				{
					"internalType": "address",
					"name": "from",
					"type": "address"
				},
				{
					"internalType": "address",
					"name": "to",
					"type": "address"
				},
				{
					"internalType": "uint256",
					"name": "tokenId",
					"type": "uint256"
				},
				{
					"internalType": "bytes",
					"name": "_data",
					"type": "bytes"
				}
			],
			"name": "safeTransferFrom",
			"outputs": [],
			"stateMutability": "nonpayable",
			"type": "function"
		},
		{
			"inputs": [],
			"name": "serumMutationActive",
			"outputs": [
				{
					"internalType": "bool",
					"name": "",
					"type": "bool"
				}
			],
			"stateMutability": "view",
			"type": "function"
		},
		{
			"inputs": [
				{
					"internalType": "address",
					"name": "operator",
					"type": "address"
				},
				{
					"internalType": "bool",
					"name": "approved",
					"type": "bool"
				}
			],
			"name": "setApprovalForAll",
			"outputs": [],
			"stateMutability": "nonpayable",
			"type": "function"
		},
		{
			"inputs": [
				{
					"internalType": "string",
					"name": "uri",
					"type": "string"
				}
			],
			"name": "setBaseURI",
			"outputs": [],
			"stateMutability": "nonpayable",
			"type": "function"
		},
		{
			"inputs": [
				{
					"internalType": "uint256",
					"name": "_newSize",
					"type": "uint256"
				}
			],
			"name": "setCollectionSize",
			"outputs": [],
			"stateMutability": "nonpayable",
			"type": "function"
		},
		{
			"inputs": [],
			"name": "setStartingIndices",
			"outputs": [],
			"stateMutability": "nonpayable",
			"type": "function"
		},
		{
			"inputs": [
				{
					"internalType": "uint256",
					"name": "saleDuration",
					"type": "uint256"
				},
				{
					"internalType": "uint256",
					"name": "saleStartPrice",
					"type": "uint256"
				}
			],
			"name": "startPublicSale",
			"outputs": [],
			"stateMutability": "nonpayable",
			"type": "function"
		},
		{
			"inputs": [
				{
					"internalType": "bytes4",
					"name": "interfaceId",
					"type": "bytes4"
				}
			],
			"name": "supportsInterface",
			"outputs": [
				{
					"internalType": "bool",
					"name": "",
					"type": "bool"
				}
			],
			"stateMutability": "view",
			"type": "function"
		},
		{
			"inputs": [],
			"name": "symbol",
			"outputs": [
				{
					"internalType": "string",
					"name": "",
					"type": "string"
				}
			],
			"stateMutability": "view",
			"type": "function"
		},
		{
			"inputs": [],
			"name": "togglePublicSaleActive",
			"outputs": [],
			"stateMutability": "nonpayable",
			"type": "function"
		},
		{
			"inputs": [],
			"name": "toggleSerumMutationActive",
			"outputs": [],
			"stateMutability": "nonpayable",
			"type": "function"
		},
		{
			"inputs": [
				{
					"internalType": "uint256",
					"name": "index",
					"type": "uint256"
				}
			],
			"name": "tokenByIndex",
			"outputs": [
				{
					"internalType": "uint256",
					"name": "",
					"type": "uint256"
				}
			],
			"stateMutability": "view",
			"type": "function"
		},
		{
			"inputs": [
				{
					"internalType": "address",
					"name": "owner",
					"type": "address"
				},
				{
					"internalType": "uint256",
					"name": "index",
					"type": "uint256"
				}
			],
			"name": "tokenOfOwnerByIndex",
			"outputs": [
				{
					"internalType": "uint256",
					"name": "",
					"type": "uint256"
				}
			],
			"stateMutability": "view",
			"type": "function"
		},
		{
			"inputs": [
				{
					"internalType": "uint256",
					"name": "tokenId",
					"type": "uint256"
				}
			],
			"name": "tokenURI",
			"outputs": [
				{
					"internalType": "string",
					"name": "",
					"type": "string"
				}
			],
			"stateMutability": "view",
			"type": "function"
		},
		{
			"inputs": [],
			"name": "totalApesMutated",
			"outputs": [
				{
					"internalType": "uint256",
					"name": "",
					"type": "uint256"
				}
			],
			"stateMutability": "view",
			"type": "function"
		},
		{
			"inputs": [],
			"name": "totalSupply",
			"outputs": [
				{
					"internalType": "uint256",
					"name": "",
					"type": "uint256"
				}
			],
			"stateMutability": "view",
			"type": "function"
		},
		{
			"inputs": [
				{
					"internalType": "address",
					"name": "from",
					"type": "address"
				},
				{
					"internalType": "address",
					"name": "to",
					"type": "address"
				},
				{
					"internalType": "uint256",
					"name": "tokenId",
					"type": "uint256"
				}
			],
			"name": "transferFrom",
			"outputs": [],
			"stateMutability": "nonpayable",
			"type": "function"
		},
		{
			"inputs": [
				{
					"internalType": "address",
					"name": "newOwner",
					"type": "address"
				}
			],
			"name": "transferOwnership",
			"outputs": [],
			"stateMutability": "nonpayable",
			"type": "function"
		},
		{
			"inputs": [],
			"name": "withdraw",
			"outputs": [],
			"stateMutability": "nonpayable",
			"type": "function"
		}
	]
}