{
  "_format": "hh-sol-artifact-1",
  "contractName": "Caviar",
  "sourceName": "src/Caviar.sol",
  "abi": [
    {
      "inputs": [],
      "stateMutability": "nonpayable",
      "type": "constructor"
    },
    {
      "anonymous": false,
      "inputs": [
        {
          "indexed": true,
          "internalType": "address",
          "name": "nft",
          "type": "address"
        },
        {
          "indexed": true,
          "internalType": "address",
          "name": "baseToken",
          "type": "address"
        },
        {
          "indexed": true,
          "internalType": "bytes32",
          "name": "merkleRoot",
          "type": "bytes32"
        }
      ],
      "name": "Create",
      "type": "event"
    },
    {
      "anonymous": false,
      "inputs": [
        {
          "indexed": true,
          "internalType": "address",
          "name": "nft",
          "type": "address"
        },
        {
          "indexed": true,
          "internalType": "address",
          "name": "baseToken",
          "type": "address"
        },
        {
          "indexed": true,
          "internalType": "bytes32",
          "name": "merkleRoot",
          "type": "bytes32"
        }
      ],
      "name": "Destroy",
      "type": "event"
    },
    {
      "anonymous": false,
      "inputs": [
        {
          "indexed": true,
          "internalType": "address",
          "name": "user",
          "type": "address"
        },
        {
          "indexed": true,
          "internalType": "address",
          "name": "newOwner",
          "type": "address"
        }
      ],
      "name": "OwnershipTransferred",
      "type": "event"
    },
    {
      "inputs": [
        {
          "internalType": "address",
          "name": "nft",
          "type": "address"
        },
        {
          "internalType": "address",
          "name": "baseToken",
          "type": "address"
        },
        {
          "internalType": "bytes32",
          "name": "merkleRoot",
          "type": "bytes32"
        }
      ],
      "name": "create",
      "outputs": [
        {
          "internalType": "contract Pair",
          "name": "pair",
          "type": "address"
        }
      ],
      "stateMutability": "nonpayable",
      "type": "function"
    },
    {
      "inputs": [
        {
          "internalType": "address",
          "name": "nft",
          "type": "address"
        },
        {
          "internalType": "address",
          "name": "baseToken",
          "type": "address"
        },
        {
          "internalType": "bytes32",
          "name": "merkleRoot",
          "type": "bytes32"
        }
      ],
      "name": "destroy",
      "outputs": [],
      "stateMutability": "nonpayable",
      "type": "function"
    },
    {
      "inputs": [],
      "name": "owner",
      "outputs": [
        {
          "internalType": "address",
          "name": "",
          "type": "address"
        }
      ],
      "stateMutability": "view",
      "type": "function"
    },
    {
      "inputs": [
        {
          "internalType": "address",
          "name": "",
          "type": "address"
        },
        {
          "internalType": "address",
          "name": "",
          "type": "address"
        },
        {
          "internalType": "bytes32",
          "name": "",
          "type": "bytes32"
        }
      ],
      "name": "pairs",
      "outputs": [
        {
          "internalType": "address",
          "name": "",
          "type": "address"
        }
      ],
      "stateMutability": "view",
      "type": "function"
    },
    {
      "inputs": [
        {
          "internalType": "address",
          "name": "newOwner",
          "type": "address"
        }
      ],
      "name": "transferOwnership",
      "outputs": [],
      "stateMutability": "nonpayable",
      "type": "function"
    }
  ],
  "bytecode": "0x608060405234801561001057600080fd5b50600080546001600160a01b031916339081178255604051909182917f8be0079c531659141344cd1fd0a4f28419497f9722a3daafe3b4186f6b6457e0908290a350615bbe806100616000396000f3fe60806040523480156200001157600080fd5b50600436106200006f5760003560e01c8063b3c3b3041162000056578063b3c3b30414620000d7578063d1692f561462000121578063f2fde38b146200013857600080fd5b8063505fe15214620000745780638da5cb5b146200008d575b600080fd5b6200008b6200008536600462000d28565b6200014f565b005b600054620000ae9073ffffffffffffffffffffffffffffffffffffffff1681565b60405173ffffffffffffffffffffffffffffffffffffffff909116815260200160405180910390f35b620000ae620000e836600462000d28565b600160209081526000938452604080852082529284528284209052825290205473ffffffffffffffffffffffffffffffffffffffff1681565b620000ae6200013236600462000d28565b6200028b565b6200008b6200014936600462000d69565b62000509565b73ffffffffffffffffffffffffffffffffffffffff838116600090815260016020908152604080832086851684528252808320858452909152902054163314620001fa576040517f08c379a000000000000000000000000000000000000000000000000000000000815260206004820152601c60248201527f4f6e6c7920706169722063616e2064657374726f7920697473656c660000000060448201526064015b60405180910390fd5b73ffffffffffffffffffffffffffffffffffffffff808416600081815260016020908152604080832094871680845294825280832086845290915280822080547fffffffffffffffffffffffff000000000000000000000000000000000000000016905551849392917f14397e8603dbce74295a5f389f130d9abc9567253064be027262ed9f4dcb1aae91a4505050565b73ffffffffffffffffffffffffffffffffffffffff8381166000908152600160209081526040808320868516845282528083208584529091528120549091161562000333576040517f08c379a000000000000000000000000000000000000000000000000000000000815260206004820152601360248201527f5061697220616c726561647920657869737473000000000000000000000000006044820152606401620001f1565b600073ffffffffffffffffffffffffffffffffffffffff8416156200037957620003738473ffffffffffffffffffffffffffffffffffffffff16620005fc565b620003b0565b6040518060400160405280600381526020017f45544800000000000000000000000000000000000000000000000000000000008152505b90506000620003d58673ffffffffffffffffffffffffffffffffffffffff16620005fc565b90506000620003fa8773ffffffffffffffffffffffffffffffffffffffff1662000650565b9050600082846040516020016200041392919062000dad565b6040516020818303038152906040529050878787838587604051620004389062000cf0565b620004499695949392919062000e55565b604051809103906000f08015801562000466573d6000803e3d6000fd5b5073ffffffffffffffffffffffffffffffffffffffff89811660008181526001602090815260408083208d86168085529083528184208d855290925280832080547fffffffffffffffffffffffff00000000000000000000000000000000000000001695871695909517909455925193985089937f94e35d08a6788cb2901c35019eb1105f35dcfdac00943412ebe0236470ee420f9190a4505050509392505050565b60005473ffffffffffffffffffffffffffffffffffffffff1633146200058c576040517f08c379a000000000000000000000000000000000000000000000000000000000815260206004820152600c60248201527f554e415554484f52495a454400000000000000000000000000000000000000006044820152606401620001f1565b600080547fffffffffffffffffffffffff00000000000000000000000000000000000000001673ffffffffffffffffffffffffffffffffffffffff83169081178255604051909133917f8be0079c531659141344cd1fd0a4f28419497f9722a3daafe3b4186f6b6457e09190a350565b606060006200062c837f95d89b410000000000000000000000000000000000000000000000000000000062000697565b905080516000036200064a5762000643836200080e565b9392505050565b92915050565b6060600062000680837f06fdde030000000000000000000000000000000000000000000000000000000062000697565b905080516000036200064a57620006438362000823565b60408051600481526024810182526020810180517bffffffffffffffffffffffffffffffffffffffffffffffffffffffff167fffffffff0000000000000000000000000000000000000000000000000000000085161790529051606091600091829173ffffffffffffffffffffffffffffffffffffffff8716916200071d919062000ecd565b600060405180830381855afa9150503d80600081146200075a576040519150601f19603f3d011682016040523d82523d6000602084013e6200075f565b606091505b50915091508115806200077157508051155b15620007915760405180602001604052806000815250925050506200064a565b8051602003620007cb57600081806020019051810190620007b3919062000eeb565b9050620007c08162000846565b93505050506200064a565b604081511115620007f65780806020019051810190620007ec919062000f34565b925050506200064a565b50506040805160208101909152600081529392505050565b60606200064a61ffff609084901c1662000a05565b60606200064a8273ffffffffffffffffffffffffffffffffffffffff1662000a05565b604080516020808252818301909252606091600091906020820181803683370190505090506000805b60208110156200092a5760008582602081106200089057620008906200100b565b1a60f81b90507fff00000000000000000000000000000000000000000000000000000000000000811615620009145780848481518110620008d557620008d56200100b565b60200101907effffffffffffffffffffffffffffffffffffffffffffffffffffffffffffff1916908160001a90535082620009108162001069565b9350505b5080620009218162001069565b9150506200086f565b5060008167ffffffffffffffff81111562000949576200094962000f05565b6040519080825280601f01601f19166020018201604052801562000974576020820181803683370190505b50905060005b82811015620009fc578381815181106200099857620009986200100b565b602001015160f81c60f81b828281518110620009b857620009b86200100b565b60200101907effffffffffffffffffffffffffffffffffffffffffffffffffffffffffffff1916908160001a90535080620009f38162001069565b9150506200097a565b50949350505050565b60606200064a8262000a178462000a20565b60010162000a8f565b600080608083901c1562000a395760809290921c916010015b604083901c1562000a4f5760409290921c916008015b602083901c1562000a655760209290921c916004015b601083901c1562000a7b5760109290921c916002015b600883901c156200064a5760010192915050565b6060600062000aa0836002620010a4565b62000aad906002620010be565b67ffffffffffffffff81111562000ac85762000ac862000f05565b6040519080825280601f01601f19166020018201604052801562000af3576020820181803683370190505b5090507f30000000000000000000000000000000000000000000000000000000000000008160008151811062000b2d5762000b2d6200100b565b60200101907effffffffffffffffffffffffffffffffffffffffffffffffffffffffffffff1916908160001a9053507f78000000000000000000000000000000000000000000000000000000000000008160018151811062000b935762000b936200100b565b60200101907effffffffffffffffffffffffffffffffffffffffffffffffffffffffffffff1916908160001a905350600062000bd1846002620010a4565b62000bde906001620010be565b90505b600181111562000c85577f303132333435363738396162636465660000000000000000000000000000000085600f166010811062000c235762000c236200100b565b1a60f81b82828151811062000c3c5762000c3c6200100b565b60200101907effffffffffffffffffffffffffffffffffffffffffffffffffffffffffffff1916908160001a90535060049490941c9362000c7d81620010d4565b905062000be1565b50831562000643576040517f08c379a000000000000000000000000000000000000000000000000000000000815260206004820181905260248201527f537472696e67733a20686578206c656e67746820696e73756666696369656e746044820152606401620001f1565b614a7c806200110d83390190565b803573ffffffffffffffffffffffffffffffffffffffff8116811462000d2357600080fd5b919050565b60008060006060848603121562000d3e57600080fd5b62000d498462000cfe565b925062000d596020850162000cfe565b9150604084013590509250925092565b60006020828403121562000d7c57600080fd5b620006438262000cfe565b60005b8381101562000da457818101518382015260200162000d8a565b50506000910152565b6000835162000dc181846020880162000d87565b7f3a00000000000000000000000000000000000000000000000000000000000000908301908152835162000dfd81600184016020880162000d87565b01600101949350505050565b6000815180845262000e2381602086016020860162000d87565b601f017fffffffffffffffffffffffffffffffffffffffffffffffffffffffffffffffe0169290920160200192915050565b600073ffffffffffffffffffffffffffffffffffffffff808916835280881660208401525085604083015260c0606083015262000e9660c083018662000e09565b828103608084015262000eaa818662000e09565b905082810360a084015262000ec0818562000e09565b9998505050505050505050565b6000825162000ee181846020870162000d87565b9190910192915050565b60006020828403121562000efe57600080fd5b5051919050565b7f4e487b7100000000000000000000000000000000000000000000000000000000600052604160045260246000fd5b60006020828403121562000f4757600080fd5b815167ffffffffffffffff8082111562000f6057600080fd5b818401915084601f83011262000f7557600080fd5b81518181111562000f8a5762000f8a62000f05565b604051601f82017fffffffffffffffffffffffffffffffffffffffffffffffffffffffffffffffe0908116603f0116810190838211818310171562000fd35762000fd362000f05565b8160405282815287602084870101111562000fed57600080fd5b6200100083602083016020880162000d87565b979650505050505050565b7f4e487b7100000000000000000000000000000000000000000000000000000000600052603260045260246000fd5b7f4e487b7100000000000000000000000000000000000000000000000000000000600052601160045260246000fd5b60007fffffffffffffffffffffffffffffffffffffffffffffffffffffffffffffffff82036200109d576200109d6200103a565b5060010190565b80820281158282048414176200064a576200064a6200103a565b808201808211156200064a576200064a6200103a565b600081620010e657620010e66200103a565b507fffffffffffffffffffffffffffffffffffffffffffffffffffffffffffffffff019056fe6101806040523480156200001257600080fd5b5060405162004a7c38038062004a7c8339810160408190526200003591620002bc565b816040516020016200004891906200037c565b604051602081830303815290604052816040516020016200006a9190620003b3565b60408051601f19818403018152919052601260006200008a84826200046d565b5060016200009983826200046d565b5060ff81166080524660a052620000af62000128565b60c0525050506001600160a01b0380871660e0528516610100526101208490526040518390620000df90620001c4565b620000eb919062000539565b604051809103906000f08015801562000108573d6000803e3d6000fd5b506001600160a01b0316610140525050336101605250620005ec92505050565b60007f8b73c3c69bb8fe3d512ecc4cf759cc79239f7b179b0ffacaa9a75d522b39400f60006040516200015c91906200056e565b6040805191829003822060208301939093528101919091527fc89efdaa54c0f20c7adf612882df0950f5a951637e0307cdcb4c672f298b8bc660608201524660808201523060a082015260c00160405160208183030381529060405280519060200120905090565b61134f806200372d83390190565b80516001600160a01b0381168114620001ea57600080fd5b919050565b634e487b7160e01b600052604160045260246000fd5b60005b838110156200022257818101518382015260200162000208565b50506000910152565b600082601f8301126200023d57600080fd5b81516001600160401b03808211156200025a576200025a620001ef565b604051601f8301601f19908116603f01168101908282118183101715620002855762000285620001ef565b816040528381528660208588010111156200029f57600080fd5b620002b284602083016020890162000205565b9695505050505050565b60008060008060008060c08789031215620002d657600080fd5b620002e187620001d2565b9550620002f160208801620001d2565b6040880151606089015191965094506001600160401b03808211156200031657600080fd5b620003248a838b016200022b565b945060808901519150808211156200033b57600080fd5b620003498a838b016200022b565b935060a08901519150808211156200036057600080fd5b506200036f89828a016200022b565b9150509295509295509295565b600082516200039081846020870162000205565b7010333930b1ba34b7b730b6103a37b5b2b760791b920191825250601101919050565b603360f91b815260008251620003d181600185016020870162000205565b9190910160010192915050565b600181811c90821680620003f357607f821691505b6020821081036200041457634e487b7160e01b600052602260045260246000fd5b50919050565b601f8211156200046857600081815260208120601f850160051c81016020861015620004435750805b601f850160051c820191505b8181101562000464578281556001016200044f565b5050505b505050565b81516001600160401b03811115620004895762000489620001ef565b620004a1816200049a8454620003de565b846200041a565b602080601f831160018114620004d95760008415620004c05750858301515b600019600386901b1c1916600185901b17855562000464565b600085815260208120601f198616915b828110156200050a57888601518255948401946001909101908401620004e9565b5085821015620005295787850151600019600388901b60f8161c191681555b5050505050600190811b01905550565b60208152600082518060208401526200055a81604085016020870162000205565b601f01601f19169190910160400192915050565b60008083546200057e81620003de565b60018281168015620005995760018114620005af57620005e0565b60ff1984168752821515830287019450620005e0565b8760005260208060002060005b85811015620005d75781548a820152908401908201620005bc565b50505082870194505b50929695505050505050565b60805160a05160c05160e0516101005161012051610140516101605161301e6200070f6000396000818161044301528181610bf701528181610ee401526110700152600081816105ef015281816108a3015281816112af015281816117ca01526119dc0152600081816104d10152818161104a015281816123a201526123fc01526000818161078d015281816110220152818161118e01528181611314015281816113500152818161182e0152818161187a01528181611d5201528181611e3f01528181611e9c01528181611f6501528181611fad0152818161206f01526120ca01526000818161058801528181610db101528181610ffa015281816113ed01526115bb01526000610e8501526000610e5501526000610505015261301e6000f3fe6080604052600436106102bb5760003560e01c806363ac2a4c1161016e578063c2ee3a08116100cb578063d6febde81161007f578063d7a2e4c911610064578063d7a2e4c914610822578063dd62ed3e14610842578063fceacc831461087a57600080fd5b8063d6febde8146107ef578063d79875eb1461080257600080fd5b8063c55dae63116100b0578063c55dae631461077b578063ceb17898146107af578063d505accf146107cf57600080fd5b8063c2ee3a081461073f578063c43479201461075b57600080fd5b80637ed72fda1161012257806395d89b411161010757806395d89b41146106f5578063a035b1fe1461070a578063a9059cbb1461071f57600080fd5b80637ed72fda146106be578063956c8327146106de57600080fd5b8063694ac6cf11610153578063694ac6cf1461064457806370a08231146106645780637ecebe001461069157600080fd5b806363ac2a4c1461061157806368b968901461063157600080fd5b80632e1a7d4d1161021c57806343d726d6116101d05780634e4d7c00116101b55780634e4d7c00146105aa578063505fb46c146105ca5780635fcbd285146105dd57600080fd5b806343d726d61461056157806347ccca021461057657600080fd5b8063313ce56711610201578063313ce567146104f35780633644e5151461053957806340c9adbe1461054e57600080fd5b80632e1a7d4d1461049d5780632eb4a7ab146104bf57600080fd5b8063168585e511610273578063203ae56511610258578063203ae5651461041c578063217c1d681461043157806323b872dd1461047d57600080fd5b8063168585e5146103e657806318160ddd1461040657600080fd5b806306fdde03116102a457806306fdde031461031e578063095ea7b314610340578063150b7a021461037057600080fd5b8063037d785b146102c0578063052d7c00146102fa575b600080fd5b3480156102cc57600080fd5b506102e06102db3660046127f8565b61089c565b604080519283526020830191909152015b60405180910390f35b34801561030657600080fd5b5061031060065481565b6040519081526020016102f1565b34801561032a57600080fd5b50610333610982565b6040516102f19190612811565b34801561034c57600080fd5b5061036061035b366004612877565b610a10565b60405190151581526020016102f1565b34801561037c57600080fd5b506103b561038b3660046128a3565b7f150b7a020000000000000000000000000000000000000000000000000000000095945050505050565b6040517fffffffff0000000000000000000000000000000000000000000000000000000090911681526020016102f1565b3480156103f257600080fd5b506103106104013660046127f8565b610a7d565b34801561041257600080fd5b5061031060025481565b34801561042857600080fd5b50610310610acc565b34801561043d57600080fd5b506104657f000000000000000000000000000000000000000000000000000000000000000081565b6040516001600160a01b0390911681526020016102f1565b34801561048957600080fd5b50610360610498366004612942565b610adb565b3480156104a957600080fd5b506104bd6104b83660046127f8565b610beb565b005b3480156104cb57600080fd5b506103107f000000000000000000000000000000000000000000000000000000000000000081565b3480156104ff57600080fd5b506105277f000000000000000000000000000000000000000000000000000000000000000081565b60405160ff90911681526020016102f1565b34801561054557600080fd5b50610310610e51565b61031061055c3660046129cf565b610ea7565b34801561056d57600080fd5b506104bd610ed8565b34801561058257600080fd5b506104657f000000000000000000000000000000000000000000000000000000000000000081565b3480156105b657600080fd5b506103106105c5366004612a1b565b611109565b6103106105d8366004612a95565b61112f565b3480156105e957600080fd5b506104657f000000000000000000000000000000000000000000000000000000000000000081565b34801561061d57600080fd5b5061031061062c366004612ac1565b6113c0565b61031061063f366004612b03565b611508565b34801561065057600080fd5b5061031061065f366004612b86565b611530565b34801561067057600080fd5b5061031061067f366004612bf2565b60036020526000908152604090205481565b34801561069d57600080fd5b506103106106ac366004612bf2565b60056020526000908152604090205481565b3480156106ca57600080fd5b506102e06106d9366004612a95565b6116d8565b3480156106ea57600080fd5b5061031062093a8081565b34801561070157600080fd5b506103336118ea565b34801561071657600080fd5b506103106118f7565b34801561072b57600080fd5b5061036061073a366004612877565b61192c565b34801561074b57600080fd5b50610310670de0b6b3a764000081565b34801561076757600080fd5b506102e0610776366004612c0f565b6119a4565b34801561078757600080fd5b506104657f000000000000000000000000000000000000000000000000000000000000000081565b3480156107bb57600080fd5b506103106107ca366004612c56565b6119d7565b3480156107db57600080fd5b506104bd6107ea366004612c78565b611ae0565b6103106107fd366004612c56565b611d4e565b34801561080e57600080fd5b5061031061081d366004612c56565b611efa565b34801561082e57600080fd5b5061031061083d3660046127f8565b61200a565b34801561084e57600080fd5b5061031061085d366004612cef565b600460209081526000928352604080842090915290825290205481565b34801561088657600080fd5b5030600090815260036020526040902054610310565b60008060007f00000000000000000000000000000000000000000000000000000000000000006001600160a01b03166318160ddd6040518163ffffffff1660e01b8152600401602060405180830381865afa1580156108ff573d6000803e3d6000fd5b505050506040513d601f19601f820116820180604052508101906109239190612d28565b905060008185610931610acc565b61093b9190612d57565b6109459190612d84565b9050600082866109613060009081526003602052604090205490565b61096b9190612d57565b6109759190612d84565b9196919550909350505050565b6000805461098f90612da6565b80601f01602080910402602001604051908101604052809291908181526020018280546109bb90612da6565b8015610a085780601f106109dd57610100808354040283529160200191610a08565b820191906000526020600020905b8154815290600101906020018083116109eb57829003601f168201915b505050505081565b3360008181526004602090815260408083206001600160a01b038716808552925280832085905551919290917f8c5be1e5ebec7d5bd14f71427d1e84f3dd0314c0f7b2291e5b200ac8c7c3b92590610a6b9086815260200190565b60405180910390a35060015b92915050565b30600090815260036020526040812054610a98908390612de0565b610aa4906103e5612d57565b610aac610acc565b610ab8846103e8612d57565b610ac29190612d57565b610a779190612d84565b6000610ad661206b565b905090565b6001600160a01b03831660009081526004602090815260408083203384529091528120547fffffffffffffffffffffffffffffffffffffffffffffffffffffffffffffffff8114610b5557610b308382612de0565b6001600160a01b03861660009081526004602090815260408083203384529091529020555b6001600160a01b03851660009081526003602052604081208054859290610b7d908490612de0565b90915550506001600160a01b03808516600081815260036020526040908190208054870190555190918716907fddf252ad1be2c89b69c2b068fc378daa952ba7f163c4a11628f55a4df523b3ef90610bd89087815260200190565b60405180910390a3506001949350505050565b336001600160a01b03167f00000000000000000000000000000000000000000000000000000000000000006001600160a01b0316638da5cb5b6040518163ffffffff1660e01b8152600401602060405180830381865afa158015610c53573d6000803e3d6000fd5b505050506040513d601f19601f82011682018060405250810190610c779190612df3565b6001600160a01b031614610cd25760405162461bcd60e51b815260206004820152601360248201527f57697468647261773a206e6f74206f776e65720000000000000000000000000060448201526064015b60405180910390fd5b600654600003610d245760405162461bcd60e51b815260206004820152601660248201527f5769746864726177206e6f7420696e69746961746564000000000000000000006044820152606401610cc9565b600654421015610d765760405162461bcd60e51b815260206004820152601460248201527f4e6f7420776974686472617761626c65207965740000000000000000000000006044820152606401610cc9565b6040517f42842e0e000000000000000000000000000000000000000000000000000000008152306004820152336024820152604481018290527f00000000000000000000000000000000000000000000000000000000000000006001600160a01b0316906342842e0e90606401600060405180830381600087803b158015610dfd57600080fd5b505af1158015610e11573d6000803e3d6000fd5b505050507f5b6b431d4476a211bb7d41c20d1aab9ae2321deee0d20be3d9fc9b1093fa6e3d81604051610e4691815260200190565b60405180910390a150565b60007f00000000000000000000000000000000000000000000000000000000000000004614610e8257610ad6612147565b507f000000000000000000000000000000000000000000000000000000000000000090565b6000610ec4610ebe670de0b6b3a764000085612d57565b83611d4e565b9050610ed084846113c0565b509392505050565b336001600160a01b03167f00000000000000000000000000000000000000000000000000000000000000006001600160a01b0316638da5cb5b6040518163ffffffff1660e01b8152600401602060405180830381865afa158015610f40573d6000803e3d6000fd5b505050506040513d601f19601f82011682018060405250810190610f649190612df3565b6001600160a01b031614610fba5760405162461bcd60e51b815260206004820152601060248201527f436c6f73653a206e6f74206f776e6572000000000000000000000000000000006044820152606401610cc9565b610fc762093a8042612e10565b6006556040517f505fe1520000000000000000000000000000000000000000000000000000000081526001600160a01b037f0000000000000000000000000000000000000000000000000000000000000000811660048301527f0000000000000000000000000000000000000000000000000000000000000000811660248301527f000000000000000000000000000000000000000000000000000000000000000060448301527f0000000000000000000000000000000000000000000000000000000000000000169063505fe15290606401600060405180830381600087803b1580156110b457600080fd5b505af11580156110c8573d6000803e3d6000fd5b505050507fbf67515a38ee520223d32c1266d52101c30d936ed1f3e436c8caeb0a43cb06bf6006546040516110ff91815260200190565b60405180910390a1565b60008061111887878686611530565b90506111248186611efa565b979650505050505050565b600080841180156111405750600083115b61118c5760405162461bcd60e51b815260206004820152601a60248201527f496e70757420746f6b656e20616d6f756e74206973207a65726f0000000000006044820152606401610cc9565b7f00000000000000000000000000000000000000000000000000000000000000006001600160a01b0316156111c25734156111c6565b8334145b6112125760405162461bcd60e51b815260206004820152601360248201527f496e76616c696420657468657220696e707574000000000000000000000000006044820152606401610cc9565b61121c84846119d7565b90508181101561126e5760405162461bcd60e51b815260206004820152601d60248201527f536c6970706167653a206c7020746f6b656e20616d6f756e74206f75740000006044820152606401610cc9565b6112793330856121e1565b506040517f40c10f19000000000000000000000000000000000000000000000000000000008152336004820152602481018290527f00000000000000000000000000000000000000000000000000000000000000006001600160a01b0316906340c10f1990604401600060405180830381600087803b1580156112fb57600080fd5b505af115801561130f573d6000803e3d6000fd5b5050507f00000000000000000000000000000000000000000000000000000000000000006001600160a01b0316159050611378576113786001600160a01b037f000000000000000000000000000000000000000000000000000000000000000016333087612278565b60408051858152602081018590529081018290527f2a31efc7e9b3f67e8cd108d5980ce3d6ac332ef092f12c5f1d748a7dfdf48f069060600160405180910390a19392505050565b60006113d4670de0b6b3a764000083612d57565b90506113e03382612324565b60005b828110156114c8577f00000000000000000000000000000000000000000000000000000000000000006001600160a01b03166342842e0e303387878681811061142e5761142e612e23565b6040517fffffffff0000000000000000000000000000000000000000000000000000000060e088901b1681526001600160a01b03958616600482015294909316602485015250602090910201356044820152606401600060405180830381600087803b15801561149d57600080fd5b505af11580156114b1573d6000803e3d6000fd5b5050505080806114c090612e39565b9150506113e3565b507f49c6b1e1927bec3d67ff457e5fd52befa360549040211069e7c52c817ed23b4a83836040516114fa929190612e71565b60405180910390a192915050565b60008061151787878686611530565b905061152488828761112f565b98975050505050505050565b60006006546000146115845760405162461bcd60e51b815260206004820152600c60248201527f577261703a20636c6f73656400000000000000000000000000000000000000006044820152606401610cc9565b611590858585856123a0565b6115a2670de0b6b3a764000085612d57565b90506115ae33826124c9565b60005b84811015611696577f00000000000000000000000000000000000000000000000000000000000000006001600160a01b03166342842e0e33308989868181106115fc576115fc612e23565b6040517fffffffff0000000000000000000000000000000000000000000000000000000060e088901b1681526001600160a01b03958616600482015294909316602485015250602090910201356044820152606401600060405180830381600087803b15801561166b57600080fd5b505af115801561167f573d6000803e3d6000fd5b50505050808061168e90612e39565b9150506115b1565b507f54d2ea0f504a95a03aa80f593be4914a1ebece60c3315b75040de03aa5df5c3a85856040516116c8929190612e71565b60405180910390a1949350505050565b6000806116e48561089c565b9092509050838210156117395760405162461bcd60e51b815260206004820152601f60248201527f536c6970706167653a206261736520746f6b656e20616d6f756e74206f7574006044820152606401610cc9565b828110156117895760405162461bcd60e51b815260206004820152601e60248201527f536c6970706167653a206672616374696f6e616c20746f6b656e206f757400006044820152606401610cc9565b6117943033836121e1565b506040517f9dc29fac000000000000000000000000000000000000000000000000000000008152336004820152602481018690527f00000000000000000000000000000000000000000000000000000000000000006001600160a01b031690639dc29fac90604401600060405180830381600087803b15801561181657600080fd5b505af115801561182a573d6000803e3d6000fd5b50507f00000000000000000000000000000000000000000000000000000000000000006001600160a01b0316915061186d905057611868338361252d565b6118a1565b6118a16001600160a01b037f000000000000000000000000000000000000000000000000000000000000000016338461258d565b60408051838152602081018390529081018690527fe26e44b49401e2c8d21cfcb6628ae520c5a95ebd3b087893b427af4fa3d4e0d99060600160405180910390a1935093915050565b6001805461098f90612da6565b30600090815260036020526040812054670de0b6b3a764000061191861206b565b6119229190612d57565b610ad69190612d84565b3360009081526003602052604081208054839190839061194d908490612de0565b90915550506001600160a01b038316600081815260036020526040908190208054850190555133907fddf252ad1be2c89b69c2b068fc378daa952ba7f163c4a11628f55a4df523b3ef90610a6b9086815260200190565b6000806119be86866106d9670de0b6b3a764000087612d57565b90925090506119cd84846113c0565b5094509492505050565b6000807f00000000000000000000000000000000000000000000000000000000000000006001600160a01b03166318160ddd6040518163ffffffff1660e01b8152600401602060405180830381865afa158015611a38573d6000803e3d6000fd5b505050506040513d601f19601f82011682018060405250810190611a5c9190612d28565b90508015611ac6576000611a6e610acc565b611a788387612d57565b611a829190612d84565b90506000611a9c3060009081526003602052604090205490565b611aa68487612d57565b611ab09190612d84565b9050611abc828261262c565b9350505050610a77565b611ad8611ad38486612d57565b612642565b915050610a77565b42841015611b305760405162461bcd60e51b815260206004820152601760248201527f5045524d49545f444541444c494e455f455850495245440000000000000000006044820152606401610cc9565b60006001611b3c610e51565b6001600160a01b038a811660008181526005602090815260409182902080546001810190915582517f6e71edae12b1b97f4d1f60370fef10105fa2faae0126114a169c64845d6126c98184015280840194909452938d166060840152608083018c905260a083019390935260c08083018b90528151808403909101815260e0830190915280519201919091207f19010000000000000000000000000000000000000000000000000000000000006101008301526101028201929092526101228101919091526101420160408051601f198184030181528282528051602091820120600084529083018083525260ff871690820152606081018590526080810184905260a0016020604051602081039080840390855afa158015611c63573d6000803e3d6000fd5b5050604051601f1901519150506001600160a01b03811615801590611c995750876001600160a01b0316816001600160a01b0316145b611ce55760405162461bcd60e51b815260206004820152600e60248201527f494e56414c49445f5349474e45520000000000000000000000000000000000006044820152606401610cc9565b6001600160a01b0390811660009081526004602090815260408083208a8516808552908352928190208990555188815291928a16917f8c5be1e5ebec7d5bd14f71427d1e84f3dd0314c0f7b2291e5b200ac8c7c3b925910160405180910390a350505050505050565b60007f00000000000000000000000000000000000000000000000000000000000000006001600160a01b031615611d86573415611d8a565b8134145b611dd65760405162461bcd60e51b815260206004820152601360248201527f496e76616c696420657468657220696e707574000000000000000000000000006044820152606401610cc9565b611ddf83610a7d565b905081811115611e315760405162461bcd60e51b815260206004820152601360248201527f536c6970706167653a20616d6f756e7420696e000000000000000000000000006044820152606401610cc9565b611e3c3033856121e1565b507f00000000000000000000000000000000000000000000000000000000000000006001600160a01b0316611e8f576000611e778284612de0565b90508015611e8957611e89338261252d565b50611ec4565b611ec46001600160a01b037f000000000000000000000000000000000000000000000000000000000000000016333084612278565b60408051828152602081018590527f76911b5d8081a7d290dd15cdb0e39e9513ac7e8d1cce3275a7cf1380889abacc91016114fa565b6000611f058361200a565b905081811015611f575760405162461bcd60e51b815260206004820152601460248201527f536c6970706167653a20616d6f756e74206f75740000000000000000000000006044820152606401610cc9565b611f623330856121e1565b507f00000000000000000000000000000000000000000000000000000000000000006001600160a01b0316611fa057611f9b338261252d565b611fd4565b611fd46001600160a01b037f000000000000000000000000000000000000000000000000000000000000000016338361258d565b60408051848152602081018390527f8ed05978f1a2453a08590ad9c67430e04d0b816de1318b575d1c28b7965ff5d591016114fa565b600080612019836103e5612d57565b9050806120323060009081526003602052604090205490565b61203e906103e8612d57565b6120489190612e10565b612050610acc565b61205a9083612d57565b6120649190612d84565b9392505050565b60007f00000000000000000000000000000000000000000000000000000000000000006001600160a01b03161561213d576040517f70a082310000000000000000000000000000000000000000000000000000000081523060048201527f00000000000000000000000000000000000000000000000000000000000000006001600160a01b0316906370a0823190602401602060405180830381865afa158015612119573d6000803e3d6000fd5b505050506040513d601f19601f82011682018060405250810190610ad69190612d28565b610ad63447612de0565b60007f8b73c3c69bb8fe3d512ecc4cf759cc79239f7b179b0ffacaa9a75d522b39400f60006040516121799190612ec3565b6040805191829003822060208301939093528101919091527fc89efdaa54c0f20c7adf612882df0950f5a951637e0307cdcb4c672f298b8bc660608201524660808201523060a082015260c00160405160208183030381529060405280519060200120905090565b6001600160a01b03831660009081526003602052604081208054839190839061220b908490612de0565b90915550506001600160a01b03808416600081815260036020526040908190208054860190555190918616907fddf252ad1be2c89b69c2b068fc378daa952ba7f163c4a11628f55a4df523b3ef906122669086815260200190565b60405180910390a35060019392505050565b60006040517f23b872dd0000000000000000000000000000000000000000000000000000000081528460048201528360248201528260448201526020600060648360008a5af13d15601f3d116001600051141617169150508061231d5760405162461bcd60e51b815260206004820152601460248201527f5452414e534645525f46524f4d5f4641494c45440000000000000000000000006044820152606401610cc9565b5050505050565b6001600160a01b0382166000908152600360205260408120805483929061234c908490612de0565b90915550506002805482900390556040518181526000906001600160a01b038416907fddf252ad1be2c89b69c2b068fc378daa952ba7f163c4a11628f55a4df523b3ef906020015b60405180910390a35050565b7f0000000000000000000000000000000000000000000000000000000000000000156124c35760005b8381101561231d5760006124618484848181106123e8576123e8612e23565b90506020028101906123fa9190612f80565b7f000000000000000000000000000000000000000000000000000000000000000089898781811061242d5761242d612e23565b9050602002013560405160200161244691815260200190565b6040516020818303038152906040528051906020012061272a565b9050806124b05760405162461bcd60e51b815260206004820152601460248201527f496e76616c6964206d65726b6c652070726f6f660000000000000000000000006044820152606401610cc9565b50806124bb81612e39565b9150506123c9565b50505050565b80600260008282546124db9190612e10565b90915550506001600160a01b0382166000818152600360209081526040808320805486019055518481527fddf252ad1be2c89b69c2b068fc378daa952ba7f163c4a11628f55a4df523b3ef9101612394565b600080600080600085875af19050806125885760405162461bcd60e51b815260206004820152601360248201527f4554485f5452414e534645525f4641494c4544000000000000000000000000006044820152606401610cc9565b505050565b60006040517fa9059cbb000000000000000000000000000000000000000000000000000000008152836004820152826024820152602060006044836000895af13d15601f3d11600160005114161716915050806124c35760405162461bcd60e51b815260206004820152600f60248201527f5452414e534645525f4641494c454400000000000000000000000000000000006044820152606401610cc9565b600081831061263b5781612064565b5090919050565b60008160000361265457506000919050565b6000600161266184612764565b901c6001901b9050600181848161267a5761267a612d6e565b048201901c9050600181848161269257612692612d6e565b048201901c905060018184816126aa576126aa612d6e565b048201901c905060018184816126c2576126c2612d6e565b048201901c905060018184816126da576126da612d6e565b048201901c905060018184816126f2576126f2612d6e565b048201901c9050600181848161270a5761270a612d6e565b048201901c90506120648182858161272457612724612d6e565b0461262c565b6000831561275c578360051b8501855b803580851160051b9485526020948518526040600020930181811061273a5750505b501492915050565b600080608083901c1561277957608092831c92015b604083901c1561278b57604092831c92015b602083901c1561279d57602092831c92015b601083901c156127af57601092831c92015b600883901c156127c157600892831c92015b600483901c156127d357600492831c92015b600283901c156127e557600292831c92015b600183901c15610a775760010192915050565b60006020828403121561280a57600080fd5b5035919050565b600060208083528351808285015260005b8181101561283e57858101830151858201604001528201612822565b506000604082860101526040601f19601f8301168501019250505092915050565b6001600160a01b038116811461287457600080fd5b50565b6000806040838503121561288a57600080fd5b82356128958161285f565b946020939093013593505050565b6000806000806000608086880312156128bb57600080fd5b85356128c68161285f565b945060208601356128d68161285f565b935060408601359250606086013567ffffffffffffffff808211156128fa57600080fd5b818801915088601f83011261290e57600080fd5b81358181111561291d57600080fd5b89602082850101111561292f57600080fd5b9699959850939650602001949392505050565b60008060006060848603121561295757600080fd5b83356129628161285f565b925060208401356129728161285f565b929592945050506040919091013590565b60008083601f84011261299557600080fd5b50813567ffffffffffffffff8111156129ad57600080fd5b6020830191508360208260051b85010111156129c857600080fd5b9250929050565b6000806000604084860312156129e457600080fd5b833567ffffffffffffffff8111156129fb57600080fd5b612a0786828701612983565b909790965060209590950135949350505050565b600080600080600060608688031215612a3357600080fd5b853567ffffffffffffffff80821115612a4b57600080fd5b612a5789838a01612983565b9097509550602088013594506040880135915080821115612a7757600080fd5b50612a8488828901612983565b969995985093965092949392505050565b600080600060608486031215612aaa57600080fd5b505081359360208301359350604090920135919050565b60008060208385031215612ad457600080fd5b823567ffffffffffffffff811115612aeb57600080fd5b612af785828601612983565b90969095509350505050565b60008060008060008060808789031215612b1c57600080fd5b86359550602087013567ffffffffffffffff80821115612b3b57600080fd5b612b478a838b01612983565b9097509550604089013594506060890135915080821115612b6757600080fd5b50612b7489828a01612983565b979a9699509497509295939492505050565b60008060008060408587031215612b9c57600080fd5b843567ffffffffffffffff80821115612bb457600080fd5b612bc088838901612983565b90965094506020870135915080821115612bd957600080fd5b50612be687828801612983565b95989497509550505050565b600060208284031215612c0457600080fd5b81356120648161285f565b60008060008060608587031215612c2557600080fd5b8435935060208501359250604085013567ffffffffffffffff811115612c4a57600080fd5b612be687828801612983565b60008060408385031215612c6957600080fd5b50508035926020909101359150565b600080600080600080600060e0888a031215612c9357600080fd5b8735612c9e8161285f565b96506020880135612cae8161285f565b95506040880135945060608801359350608088013560ff81168114612cd257600080fd5b9699959850939692959460a0840135945060c09093013592915050565b60008060408385031215612d0257600080fd5b8235612d0d8161285f565b91506020830135612d1d8161285f565b809150509250929050565b600060208284031215612d3a57600080fd5b5051919050565b634e487b7160e01b600052601160045260246000fd5b8082028115828204841417610a7757610a77612d41565b634e487b7160e01b600052601260045260246000fd5b600082612da157634e487b7160e01b600052601260045260246000fd5b500490565b600181811c90821680612dba57607f821691505b602082108103612dda57634e487b7160e01b600052602260045260246000fd5b50919050565b81810381811115610a7757610a77612d41565b600060208284031215612e0557600080fd5b81516120648161285f565b80820180821115610a7757610a77612d41565b634e487b7160e01b600052603260045260246000fd5b60007fffffffffffffffffffffffffffffffffffffffffffffffffffffffffffffffff8203612e6a57612e6a612d41565b5060010190565b6020815281602082015260007f07ffffffffffffffffffffffffffffffffffffffffffffffffffffffffffffff831115612eaa57600080fd5b8260051b80856040850137919091016040019392505050565b600080835481600182811c915080831680612edf57607f831692505b60208084108203612efe57634e487b7160e01b86526022600452602486fd5b818015612f125760018114612f4557612f72565b7fffffffffffffffffffffffffffffffffffffffffffffffffffffffffffffff0086168952841515850289019650612f72565b60008a81526020902060005b86811015612f6a5781548b820152908501908301612f51565b505084890196505b509498975050505050505050565b60008083357fffffffffffffffffffffffffffffffffffffffffffffffffffffffffffffffe1843603018112612fb557600080fd5b83018035915067ffffffffffffffff821115612fd057600080fd5b6020019150600581901b36038213156129c857600080fdfea2646970667358221220847e77ef28c32ec6222932ca40bc1357a671a838b9e25c5559826cd623c9b77064736f6c6343000811003360e06040523480156200001157600080fd5b506040516200134f3803806200134f8339810160408190526200003491620001d5565b806040516020016200004791906200028d565b60405160208183030381529060405281604051602001620000699190620002bc565b60408051601f1981840301815290829052600080546001600160a01b03191633908117825591926012929182917f8be0079c531659141344cd1fd0a4f28419497f9722a3daafe3b4186f6b6457e0908290a3506001620000ca848262000378565b506002620000d9838262000378565b5060ff81166080524660a052620000ef620000fd565b60c05250620004c292505050565b60007f8b73c3c69bb8fe3d512ecc4cf759cc79239f7b179b0ffacaa9a75d522b39400f600160405162000131919062000444565b6040805191829003822060208301939093528101919091527fc89efdaa54c0f20c7adf612882df0950f5a951637e0307cdcb4c672f298b8bc660608201524660808201523060a082015260c00160405160208183030381529060405280519060200120905090565b634e487b7160e01b600052604160045260246000fd5b60005b83811015620001cc578181015183820152602001620001b2565b50506000910152565b600060208284031215620001e857600080fd5b81516001600160401b03808211156200020057600080fd5b818401915084601f8301126200021557600080fd5b8151818111156200022a576200022a62000199565b604051601f8201601f19908116603f0116810190838211818310171562000255576200025562000199565b816040528281528760208487010111156200026f57600080fd5b62000282836020830160208801620001af565b979650505050505050565b60008251620002a1818460208701620001af565b68102628103a37b5b2b760b91b920191825250600901919050565b624c502d60e81b815260008251620002dc816003850160208701620001af565b9190910160030192915050565b600181811c90821680620002fe57607f821691505b6020821081036200031f57634e487b7160e01b600052602260045260246000fd5b50919050565b601f8211156200037357600081815260208120601f850160051c810160208610156200034e5750805b601f850160051c820191505b818110156200036f578281556001016200035a565b5050505b505050565b81516001600160401b0381111562000394576200039462000199565b620003ac81620003a58454620002e9565b8462000325565b602080601f831160018114620003e45760008415620003cb5750858301515b600019600386901b1c1916600185901b1785556200036f565b600085815260208120601f198616915b828110156200041557888601518255948401946001909101908401620003f4565b5085821015620004345787850151600019600388901b60f8161c191681555b5050505050600190811b01905550565b60008083546200045481620002e9565b600182811680156200046f57600181146200048557620004b6565b60ff1984168752821515830287019450620004b6565b8760005260208060002060005b85811015620004ad5781548a82015290840190820162000492565b50505082870194505b50929695505050505050565b60805160a05160c051610e5d620004f260003960006104f4015260006104bf015260006101750152610e5d6000f3fe608060405234801561001057600080fd5b50600436106101005760003560e01c80637ecebe0011610097578063a9059cbb11610066578063a9059cbb1461024c578063d505accf1461025f578063dd62ed3e14610272578063f2fde38b1461029d57600080fd5b80637ecebe00146101e65780638da5cb5b1461020657806395d89b41146102315780639dc29fac1461023957600080fd5b8063313ce567116100d3578063313ce567146101705780633644e515146101a957806340c10f19146101b157806370a08231146101c657600080fd5b806306fdde0314610105578063095ea7b31461012357806318160ddd1461014657806323b872dd1461015d575b600080fd5b61010d6102b0565b60405161011a9190610b11565b60405180910390f35b610136610131366004610b7b565b61033e565b604051901515815260200161011a565b61014f60035481565b60405190815260200161011a565b61013661016b366004610ba5565b6103ab565b6101977f000000000000000000000000000000000000000000000000000000000000000081565b60405160ff909116815260200161011a565b61014f6104bb565b6101c46101bf366004610b7b565b610516565b005b61014f6101d4366004610be1565b60046020526000908152604090205481565b61014f6101f4366004610be1565b60066020526000908152604090205481565b600054610219906001600160a01b031681565b6040516001600160a01b03909116815260200161011a565b61010d610583565b6101c4610247366004610b7b565b610590565b61013661025a366004610b7b565b6105f4565b6101c461026d366004610c03565b61066c565b61014f610280366004610c76565b600560209081526000928352604080842090915290825290205481565b6101c46102ab366004610be1565b6108da565b600180546102bd90610ca9565b80601f01602080910402602001604051908101604052809291908181526020018280546102e990610ca9565b80156103365780601f1061030b57610100808354040283529160200191610336565b820191906000526020600020905b81548152906001019060200180831161031957829003601f168201915b505050505081565b3360008181526005602090815260408083206001600160a01b038716808552925280832085905551919290917f8c5be1e5ebec7d5bd14f71427d1e84f3dd0314c0f7b2291e5b200ac8c7c3b925906103999086815260200190565b60405180910390a35060015b92915050565b6001600160a01b03831660009081526005602090815260408083203384529091528120547fffffffffffffffffffffffffffffffffffffffffffffffffffffffffffffffff8114610425576104008382610d2b565b6001600160a01b03861660009081526005602090815260408083203384529091529020555b6001600160a01b0385166000908152600460205260408120805485929061044d908490610d2b565b90915550506001600160a01b03808516600081815260046020526040908190208054870190555190918716907fddf252ad1be2c89b69c2b068fc378daa952ba7f163c4a11628f55a4df523b3ef906104a89087815260200190565b60405180910390a3506001949350505050565b60007f000000000000000000000000000000000000000000000000000000000000000046146104f1576104ec610997565b905090565b507f000000000000000000000000000000000000000000000000000000000000000090565b6000546001600160a01b031633146105755760405162461bcd60e51b815260206004820152600c60248201527f554e415554484f52495a4544000000000000000000000000000000000000000060448201526064015b60405180910390fd5b61057f8282610a31565b5050565b600280546102bd90610ca9565b6000546001600160a01b031633146105ea5760405162461bcd60e51b815260206004820152600c60248201527f554e415554484f52495a45440000000000000000000000000000000000000000604482015260640161056c565b61057f8282610a9d565b33600090815260046020526040812080548391908390610615908490610d2b565b90915550506001600160a01b038316600081815260046020526040908190208054850190555133907fddf252ad1be2c89b69c2b068fc378daa952ba7f163c4a11628f55a4df523b3ef906103999086815260200190565b428410156106bc5760405162461bcd60e51b815260206004820152601760248201527f5045524d49545f444541444c494e455f45585049524544000000000000000000604482015260640161056c565b600060016106c86104bb565b6001600160a01b038a811660008181526006602090815260409182902080546001810190915582517f6e71edae12b1b97f4d1f60370fef10105fa2faae0126114a169c64845d6126c98184015280840194909452938d166060840152608083018c905260a083019390935260c08083018b90528151808403909101815260e0830190915280519201919091207f19010000000000000000000000000000000000000000000000000000000000006101008301526101028201929092526101228101919091526101420160408051601f198184030181528282528051602091820120600084529083018083525260ff871690820152606081018590526080810184905260a0016020604051602081039080840390855afa1580156107ef573d6000803e3d6000fd5b5050604051601f1901519150506001600160a01b038116158015906108255750876001600160a01b0316816001600160a01b0316145b6108715760405162461bcd60e51b815260206004820152600e60248201527f494e56414c49445f5349474e4552000000000000000000000000000000000000604482015260640161056c565b6001600160a01b0390811660009081526005602090815260408083208a8516808552908352928190208990555188815291928a16917f8c5be1e5ebec7d5bd14f71427d1e84f3dd0314c0f7b2291e5b200ac8c7c3b925910160405180910390a350505050505050565b6000546001600160a01b031633146109345760405162461bcd60e51b815260206004820152600c60248201527f554e415554484f52495a45440000000000000000000000000000000000000000604482015260640161056c565b600080547fffffffffffffffffffffffff0000000000000000000000000000000000000000166001600160a01b0383169081178255604051909133917f8be0079c531659141344cd1fd0a4f28419497f9722a3daafe3b4186f6b6457e09190a350565b60007f8b73c3c69bb8fe3d512ecc4cf759cc79239f7b179b0ffacaa9a75d522b39400f60016040516109c99190610d3e565b6040805191829003822060208301939093528101919091527fc89efdaa54c0f20c7adf612882df0950f5a951637e0307cdcb4c672f298b8bc660608201524660808201523060a082015260c00160405160208183030381529060405280519060200120905090565b8060036000828254610a439190610e14565b90915550506001600160a01b0382166000818152600460209081526040808320805486019055518481527fddf252ad1be2c89b69c2b068fc378daa952ba7f163c4a11628f55a4df523b3ef91015b60405180910390a35050565b6001600160a01b03821660009081526004602052604081208054839290610ac5908490610d2b565b90915550506003805482900390556040518181526000906001600160a01b038416907fddf252ad1be2c89b69c2b068fc378daa952ba7f163c4a11628f55a4df523b3ef90602001610a91565b600060208083528351808285015260005b81811015610b3e57858101830151858201604001528201610b22565b506000604082860101526040601f19601f8301168501019250505092915050565b80356001600160a01b0381168114610b7657600080fd5b919050565b60008060408385031215610b8e57600080fd5b610b9783610b5f565b946020939093013593505050565b600080600060608486031215610bba57600080fd5b610bc384610b5f565b9250610bd160208501610b5f565b9150604084013590509250925092565b600060208284031215610bf357600080fd5b610bfc82610b5f565b9392505050565b600080600080600080600060e0888a031215610c1e57600080fd5b610c2788610b5f565b9650610c3560208901610b5f565b95506040880135945060608801359350608088013560ff81168114610c5957600080fd5b9699959850939692959460a0840135945060c09093013592915050565b60008060408385031215610c8957600080fd5b610c9283610b5f565b9150610ca060208401610b5f565b90509250929050565b600181811c90821680610cbd57607f821691505b602082108103610cf6577f4e487b7100000000000000000000000000000000000000000000000000000000600052602260045260246000fd5b50919050565b7f4e487b7100000000000000000000000000000000000000000000000000000000600052601160045260246000fd5b818103818111156103a5576103a5610cfc565b600080835481600182811c915080831680610d5a57607f831692505b60208084108203610d92577f4e487b710000000000000000000000000000000000000000000000000000000086526022600452602486fd5b818015610da65760018114610dd957610e06565b7fffffffffffffffffffffffffffffffffffffffffffffffffffffffffffffff0086168952841515850289019650610e06565b60008a81526020902060005b86811015610dfe5781548b820152908501908301610de5565b505084890196505b509498975050505050505050565b808201808211156103a5576103a5610cfc56fea2646970667358221220271ac5991af75f2356d2f071bd3392a2e11d82cec691ff56b50dab898e3b3afa64736f6c63430008110033a26469706673582212202da4c86da0a905f71779c93ffb0c8b6116cac2078e84a67c846678f6666a382c64736f6c63430008110033",
  "linkReferences": {},
  "deployedLinkReferences": {}
}